:1000000000000320D101000079690100316901007D
:100010003169010031690100316901003169010074
:10002000316901003169010031690100796901001C
:100030007969010031690100A58A0100A98A0100DE
:100040007969010079690100796901007969010024
:100050007969010079690100796901007969010014
:100060007969010079690100796901007969010004
:1000700079690100796901007969010079690100F4
:1000800079690100796901007969010079690100E4
:1000900079690100796901007969010079690100D4
:1000A00029300100353001007969010079690100CA
:1000B00079690100796901007969010079690100B4
:1000C00079690100796901007969010079690100A4
:1000D00079690100C573010079690100796901003E
:1000E0007969010079690100796901007969010084
:1000F0007969010079690100796901007969010074
:100100007969010079690100796901007969010063
:10011000796901005176010079690100796901006E
:100120007969010079690100796901007969010043
:100130007969010079690100796901007969010033
:100140005988010079690100796901007969010024
:100150007969010079690100796901007969010013
:100160007969010079690100413001007969010074
:1001700079690100796901007969010079690100F3
:1001800079690100796901007969010079690100E3
:1001900079690100796901007969010079690100D3
:1001A00079690100796901007969010079690100C3
:1001B00079690100796901007969010079690100B3
:1001C00079690100796901007969010079690100A3
:1001D0005C4B4CF2205210B51A804DF628121A8052
:1001E00000BF00BF16F0CCFB574B4FF030621A60D7
:1001F000564A9A60564ADA60564B4FF470021A60BB
:10020000554B564A1A60564B1A78110703D51A787F
:1002100042F008021A70534B5349AA221A70534AEB
:10022000534B8B4204D252F8040F43F8040BF8E707
:10023000504B514900228B4202D243F8042BFAE77B
:100240004E494F4A002352F8230041F8230001335E
:10025000742BF8D14B4B4C4A802103F8011B93427D
:10026000FBD14A4B454A1A60494B8A221A70A3F5C2
:10027000805324225A70A0221A709A799207FCD5D2
:100280009A79D406FCD4434A937903F00C03082BE3
:10029000FAD1414B60221A7002331A78802AFCD1BD
:1002A0003C4B01221A715D225A719A799006FCD555
:1002B0009979384A4906FBD5384B394919600021EC
:1002C000596020231370937903F00C030C2BFAD19F
:1002D000344B354A1A60354A354C136813F4807331
:1002E00003D123604FF4A8531360324B324A1A6093
:1002F00000225A60072243F8042C304AC3F80C2D20
:1003000062B616F0FFFC2368DA0705D52C4816F014
:1003100089FC2C4B2C4A1A602C4B1B785B0609D5A8
:10032000284C294B22689A4204D1254816F07AFCC1
:10033000002323601EF064FC16F028FB18F0F4FD87
:10034000FEE700BF0E20054030800440823F0400DD
:100350000100002B88ED00E0002008E0030000858C
:1003600002D0074000E007407851FF1FFCCF030098
:10037000302FFF1F7851FF1FAC370020002AFF1FCE
:100380000000000000E400E064E400E008ED00E0AC
:10039000005006400040064001E007404480044011
:1003A0000000060204800440C010070010D0034083
:1003B00014D0034014E000E01FBF02000000202022
:1003C00010E79B5F1CE00340A5C3945A00F0074070
:1003D000FFFFFFFFFFFFFFFFFFFFFFFFFFFFFFFF2D
:1003E000FFFFFFFFFFFFFFFFFFFFFFFFFFFFFFFF1D
:1003F000FFFFFFFFFFFFFFFFFFFFFFFFFFFFFFFF0D
:10040000FFFFFFFFFFFFFFFFFFFFFFFFDEF9FFFF23
:1004100010B5054C237833B9044B13B10448AFF33E
:1004200000800123237010BD7851FF1F00000000E1
:10043000F8CF0300084B10B51BB108490848AFF3CB
:1004400000800848036803B910BD074B002BFBD0A0
:10045000BDE81040184700BF000000007C51FF1F9E
:10046000F8CF03007851FF1F00000000014B052268
:100470001A8070476473FF1F704700BF10B50446B1
:10048000006808B118F05AFD204610BD30B5084884
:10049000084CB0F90C3083B000210E22019100927B
:1004A0000125B9225021257013F064FF03B030BD3F
:1004B000D8E5FF1F6340FF1F70B5064C04F50676B4
:1004C000651C14F8011F601B16F004FAB442F8D141
:1004D00070BD00BFD734FF1F08B50E4B0E48012278
:1004E0001A700EF0B3F868B10C4B02221A801EF09D
:1004F00077FB0B4A0B4B108000221A800A4B00221C
:100500001A7008BD074B42F20F721A80064B002288
:100510001A7008BD98EEFF1F9CEEFF1F38070020E1
:1005200010E6FF1FB23BFF1F6240FF1F10B50446DD
:1005300018F03CF9204610BD08B50121002016F046
:1005400083FB00210120BDE8084016F07DBB00BF01
:1005500008B50121242016F077FB00212320BDE8F7
:10056000084016F071BB00BF08B50021272016F027
:100570006BFB0121262016F067FB00212520BDE83A
:10058000084016F061BB00BF704700BF704700BF56
:1005900038B5094A094B0A4C0A4911600025042262
:1005A0000948257014211A8017F0CCFE0748BDE8D1
:1005B000384018F047BB00BF4074FF1F7A52FF1F3E
:1005C00098EEFF1F0AD7233CC04C02001847FF1FBC
:1005D000F0B5274F274A3B78012111709A0783B065
:1005E00020D5254D2B88B3B1244E002406EB84037F
:1005F000D3ED007A2248FCEEE77A0134CDED017AA2
:10060000BDF8041018F06EFB1D4818F01BFB2B887A
:10061000A4B2A342EAD804211A4817F093FE17F0B7
:1006200045FF3B78DB0720D5134D2B88B3B1134E24
:10063000002406EB8403D3ED007A1348FCEEE77A3E
:100640000134CDED017ABDF8041018F04BFB0E48D3
:1006500018F0F8FA2B88A4B2A342EAD8094804217A
:1006600003B0BDE8F04016F00BBE03B0F0BD00BF14
:100670003030FF1F98EEFF1FAC3BFF1F3C55FF1FA4
:100680001847FF1FD84C02000047FF1FF8B512485B
:100690000DF0DCFF88B11EF0A3FA104DA8816C1E8E
:1006A00005F2172614F8011F0C4F601B16F012F903
:1006B000B442F7D10A4B1B7803B9F8BD10210948A1
:1006C00017F040FEB989084818F00CFB0648BDE851
:1006D000F84018F0B7BA00BF9CEEFF1FD834FF1FD8
:1006E000060A0020E04C02001847FF1F10B5082141
:1006F000154817F027FE00230A224FF4067113480D
:1007000018F0B0FA1C21124817F01CFE0F4818F020
:1007100099FA002421460D4818F0E4FA01210D4809
:1007200017F010FE204616F0BBF8002301460A22FF
:10073000064818F097FA0134044818F083FAB4F523
:10074000067FE7D110BD00BFF44C02001847FF1F21
:10075000004D0200204D020070B5124C124EA389CC
:1007600082B000250E22503B1BB220468DE82400AB
:100770005021B922357013F0FDFD20464FF6FF7170
:1007800015F014FE094BE3612046B922912115F0C2
:10079000F1FD07492046192202B0BDE8704018F06B
:1007A0003BBA00BFD8E5FF1F6340FF1FB49D0200A6
:1007B000244D020010B50E4C23789A070FD4DB07A6
:1007C00000D410BD01210B4816F05AFD0A4818F05C
:1007D00039FA04210948BDE8104016F051BD09213D
:1007E000074817F0AFFD074818F02CFA2378E6E722
:1007F0003030FF1F484D02000047FF1FD84C020059
:10080000404D02001847FF1F10B5114C23789A077E
:100810000FD4DB0700D410BD0B210E4816F030FDBD
:100820000D4818F00FFA04210C48BDE8104016F0EE
:1008300027BD0B21074817F085FD094818F002FA7B
:100840000421064817F07EFD17F030FE2378E0E71C
:100850003030FF1F4C4D02000047FF1FD84C0200F4
:100860001847FF1F30B51E4C83B00025A122B4F9F4
:100870000C300092204629462622019513F07AFD7D
:1008800020464FF6E07115F091FD164BE3612946C5
:1008900020463C2215F06EFD20461622124918F023
:1008A000BBF9124B5A8A03EB820358691DF026FBF1
:1008B00041EC100B2046022118F01EFA20460522BA
:1008C0000B4918F0A9F9294620465A2215F052FD85
:1008D00008492046292203B0BDE8304018F09CB9F1
:1008E000D8E5FF1FB08A0200584D0200D834FF1F20
:1008F000A4700200704D020010B51B4C1B4A2378F7
:10090000012111709A0717D4DB0700D410BD05210F
:10091000174816F0B5FC5121164818F0E3F90921E3
:10092000154816F0ADFC134818F08CF90421134853
:10093000BDE8104016F0A4BC0321114817F002FDD9
:100940005121104818F0CEF909210B4817F0FAFC94
:100950000C4818F077F90421084817F0F3FC17F059
:10096000A5FD2378D0E700BF3030FF1F98EEFF1FB2
:10097000AC4D02000047FF1FA04D0200D84C020002
:100980009C4D02001847FF1F70B5234C2348237865
:100990002349244D0022012602700A709A072E7006
:1009A0001DD4DB0700D470BD09211F4816F068FC78
:1009B0001E4818F047F90C211D4816F061FC1B4831
:1009C00018F040F917211B4816F05AFC174818F088
:1009D00039F904211848BDE8704016F051BC0921CE
:1009E000114817F0AFFC154818F02CF90C211048ED
:1009F00017F0A8FC114818F025F917210D4817F039
:100A0000A1FC0E4818F01EF904210B4817F09AFCBF
:100A100017F04CFD2378C4E73030FF1FD434FF1F9C
:100A2000060A002098EEFF1FB44D02000047FF1F8A
:100A3000C04D0200D04D0200D84C02001847FF1FE5
:100A400010B50F480DF002FE48B10E4904461EF0E5
:100A5000ABFF88B120460C491EF0A6FF00B110BDC7
:100A60000A4B0B48012212211A7017F06BFC09483F
:100A7000BDE8104018F0E6B8044B187010BD00BF78
:100A80009CEEFF1F88C50300F06A0200D434FF1FEC
:100A9000E84D02001847FF1F70B5324E3248334D03
:100AA000334C032117F04EFC338803EB430305EB73
:100AB000031318681DF022FA41EC100B20460321A5
:100AC00018F01AF904212B4817F03CFC2A4B204659
:100AD00093ED000B022118F00FF90521274817F0BC
:100AE00031FC274B204693ED000B022118F004F94E
:100AF0000521244817F026FC234B204693ED000BDC
:100B0000022118F0F9F80621204817F01BFC204BB1
:100B1000204693ED000B022118F0EEF809211D4844
:100B200017F010FC338803EB430305EB031393ED3D
:100B3000040B2046052118F0DFF80821164817F0AD
:100B400001FC338803EB430305EB031595ED060B1E
:100B50002046022118F0D0F82046BDE8704018F079
:100B600071B800BF1CE6FF1FFC4D02006830FF1F7C
:100B70001847FF1F004E0200D872FF1F084E0200E8
:100B800040070020104E0200D072FF1F184E0200D6
:100B9000C872FF1F204E02002C4E0200F0B51F4B02
:100BA0001F4885B000221A700DF050FD88B11EF06C
:100BB00017F81C4D80B2288008B31B4B1B4F0FCB7E
:100BC0006C4607C423701A4B1B7802226E463A808B
:100BD0000BB905B0F0BD0C21164817F0B3FB2988FE
:100BE000154818F07FF830461FF0AAF80146304645
:100BF00017F0A8FB104818F025F805B0F0BD0F4B12
:100C00000A4F0FCB6C4607C42380094B1B78012287
:100C10006E463A80002BDCD0DDE700BF98EEFF1F68
:100C20009CEEFF1F74C2FF1F484E02007A52FF1F46
:100C3000060A0020584E02001847FF1F384E0200D7
:100C4000F0B5314A314C324EB4F90C3083B0002546
:100C5000A12106278DE8220020462946178026225A
:100C600013F088FB20464FF6E07115F09FFB2946F4
:100C700020462622E66115F07DFB204624222549E8
:100C800017F0CAFF294620463E2215F073FB224B7F
:100C90002249E36120462F2217F0BEFF2946204655
:100CA000562215F067FB204629221D4917F0B4FF94
:100CB000294620466E2215F05DFB20461422194974
:100CC00017F0AAFF29462046862215F053FB20463E
:100CD0002422154917F0A0FF294620469E2215F030
:100CE00049FB20462C22114917F096FF2946204641
:100CF000B62215F03FFB20462E220D4917F08CFF3F
:100D0000E66103B0F0BD00BF6473FF1FD8E5FF1FAD
:100D1000B08A0200684E020014C30200904E020026
:100D2000C04E0200EC4E0200044F02002C4F0200A5
:100D30005C4F0200F0B5314A314C324EB4F90C3000
:100D400083B00025A12106278DE8220020462946F0
:100D50001780262213F00EFB20464FF6E07115F0A7
:100D600025FB294620462622E66115F003FB204696
:100D70002322254917F050FF244BE36129462046E2
:100D80003E2215F0F7FA20462A22214917F044FFA7
:100D900029462046562215F0EDFA20461E221D490E
:100DA00017F03AFF294620466E2215F0E3FA204656
:100DB0001B22194917F030FF29462046862215F0DC
:100DC000D9FA20462522154917F026FF2946204644
:100DD0009E2215F0CFFA20461622114917F01CFF6B
:100DE00029462046B62215F0C5FA20462D220D4987
:100DF00017F012FFE66103B0F0BD00BF6473FF1F80
:100E0000D8E5FF1FB08A02008C4F020014C3020015
:100E1000B04F0200DC4F0200FC4F020018500200ED
:100E200040500200585002002DE9F041584B594AF9
:100E30001B884FF6FE710E2B82B0118057D0DFF861
:100E40007C81554F554C564EB4F90C300025C822C4
:100E50002046019529460092262213F08BFA20465F
:100E60004FF6E07115F0A2FA294620462622E661E7
:100E700015F080FA204601224A494B4D17F0CCFE6E
:100E800020463C22142115F075FA204618224749C5
:100E900017F0C2FE3A222046D22115F06BFAD8F89C
:100EA0000000E5611DF02AF841EC100B20460221FC
:100EB00017F022FF20465A221421E66115F05AFA53
:100EC000204615223A4917F0A7FE20465822D22183
:100ED00015F050FA3868E5611DF010F841EC100B80
:100EE0002046022102B0BDE8F04117F005BF314BAA
:100EF0001B88012B34D0022B0DD0032B21D1264F80
:100F0000DFF8B880D7ED007AB1EE047A77EE877A11
:100F1000C7ED007A96E7DFF8A480D8ED007AB1EE4D
:100F2000047AF4EEC77AF1EE10FA08DDF2EE066A02
:100F3000F4EEE67AF1EE10FA24DC88ED007A164F32
:100F400080E7042B7FF47BAF134FDFF87080D7ED81
:100F5000007AB1EE047A77EEC77AC7ED007A71E7CE
:100F6000DFF85880D8ED007AB3EE047AF4EEC77A51
:100F7000F1EE10FAE3D5F2EE026AF4EEE67AF1EE63
:100F800010FADAD50C4BC8F80030034F5AE700BF0F
:100F9000E072FF1FC46EFF1F34A7FF1FD8E5FF1FBD
:100FA000B08A02006C60020000B4020088500200A7
:100FB000A45002006673FF1F00002041D034FF1FC1
:100FC00010B50E480DF042FB70B11DF009FE04464D
:100FD0000A480DF03BFB38B11DF002FEC1B2A0B2D1
:100FE000BDE8104015F076BC2B21054817F0AAF992
:100FF0000448BDE8104017F025BE00BF9CEEFF1F5F
:10100000BC5002001847FF1F10B516480DF01EFB1C
:1010100078B1154904461EF0C7FC58B12046134963
:101020001EF0C2FC28B9124B124A1B780121117024
:101030007BB910BD0E4B0F4A1B781070002BF8D0F7
:101040000B210D4817F07EF90C48BDE8104017F051
:10105000F9BD0F210A4817F075F90848BDE810409E
:1010600017F0F0BD9CEEFF1F88C50300F06A020078
:10107000D434FF1F060A0020E85002001847FF1F63
:10108000F4500200FFFFFFFF2DE9F84F6A4D05F510
:101090000676AA462C46601B15F002FC04F8010BEC
:1010A000B442F8D1DFF8CC81644E08F1700708F142
:1010B000E00908F5A87BBE464C46584641463346F3
:1010C0000022B1EC026BBEEC027B83ED046B83ED7E
:1010D000067BB4EC026BB0EC027B0832702A83ED25
:1010E000086B83ED0A7B03F13003EAD11B215448DE
:1010F00017F028F900230A229AF80012514817F035
:10110000B1FD504817F09EFD9AF80032452B60D88B
:101110004D4A9FED456B9FED467BA2F17000A2F119
:10112000E001A2F5A873A3EC026B9F42A1EC027B45
:10113000A0EC026BA2EC027BF5D146233B223121CD
:1011400042488AF800328AF8002017F0FBF83D4840
:1011500017F078FD4A213E4817F0F4F8394817F0A7
:1011600071FD9AF800324F2B35D93A4C04F5067AC6
:1011700014F8011F601B15F0ADFB5445F8D1002396
:10118000B8EC026BB7EC027BF9E80245FBE8020120
:101190000833702B86ED046B86ED067BC6E90845A7
:1011A000C6E90A0106F13006EAD10F212A4817F0F4
:1011B000C9F800230A224FF40671224817F052FDA5
:1011C0000621264817F0BEF81E48BDE8F84F17F074
:1011D00039BD4F2BD3D8224A224BCAF80C22CAF869
:1011E00010324FF4A07240F6BA63AAF80222AAF8AD
:1011F0000422AAF806321C4AAAF8083234215123E4
:101200001A48CAF814228AF8003217F09BF80D48E1
:1012100017F018FD2E21164817F094F8094817F01A
:1012200011FDA2E7AFF30080000000000000F03FD6
:101230000000000000000000D834FF1F6830FF1FCE
:10124000045102001847FF1F6836FF1F205102009B
:1012500054510200D734FF1F0852020018520200F6
:101260003A23CA3FCA2F673700009040A0510200BE
:10127000D85102001835FF1F70B524488CB00DF00E
:10128000E5F940B31DF0ACFC214D85F838001F484E
:101290000DF0DCF918B11DF0A3FC85F839001B48EE
:1012A0000DF0D4F918B11DF09BFC85F83A001748F1
:1012B0000DF0CCF918B11DF093FC85F83B00154CEE
:1012C00004F5067614F8011F601B15F003FBB44209
:1012D000F8D10CB070BD0E480F4990F8393090F835
:1012E000382090F83B4090F83A008DE8110003A8B0
:1012F0001EF09AFA03A81EF023FD014603A817F07A
:1013000021F8064817F09EFC0CB070BD9CEEFF1F44
:10131000D834FF1FD734FF1F205202001847FF1F89
:1013200010B52D480DF092F9C8B12C4904461EF0B5
:101330003BFBA8B92A4B2B4A1B781070002B43D1DA
:1013400025480DF083F9044648B124491EF02CFBD2
:10135000D8B9234B244A1B781070002B2BD110BD19
:10136000204622491EF020FB0028E9D11C4B1D4AD3
:101370001B7801211170002BE2D013211C4816F0BC
:10138000E1FF1C4817F05EFCDAE7204617491EF023
:101390000BFB0028E3D1124B134A1B78012111707B
:1013A000002BDCD01521144816F0CCFF1148BDE805
:1013B000104017F047BC1921104816F0C3FF0D4824
:1013C000BDE8104017F03EBC17210D4816F0BAFFDB
:1013D000084817F037FCB3E79CEEFF1F88C50300F1
:1013E000D434FF1F6440FF1FA842FF1FF06A0200B1
:1013F000585202001847FF1F885202006C52020028
:1014000040520200FFFFFFFF70B569480DF01EF962
:10141000002850D01DF0E0FB5FA3D3E9002351EC7E
:10142000100B1CF0BFFD1DF0B5F8624D68626048FE
:101430000DF00CF930B11DF0CFFB51EC100B1DF08D
:10144000A9F8A8625A480DF001F958B11DF0C4FB83
:1014500053A3D3E9002351EC100B1CF0A3FD1DF0A6
:1014600099F8E86252480DF0F1F830B11DF0B4FB84
:1014700051EC100B1DF08EF828634D480DF0E6F886
:1014800058B11DF0A9FB48A3D3E9002351EC100B80
:101490001CF088FD1DF07EF868634548464C0DF051
:1014A000D5F804F5067614F8011F601B15F012FA42
:1014B000B442F8D170BD0446172140483D4D16F0A6
:1014C00041FF3F4817F0BEFB0F213E4816F03AFFA0
:1014D00095ED097ADFED3C7A67EE277A17EE900AF0
:1014E0001CF00CFD41EC100B0121354817F004FCF9
:1014F000334817F0A7FB0F21344816F023FFA86AE2
:101500001CF0FCFC41EC100B21462D4817F0F4FBBD
:101510002B4817F097FB0F212D4816F013FF95ED80
:101520000B7ADFED2C7A67EE277A17EE900A1CF023
:10153000E5FC41EC100B0321214817F0DDFB2048AE
:1015400017F080FB0F21244816F0FCFE286B1CF0DE
:10155000D5FC41EC100B0421194817F0CDFB1848BD
:1015600017F070FB0F211D4816F0ECFE95ED0D7A7B
:10157000DFED1B7A67EE277A17EE900A1CF0BEFCAF
:1015800041EC100B01210E4817F0B6FB0C48BDE8EA
:10159000704017F057BB00BF000000809997713D65
:1015A000000000A0F7C6B03E000000E00B2E113E88
:1015B0009CEEFF1FD834FF1FD734FF1FA05202003C
:1015C0001847FF1FB8520200A5D46853C852020042
:1015D000D852020000247449E8520200F852020076
:1015E000286B6E4E2DE9F04F9F4BDFF894B29F4A67
:1015F0001B681268DBF800109D482DED048B023348
:1016000087B01BB2013A05390024009312B209B227
:1016100001944FF4837312F0ADFE4FF62055934BB7
:10162000DBF800101A68924800952244053912B27E
:10163000283409B240F2031312F0F4FCC82CEED1A6
:1016400014244FF62055894BBBF900101A688848BE
:101650000095224412B22834FE2312F0E3FCB42C8D
:10166000F1D19FED848A9FED849A0624F6EE008ADC
:1016700078EE287ADBF800307C4A7D48B2F9002009
:10168000FDEEE77A4FF6205517EE901A194409B28D
:101690000095A52312F0B6FC013C38EE098AE7D18B
:1016A0009FED768ADFED748A0627F6EE007A78EEF3
:1016B000277ADBF800306D4A6D48B2F900206B4D97
:1016C0006F4CFDEEE77A4FF6205617EE901A19444C
:1016D00009B20096A02312F095FC013F38EE288A4B
:1016E000E3D12368B5F900206148009603F1FF01BA
:1016F00009B2A023634E039612F084FC23682A6883
:101700005B48009703F12B01023212B209B2102399
:1017100012F078FC21682A68554800970232EB31B4
:1017200012B209B2102312F06DFCDFED578A9FED63
:10173000578ADFF85CA13C463A4619E0DBF8001016
:101740004B48A4B231442B1B621C4FF6FF761BB2F0
:1017500012B209B2009612F055FC039B0137023316
:10176000FE2F03930AF1020A00F0948044464A4691
:10177000BEB2B31EFC2B40F2C381039BBAF900E05A
:10178000B3F90050384B1868384B00F10108C645D2
:101790001FFA80FC1868C4BF0CF1010E0FFA8EFE10
:1017A0000138A845B8BF0CF10105604481B2B8BF4B
:1017B0002DB2CEEB010E4D1B1FFA8EFEADB20FFA0D
:1017C0008EF90FFA85F8002F00F09781C2EB09031C
:1017D000C4EB0801012B049121DDDBF80010244843
:1017E00092B2C2EB0E03314401324FF0000C1BB237
:1017F00012B209B2CDF800C012F004FC049B012B18
:101800009CDC049BDBF800101948013313DB3144E6
:1018100009B24FF6FF73424612F068FA9DE70133B2
:1018200014DBDBF800101248314409B200234A46A9
:1018300012F05CFAE2E7631B31444FF6FF7200924C
:101840001BB209B2424612F0DDFB86E7DBF800105E
:101850000748CEEB02033144002200921BB209B2CA
:101860004A4612F0CFFBC9E72C30FF1F3830FF1F6C
:10187000D8E5FF1F00000000ACAA2A42A9AAAA418D
:101880003430FF1F7C52FF1FEC51383E295C8F3DE6
:10189000E404002015224621CC4814F06BFDCC4B0B
:1018A000CC4AD3ED007A92ED857A77EE277A17EE5F
:1018B000900A1CF023FB41EC100B0221C34817F0E7
:1018C0001BFA15224FF48271C04814F053FDC24B2D
:1018D000D3ED007AF5EEC07AF1EE10FA40F307810D
:1018E00017EE900A1CF00AFB41EC100B0121B748DF
:1018F00017F002FAB94BBA4A03F5007033F8021F29
:1019000022F8021F9842F9D1B64B1B78002B00F049
:10191000E9804FF6FF71AD48B34DB44E9FEDB48AE8
:1019200014F044FDA948B34BC3612422F02114F004
:1019300021FD0822B049A54817F06EF92E22F021AA
:10194000A24814F017FD0422AC49A04817F064F92E
:101950002E2240F213119D4814F00CFD96ED007AF2
:10196000D5ED007A77EEC77A4FF4FC6477EE887A8B
:1019700017EE900A1CF0C2FA41EC100B01219348BB
:1019800017F0BAF93822F021904814F0F3FC0A223B
:101990009B498E4817F040F9382240F213118B48CA
:1019A00014F0E8FC4222F021884814F0E3FC0A22FB
:1019B0009449864817F030F94C2240F213118348BD
:1019C00014F0D8FCD6ED006AD5ED007A9FED8E7A42
:1019D00077EEE67A4FF4784577EE887A77EEC77A35
:1019E00017EE900A1CF08AFA41EC100B012177489F
:1019F00017F082F95622F021744814F0BBFC05223E
:101A00008249724817F008F9562240F213116F48C4
:101A100014F0B0FC7E4BD6ED006AD3ED007A9FED5A
:101A20007D7A77EEE67A77EEC77A17EE900A1CF0A9
:101A300065FA41EC100B0121644817F05DF9764B13
:101A400062481A68DBF80030009403F10D019E3201
:101A500012B209B21C2312F0E5FA6F4B5B481A6808
:101A6000DBF80030009503F129019E3212B209B271
:101A7000042312F0D7FA684B54481A68DBF8003098
:101A8000009403F12D019E3212B209B2802312F0AC
:101A9000C9FA614B4D481A68DBF80030009403F135
:101AA0000D019F3212B209B21C2312F0BBFA5A4B3D
:101AB00046481A68DBF80030009503F129019F328F
:101AC00012B209B2042312F0ADFA534BDBF8001046
:101AD0001A683E4800949F322D3112B209B2802319
:101AE00012F0A0FA07B0BDEC048BBDE8F08F042221
:101AF0004A49364817F090F8FCE64446049790E6C9
:101B0000474BB3F90030002B3FF437AE039931F95E
:101B1000023C07EE103A3AF9023C07EE903AB1F96E
:101B2000003006EE903ABAF90030B8EEC77A05EE0A
:101B3000903AF8EEE77AB1F90230F8EEE66A06EE8E
:101B4000103AF8EEE55ABAF9023027EE287A67EE35
:101B5000A87AF6EE004AA6EEA47A05EE103AE5EE73
:101B6000A47A31F9043CB8EEC66A06EE903AB8EEB3
:101B7000C55A3AF9043CA6EE287A05EE903AE5EE0D
:101B8000287AB1F90430F8EEE66A06EE103AF8EE7B
:101B9000E55ABAF90430A6EE887AE5EE887A06EEC0
:101BA000903AB8EEC66AF8EEE66AA6EE087AE6EE75
:101BB000887ABDEEC77AFDEEE77A8DED047ACDED39
:101BC000057ABDF91050BDF914E0DBE5D8E5FF1F3B
:101BD000B0DCFF1FD834FF1F9CBFFF1F7A52FF1FCE
:101BE000E20400207CDBFF1FE0DCFF1FE8DCFF1FBE
:101BF00046B6A141B49D0200105302001C530200DE
:101C00002453020030530200713DAC413C530200AA
:101C10003855FF1F31082C3D3830FF1F0853020094
:101C2000C8DDFF1F2DE9F04FD44FD54C3B88D54E72
:101C300004EB43132DED068B9B8A00EE103A83B024
:101C4000B8EE400A18F0BAFDCF48D04BD04A036036
:101C500006F50065B1463346D3ED007AB2EC017A61
:101C600077EE877AE3EC017AAB42F5D1DFF8748343
:101C70003A88B8F8003004EB42120133928A9BB2E2
:101C80009A42A8F8003000F221819FEDC27ABD4A45
:101C900080ED007A00218A460B46F2EC017AF4EEE0
:101CA000C77AF1EE10FA04DDB0EE677A1FFA83FA14
:101CB00001210133B3F5007FEFD1002940F01982F3
:101CC000B2EE04AABAF1010F60EE0A9A40F29481D2
:101CD000BAF5FF7FC0F01181AF4BB04AD3ED007A67
:101CE00093ED010A09EB8A0337EE800A13ED019A9E
:101CF000D3ED008A82ED000A18F060FDB1EEC98ACA
:101D0000A74BF0EE697AD0EE0A7AB4EE488AF1EE8B
:101D100010FAC3ED007A40F0EF81B1EEE80AB4EEBC
:101D2000400AF1EE10FA40F0EE81BAF5FF7FF0EED6
:101D3000408A40F2ED81DFED9B7AB4EEE78AF1EE66
:101D400010FA40F1C88088EEA77A3B88964A04EBE7
:101D50004314B0EE006AF7EE006A36EE476A77EE9B
:101D6000266A07EE90AA86EE267AF8EE677AD4ED18
:101D7000005A9FED8E6ADFED8E6A99ED009AD9EDDB
:101D8000018A77EE277A39EE288A67EEA57AE7EEA0
:101D9000866AC2ED006A874B9FED7E0A03F1E4027A
:101DA000F3EC017A9A4230EE270AF9D1824B03F51F
:101DB0007F72F3EC017A934230EE270AF9D17F4B20
:101DC000019383ED000A18F0F9FC99ED547AD9EDEE
:101DD000557AD9ED566ADFF810A2794A794C7A4FD4
:101DE0009FED7AAADFF804B2DFF8049277EE277A43
:101DF000F2EE048A77EEA67A20EE287AB0EE670A31
:101E000082ED007ACAED007A18F0D8FC019B9AEDB9
:101E1000007AD3ED007A6E4A6E4BDFF8D8A177EEE8
:101E2000877A20EE287AB0EE670AC3ED007A82ED59
:101E3000007A18F0C3FC684B20EE280A83ED000AF4
:101E40002CE09AED858A18F0B9FCF2EE047AA0EE47
:101E5000278A38EE697ADBED007AD9ED006A77EEF1
:101E6000277AB3EE046A67EE867A083487EEA67A9C
:101E7000023777EE0A7AFDEEE77ACDED017ABDF909
:101E80000430002BB8BF0023AC4227F8023C0FD02F
:101E900014ED029A54ED018A39EE288AB5EEC08A13
:101EA000F1EE10FAB0EE480ACBDC9FED4C7AD2E7A7
:101EB000002346F8043BAE42FBD1494BB3F9003056
:101EC000022B00F0EC800023A8F8003003B0BDEC3A
:101ED000068BBDE8F08F40F2FF139A4500F0B68004
:101EE000B4EEE78AF1EE10FA00F3B08099ED009AB3
:101EF000D9ED018A39EE288A4DE70AF1010B09EB89
:101F00008A0309EB8B02D2ED007AD3ED008A13ED40
:101F1000019A224A78EEA77A77EE897AB0EE670ABC
:101F2000C2ED007A18F04AFCB1EEC98A1C4BF0EE03
:101F3000697AD0EE0A7AB4EE488AF1EE10FAC3ED6F
:101F4000007A40F0E880B1EEE80AB4EE400AF1EE23
:101F500010FA40F0C980F0EE408A09EB8B0B9BED44
:101F6000000AF1EEC07AF4EE677AF1EE10FA3FF46F
:101F7000E4AE18F09FFCF0EE407ADEE6B83BFF1FBF
:101F80004833FF1FD0DDFF1F080A0020000048C3B0
:101F900050A7FF1F00000000C8E5FF1FB46EFF1F21
:101FA000B0DCFF1F95BFD6339CBFFF1F0000803AF7
:101FB000CDCC4C3D38DEFF1F30DFFF1F0073FF1F0D
:101FC000E8DCFF1FD8DDFF1F7C52FF1F000020430D
:101FD000E0DCFF1F780A00203855FF1F7593B4C25C
:101FE000C46EFF1F24E6FF1FB4DCFF1F34A7FF1FD2
:101FF000D034FF1FD834FF1F99ED009AD9ED018A24
:102000004D4B4E4C39EE288AB0EE480A83ED008ADB
:1020100018F0D4FBF0EE697AD0EE0A7A484BC3EDA3
:10202000007ABAF1000F3DD1F1EEC97AF4EE677A89
:10203000F1EE10FA7BD1F1EEE87AF4EE677AF1EE88
:1020400010FA6FD13F4B00221A60A4E6C8EE887ADE
:102050003A883C4B04EB4214B0EE006AF7EE006A9B
:1020600036EE676A77EEA66A07EE90AAB8EE677A50
:10207000C6EE267AD4ED005A9FED336ADFED336A5F
:1020800099ED009AD9ED018A77EE677A39EE288AC0
:1020900067EEA57AE7EE866AC3ED006A7BE6FFF796
:1020A000A1FA10E794ED000AF1EEC07AF4EE677A37
:1020B000F1EE10FA01D018F0FDFB99ED010AF1EEF6
:1020C000C07AF4EE677AF1EE10FA01D018F0F2FB64
:1020D00099ED020AF1EEC07AF4EE677AF1EE10FAA9
:1020E000B0D018F0E7FBADE7B0EE680A18F0E2FBFD
:1020F00031E780ED007AE3E5B0EE490A18F0DAFB4B
:10210000B0EE408A09E6B0EE680A18F0D3FB0CE6A0
:102110000AF1010B21E7B0EE490A18F0CBFBB0EE53
:10212000408A10E7B0EE680A18F0C4FB8AE7B0EE08
:10213000490A18F0BFFB7EE7B46EFF1FD0DDFF1F1A
:10214000B0DCFF1F9CBFFF1F0000803ACDCC4C3D90
:1021500070B5044608460D461DF0F2FD23680246A0
:10216000294620465B68BDE87040184738B50446EC
:1021700008460D461DF0E4FD2368024629465B68CB
:10218000204698470546204616F05CFD284438BD99
:1021900038B5C9B2054616F0AFFD0446284616F01C
:1021A00051FD204438BD00BF002310B4114C4172D2
:1021B000026104600372C36041B1194600E0026924
:1021C00042F82310427A01339A42F8DC0A4B1A682B
:1021D0000AB90CE01A465369002BFBD15061002369
:1021E00043618380C38083725DF8044B704718603D
:1021F000F5E700BF904C02009C36002004460549DC
:10220000054808B5FFF7A4FF21460348FFF7AEFFD6
:10221000FEE700BF605302001847FF1F70B5194C5E
:1022200082B0002312260546019320461023012286
:1022300040F22F11009612F09DF80195009620466D
:102240001023012240F22F1113F014F88DB14FF634
:10225000FF71204614F0AAF80B4BE36106224FF4FD
:102260009A71204614F086F820460122074916F09C
:10227000D3FC04484FF6E07102B0BDE8704014F0A2
:1022800095B800BFD8E5FF1FB49D0200547302004B
:1022900030B51D4A1D4B10784FF6F77283B01A8087
:1022A00068BBFFF7BBFF1A4C0025A022B4F90C3025
:1022B0000092204629462622019512F05BF820461E
:1022C0004FF6E07114F072F8124BE3612946204694
:1022D000262214F04FF8204612220F4916F09CFCDB
:1022E000294620463C2214F045F80C4B0C49E3618A
:1022F0002046182203B0BDE8304016F08DBC4FF4E4
:10230000FC60FFF78BFFCEE7D0E5FF1FC46EFF1F19
:10231000D8E5FF1FE88A020070530200948A020089
:102320008453020010B52DED048B9FED268A20EE1C
:10233000088A82B0F0EE408AB0EE480A17F0D0FF6B
:10234000DFED217A38EE407AB4EEE77AF1EE10FA5A
:1023500005D5B7EE000A38EE400A17F0C1FF1B4B57
:102360001B4C93ED009AB7EE008A30EE088AF6EE29
:10237000007A28EE097A87EE280A30EE270A17F04D
:10238000AFFFC8EE287A134B134A1B88134803EBA0
:10239000430302EB031280EE097A67EEA88AFCEE93
:1023A000C07A88EE870ACDED017ABDF8043082ED5F
:1023B000010A190AA3EB01232380018002B0BDECBE
:1023C000048B10BDCDCCCC3DBD378635B43BFF1F53
:1023D0007C6EFF1F1CE6FF1F6830FF1F6073FF1F2E
:1023E0002DE9F047F2EE047AB4EEE70AF1EE10FAC6
:1023F0002DED028B40F28380DFED577AB4EE670A51
:10240000F1EE10FAA8BFB0EE670AFFF78BFF534B4F
:1024100093ED018A1D461C4603F5107AD4ED197A16
:10242000F4EEC87AF1EE10FA53DD94ED0D7A77EE02
:10243000C77A38EE477AC7EE276A16EE900A1BF085
:102440005DFDD4E9108906460F464246D4E91C01D9
:102450004B461BF0F3FB32463B461BF0A3FD4246C6
:102460004B461BF0EDFBC5E90401D4E91223D4E986
:102470001E011BF0E3FB32463B461BF093FDD4E903
:1024800010231BF0DDFBC5E90601D4E91489D4E96A
:10249000200142464B461BF0D1FB32463B461BF027
:1024A00081FD42464B461BF0CBFBC5E90801D4E950
:1024B0001689D4E9220142464B461BF0BFFB324647
:1024C0003B461BF06FFD42464B461BF0B9FBC5E98E
:1024D0000A0130345445A1D1D5ED007A9FED207A20
:1024E0001E4CF4EEC77AF1EE10FA0BD4BDEC028B61
:1024F000012323811B4BC3ED007ABDE8F087B0EECA
:10250000670A82E717EE900A1BF0F8FC41EC100B0B
:1025100017F0E0FF0CA3D3E9002351EC100B1BF0E4
:1025200041FD0B4602460AA1D1E900011BF086FBE2
:102530001BF0E8FFBDEC028BD4ED007A094B208143
:10254000C3ED007ABDE8F087000000803FB50C4085
:10255000000000A099993840003E1C476830FF1FDA
:10256000000016448CBFFF1F012806D020B9174970
:10257000174A0123CB61D361704730B5154C134D19
:10258000012C83B0EC6103D8114BDC6103B030BD8A
:1025900080230093224605F12C03642105F12000DD
:1025A00017F094FA08B10023EB61094D094AEC6178
:1025B0008021009105F12C0305F12000642117F022
:1025C00085FA0028E2D00023EB61DFE7B8BFFF1FE8
:1025D000480700200834FF1F012810B504460ED01C
:1025E00002281ED0032826D000B110BD014614F0E9
:1025F0002BFB21460120BDE8104014F025BB01460D
:10260000002014F027FB2146204614F023FB002174
:10261000084614F019FB20460021BDE8104014F0D4
:1026200013BB0021084614F00FFB01210846BDE84A
:10263000104014F009BBBDE81040FDF77DBF00BF9E
:10264000F0B5234F234D7968BA68FB6889B0064618
:10265000386801AC0FC4386979693A8BBB7E03C412
:102660002280A3702B68002BFCDB08AB06EB460630
:102670009819194910F81C3C30F81B4C013B621E9C
:102680001B03C2F30B0203F47F2313430B6010F808
:102690001C0C1BF011FC0CA3D3E900231BF082FCE3
:1026A000064620460F461BF007FC00220B4B1BF092
:1026B00079FC02460B46304639461BF09DFD41EC45
:1026C000100B09B0F0BD00BF000000002A75A54145
:1026D000944C020000F1024004F1024000007040FE
:1026E00070B5FFF7ADFF51EC100B1BF053FF9FEDE2
:1026F0002E7A2E492E4A2F4B91ED836A9FED2E4A5A
:102700002E499FED2F5ADFED2F4A2F4E07EE900AEC
:10271000C7EE276A2D4803F1A8050024C0ED007A12
:10272000F7EE005AC2ED006AD1ED017A91ED007A20
:10273000B1F90A0066EE277A26EE877AF5EEC07ABE
:10274000F1EE10FA27D4F4EEE57AF1EE10FA24DD7A
:102750004FF48032B5EEC07AF1EE10FA5A6218D416
:10276000B4EEC57AF1EE10FA11DC27EE247AFCEE15
:10277000C77A17EE902AB242C3ED077A07D81C62D7
:1027800058863833AB4201F10C01CDD170BDDE610A
:10279000F5E7DC61F3E70022DCE767EE847AFDEE23
:1027A000E77A17EE902AD5E7A6552C47D834FF1FB5
:1027B000A43BFF1FD0DBFF1F000080477842FF1FB4
:1027C000A655AC464B24BE470000FE7FB43BFF1F1E
:1027D0002DE9F041694B6A4A1B884FF6FE710D2BBB
:1027E00082B0118000F0A280664E674D3388674C3E
:1027F000DFF8C08105EB431300279888FFF770FFCF
:1028000032886349B4F90C3005EB4212C820928A31
:102810008DE8810020460A803946262211F0AAFD63
:1028200020464FF6E07113F0C1FD394620462622BE
:10283000C4F81C8013F09EFD20460122554916F075
:10284000EBF920463C22142113F094FD204621226E
:10285000514916F0E1F920465222782113F08AFD01
:1028600037884E4BE36105EB47170C3738461DF0B0
:1028700067FA39460246204616F0CEF920467822FD
:102880001421C4F81C8013F075FD20461122444920
:1028900016F0C2F978222046DC2113F06BFD338854
:1028A00005EB431398681BF029FB41EC100B204605
:1028B000012116F021FA20468E22142113F05AFD30
:1028C00020461922374916F0A7F98E222046DC212E
:1028D00013F050FD3388DFED347A05EB431393EDAD
:1028E000007A67EE277A17EE900A1BF007FB41EC9F
:1028F000100B2046012116F0FFF92046A4221421D6
:1029000013F038FD20461222284916F085F920469A
:10291000A422DC2113F02EFD338805EB431520465D
:10292000A98A02B0BDE8F04116F0DCB9204B154E83
:102930001A883388012A1BD0022A08D0032A0CD116
:10294000114D05EB43118A8A52008A824FE713B179
:10295000013B9BB233800C4D49E7042AFBD10A4D61
:1029600005EB43118A8A032A84BF52088A823EE714
:10297000032BF0D801339BB23380ECE7E072FF1FEA
:10298000C46EFF1FB83BFF1F4833FF1FD8E5FF1F72
:10299000AE3BFF1F6C600200CC53020000B402008B
:1029A000F053020004540200A69BC43A20540200D3
:1029B0006673FF1FB08A0200DC4BDFEDDD7A30B5B5
:1029C000024693E80300B0EEC07ADA4DB4EEE77A3F
:1029D0000B0CF1EE10FA83B02860A980AB7100F106
:1029E0009F80DFEDD57AB4EEE70AF1EE10FA1446D7
:1029F00000F19E80DFEDD17AB4EEE70AF1EE10FA35
:102A000000F1B880DFEDCE7AB4EEE70AF1EE10FA0D
:102A100000F1CB80DFEDDE7AB4EEE70AF1EE10FADA
:102A200000F1CF80DFEDC77AB4EEE70AF1EE10FADD
:102A300000F1D380DFEDC47AB4EEE70AF1EE10FACC
:102A400000F1EF80DFEDC17AB4EEE70AF1EE10FAA3
:102A500000F1F380DFEDBE7AB4EEE70AF1EE10FA92
:102A600000F1F780DFEDBB7AB4EEE70AF1EE10FA81
:102A700000F10281F7EE007AB4EEE70AF1EE10FA07
:102A800000F13081F2EE047AB4EEE70AF1EE10FACA
:102A900000F1B880DFEDB07AB4EEE70AF1EE10FA9B
:102AA00000F1FD80DFEDAD7AB4EEE70AF1EE10FA49
:102AB00000F1FD80DFEDAA7AB4EEE70AF1EE10FA3C
:102AC00000F1FD80DFEDA77AB4EEE70AF1EE10FA2F
:102AD00000F11481DFEDA47AB4EEE70AF1EE10FA0A
:102AE00000F11881DFEDA17AB4EEE70AF1EE10FAF9
:102AF00000F15081DFED9E7AB4EEE70AF1EE10FAB4
:102B000000F15B81DFED9B7AB4EEE70AF1EE10FA9B
:102B100000F15F81984B93E8030085E8030004E02F
:102B2000964B93E8030085E80300824803B030BD6C
:102B3000DFED937A60EE277A17EE900A1BF0DEF94C
:102B400002460B4668468F491CF06EFE68461DF033
:102B5000F7F8052823D8C0F1050200236946284666
:102B6000AB541CF087FE216872481CF083FE71484C
:102B700003B030BDDFED7F7A60EE277A17EE900A62
:102B80001BF0BCF90B468049024628461CF04CFE5F
:102B9000616828461CF06EFE664803B030BD421CDA
:102BA0006946284613F006FCDDE7DFED727A60EE39
:102BB000277A17EE900A1BF0A1F90B4602467349DB
:102BC000E3E7DFED6C7A60EE277A17EE900A1BF0F0
:102BD00095F90B4602466B49D7E7DFED637A60EE65
:102BE000277A17EE900A1BF089F90B4666490246D0
:102BF00028461CF019FEA16828461CF03BFE4D48F3
:102C000003B030BD10EE100A1BF078F90B465E4998
:102C1000024648481CF008FE216946481CF02AFE7E
:102C200083E7DFED517A60EE277A17EE900A1BF00A
:102C300065F90B4602465549DAE7DFED4B7A60EE5F
:102C4000277A17EE900A1BF059F90B4602464D49B8
:102C5000CEE7DFED427A60EE277A17EE900A1BF09E
:102C60004DF902460B46284647491CF0DDFDE16858
:102C700028461CF0FFFD58E7DFED387A60EE277A32
:102C800017EE900A1BF03AF90B46404902462948D4
:102C90001CF0CAFDE16827481CF0ECFD45E710EE8A
:102CA000100A1BF02BF90B4602463849B1E710EE2B
:102CB000100A1BF023F90B4602463249A9E7DFED63
:102CC000237A60EE277A17EE900A1BF017F90B466D
:102CD0002D49024617481CF0A7FD616915481CF0F4
:102CE000C9FD22E7DFED1D7A60EE277A17EE900A24
:102CF0001BF004F90B4602462249C8E7DFED137AC0
:102D000060EE277A17EE900A1BF0F8F80B460246A1
:102D10001E49DFE7DFED0D7A60EE277A17EE900AA5
:102D20001BF0ECF80B4602461649D3E73454020078
:102D3000132EE129A80A00205F70893077CC2B324E
:102D400095BFD633ACC5273717B7D1386F12833A42
:102D50000AD7233CCDCCCC3D0000C84200007A44C9
:102D600000401C460050C347002474498096184B0D
:102D700020BCBE4C286B6E4E545402005C540200C2
:102D8000A5D468533C540200445402004C54020041
:102D9000BD3786355FED027A60EE277A17EE900A2E
:102DA0001BF0ACF80B461149024611481CF03CFDE3
:102DB000A1690F481CF05EFDB7E6DFED0E7A60EE0C
:102DC000277A17EE900A1BF099F80B4602460A493B
:102DD000EBE7DFED087A60EE277A17EE900A1BF03A
:102DE0008DF80B4602460549DFE700BF4454020058
:102DF000A80A0020BD3786354C5402003C5402001E
:102E0000B5EEC00A08B5F1EE10FA074B4CBF2D2203
:102E10002022B0EEC00A1A70FFF7CEFD014603482B
:102E20001CF02CFF004808BD300A0020310A0020A9
:102E30002DE9F04FDFF85C83DFF85C93B8F81230CF
:102E4000DFF858B3C24C08EB8303A3B007465869B8
:102E50001BF054F89FEDBA7BD9F80030CDF808B0DC
:102E60007E010125CDE904014FF0040A991902AA57
:102E700000230AA88DED067B8DF822300193ADF872
:102E800024A08DF820508DF821508DF823500BF0A0
:102E900041FED9F8001002AA314412A80BF014FE2A
:102EA0000AA912AA1AA80BF0ABFE1F99019B8DF874
:102EB000623001F100411E9B16939DED1C7B9DED40
:102EC0001E6B9DF8803017919DF8811023766176F6
:102ED0009DF882309DF88310A37612AABDF8843045
:102EE000E1761AA8214684ED027B8DED147B84EDFA
:102EF000046BCDF848B0ADF864A0A3838DF86050A2
:102F00008DF861508DF863500BF02AFEDFF890E2E7
:102F10009DF881C08EF819C0DDE91C23DDE91EABE8
:102F20009DF882C08EF81AC09DF883C08EF81BC031
:102F30009DF88010BDF884C08EF81810CEE90223E9
:102F4000CEE904AB1946AEF81CC010461BF022FBBC
:102F5000804BDFF850A2186000EE100A17F02EFC2C
:102F6000FAEE047A60EE277A94ED021B94ED040BDE
:102F7000CAED007A17F046FA73A3D3E9002351ECA7
:102F8000100B1BF00FF81BF005FBDFF81CB298F8D4
:102F90003830CBF80000002B00F08D80012B00F0C2
:102FA0008D816D4B1B78002B40F002816B4B1B78A1
:102FB00013B923B0BDE8F08F694BDFF8F08107EB60
:102FC000470203EB021318681AF098FF41EC100B4C
:102FD0000321644815F090FE98F80030002B40F073
:102FE00059810121604815F0ADF9604C5D482368B6
:102FF000334493ED020B092115F07EFE98F8003062
:10300000002B00F056810321594815F09BF92368E5
:103010005448334493ED040B092115F06DFE98F8E4
:103020000030002B00F040810421524815F08AF94D
:10303000236851493344D3E9022300201BF0DCF814
:1030400041EC100B0221474815F056FE23681E4440
:10305000D6E90401002300221BF02AFA98F8003078
:10306000002800F09481002B00F067810321434881
:1030700015F068F9424B4348BC00234493ED000A25
:10308000FFF79AFC05461CF05BFE0146284615F04A
:1030900059F903213C4815F055F93C4B1C44206874
:1030A0001AF02CFF41EC100B02212E48FFF770F8AC
:1030B00023B0BDE8F08F2A4BDFF8F08007EB47071D
:1030C00003EB071738681AF019FF41EC100B0321C6
:1030D000244815F011FE98F80030002B40F0D58000
:1030E0002946214815F02EF9DAF800001AF006FFFB
:1030F00041EC100B03211B4815F0FEFD98F8003041
:10310000002B00F0CC800D21214815F01BF994ED27
:10311000021B94ED040B17F075F90BA3D3E9002300
:1031200051EC100B1AF03EFF41EC100B02210D4840
:1031300015F0E2FD0B4815F085FD23B0BDE8F08FDA
:10314000000000000000000000000020DCA54C4052
:10315000A8DDFF1FC86EFF1F6440FF1FA842FF1FAE
:103160006830FF1F1847FF1F204D020090BFFF1F50
:10317000F0540200F45402000000F03FCC5402006E
:103180003C0A00200C33FF1FD05402000C73FF1FB9
:1031900078540200D834FF1FB873FF1F80750200F7
:1031A00088DDFF1FBC51FF1FC451FF1FD434FF1F18
:1031B000A34BDFF8D48207EB470203EB0213186836
:1031C0001AF09CFE41EC100B03219E4815F094FD73
:1031D00098F80030002B00F0AB8011219A4815F0D0
:1031E000B1F8D9F800309748334493ED020B03212E
:1031F00015F082FD98F80030002B00F09480032138
:10320000924815F09FF8D9F800308E48334493ED7A
:10321000040B032115F070FDD9F800303344D3E9D5
:103220000401002200231BF02FF998F80030002839
:1032300040F0E280002B00F095800421844815F0D6
:1032400081F8844B8448BC00234493ED000AFFF7C7
:10325000B3FB05461CF074FD0146284615F072F8D4
:103260007E497848FEF774FF7D4B1C4420681AF0B5
:1032700045FE41EC100B02217248FEF789FF794BA5
:103280001B78002B3FF495AE96E61221764815F098
:1032900059F829E71321754815F054F8A5E60121DE
:1032A000734815F04FF832E70121714815F04AF8DC
:1032B000BEE601216E4815F045F8A8E6604BDFF840
:1032C000C88107EB470703EB071738681AF016FEAB
:1032D00041EC100B03215B4815F00EFD98F800300F
:1032E000002B6AD162495748FEF732FF94ED041B68
:1032F00094ED020B17F088F851EC100B1BF04AF913
:103300001AF0FCFD41EC100B05214E4815F0F4FCC1
:1033100098F80030002B6AD056494A48FEF718FF4B
:10332000DBF80000BCE60121514815F00BF86AE714
:1033300029464F4815F006F853E701214C4815F08F
:1033400001F84D4BBC00234418681AF0D7FD41EC3E
:10335000100B0C213B4815F0CFFC0121444814F020
:10336000F1FF9AE642493748FEF7F2FE394BBC00BE
:10337000234418681AF0C2FD41EC100B09213148B2
:1033800015F0BAFC3A492F48FEF7E2FE6CE7CBB1E4
:103390002F492C48FEF7DCFE2E4B2F48BC0023445F
:1033A00093ED000AFFF708FB01462648FEF7D0FE22
:1033B0002A492448FEF7CCFE6FE630492148FEF743
:1033C000C7FE93E72A491F48FEF7C2FE214BBC0007
:1033D000234418681AF092FD41EC100B092119489A
:1033E00015F08AFC22491748FEF7B2FE55E620493F
:1033F0001448FEF7ADFE93E7A3B121491148FEF74B
:10340000A7FE144B1F48BC00234493ED000AFFF7AE
:10341000D3FA01460B48FEF79BFE10490948FEF718
:1034200097FE21E712490748FEF792FE094BBC00C0
:10343000234418681AF062FD41EC100B0C219EE742
:103440006830FF1F1847FF1FB4540200C854020021
:10345000D4540200C473FF1F2833FF1FD05402004E
:103460000C73FF1FA842FF1F64540200DC540200CB
:10347000204D0200A85402003C0A0020885402009B
:10348000CC5402000C33FF1FD434FF1F2DE9F0434E
:103490002DED028B584DDFF87481584F584E83B094
:1034A0000024C823224628462146009301944FF465
:1034B000A07310F05FFF28464FF6FF7112F076FF01
:1034C000504BEB61284603225F2112F053FF284640
:1034D00017224D4915F0A0FBA146D8F80030464808
:1034E0004A4D1A1F4A4412B2082112F043FFD6ED8A
:1034F000007A97ED007AFDEEE77AB1EE477A17EEA3
:10350000903A04FB03F307EE903AF8EEE77A0234C0
:1035100077EE677A09F1280917EE900A1AF0EEFCA7
:1035200041EC100B0021344815F0E6FB0A2C1FFA81
:1035300089F9D2D12A683048354E364F9FED368A08
:103540001032214612B212F015FF032233492A48E5
:1035500015F062FBB0462524002517E012F00AFFA3
:10356000B8F80030244807EB4313D3ED027A67EE36
:10357000887A2B34FDEEE77AA4B217EE901A05FB99
:1035800001F1013515F0AEFB062D24D033881A4821
:1035900021B2B722002BE1D112F0ECFEB8F80030D6
:1035A00007EB431393ED027A07EE905A27EE087A61
:1035B000F8EEE77A013567EE277A2B3417EE900A9A
:1035C0001AF09CFC41EC100B01210B4815F094FB08
:1035D000062DA4B2DAD1B72240F21311064812F038
:1035E000C9FE0F490448032203B0BDEC028BBDE8BD
:1035F000F04315F011BB00BFD8E5FF1F34A7FF1F34
:10360000D034FF1F948A0200FC5402003830FF1FA0
:10361000B83BFF1F4833FF1FCDCC4C3E1455020072
:103620001855020008B50F4B1A787AB10E490F4AA7
:103630000888108000221A70FFF752F8FFF726FF63
:103640000B4BB3F90030022B08D008BD0749064ADE
:1036500008881080012210460A80ECE7BDE8084087
:10366000FDF7C0BF7CDBFF1F0833FF1FB83BFF1F08
:10367000C46EFF1F10B5044620B1012816D00228E1
:103680000AD010BD0146242013F0DEFA2146232083
:10369000BDE8104013F0D8BA0021242013F0D4FA6A
:1036A00001212320BDE8104013F0CEBABDE8104040
:1036B000FCF74EBF272810B513D0262804461DD08E
:1036C000252800D010BD0021272013F0BDFA0021CD
:1036D000262013F0B9FA20460121BDE8104013F06E
:1036E000B3BA012113F0B0FA0021262013F0ACFA8E
:1036F00000212520BDE8104013F0A6BABDE8104017
:10370000FCF732BF2DE9F04F2DED048B062083B07E
:10371000FEF796FFB24BB34A1B880321142B11808E
:1037200065D0B14C0025CA232046294600932622A5
:103730004FF4A073019510F01DFE20464FF6E07186
:1037400012F034FEA94BE36129462046262212F0EE
:1037500011FE20461D22A64915F05EFA2946204694
:10376000462212F007FEA34BE361A34920462A221A
:1037700015F052FA294620465A2212F0FBFD204647
:1037800025229E4915F048FA294620466E2212F05D
:10379000F1FD204628229A4915F03EFA2946204696
:1037A0008C2212F0E7FD20462222964915F034FAC9
:1037B00029462046A02212F0DDFD20462D22924906
:1037C00015F02AFA29462046BC2212F0D3FD2046E5
:1037D0002E228E4915F020FA8D4B25209D61DD614A
:1037E00003B0BDEC048BBDE8F04FFFF763BF894B1E
:1037F0001B88012B95D17C4E7E4F00250C23304633
:1038000029460093BB224FF4A073019510F0B2FD3E
:1038100030464FF4784112F0C9FD29463046BC22AB
:10382000F76112F0A7FD30467B49FEF791FC72B6B6
:103830007A4C237F03F0FF0203B1257762B63AB1D9
:1038400072B647F6FF724FF40043E283238462B6F8
:10385000DFF8DC91D9F82830002B40F09F81292136
:103860006F489FED708ADFF8B4A19FED6F9A14F056
:1038700069FD6E4815F0E6F9F0EE488A0A254FF02A
:1038800000081BE072B647F6FF734FF40041B4F92D
:103890001E20E383B4F92030218462B69B1A07EE20
:1038A000903AF8EEE77AD9F8283087EE897A38EE40
:1038B000078AC3B94FF00108013D1AD04FF4FA70DE
:1038C00013F0CEF972B6237F03F0FF0213B1002389
:1038D0008AF81C3062B6002AD4D1D9F828304FF0CB
:1038E0000108002BE6D052480BF06CFB78EE808A82
:1038F000E2E7DFED507A68EEA78A28EE278AB8F172
:10390000000F00F035814C4948484C4DFEF72EFC25
:1039100008214B4814F016FD18EE100A1AF0EEFAC2
:1039200041EC100B07214148FEF732FC08214548C5
:1039300014F008FD18EE900A1AF0E0FA41EC100BB2
:1039400007213A48FEF724FCDFED3F7ADFED3F6ABE
:1039500068EEA78AB7EE006AC8EE887AB0EE007A01
:1039600077EEC67A27EEA68AF0EEC87AF4EEC77A2A
:10397000F1EE10FA00F31681DFF8E890344BDFF82F
:10398000D880C9F8003041F63D03324C18F80320C6
:103990000021216022B1002208F80320FEF742F93D
:1039A0004FF4167013F05CF941F63D03002118F84E
:1039B0000320216028491AB10022CA54FEF732F9C7
:1039C0004FF4167013F04CF9DFF89CA0234B9FEDD9
:1039D000248A00224FF0000B1A80D04652E000BF2C
:1039E000E072FF1FC46EFF1FD8E5FF1FE88A0200C8
:1039F000B8560200948A0200D8560200045702000A
:103A00002C570200585702007C57020088560200CB
:103A10007873FF1F6673FF1F1C550200E406002029
:103A20003C5502000000000000FEFF461847FF1F43
:103A300008070020CDCCCC3D80550200D834FF1FB4
:103A4000A8550200B4550200FF0435400000C842EA
:103A500000007AC4B46EFF1F38A7FF1FFA72FF1F61
:103A600000C079C4B0DCFF1F75BFFF1F9AF800309B
:103A70000021012253B10023C4F800B088F80030BF
:103A8000FEF7D0F8D9ED007A21680022F4EEC87A6A
:103A9000F1EE10FAEAD4002A40F0978017214C4842
:103AA00014F050FCD9F800001AF028FA41EC100B81
:103AB00003214848FEF76CFB99ED007ADFED467A6A
:103AC000464877EEC77A1421C5ED857A14F03AFCA2
:103AD000D5F814021AF012FA41EC100B03213D48FC
:103AE000FEF756FBD5ED857AB0EE047AF4EEC77A90
:103AF000F1EE10FA06D4B1EE0E7AF4EEC77AF1EEDA
:103B000010FA03DD36493348FEF730FB4FF000086A
:103B10000C23BB22414600933248CDF804804FF479
:103B2000A07310F027FC4FF6E0712E482E4C12F0D7
:103B30003DFCF7614146BC222A4812F01BFC04F50B
:103B4000067614F8011F601B12F0C4FEA642F8D1DD
:103B50002521264814F0F6FB1E4815F073F8244979
:103B60002048FEF7F5FA03B0BDEC048BBDE8F08FFA
:103B70009FED207A204D21491648C7EE287AC5EDE1
:103B8000847AFEF7E5FAD5F810021AF0B7F941EC9D
:103B9000100B0B210F48FEF7FBFAB9E648460BF075
:103BA00011FA5CE616490B48FEF7D2FA18EE100A35
:103BB0001AF0A4F941EC100B0221064815F09CF80C
:103BC00010490448FEF7D2FAD6E6216066E700BF46
:103BD000FC5502001847FF1F9FABDFC014560200C0
:103BE0002C560200D8E5FF1FD734FF1F6056020095
:103BF00088560200D1839036D834FF1F68550200E2
:103C0000C0550200F855020070B5394D2B789A075F
:103C1000044622D5374B1B88002B43D0364B8600F9
:103C2000334418681AF06AF941EC100B0621334846
:103C300015F062F80121324814F084FB314B1E4428
:103C400030681AF05BF941EC100B06212B4815F097
:103C500053F82A4814F0F6FF2B78DB0746D5254B9E
:103C60001B888BB3244BA400234418681AF046F930
:103C700041EC100B0621244815F03EF801212048A4
:103C800013F0FEFA1F4B1C4420681AF037F941EC80
:103C9000100B06211C4815F02FF81B48BDE870409A
:103CA00014F0D0BF194B8600334418681AF026F977
:103CB00041EC100B0621114815F01EF801211048A7
:103CC00014F040FB124BBAE7104BA40023441868D1
:103CD0001AF014F941EC100B06210B4815F00CF802
:103CE0000121074813F0CCFA094BCCE770BD00BFA7
:103CF0003030FF1F10E6FF1F78C2FF1F1847FF1F5D
:103D00006C600200308EFF1F0047FF1FC874FF1F4A
:103D10007818002010B50A4C23789A0708D4DB07DE
:103D200000D410BD04210748BDE8104013F0A8BA24
:103D30000421044814F006FB14F0B8FB2378EEE7E6
:103D40003030FF1FD84C020038B5184C04F51C75F4
:103D500094ED100B0821164814F0CEFF01211548F0
:103D600014F0F0FA94ED120B0521114814F0C4FF81
:103D70000121104814F0E6FA94ED140B08210C48C8
:103D800014F0BAFF01210B4814F0DCFA94ED160B85
:103D90000521074814F0B0FF3034054814F052FFF5
:103DA000AC42D5D1BDE83840FFF7B4BF6830FF1F43
:103DB0001847FF1F204D020038B564480AF046FC42
:103DC000002866D01AF00CFF614C624B2080012263
:103DD0005E481A800AF03AFC18B11AF001FF5E4BF7
:103DE00018805A480AF032FC00284FD01AF0F8FE2A
:103DF0005A4D80B2288040B3574B24881B88584ABC
:103E000007EE900A1B1BB8EE677A07EE903AF7EEC2
:103E1000006AF8EEE77A37EE667A411EC7EE876AE7
:103E200089B20131002307EE904AB8EEE77A98B2E2
:103E300007EE900AF8EE677AB0EE476AA7EEA66A38
:103E400001338B42A2EC016AF1D1464B01225A8226
:103E5000FCF77EFB444A454BD2ED007A4448454985
:103E6000454A2C881C80B7EE007AF4EEC77A00230E
:103E7000F1EE10FA03800B70138035DD3F4B72B604
:103E80003F4A0021D361117662B638BD334D288890
:103E9000B1E73C4C23789A0736D4DB0703D4BDE85E
:103EA0003840FFF737BF2A4B3748198814F01AFFFC
:103EB0000121364813F0E4F9334814F0C3FE264BD1
:103EC0003148198814F00EFF0121304813F0D8F959
:103ED0002D4814F0B7FE214B2B48198814F002FF2F
:103EE000BDE83840FFF716BFBFEE007AF4EEC77AA0
:103EF000F1EE10FA27D49FED267A67EE877AFDEE71
:103F0000E77A17EE903ABAE7114B2248198814F075
:103F1000E9FE01211D4814F015FA1E4814F092FE26
:103F20000D4B1C48198814F0DDFE0121174814F0D0
:103F300009FA184814F086FE084B1648198814F040
:103F4000D1FE2378A9E7144B99E700BF9CEEFF1F31
:103F5000B03BFF1F380700206030FF1FAC3BFF1F46
:103F60003C55FF1FD834FF1F5C30FF1F7852FF1FE6
:103F7000AA3BFF1F6240FF1F1CE6FF1F0000FF7FE0
:103F8000ECDCFF1F3030FF1F0047FF1F6C6002009A
:103F900000FEFF4E1847FF1F00000180FFF7BABE6A
:103FA000FFF7B8BE2DE9F04F2DED048B584C83B0D0
:103FB0000025A122B4F90C30009220462622294681
:103FC000019510F0D7F920464FF6E07112F0EEF9A6
:103FD000504B514A1B78E261002B00F08E80DFF8D5
:103FE0005891DFF858814D4FDFED4D9AAA462B25A9
:103FF000B9F80040D8F800305444A4B203EB441B95
:10400000DBE902011AF0C6FA08EE900ADBE90401C6
:104010001AF0C0FA08EE100A68EE087A2EB2E8EE3E
:10402000A87AB1EEE70AB4EE400AF1EE10FA69D1CF
:1040300016F0C4FBF0EE680AB0EE409AB0EE480A03
:1040400016F0BAFB04EB440407EB041432460A21D1
:104050002F48B0EE408A12F08DF9206819F04EFF1B
:1040600041EC100B00212A4814F046FE03222D4992
:10407000274814F0D1FD32465F21254812F07AF925
:1040800002222949224814F0C7FDF3EE047A69EEB2
:10409000277A0AF1010A17EE900A19F02FFF41EC76
:1040A000100B02211A4814F027FE02221F4918485B
:1040B00014F0B2FD3246BE21154812F05BF903221E
:1040C0001B49134814F0A8FD68EE297A1FFA8AFAF2
:1040D00017EE900A19F012FF41EC100B02210C4868
:1040E00014F00AFE03221349094814F095FD133514
:1040F000BAF1070FADB27FF47BAF03B0BDEC048B18
:10410000BDE8F08FB0EE670A16F0D4FB90E700BF71
:10411000D8E5FF1FA454FF1FB08A02006830FF1FBC
:10412000E12E6542AC570200B0570200B4570200BE
:10413000B8570200BC5702006040FF1F6C73FF1F9E
:10414000F0B5254C254FB4F90C30254E83B0002531
:10415000A12220462946009201958C2210F00AF9EE
:1041600020464FF6E07112F021F91E4BE361204624
:104170008D22142112F0FEF8204608221A4914F06C
:104180004BFD3A8802EB420206EB0212106819F06E
:10419000B5FE41EC100B2946204614F0ADFD04227B
:1041A0002046124914F038FD3B88063303EB4303E5
:1041B00006EB0313186819F0A1FE41EC100B294619
:1041C000204614F099FD0A492046032203B0BDE8B9
:1041D000F04014F021BD00BFD8E5FF1F6040FF1F75
:1041E0006830FF1FB08A0200C0570200CC5702009F
:1041F000AC570200CB4B1B7803B970472DE9F04F49
:10420000C94BCA4C1F68DFF87CA3DFF87C83DFF85A
:104210007C932DED028B4601374485B00546D7E9E6
:1042200002011AF0B7F908EE900AD7E904011AF072
:10423000B1F9BF4AB4F90C301268324492ED047BF4
:104240004FF0920E0021D2E9026708EE100ACDF875
:1042500000E02622204601918DED027B10F08AF8C5
:1042600020464FF6E07112F0A1F8204626221421D4
:10427000C4F81CA012F07EF820464322142112F04C
:1042800079F80A22AB49204614F0C6FCB0EE680A61
:10429000A948FEF7B5FD83461BF052FD594602467C
:1042A000204614F0B9FC0422A449204614F0B4FCC2
:1042B000B0EE480AA048FEF7A3FD83461BF040FD80
:1042C000AD0002465946204614F0A6FC08EB050B4B
:1042D000204655221E21C4F81C9012F04BF89BED8D
:1042E000007AF7EE007AB4EEE77AF1EE10FA40F3D6
:1042F000B380B5EEC08AF1EE10FA00F1CA81B5EED6
:10430000C08AF1EE10FAC0F2A9808D498748FDF706
:104310001FFF8C4B8C482B4493ED000AFEF74CFB9F
:1043200001468248FDF714FF88498048FDF710FFD9
:1043300008EB0503D3ED007A9FED857AF4EEC77A9A
:10434000F1EE10FA40F15B8117EE900A19F0D6FDFC
:1043500041EC100B0121754814F0CEFC3946304673
:104360001AF018F908EE900ADDE902011AF012F9C4
:104370004FF6E07108EE100A6C4812F017F881222F
:1043800014216A48C4F81CA011F0F4FF714B1B788B
:104390000822002B00F0FC806F49644814F03CFCBC
:1043A000B0EE680A6D48FEF72BFD06461BF0C8FC10
:1043B000314602465D4814F02FFC042268495B48F0
:1043C00014F02AFCB0EE480A6448FEF719FD0646D0
:1043D0001BF0B6FC31460246544814F01DFCC4F8EC
:1043E0001C9097221E21514808EB050411F0C2FFD2
:1043F00094ED007AF7EE007AB4EEE77AF1EE10FA77
:1044000054DDB5EEC08AF1EE10FA50DB554947484D
:10441000FDF79EFE544B55481D4495ED000AFEF7EE
:10442000CBFA01464148FDF793FE48493F48FDF766
:104430008FFED4ED007A9FED467AF4EEC77AF1EE66
:1044400010FA00F109814A493848FDF781FE05B0AC
:10445000BDEC028BBDE8F08F3FF751AF022245491A
:10446000324814F0D9FBB0EE680A3348FEF7C8FCB6
:1044700083461BF065FC594602462C4814F0CCFBE1
:10448000B5EEC08AF1EE10FA40F3F5803A492748BC
:10449000FDF75EFE2B4B2C482B4493ED000AFEF7F4
:1044A0008BFA01462148FDF753FE57E705DDB5EECF
:1044B000C08AF1EE10FA00F1B18002222D491B48AA
:1044C00014F0AAFBDFED2D7AB0EEE87AB4EEE77ACD
:1044D000F1EE10FA40F38E80B7EE000A80EE280A63
:1044E0001548FEF78DFC01461048FDF731FEB5EE8C
:1044F000C08AF1EE10FA00F1C58021490B48FDF7A2
:1045000027FE194B19481D4495ED000AFEF754FA91
:1045100001460648FDF71CFE05B0BDEC028BBDE868
:10452000F08F00BF6540FF1FB873FF1FD8E5FF1F66
:1045300090BFFF1FD45702001030FF1FE05702004A
:10454000F8570200C473FF1F2833FF1FE85702000B
:10455000333F1C46B173FF1F005802003C30FF1F61
:104560000C580200B05D02003C0A00200C33FF1F13
:10457000F0570200DC570200FC570200EA1C080258
:1045800034580200E88A02000C73FF1F44900200B6
:104590005349544814F040FBDFED537AB0EEE87A0B
:1045A000B4EEE77AF1EE10FA33DDB7EE000A80EEF2
:1045B000280A4E48FEF724FC01464A48FDF7C8FD8C
:1045C00004224B49474814F027FBDFED477AB0EE51
:1045D000C87AB4EEE77AF1EE10FA15DDB7EE000A0C
:1045E00080EE080A4148FEF70BFC01463D48FDF706
:1045F000AFFDF4E63F493B48FDF7AAFD77E73E49AA
:104600003848FDF7A5FDA9E63A493648FDF7A0FD73
:10461000E5E638493348FDF79BFDD1E73749314896
:10462000FDF796FD364B37482B4493ED000AFEF715
:10463000C3F901462B48FDF78BFD45443249294813
:10464000FDF786FDD5ED007A9FED307AF4EEC77A5E
:10465000F1EE10FA7FF5F7AE17EE900A19F04EFC66
:1046600041EC100B1F48012105B0BDEC028BBDE8E9
:10467000F04F14F041BB26491A48FDF769FD254B60
:10468000254809E725491748FDF762FD1C4B1D48E1
:1046900039E723492046FDF75BFD1E4B1E482B449E
:1046A00093ED000AFEF788F901462046FDF750FD1C
:1046B00015492046FDF74CFDDBED007A9FED137A9E
:1046C000F4EEC77AF1EE10FA99D517EE900A19F0C8
:1046D00015FC41EC100B0121204614F00DFB3DE6CA
:1046E00014580200D8E5FF1F7D1D90261030FF1FD3
:1046F000E057020020580200F0570200F85702006D
:104700003C0A00202833FF1FE8570200333F1C46B5
:10471000CC540200C473FF1F0C33FF1F2C5802003F
:10472000B05D020030B5154C83B000210E22B4F903
:104730000C300191054600922046B92282210FF0EB
:1047400019FE20464FF4784111F030FE0C4BE36126
:104750002046B922822111F00DFE28461BF0F0FA06
:1047600029460246204614F057FA20464FF6E071DB
:1047700003B0BDE8304011F019BE00BFD8E5FF1FFF
:1047800014C302002DE9F04F2DED028B684C9FED14
:10479000698AB4F90C30DFF8C8B183B00025A122D2
:1047A000204629460092019526220FF0E3FD20467F
:1047B0004FF6E07111F0FAFD5F4BE36129462046A8
:1047C000262211F0D7FD204622225C4914F024FA5B
:1047D0004FF03C0A61E017EE900A19F08FFB41ECB4
:1047E000100B0121524814F087FA02225449504814
:1047F00014F012FA4946404619F0CCFE00EE100AB9
:104800005048FEF7FDFA80461BF09AFA41460246F0
:10481000474814F001FA02224949454814F0FCF9CE
:104820003946304619F0B6FE00EE100A4548FEF74C
:10483000E7FA80461BF084FA414602463C4814F0F1
:10484000EBF902223E493A4814F0E6F9002200232F
:104850003046394619F018FE002865D130463946F1
:104860000022002319F024FE78B1374B374803EBC0
:10487000840494ED000AFEF79FF804461BF060FAEA
:10488000214602462A4814F0C7F90135ADB20AF1B3
:10489000140A072D1FFA8AFA41D02D4B24481C8890
:1048A000DBF800302C44A4B203EB44130FFA8AF275
:1048B0000021D3E90289D3E9046711F05BFD254AA1
:1048C00004EB440302EB0313D3ED007AF4EEC87A51
:1048D000F1EE10FA18D49FED207AF4EEC77AF1EEDB
:1048E00010FA3FF578AFB6EE000A37EE800A15F001
:1048F000F7FC10EE100A19F001FB41EC100B00213F
:104900000B4814F0F9F970E717EE900A19F0F6FA6F
:1049100041EC100B0221064814F0EEF965E703B0F4
:10492000BDEC028BBDE8F08F074B0C489FE700BF42
:10493000D8E5FF1F0000C842B08A02003C580200C0
:10494000385402001030FF1FC473FF1F2833FF1FAD
:10495000BA3BFF1F6830FF1F00007A440C33FF1F73
:10496000B873FF1FFFFFFFFF2DE9F047824B1B6865
:1049700003EB4013D3E902672DED068BD3E9044521
:1049800082B032463B4682463946304619F00AFB31
:104990002246804689462B462046294619F002FBCE
:1049A0000B4602464946404619F04AF941EC100BC5
:1049B00015F0A2FEB0EE40AAF0EE60AA15F012FECD
:1049C00047EC116BB0EE409AF0EE609A45EC104B5C
:1049D00015F018FD694B1B7823B902B0BDEC068BAE
:1049E000BDE8F087664CB0EE408AF0EE608A0025A4
:1049F0009222B4F90C3000922046262229460195D5
:104A00000FF0B8FC20464FF6FF7111F0CFFC5D4B64
:104A1000E36120462622142111F0ACFC20460E2230
:104A2000594914F0F9F8594B9FED597A0AEB4A0AA3
:104A300003EB0A1ADAED007AF4EEC77AF1EE10FA17
:104A400000F18B809FED537AF4EEC77AF1EE10FA05
:104A500078D4B6EE000A37EE800A15F041FC10EE6D
:104A6000100A19F04BFA41EC100B2946204614F0BD
:104A700043F903224849424814F0CEF814213E225B
:104A80003F4811F077FC454B3D485B8A012B0CBF3A
:104A9000434944490C2214F0BFF8562214213848E7
:104AA00011F068FC0F224049354814F0B5F8B0EE1B
:104AB0004A0AF0EE6A0A0521314814F01DF9042271
:104AC0003A492F4814F0A8F8394BE3612C48782272
:104AD0001E2111F04FFC07223649294814F09CF89A
:104AE000354B002251EC190B19F05CFA41EC100B1C
:104AF0000321234814F000F903223049204814F020
:104B00008BF89B221E211E4811F034FC08222C49F0
:104B10001B4814F081F816A3D3E9002351EC180BBD
:104B200019F040FA41EC100B0221154814F0E4F89A
:104B300024491348042202B0BDEC068BBDE8F047BF
:104B400014F06AB817EE900A19F0D8F941EC100B7E
:104B50000121204614F0D0F88BE717EE900A19F0E7
:104B6000CDF941EC100B0221204614F0C5F880E786
:104B700000000020DCA54C406C73FF1F6540FF1F48
:104B8000D8E5FF1FCC8A0200605802006830FF1F82
:104B90000000C84200007A44AC570200D834FF1F1E
:104BA000705802008058020090580200A05802007D
:104BB000449002009858020000003440A8580200B7
:104BC000AC580200B858020070B5194C82B00025EC
:104BD0001626B4F90C3001952A462046294600963F
:104BE0000FF0C8FB20464FF6FF7111F0DFFB114BB1
:104BF000E3612A4620463C2111F0BCFB20461522E9
:104C00000D4914F009F80D4B187858B9FDF706FB5B
:104C10000B4B0748E3614FF6E07102B0BDE870400E
:104C200011F0C4BB4FF4FC60FDF7F8FAF0E700BFE9
:104C3000D8E5FF1F00B40200C0580200D0E5FF1FF6
:104C4000F0A3020010B5114C82B000211022B4F97B
:104C50000C3001912046009216220FF08BFB20466B
:104C60004FF6FF7111F0A2FB20461622052111F02C
:104C700081FB20461122064913F0CEFF20464FF655
:104C8000E07102B0BDE8104011F090BBD8E5FF1F05
:104C9000D858020070B53A4C3A4E82B00025C8236D
:104CA00020462A462946009301954FF4A0730FF041
:104CB00061FBFFF789FFFFF7C5FF334A334B1580D0
:104CC00020464FF6F7724FF6E0711A8011F06EFB36
:104CD00029462046E661262211F04CFB20461C2284
:104CE0002B4913F099FF294620463C2211F042FB44
:104CF000284BE36128492046242213F08DFF2946E2
:104D00002046E661502211F035FB2046232223493C
:104D1000234E13F081FF29462046642211F02AFB1E
:104D2000204616221F4913F077FF29462046782295
:104D300011F020FB20461D221B4913F06DFF294670
:104D400020468C2211F016FB20461722174913F03B
:104D500063FF29462046A02211F00CFB20461B22AF
:104D60001349144C13F058FF13481449144A154BB7
:104D70003570257005700D7015701D7002B070BD16
:104D8000D8E5FF1FB08A02006473FF1FC46EFF1FC7
:104D9000EC580200948A02000C59020034590200B7
:104DA000A454FF1F58590200705902009059020084
:104DB000A8590200CC8DFF1FFC72FF1F606EFF1F01
:104DC0006273FF1FC472FF1F2DE9F04FB54FB64B42
:104DD0003A688BB00025059205221A80059CFFF7E2
:104DE000F3FE0020FDF71AFACA232622AF480093EB
:104DF00029464FF4A07301950FF0BCFAAB484FF66B
:104E0000E07111F0D3FAA94AA94BD36110462946A3
:104E1000262211F0AFFA1E22A649A44813F0FCFE88
:104E20002946A2483C2211F0A5FAA04AA24BD36120
:104E3000A2491046282213F0EFFE29469B48502233
:104E400011F098FA29229E49984813F0E5FE294668
:104E50009648642211F08EFA41F2883B93489949B2
:104E6000232213F0D9FEAA460395CDF808B0964840
:104E70000EF0B2FA0028FAD03B680693069B1B1B83
:104E8000962BF4D9874B90491B68079308A8079C79
:104E90000EF092FABDF92080BDF9229040F2DB536A
:104EA000984540F3E580994540F3ED80039B984594
:104EB00006DD40F2DB531FFA88F29945039203DDC9
:104EC000CA45B8BF1FFA89FA002678254FF4A073A7
:104ED000314601962A46754800950FF04BFA314647
:104EE0002A46724811F046FA042278496F4813F0B6
:104EF00093FE2A4664216D4811F03CFA41466B4806
:104F000013F0F0FE31468C22684811F033FA042287
:104F10006F49664813F080FE8C226421634811F0CB
:104F200029FA4946614813F0DDFE3146A0225F4868
:104F3000684E11F01FFA132267495C4813F06CFEAB
:104F40005A48B4221421C66111F014FA0299574844
:104F500013F0C8FEB4225021544811F00BFA594600
:104F6000524813F0BFFEC8222946504811F002FAF9
:104F700003994E4813F0B6FEC822B4214B4811F0F5
:104F8000F9F95146494813F0ADFEB8F5FA6F7FF7CD
:104F90006EAF40F2DB5399453FF769AF0299A1F13B
:104FA00065039BB240F28232934229D8ABF165038C
:104FB0009BB2934224D80398A0F6B9339BB240F237
:104FC000DA5293421CD8AAF6B9339BB2934217D84F
:104FD000424DA5F80212A5F80602A5F804B2A5F8FC
:104FE00008A26C1E05F2172614F8011F601B11F0B1
:104FF00071FCB442F8D13A493A48FDF7B7F809E0F4
:1050000050220021294811F0B5F9222236492748BB
:1050100013F002FE254B2548B3F90C3000247A2208
:1050200021460092019426220FF0A4F92146822203
:105030001E4811F09FF916222C491C4813F0ECFD74
:1050400041F2883011F00CFECA232146009326223B
:105050004FF4A073154801940FF08CF9FFF71AFE76
:10506000234A244B148012221A800BB0BDE8F08F23
:10507000029B984502DA1FFA88F3029340F2DB5351
:1050800099453FF71DAFD94501DA1FFA89FB40F278
:10509000DB5398457FF718AF039B4345FFF609AFF5
:1050A00012E700BF20350020C46EFF1FD8E5FF1FA8
:1050B000E88A0200C4590200948A0200E4590200FE
:1050C000105A02003C5A0200943BFF1F605A020033
:1050D000685A0200B08A0200705A0200D834FF1FDA
:1050E000845A02001847FF1FB45A0200D85A02001F
:1050F0006673FF1FE072FF1F10B51C4C1C484FF673
:10510000FF7111F053F9E3891948012B0BBF0622F7
:1051100005221849184913F07FFD184B184A1B88BF
:1051200003EB430302EB0313586818F0E7FE41EC6E
:10513000100B03210E4813F0DFFD0A2211490C4821
:1051400013F06AFD638A04EB8304606918F0D6FEED
:1051500041EC100B0221064813F0CEFD4FF6E07132
:105160000348BDE8104011F021B900BFD834FF1F3B
:10517000D8E5FF1FF05A0200F85A02001CE6FF1F94
:105180006830FF1F005B020010B56A4C00EB400066
:105190002DED028B04EB001090ED008AFFF714FD5B
:1051A000FFF750FDFFF7A8FFDFED637AB4EEE78A63
:1051B000F1EE10FA00F1AE80DFED607AB4EEE78A2E
:1051C000F1EE10FA00F18680DFED5D7AB4EEE78A49
:1051D000F1EE10FA39D4DFED5B7AB4EEE78AF1EE46
:1051E00010FA77D4DFED587AB4EEE78AF1EE10FAD0
:1051F0002BD4DFED567AB4EEE78AF1EE10FA69D4DB
:10520000DFED537AB4EEE78AF1EE10FA1BD4DFED4E
:10521000517AB4EEE78AF1EE10FA5BD4DFED4E7A04
:10522000B4EEE78AF1EE10FA0DD4DFED4C7AB4EE6D
:10523000E78AF1EE10FA4DD4DFED497AB4EEE78A51
:10524000F1EE10FA46D5062000E00520FDF748FAF9
:105250004449454A0123CB61D361B0EE480AFDF7CA
:1052600061F8424B424A1B8892ED007A414903EBB8
:10527000430304EB0314D4ED007A67EE877A012030
:10528000F5EEC07AF1EE10FA08604AD49FED3A7A52
:10529000F4EEC77AF1EE10FA2DDD384A384BD361BF
:1052A000F5EEC07A0023F1EE10FA13623DD49FEDC3
:1052B000327AF4EEC77AF1EE10FA0DDD314A304B56
:1052C000D361BDEC028B304B4FF0404001211062A6
:1052D000196010BD0720B9E79FED2C7A2849294AAB
:1052E00067EE877AFCEEE77A17EE903A8B42C2EDD2
:1052F000077AE4D8E5E79FED257A21491F4A27EE92
:10530000877ABCEEC77A17EE103A8B4282ED077AA5
:10531000C6D9C3E70720FDF7E3F90120FDF724F91B
:105320009BE7164B0022DA611A62164A0023D3610A
:10533000C7E700BF6830FF1F00C00F4500806D4504
:1053400000409C4500803B4600204B4600609F4645
:1053500000F8A7460070DF4600D0E84600881047F6
:1053600000701447B8BFFF1F480700201CE6FF1F4E
:10537000A43BFF1F88E100E0A655AC4618DDFF1FE7
:105380000000FE7F50DDFF1F08E100E04B24BE4718
:10539000414B424870B501221A8009F057F90028A4
:1053A00065D019F01DFC3E4D28803C4809F04EF9AF
:1053B00000285AD019F014FC3A4C208000212720F4
:1053C00011F042FC0021262011F03EFC0021252096
:1053D00011F03AFC2388334ED90755D49A074DD49F
:1053E0005B0746D42888FEF745F92F4BD3ED007AAA
:1053F000B7EE007AF4EEC77AF1EE10FA25DD2B4B0A
:1054000072B62B4A0021D361117662B60720FFF7EE
:10541000BBFE1221274812F095FF2988264813F079
:1054200061FC0C21254812F08DFF2188224813F0E1
:1054300059FC214813F006FC3321214812F082FF69
:105440001D48BDE8704013F0FDBBBFEE007AF4EEDE
:10545000C77AF1EE10FA1DD49FED1A7A67EE877ABB
:10546000FDEEE77A17EE903ACAE70E4CA6E70C4D30
:105470009BE70121252011F0E7FBB3E7012126205E
:1054800011F0E2FB2388ABE70121272011F0DCFBC0
:105490003388A3E70C4BB3E7A0BFFF1F9CEEFF1FB1
:1054A000040A0020B451FF1F5C30FF1F0000FF7F83
:1054B000ECDCFF1F0C5B02001847FF1F205B0200A3
:1054C000305B020000FEFF4E0000018010B50A4C68
:1054D000B4F90030012B07D0084A00234FF4803183
:1054E000D1619361238010BD054A064B12681A6092
:1054F0000020FFF749FEEFE7C46EFF1F7873FF1F20
:105500008CBFFF1F6830FF1F70B52349234A244C0E
:105510002448002382B002250B701380E58109F036
:1055200095F810B3064619F05BFB322830D03046B0
:1055300019F056FB41F28833984208BF65821A4B36
:105540001B7893B11E21194812F0FCFE638A04EB0C
:105550008304606918F0D2FC41EC100B022114485E
:1055600013F0CAFB124813F06DFB12480021A12270
:10557000B0F90C300191009226220EF0FBFEFFF7ED
:1055800023FBFFF75FFB02B0BDE87040FFF7B4BD3F
:1055900001236382D3E700BF98EEFF1F7A52FF1FFB
:1055A000D834FF1F9CEEFF1F060A0020645B020038
:1055B0001847FF1FD8E5FF1F38B51F4809F046F808
:1055C0001E4A1F4B002414701C80A0B119F004FB6C
:1055D00051EC100B18F0DEFF1A4A1B4B1B4D1060EC
:1055E00000EE100A1C806860FCF7FAFE184B1B786E
:1055F00001222A823BB9FFF7E7FAFFF723FBBDE858
:105600003840FFF779BD1621124812F09BFE6868FA
:1056100018F074FC41EC100B02210F4813F06CFBE6
:105620000D4813F00FFBFFF7CFFAFFF70BFBBDE8B8
:105630003840FFF761BD00BF9CEEFF1F98EEFF1FD3
:105640007A52FF1F6830FF1F1CE6FF1FD834FF1F70
:10565000060A0020845B02001847FF1F70B513483C
:10566000134D144C144A00230121237003802B8214
:105670006C1E05F21726118014F8011F601B11F033
:1056800029F9B442F8D10D4B1B7833B110210C48E5
:1056900012F058FE0B4813F0D5FAFFF795FAFFF712
:1056A000D1FABDE87040FFF727BD00BF7A52FF1F57
:1056B000D834FF1F98EEFF1F1CE6FF1F060A0020CC
:1056C0009C5B02001847FF1F70B52349234A244CF6
:1056D0002448002301250B701380E58108F0B6FFF4
:1056E000002838D0064619F07BFA322813D030460D
:1056F00019F076FA41F28833984204BF022363829C
:10570000194B1B7863B9FFF75FFAFFF79BFABDE807
:105710007040FFF7F1BC144B65821B78002BF2D070
:105720000C21124812F00EFE638A04EB83046069B8
:1057300018F0E4FB41EC100B02210D4813F0DCFAE9
:105740000B4813F07FFAFFF73FFAFFF77BFABDE84B
:105750007040FFF7D1BC70BD98EEFF1F7A52FF1F5B
:10576000D834FF1F9CEEFF1F060A0020B05B02002A
:105770001847FF1FF8B5804808F068FF002800F0C0
:10578000CF80044619F02CFA632806D0204619F081
:1057900027FA002800F09280F8BD784B1B78002B88
:1057A00040F0B680764D774C774F784E4FF40672C6
:1057B0000021284619F0E4FD75497648696044F2F5
:1057C0003B31754B2980A86074497548EC614FF0F6
:1057D0007E5400226F61AE612C62724E724C69621F
:1057E000A86201210220714F2E63C5E91023C5E98B
:1057F0001223C5E91423C5E91623C5E91823C5E911
:105800001A23C5E91C23C5E91E23C5E92023C5E9E0
:105810002223C5E92423C5E92623C5E92823C5E9B0
:1058200048236C63A981E981698285F8391085F87C
:10583000380085F83A005E4CEF625126C5E94A23EC
:105840005C485D4985F80062C5E94C23C5E94E23F3
:10585000C5E95023C5E95223C5E95423C5E95623B8
:10586000C5E95823C5E95A23C5E95C23C5E95E2388
:10587000C5E960234FF4A07240F6BA63C5F80C4244
:10588000C5F81002C5F81412A5F80222A5F80422E2
:10589000A5F80632A5F808326C1E05F2172614F892
:1058A000011F601B11F016F8A642F8D1FFF78CF922
:1058B000FFF7C8F9BDE8F840FFF71EBC2E4808F016
:1058C000C5FE002856D019F087F951EC100B18F0DE
:1058D00061FE2B4DA861284808F0B8FE30B119F0E0
:1058E0007BF951EC100B18F055FEE861334C04F5D0
:1058F000067614F8011F601B10F0ECFFA642F8D1E9
:10590000FFF762F9FFF79EF9BDE8F840FFF7F4BB37
:1059100019212B4812F016FD2A4813F093F941E79C
:1059200017212948164C12F00DFD264813F08AF96C
:105930001621264812F006FDA06918F0DFFA41ECA6
:10594000100B03211F4813F0D7F91E4813F07AF902
:1059500016211F4812F0F6FCE06918F0CFFA41EC6E
:10596000100B0121174813F0C7F91648BDE8F8409D
:1059700013F068B9024DAEE79CEEFF1FD434FF1F51
:10598000D834FF1F00409C45CDCCCC3D00004842A0
:1059900000007A444FFE79440000F03FFFEB2F2EC9
:1059A00000247449295C8F3D77CCAB3224396C34A8
:1059B0003A23CA3FCA2F673700009040D734FF1FF1
:1059C000085C02001847FF1FC05B0200D85B0200A2
:1059D000F05B020030B5154B154C83B000251D80DF
:1059E000FFF7F2F8FFF72EF9FFF786FBA122B4F9D3
:1059F0000C30009229462046262201950EF0BAFC72
:105A000020464FF6E07110F0D1FC0A4BE3612046CE
:105A10003E22142110F0AEFC20461A22064913F053
:105A2000FBF803B0BDE83040FEF78ABB6473FF1F8C
:105A3000D8E5FF1FE88A0200245C0200F0B5254B80
:105A40002549264D264F274E002483B04FF480323F
:105A50000C809C61DA61FFF7B7F8FFF7F3F8FFF706
:105A60004BFBA122B5F90C30009201942146284647
:105A700026223C800EF07EFC28464FF6E07110F0A6
:105A800095FC214628463C22EE6110F073FC284626
:105A900021221549154F13F0BFF8214628465222FE
:105AA00010F068FC124B1349EB612846242213F0D6
:105AB000B3F8DFF854E010481049114A114BEE6179
:105AC0008EF800403C7004700C7014701C7003B0B1
:105AD000F0BD00BF7873FF1FC46EFF1FD8E5FF1F26
