:1000000000000320D101000001780100B977010050
:10001000B9770100B9770100B9770100B97701001C
:10002000B9770100B9770100B977010001780100C3
:1000300001780100B97701002D9901003199010083
:1000400001780100017801000178010001780100C8
:1000500001780100017801000178010001780100B8
:1000600001780100017801000178010001780100A8
:100070000178010001780100017801000178010098
:100080000178010001780100017801000178010088
:100090000178010001780100017801000178010078
:1000A000B13E0100BD3E0100017801000178010070
:1000B0000178010001780100017801000178010058
:1000C0000178010001780100017801000178010048
:1000D000017801004D8201000178010001780100E2
:1000E0000178010001780100017801000178010028
:1000F0000178010001780100017801000178010018
:100100000178010001780100017801000178010007
:1001100001780100D9840100017801000178010013
:1001200001780100017801000178010001780100E7
:1001300001780100017801000178010001780100D7
:10014000E1960100017801000178010001780100C9
:1001500001780100017801000178010001780100B7
:100160000178010001780100C93E01000178010019
:100170000178010001780100017801000178010097
:100180000178010001780100017801000178010087
:100190000178010001780100017801000178010077
:1001A0000178010001780100017801000178010067
:1001B0000178010001780100017801000178010057
:1001C0000178010001780100017801000178010047
:1001D0005C4B4CF2205210B51A804DF628121A8052
:1001E00000BF00BF17F010FB574B4FF030621A6092
:1001F000564A9A60564ADA60564B4FF470021A60BB
:10020000554B564A1A60564B1A78110703D51A787F
:1002100042F008021A70534B5349AA221A70534AEB
:10022000534B8B4204D252F8040F43F8040BF8E707
:10023000504B514900228B4202D243F8042BFAE77B
:100240004E494F4A002352F8230041F8230001335E
:10025000742BF8D14B4B4C4A802103F8011B93427D
:10026000FBD14A4B454A1A60494B8A221A70A3F5C2
:10027000805324225A70A0221A709A799207FCD5D2
:100280009A79D406FCD4434A937903F00C03082BE3
:10029000FAD1414B60221A7002331A78802AFCD1BD
:1002A0003C4B01221A715D225A719A799006FCD555
:1002B0009979384A4906FBD5384B394919600021EC
:1002C000596020231370937903F00C030C2BFAD19F
:1002D000344B354A1A60354A354C136813F4807331
:1002E00003D123604FF4A8531360324B324A1A6093
:1002F00000225A60072243F8042C304AC3F80C2D20
:1003000062B617F043FC2368DA0705D52C4817F0CE
:10031000CDFB2C4B2C4A1A602C4B1B785B0609D565
:10032000284C294B22689A4204D1254817F0BEFB7D
:10033000002323601FF0A8FB17F06CFA19F038FDBA
:10034000FEE700BF0E20054030800440823F0400DD
:100350000100002B88ED00E0002008E0030000858C
:1003600002D0074000E007408851FF1F5CE0030017
:10037000302FFF1F8851FF1FDC370020002AFF1F8E
:100380000000000000E400E064E400E008ED00E0AC
:10039000005006400040064001E007404480044011
:1003A0000000060204800440C010070010D0034083
:1003B00014D0034014E000E01FBF02000000202022
:1003C00064ADC35F1CE00340A5C3945A00F007402E
:1003D000FFFFFFFFFFFFFFFFFFFFFFFFFFFFFFFF2D
:1003E000FFFFFFFFFFFFFFFFFFFFFFFFFFFFFFFF1D
:1003F000FFFFFFFFFFFFFFFFFFFFFFFFFFFFFFFF0D
:10040000FFFFFFFFFFFFFFFFFFFFFFFFDEF9FFFF23
:1004100010B5054C237833B9044B13B10448AFF33E
:1004200000800123237010BD8851FF1F00000000D1
:1004300058E00300084B10B51BB108490848AFF35A
:1004400000800848036803B910BD074B002BFBD0A0
:10045000BDE81040184700BF000000008C51FF1F8E
:1004600058E003008851FF1F00000000014B0522E7
:100470001A807047F88BFF1F704700BF10B5044605
:10048000006808B119F09EFC204610BD30B5084840
:10049000084CB0F90C3083B000210E22019100927B
:1004A0000125B9225021257014F0A8FE03B030BDFB
:1004B00008E6FF1F6B41FF1F70B5064C04F506767A
:1004C000651C14F8011F601B17F048F9B442F8D1FD
:1004D00070BD00BFD734FF1F08B50E4B0E48012278
:1004E0001A700EF0F7FF68B10C4B02221A801FF051
:1004F000BBFA0B4A0B4B108000221A800A4B0022D9
:100500001A7008BD074B42F20F721A80064B002288
:100510001A7008BDC8EEFF1FE0EEFF1F8007002025
:1005200040E6FF1FB23BFF1F6A41FF1F10B50446A4
:1005300019F080F8204610BD08B50121002017F001
:10054000C7FA00210120BDE8084017F0C1BA00BF7A
:1005500008B50121242017F0BBFA00212320BDE8B3
:10056000084017F0B5BA00BF08B50021272017F0E2
:10057000AFFA0121262017F0ABFA00212520BDE8B3
:10058000084017F0A5BA00BF704700BF704700BF12
:1005900038B5094A094B0A4C0A4911600025042262
:1005A0000948257014211A8018F010FE0748BDE88C
:1005B000384019F08BBA00BFCC8CFF1F14DDFF1F31
:1005C000C8EEFF1F0AD7233C405B02002847FF1FED
:1005D000F0B5274F274A3B78012111709A0783B065
:1005E00020D5254D2B88B3B1244E002406EB84037F
:1005F000D3ED007A2248FCEEE77A0134CDED017AA2
:10060000BDF8041019F0B2FA1D4819F05FFA2B88F2
:10061000A4B2A342EAD804211A4818F0D7FD18F072
:1006200089FE3B78DB0720D5134D2B88B3B1134EE1
:10063000002406EB8403D3ED007A1348FCEEE77A3E
:100640000134CDED017ABDF8041019F08FFA0E488F
:1006500019F03CFA2B88A4B2A342EAD80948042135
:1006600003B0BDE8F04017F04FBD03B0F0BD00BFD0
:100670003030FF1FC8EEFF1FAC3BFF1F6C55FF1F44
:100680002847FF1F585B02001047FF1FF8B51248AC
:100690000EF020FF88B11FF0E7F9104DA8816C1E05
:1006A00005F2172614F8011F0C4F601B17F056F8BF
:1006B000B442F7D10A4B1B7803B9F8BD10210948A1
:1006C00018F084FDB989084819F050FA0648BDE8C9
:1006D000F84019F0FBB900BFE0EEFF1FD834FF1F50
:1006E0004E0A0020605B02002847FF1F10B508215A
:1006F000154818F06BFD00230A224FF406711348C9
:1007000019F0F4F91C21124818F060FD0F4819F097
:10071000DDF9002421460D4819F028FA01210D4881
:1007200018F054FD204616F0FFFF002301460A2270
:10073000064819F0DBF90134044819F0C7F9B4F59B
:10074000067FE7D110BD00BF745B02002847FF1F82
:10075000805B0200A05B020070B5124C124EA389B0
:1007600082B000250E22503B1BB220468DE82400AB
:100770005021B922357014F041FD20464FF6FF712B
:1007800016F058FD094BE3612046B922912116F07D
:1007900035FD07492046192202B0BDE8704019F026
:1007A0007FB900BF08E6FF1F6B41FF1F14AE0200B8
:1007B000A45B020010B50E4C23789A070FD4DB0718
:1007C00000D410BD01210B4817F09EFC0A4819F017
:1007D0007DF904210948BDE8104017F095BC0921B6
:1007E000074818F0F3FC074819F070F92378E6E79A
:1007F0003030FF1FC85B02001047FF1F585B02002C
:10080000C05B02002847FF1F10B5114C23789A07E0
:100810000FD4DB0700D410BD0B210E4817F074FC79
:100820000D4819F053F904210C48BDE8104017F0A9
:100830006BBC0B21074818F0C9FC094819F046F9B0
:100840000421064818F0C2FC18F074FD2378E0E794
:100850003030FF1FCC5B02001047FF1F585B0200C7
:100860002847FF1F30B51E4C83B00025A122B4F9E4
:100870000C300092204629462622019514F0BEFC39
:1008800020464FF6E07116F0D5FC164BE361294681
:1008900020463C2216F0B2FC20461622124919F0DE
:1008A000FFF8124B5A8A03EB820358691EF06AFA6A
:1008B00041EC100B2046022119F062F92046052276
:1008C0000B4919F0EDF8294620465A2216F096FCFD
:1008D00008492046292203B0BDE8304019F0E0B8AD
:1008E00008E6FF1F109B0200D85B0200D834FF1FF0
:1008F000D07F0200F05B020010B51B4C1B4A23782E
:10090000012111709A0717D4DB0700D410BD05210F
:10091000174817F0F9FB5421164819F027F9092157
:10092000154817F0F1FB134819F0D0F804211348CB
:10093000BDE8104017F0E8BB0321114818F046FC51
:100940005421104819F012F909210B4818F03EFC07
:100950000C4819F0BBF80421084818F037FC18F0CF
:10096000E9FC2378D0E700BF3030FF1FC8EEFF1F3F
:100970002C5C02001047FF1F205C0200585B020045
:100980001C5C02002847FF1F70B5234C23482378C6
:100990002349244D0022012602700A709A072E7006
:1009A0001DD4DB0700D470BD09211F4817F0ACFB34
:1009B0001E4819F08BF80C211D4817F0A5FB1B48A9
:1009C00019F084F817211B4817F09EFB174819F0FF
:1009D0007DF804211848BDE8704017F095BB092147
:1009E000114818F0F3FB154819F070F80C21104865
:1009F00018F0ECFB114819F069F817210D4818F0B0
:100A0000E5FB0E4819F062F804210B4818F0DEFBF4
:100A100018F090FC2378C4E73030FF1FD034FF1F5C
:100A20004E0A0020C8EEFF1F345C02001047FF1F73
:100A3000405C0200505C0200585B02002847FF1F28
:100A400010B50F480EF046FD48B10E4904461FF0A0
:100A5000EBFE88B120460C491FF0E6FE00B110BD48
:100A60000A4B0B48012212211A7018F0AFFB0948FB
:100A7000BDE8104019F02AB8044B187010BD00BF33
:100A8000E0EEFF1FE8D50300DC790200D034FF1F41
:100A9000685C02002847FF1F70B5324E3248334D64
:100AA000334C032118F092FB338803EB430305EB2F
:100AB000031318681EF066F941EC100B2046032161
:100AC00019F05EF804212B4818F080FB2A4B2046D1
:100AD00093ED000B022119F053F80521274818F077
:100AE00075FB274B204693ED000B022119F048F8C7
:100AF0000521244818F06AFB234B204693ED000B98
:100B0000022119F03DF80621204818F05FFB204B28
:100B1000204693ED000B022119F032F809211D48FF
:100B200018F054FB338803EB430305EB031393EDF9
:100B3000040B2046052119F023F80821164818F067
:100B400045FB338803EB430305EB031595ED060BDB
:100B50002046022119F014F82046BDE8704018F034
:100B6000B5BF00BF4CE6FF1F7C5C02006830FF1F72
:100B70002847FF1F805C0200608BFF1F885C02001B
:100B800088070020905C0200588BFF1F985C0200D1
:100B9000508BFF1FA05C0200AC5C0200F0B5314A34
:100BA000314C324EB4F90C3083B00025A121062718
:100BB0008DE82200204629461780262214F01EFBCD
:100BC00020464FF6E07116F035FB294620462622D6
:100BD000E66116F013FB20462422254918F060FF39
:100BE000294620463E2216F009FB224B2249E361AA
:100BF00020462F2218F054FF29462046562216F090
:100C0000FDFA204629221D4918F04AFF29462046B0
:100C10006E2216F0F3FA20461422194918F040FF0C
:100C200029462046862216F0E9FA20462422154954
:100C300018F036FF294620469E2216F0DFFA20469D
:100C40002C22114918F02CFF29462046B62216F016
:100C5000D5FA20462E220D4918F022FFE66103B096
:100C6000F0BD00BFF88BFF1F08E6FF1F109B0200BE
:100C7000B85C020074D30200E05C0200105D020068
:100C80003C5D0200545D02007C5D0200AC5D020030
:100C9000F0B5314A314C324EB4F90C3083B00025F6
:100CA000A12106278DE8220020462946178026220A
:100CB00014F0A4FA20464FF6E07116F0BBFA29466C
:100CC00020462622E66116F099FA2046232225497D
:100CD00018F0E6FE244BE361294620463E2216F03A
:100CE0008DFA20462A22214918F0DAFE29462046AC
:100CF000562216F083FA20461E221D4918F0D0FE17
:100D0000294620466E2216F079FA20461B22194900
:100D100018F0C6FE29462046862216F06FFA2046B5
:100D20002522154918F0BCFE294620469E2216F0C1
:100D300065FA20461622114918F0B2FE29462046CF
:100D4000B62216F05BFA20462D220D4918F0A8FEB7
:100D5000E66103B0F0BD00BFF88BFF1F08E6FF1F80
:100D6000109B0200DC5D020074D30200005E0200F2
:100D70002C5E02004C5E0200685E0200905E020083
:100D8000A85E0200F0B52B4B2B4885B000241C70E8
:100D90000EF0A0FB30B31EF067FE284E00B2A0425A
:100DA000308031D020DD264B264F0FCB6C4607C458
:100DB00002226D4623703A80234B1B7893B10C219D
:100DC000224818F003FAB6F90010214818F0CEFEB8
:100DD00028461FF0F5FE0146284618F0F7F91C4892
:100DE00018F074FE05B0F0BD013017D0DFF86CE0EC
:100DF0003480BEE80F006F460FC7124BDEF80020AC
:100E00003A706D461C80D7E7124B0E4F0FCB6C46E5
:100E100007C401226D4623803A80CDE70E4B094C72
:100E200093E807006B4603C303216D461A802180B7
:100E3000C2E700BFC8EEFF1FE0EEFF1F98C2FF1F12
:100E4000E85E020014DDFF1F4E0A0020185F02005A
:100E50002847FF1FD85E0200F85E0200045F020010
:100E60002DE9F041664B674A1B884FF6FE710E2B49
:100E700082B0118060D0DFF8C481634F634C644E50
:100E80000025DF2320460195294600930F2240F2DA
:100E90002D1314F0B3F90F232A4601952946204655
:100EA0000093192314F0AAF920464FF6E07116F0CA
:100EB000C1F9294620462622E66116F09FF9204610
:100EC00001225449544D18F0EBFD20463C221421D8
:100ED00016F094F920461822504918F0E1FD3A2204
:100EE0002046D22116F08AF9D8F80000E5611DF0FD
:100EF00049FF41EC100B2046022118F041FE20462C
:100F00005A221421E66116F079F920461522444947
:100F100018F0C6FD20465822D22116F06FF9386825
:100F2000E5611DF02FFF41EC100B2046022102B0BD
:100F3000BDE8F04118F024BE3A4B1B88012B2DD0A0
:100F4000022B0DD0032B46D12F4FDFF8F080D7EDC9
:100F5000007AB1EE047A77EE877AC7ED007A8DE7F2
:100F6000DFF8D880D8ED007AB0EE007AF4EEC77AD8
:100F7000F1EE10FA2DDDDFED2C6AF4EEE67AF1EEFB
:100F800010FA37DCDFED296AF4EEE67AF1EE10FABA
:100F90001DDD274BC8F800301B4F6FE7DFF89C8042
:100FA000D8ED007AB3EE047AF4EEC77AF1EE10FAD7
:100FB0000FD5DFED206AF4EEE67AF1EE10FAE8D410
:100FC000DFED1A6AF4EEE67AF1EE10FA12D488ED4B
:100FD000007A0D4F52E7042B7FF44DAF0A4FDFF834
:100FE0005C80D7ED007AB1EE047A77EEC77AC7ED70
:100FF000007A43E7104BC8F80030034F3EE700BFCC
:10100000688BFF1FF86EFF1FA8BFFF1F08E6FF1FBA
:10101000109B0200586F020060C40200285F0200AB
:10102000445F0200FA8BFF1F9A9921413333A3409A
:101030000000A0406666064000002041CC34FF1F3F
:1010400010B50E480EF046FA70B11EF00DFD0446C4
:101050000A480EF03FFA38B11EF006FDC1B2A0B248
:10106000BDE8104016F07ABB2B21054818F0AEF809
:101070000448BDE8104018F029BD00BFE0EEFF1F96
:101080005C5F02002847FF1F10B516480EF022FAD9
:1010900078B1154904461FF0C7FB58B120461349E3
:1010A0001FF0C2FB28B9124B124A1B7801211170A4
:1010B0007BB910BD0E4B0F4A1B781070002BF8D077
:1010C0000B210D4818F082F80C48BDE8104018F0CC
:1010D000FDBC0F210A4818F079F80848BDE8104017
:1010E00018F0F4BCE0EEFF1FE8D50300DC79020045
:1010F000D034FF1F4E0A0020885F02002847FF1FE0
:10110000945F0200FFFFFFFF2DE9F84F6A4D05F5E0
:101110000676AA462C46601B16F006FB04F8010B67
:10112000B442F8D1DFF8CC81644E08F1700708F1C1
:10113000E00908F5A87BBE464C4658464146334672
:101140000022B1EC026BBEEC027B83ED046B83EDFD
:10115000067BB4EC026BB0EC027B0832702A83EDA4
:10116000086B83ED0A7B03F13003EAD11B2154485D
:1011700018F02CF800230A229AF80012514818F0AF
:10118000B5FC504818F0A2FC9AF80032452B60D804
:101190004D4A9FED456B9FED467BA2F17000A2F199
:1011A000E001A2F5A873A3EC026B9F42A1EC027BC5
:1011B000A0EC026BA2EC027BF5D146233B2231214D
:1011C00042488AF800328AF8002017F0FFFF3D48B5
:1011D00018F07CFC4A213E4817F0F8FF394818F017
:1011E00075FC9AF800324F2B35D93A4C04F5067A43
:1011F00014F8011F601B16F0B1FA5445F8D1002312
:10120000B8EC026BB7EC027BF9E80245FBE802019F
:101210000833702B86ED046B86ED067BC6E9084526
:10122000C6E90A0106F13006EAD10F212A4817F073
:10123000CDFF00230A224FF40671224818F056FC15
:101240000621264817F0C2FF1E48BDE8F84F18F0E7
:101250003DBC4F2BD3D8224A224BCAF80C22CAF8E5
:1012600010324FF4A07240F6BA63AAF80222AAF82C
:101270000422AAF806321C4AAAF808323421542360
:101280001A48CAF814228AF8003217F09FFF0D4856
:1012900018F01CFC2E21164817F098FF094818F08A
:1012A00015FCA2E7AFF30080000000000000F03F53
:1012B0000000000000000000D834FF1F6830FF1F4E
:1012C000A45F02002847FF1F6836FF1FC05F0200AF
:1012D000F45F0200D734FF1FA8600200B86002006C
:1012E0003A23CA3FCA2F673700009040406002008F
:1012F000786002001835FF1F70B524488CB00EF0DE
:10130000E9F840B31EF0B0FB214D85F838001F48C6
:101310000EF0E0F818B11EF0A7FB85F839001B4865
:101320000EF0D8F818B11EF09FFB85F83A00174868
:101330000EF0D0F818B11EF097FB85F83B00154C65
:1013400004F5067614F8011F601B16F007FAB44284
:10135000F8D10CB070BD0E480F4990F8393090F8B4
:10136000382090F83B4090F83A008DE8110003A82F
:101370001FF09EF903A81FF023FC014603A817F0F5
:1013800025FF064818F0A2FB0CB070BDE0EEFF1F71
:10139000D834FF1FD734FF1FC06002002847FF1F4B
:1013A00010B52D480EF096F8C8B12C4904461FF030
:1013B0003BFAA8B92A4B2B4A1B781070002B43D15B
:1013C00025480EF087F8044648B124491FF02CFA4E
:1013D000D8B9234B244A1B781070002B2BD110BD99
:1013E000204622491FF020FA0028E9D11C4B1D4A53
:1013F0001B7801211170002BE2D013211C4817F03B
:10140000E5FE1C4818F062FBDAE7204617491FF09A
:101410000BFA0028E3D1124B134A1B7801211170FB
:10142000002BDCD01521144817F0D0FE1148BDE880
:10143000104018F04BBB1921104817F0C7FE0D489B
:10144000BDE8104018F042BB17210D4817F0BEFE52
:10145000084818F03BFBB3E7E0EEFF1FE8D50300B8
:10146000D034FF1F6C41FF1FC043FF1FDC79020017
:10147000F86002002847FF1F286102000C6102008B
:10148000E0600200FFFFFFFF70B569480EF022F830
:10149000002850D01EF0E4FA5FA3D3E9002351ECFA
:1014A000100B1DF0C3FC1DF0B9FF624D686260486F
:1014B0000EF010F830B11EF0D3FA51EC100B1DF005
:1014C000ADFFA8625A480EF005F858B11EF0C8FAF0
:1014D00053A3D3E9002351EC100B1DF0A7FC1DF022
:1014E0009DFFE86252480DF0F5FF30B11EF0B8FAEA
:1014F00051EC100B1DF092FF28634D480DF0EAFFF0
:1015000058B11EF0ADFA48A3D3E9002351EC100BFB
:101510001DF08CFC1DF082FF68634548464C0DF0C1
:10152000D9FF04F5067614F8011F601B16F016F9B2
:10153000B442F8D170BD0446172140483D4D17F024
:1015400045FE3F4818F0C2FA0F213E4817F03EFE14
:1015500095ED097ADFED3C7A67EE277A17EE900A6F
:101560001DF010FC41EC100B0121354818F008FB70
:10157000334818F0ABFA0F21344817F027FEA86A59
:101580001DF000FC41EC100B21462D4818F0F8FA34
:101590002B4818F09BFA0F212D4817F017FE95EDF8
:1015A0000B7ADFED2C7A67EE277A17EE900A1DF0A2
:1015B000E9FB41EC100B0321214818F0E1FA204827
:1015C00018F084FA0F21244817F000FE286B1DF054
:1015D000D9FB41EC100B0421194818F0D1FA184836
:1015E00018F074FA0F211D4817F0F0FD95ED0D7AF3
:1015F000DFED1B7A67EE277A17EE900A1DF0C2FB2B
:1016000041EC100B01210E4818F0BAFA0C48BDE865
:10161000704018F05BBA00BF000000809997713DE0
:10162000000000A0F7C6B03E000000E00B2E113E07
:10163000E0EEFF1FD834FF1FD734FF1F40610200C8
:101640002847FF1F58610200A5D468536861020053
:1016500078610200002474498861020098610200E8
:10166000286B6E4E2DE9F04F9F4BDFF894B29F4AE6
:101670001B681268DBF800109D482DED048B0233C7
:1016800087B01BB2013A05390024009312B209B2A7
:1016900001944FF4837313F0B1FD4FF62055934B33
:1016A000DBF800101A68924800952244053912B2FE
:1016B000283409B24FF4827313F0F8FBC82CEED132
:1016C00014244FF62055894BBBF900101A6888483E
:1016D0000095224412B22834FF2313F0E7FBB42C08
:1016E000F1D19FED848A9FED849A0624F6EE008A5C
:1016F00078EE287ADBF800307C4A7D48B2F9002089
:10170000FDEEE77A4FF6205517EE901A194409B20C
:101710000095A52313F0BAFB013C38EE098AE7D106
:101720009FED768ADFED748A0627F6EE007A78EE72
:10173000277ADBF800306D4A6D48B2F900206B4D16
:101740006F4CFDEEE77A4FF6205617EE901A1944CB
:1017500009B20096A02313F099FB013F38EE288AC6
:10176000E3D12368B5F900206148009603F1FF0139
:1017700009B2A023634E039613F088FB23682A68FE
:101780005B48009703F12B01023212B209B2102319
:1017900013F07CFB21682A68554800970232EB3130
:1017A00012B209B2102313F071FBDFED578A9FEDDF
:1017B000578ADFF85CA13C463A4619E0DBF8001096
:1017C0004B48A4B231442B1B621C4FF6FF761BB270
:1017D00012B209B2009613F059FB039B0137023392
:1017E000FE2F03930AF1020A00F0948044464A4611
:1017F000BEB2B31EFC2B40F2C381039BBAF900E0DA
:10180000B3F90050384B1868384B00F10108C64551
:101810001FFA80FC1868C4BF0CF1010E0FFA8EFE8F
:101820000138A845B8BF0CF10105604481B2B8BFCA
:101830002DB2CEEB010E4D1B1FFA8EFEADB20FFA8C
:101840008EF90FFA85F8002F00F09781C2EB09039B
:10185000C4EB0801012B049121DDDBF800102448C2
:1018600092B2C2EB0E03314401324FF0000C1BB2B6
:1018700012B209B2CDF800C013F008FB049B012B93
:101880009CDC049BDBF800101948013313DB314466
:1018900009B24FF6FF73424613F06CF99DE701332E
:1018A00014DBDBF800101248314409B200234A4629
:1018B00013F060F9E2E7631B31444FF6FF720092C8
:1018C0001BB209B2424613F0E1FA86E7DBF80010DA
:1018D0000748CEEB02033144002200921BB209B24A
:1018E0004A4613F0D3FAC9E72C30FF1F3830FF1FE8
:1018F00008E6FF1F00000000ACAA2A42A9AAAA41DC
:101900003430FF1FD052FF1FEC51383E295C8F3D11
:101910002805002015224621CC4815F06FFCCC4B41
:10192000CC4AD3ED007A92ED857A77EE277A17EEDE
:10193000900A1DF027FA41EC100B0221C34818F061
:101940001FF915224FF48271C04815F057FCC24BA5
:10195000D3ED007AF5EEC07AF1EE10FA40F307818C
:1019600017EE900A1DF00EFA41EC100B0121B7485A
:1019700018F006F9B94BBA4A03F5007033F8021FA4
:1019800022F8021F9842F9D1B64B1B78002B00F0C9
:10199000E9804FF6FF71AD48B34DB44E9FEDB48A68
:1019A00015F048FCA948B34BC3612422F02115F07F
:1019B00025FC0822B049A54818F072F82E22F02123
:1019C000A24815F01BFC0422AC49A04818F068F8A6
:1019D0002E2240F213119D4815F010FC96ED007A6E
:1019E000D5ED007A77EEC77A4FF4FC6477EE887A0B
:1019F00017EE900A1DF0C6F941EC100B0121934837
:101A000018F0BEF83822F021904815F0F7FB0A22B2
:101A10009B498E4818F044F8382240F213118B4845
:101A200015F0ECFB4222F021884815F0E7FB0A2272
:101A30009449864818F034F84C2240F21311834838
:101A400015F0DCFBD6ED006AD5ED007A9FED8E7ABD
:101A500077EEE67A4FF4784577EE887A77EEC77AB4
:101A600017EE900A1DF08EF941EC100B012177481A
:101A700018F086F85622F021744815F0BFFB0522B5
:101A80008249724818F00CF8562240F213116F4840
:101A900015F0B4FB7E4BD6ED006AD3ED007A9FEDD6
:101AA0007D7A77EEE67A77EEC77A17EE900A1DF028
:101AB00069F941EC100B0121644818F061F8764B8C
:101AC00062481A68DBF80030009403F10D019E3281
:101AD00012B209B21C2313F0E9F96F4B5B481A6884
:101AE000DBF80030009503F129019E3212B209B2F1
:101AF000042313F0DBF9684B54481A68DBF8003014
:101B0000009403F12D019E3212B209B2802313F02A
:101B1000CDF9614B4D481A68DBF80030009403F1B1
:101B20000D019F3212B209B21C2313F0BFF95A4BB8
:101B300046481A68DBF80030009503F129019F320E
:101B400012B209B2042313F0B1F9534BDBF80010C1
:101B50001A683E4800949F322D3112B209B2802398
:101B600013F0A4F907B0BDEC048BBDE8F08F04229C
:101B70004A49364817F094FFFCE64446049790E63D
:101B8000474BB3F90030002B3FF437AE039931F9DE
:101B9000023C07EE103A3AF9023C07EE903AB1F9EE
:101BA000003006EE903ABAF90030B8EEC77A05EE8A
:101BB000903AF8EEE77AB1F90230F8EEE66A06EE0E
:101BC000103AF8EEE55ABAF9023027EE287A67EEB5
:101BD000A87AF6EE004AA6EEA47A05EE103AE5EEF3
:101BE000A47A31F9043CB8EEC66A06EE903AB8EE33
:101BF000C55A3AF9043CA6EE287A05EE903AE5EE8D
:101C0000287AB1F90430F8EEE66A06EE103AF8EEFA
:101C1000E55ABAF90430A6EE887AE5EE887A06EE3F
:101C2000903AB8EEC66AF8EEE66AA6EE087AE6EEF4
:101C3000887ABDEEC77AFDEEE77A8DED047ACDEDB8
:101C4000057ABDF91050BDF914E0DBE508E6FF1F89
:101C5000D8DCFF1FD834FF1FC0BFFF1FCE52FF1FAD
:101C600026050020A0DBFF1F08DDFF1F10DDFF1F82
:101C700046B6A14114AE0200B0610200BC61020090
:101C8000C4610200D0610200713DAC41DC61020020
:101C90006855FF1F31082C3D3830FF1FA861020036
:101CA000FADDFF1F70B5044608460D461EF088FF9A
:101CB00023680246294620465B68BDE87040184705
:101CC00038B5044608460D461EF07AFF23680246E2
:101CD00029465B68204698470546204617F0F6FEE1
:101CE000284438BD2DE9F04FBF4FC04C3B88C04E53
:101CF00004EB43132DED068B9B8A00EE103A83B064
:101D0000B8EE400A19F09EFCBA48BB4BBB4A0360D0
:101D100006F50065B1463346D3ED007AB2EC017AA0
:101D200077EE877AE3EC017AAB42F5D1DFF82C83CA
:101D30003A88B8F8003004EB42120133928A9BB221
:101D40009A42A8F8003000F229819FEDAD7AA84AA6
:101D500080ED007A00218A460B46F2EC017AF4EE1F
:101D6000C77AF1EE10FA04DDB0EE677A1FFA83FA53
:101D700001210133B3F5007FEFD1002940F0AB82A0
:101D8000B2EE04AABAF1010F60EE0A9A40F21D8287
:101D9000BAF5FF7FC0F0D8819A4B9B4AD3ED007A09
:101DA00093ED010A09EB8A0337EE800A13ED019ADD
:101DB000D3ED008A82ED000A19F044FCB1EEC98A25
:101DC000924BF0EE697AD0EE0A7AB4EE488AF1EEE0
:101DD00010FAC3ED007A40F08182B1EEE80AB4EE69
:101DE000400AF1EE10FA40F08082BAF5FF7FF0EE83
:101DF000408A40F28B82DFED867AB4EEE78AF1EE1C
:101E000010FA40F1918188EEA77A3B88814A04EB71
:101E10004314B0EE006AF7EE006A36EE476A77EEDA
:101E2000266A07EE90AA86EE267AF8EE677AD4ED57
:101E3000005A9FED796ADFED796A99ED009AD9ED44
:101E4000018A77EE277A39EE288A67EEA57AE7EEDF
:101E5000866AC2ED006A724B9FED690A03F1E402E3
:101E6000F3EC017A9A4230EE270AF9D16D4B03F573
:101E70007F72F3EC017A934230EE270AF9D16A4B74
:101E8000019383ED000A19F0DDFB99ED547AD9ED49
:101E9000557AD9ED566ADFF8C8A1644A644C654F9B
:101EA0009FED65AADFF8BCB1DFF8BC9177EE277A29
:101EB000F2EE048A77EEA67A20EE287AB0EE670A70
:101EC00082ED007ACAED007A19F0BCFB019B9AED15
:101ED000007AD3ED007A594A594BDFF890A177EE9A
:101EE000877A20EE287AB0EE670AC3ED007A82ED99
:101EF000007A19F0A7FB534B20EE280A83ED000A65
:101F00002CE09AED858A19F09DFBF2EE047AA0EEA2
:101F1000278A38EE697ADBED007AD9ED006A77EE30
:101F2000277AB3EE046A67EE867A083487EEA67ADB
:101F3000023777EE0A7AFDEEE77ACDED017ABDF948
:101F40000430002BB8BF0023AC4227F8023C2AD053
:101F500014ED029A54ED018A39EE288AB5EEC08A52
:101F6000F1EE10FAB0EE480ACBDC9FED377AD2E7FB
:101F7000DB0603D535493648FFF7A2FEBAF9003033
:101F8000344A002B05DD013B9BB2002B00F0788129
:101F90001380002346F8043BAE42FBD103B0BDECF6
:101FA000068BBDE8F08F2C4BB3F90030022B00F00C
:101FB0006D81DFF8A0A0BAF9003000229342A8F8A2
:101FC0000020E6DBDFF8A8B0BBF80030002BE0D043
:101FD000DFF8A080B8F80030D80600F14A81044F3D
:101FE000DFF89090002479E0C03CFF1F4433FF1FCE
:101FF00000DEFF1F500A0020000048C31073FF1FBF
:1020000000000000F8E5FF1FE86EFF1FD8DCFF1F8F
:1020100095BFD633C0BFFF1F0000803ACDCC4C3DEA
:1020200068DEFF1F60DFFF1F888BFF1F10DDFF1FB3
:1020300008DEFF1FD052FF1F0000204308DDFF1FF6
:10204000C00A00206855FF1F7593B4C2E461020006
:102050002847FF1F98C2FF1FF86EFF1F54E6FF1F9F
:10206000DCDCFF1FA8BFFF1FCC34FF1FD834FF1FCD
:1020700014DDFF1F5A30FF1F97ED000AB5EEC00AAE
:10208000F1EE10FA4BD919F0DDFAF2EE047A60EEB7
:10209000277A17EE900A1CF075FE41EC100B032115
:1020A000A14817F06DFDB8F80030DA0709D540F205
:1020B000FF12944205D001219C4817F087F8B9F827
:1020C0000030980724D419071BD45A0712D40134BE
:1020D000B4F5007F07F104073FF44AAF9906CBD46B
:1020E00038681CF04FFE41EC100B08218E4817F0A9
:1020F00047FDD8E701218E4817F068F8B8F800309E
:10210000E5E701218B4817F061F8B8F80030DCE70B
:102110000121894817F05AF8B8F80030D3E70821B0
:10212000864817F053F8BEE740F2FF139A4577D080
:10213000B4EEE78AF1EE10FA72DC99ED009AD9ED6F
:10214000018A39EE288A86E60AF1010B09EB8A0337
:1021500009EB8B02D2ED007AD3ED008A13ED019AE0
:10216000774A78EEA77A77EE897AB0EE670AC2ED01
:10217000007A19F067FAB1EEC98A724BF0EE697A0B
:10218000D0EE0A7AB4EE488AF1EE10FAC3ED007A86
:1021900040F0B080B1EEE80AB4EE400AF1EE10FA79
:1021A00040F0AF80F0EE408A09EB8B0B9BED000A0C
:1021B000F1EEC07AF4EE677AF1EE10FA3FF41DAE5C
:1021C00019F0BCFAF0EE407A17E699ED009AD9EDD5
:1021D000018A5B4B5C4C39EE288AB0EE480A83EDED
:1021E000008A19F02FFAF0EE697AD0EE0A7A554B90
:1021F000C3ED007ABAF1000F4BD1F1EEC97AF4EEDB
:10220000677AF1EE10FA40F08980F1EEE87AF4EEA8
:10221000677AF1EE10FA7CD14C4B00221A601AE674
:10222000C8EE887A3A88494B04EB4214B0EE006A53
:10223000F7EE006A36EE676A77EEA66A07EE90AAB6
:10224000B8EE677AC6EE267AD4ED005A9FED406A62
:10225000DFED406A99ED009AD9ED018A77EE677A51
:1022600039EE288A67EEA57AE7EE866AC3ED006A42
:10227000F1E50121384816F0A9FFB8F80030AEE6C4
:102280004FF6FF71ABF80030118082E6FFF7EAF9F4
:102290008FE694ED000AF1EEC07AF4EE677AF1EE83
:1022A00010FA01D019F04AFA99ED010AF1EEC07A5C
:1022B000F4EE677AF1EE10FA01D019F03FFA99EDD9
:1022C000020AF1EEC07AF4EE677AF1EE10FAA3D0CA
:1022D00019F034FAA0E780ED007A51E5B0EE490A32
:1022E00019F02CFAB0EE408A77E5B0EE680A19F0E2
:1022F00025FA7AE5B0EE490A19F020FAB0EE408AE4
:1023000048E7B0EE680A19F019FA4BE70AF1010B39
:102310004AE7B0EE680A19F011FA7DE7B0EE490A13
:1023200019F00CFA71E700BF2847FF1FA05B0200FD
:10233000F46102003C5C0200586F0200E861020098
:10234000E86EFF1FD8DCFF1F00DEFF1FC0BFFF1FAE
:102350000000803ACDCC4C3DE461020038B5C9B2F2
:10236000054617F00DFC0446284617F0AFFB204445
:1023700038BD00BF002310B4114C417202610460EB
:102380000372C36041B1194600E0026942F82310AC
:10239000427A01339A42F8DC0A4B1A680AB90CE017
:1023A0001A465369002BFBD150610023436183809F
:1023B000C38083725DF8044B70471860F5E700BF77
:1023C000105B0200CC36002004460549054808B5DC
:1023D000FFF768FC21460348FFF772FCFEE700BFE9
:1023E000146202002847FF1F70B5194C82B0002309
:1023F00012260546019320461023012240F22F1198
:10240000009612F0FBFE0195009620461023012253
:1024100040F22F1113F072FE8DB14FF6FF7120467E
:1024200014F008FF0B4BE36106224FF49A7120462B
:1024300014F0E4FE20460122074917F031FB04485E
:102440004FF6E07102B0BDE8704014F0F3BE00BF7B
:1024500008E6FF1F14AE02009483020030B51D4A47
:102460001D4B10784FF6F77283B01A8068BBFFF7E8
:10247000BBFF1A4C0025A022B4F90C300092204674
:1024800029462622019512F0B9FE20464FF6E0714A
:1024900014F0D0FE124BE36129462046262214F0A8
:1024A000ADFE204612220F4917F0FAFA29462046BF
:1024B0003C2214F0A3FE0C4B0C49E3612046182289
:1024C00003B0BDE8304017F0EBBA4FF4FC60FFF703
:1024D0008BFFCEE700E6FF1FF86EFF1F08E6FF1F29
:1024E000489B020024620200F49A02003862020053
:1024F00010B52DED048B9FED268A20EE088A82B060
:10250000F0EE408AB0EE480A18F02EFEDFED217A98
:1025100038EE407AB4EEE77AF1EE10FA05D5B7EE70
:10252000000A38EE400A18F01FFE1B4B1B4C93EDBF
:10253000009AB7EE008A30EE088AF6EE007A28EEAE
:10254000097A87EE280A30EE270A18F00DFEC8EE49
:10255000287A134B134A1B88134803EB430302EBFF
:10256000031280EE097A67EEA88AFCEEC07A88EE44
:10257000870ACDED017ABDF8043082ED010A190A0F
:10258000A3EB01232380018002B0BDEC048B10BDBE
:10259000CDCCCC3DBD378635B43BFF1FF4DBFF1FF0
:1025A0004CE6FF1F6830FF1FF48BFF1FFFFFFFFF8C
:1025B0002DE9F047F2EE047AB4EEE70AF1EE10FAF4
:1025C0002DED028B40F28380DFED577AB4EE670A7F
:1025D000F1EE10FAA8BFB0EE670AFFF789FF534B80
:1025E00093ED018A1D461C4603F5107AD4ED197A45
:1025F000F4EEC87AF1EE10FA53DD94ED0D7A77EE31
:10260000C77A38EE477AC7EE276A16EE900A1CF0B2
:10261000B9FBD4E9108906460F464246D4E91C01AD
:102620004B461CF04FFA32463B461CF0FFFB42463D
:102630004B461CF049FAC5E90401D4E91223D4E958
:102640001E011CF03FFA32463B461CF0EFFBD4E97A
:1026500010231CF039FAC5E90601D4E91489D4E93C
:10266000200142464B461CF02DFA32463B461CF0F8
:10267000DDFB42464B461CF027FAC5E90801D4E9C8
:102680001689D4E9220142464B461CF01BFA324619
:102690003B461CF0CBFB42464B461CF015FAC5E905
:1026A0000A0130345445A1D1D5ED007A9FED207A4E
:1026B0001E4CF4EEC77AF1EE10FA0BD4BDEC028B8F
:1026C000012323811B4BC3ED007ABDE8F087B0EEF8
:1026D000670A82E717EE900A1CF054FB41EC100BDE
:1026E00018F03CFE0CA3D3E9002351EC100B1CF0B6
:1026F0009DFB0B4602460AA1D1E900011CF0E2F95C
:102700001CF044FEBDEC028BD4ED007A094B208115
:10271000C3ED007ABDE8F087000000803FB50C40B3
:10272000000000A099993840003E1C476830FF1F08
:1027300000001644ACBFFF1F012806D020B917497E
:10274000174A0123CB61D361704730B5154C134D47
:10275000012C83B0EC6103D8114BDC6103B030BDB8
:1027600080230093224605F12C03642105F120000B
:1027700018F0F0F808B10023EB61094D094AEC614B
:102780008021009105F12C0305F12000642118F04F
:10279000E1F80028E2D00023EB61DFE7DCBFFF1F98
:1027A000900700200434FF1F012810B504460ED006
:1027B00002281ED0032826D000B110BD014615F016
:1027C00087F921460120BDE8104015F081B9014686
:1027D000002015F083F92146204615F07FF90021ED
:1027E000084615F075F920460021BDE8104015F0A7
:1027F0006FB90021084615F06BF901210846BDE8C4
:10280000104015F065B9BDE81040FDF795BE00BF5A
:10281000F0B5234F234D7968BA68FB6889B0064646
:10282000386801AC0FC4386979693A8BBB7E03C440
:102830002280A3702B68002BFCDB08AB06EB46065E
:102840009819194910F81C3C30F81B4C013B621ECA
:102850001B03C2F30B0203F47F2313430B6010F836
:102860001C0C1CF06DFA0CA3D3E900231CF0DEFA5B
:10287000064620460F461CF063FA00220B4B1CF064
:10288000D5FA02460B46304639461CF0F9FB41ECBE
:10289000100B09B0F0BD00BF000000002A75A54173
:1028A000145B020000F1024004F10240000070409D
:1028B00070B5FFF7ADFF51EC100B1CF0AFFD9FEDB5
:1028C0002E7A2E492E4A2F4B91ED836A9FED2E4A88
:1028D0002E499FED2F5ADFED2F4A2F4E07EE900A1B
:1028E000C7EE276A2D4803F1A8050024C0ED007A41
:1028F000F7EE005AC2ED006AD1ED017A91ED007A4F
:10290000B1F90A0066EE277A26EE877AF5EEC07AEC
:10291000F1EE10FA27D4F4EEE57AF1EE10FA24DDA8
:102920004FF48032B5EEC07AF1EE10FA5A6218D444
:10293000B4EEC57AF1EE10FA11DC27EE247AFCEE43
:10294000C77A17EE902AB242C3ED077A07D81C6205
:1029500058863833AB4201F10C01CDD170BDDE6138
:10296000F5E7DC61F3E70022DCE767EE847AFDEE51
:10297000E77A17EE902AD5E7A6552C47D834FF1FE3
:10298000A43BFF1FF8DBFF1F000080479043FF1FA1
:10299000A655AC464B24BE470000FE7FB43BFF1F4C
:1029A0002DE9F0416E4B6F4A1B884FF6FE710D2BDF
:1029B00082B0118000F0AB806B4E6C4D33886C4C54
:1029C000DFF8D48105EB431300279888FFF770FFE9
:1029D0003388684A05EB4313DF219B8A01970091F6
:1029E00020463946138040F22D130F2212F006FCC8
:1029F0000F233A460197394620460093192312F0D7
:102A0000FDFB20464FF6E07114F014FC39462046D9
:102A10002622C4F81C8014F0F1FB204601225649FE
:102A200017F03EF820463C22142114F0E7FB204624
:102A30002122524917F034F820465222782114F00E
:102A4000DDFB37884E4BE36105EB47170C37384603
:102A50001EF0B6F839460246204617F021F8204607
:102A600078221421C4F81C8014F0C8FB20461122DF
:102A7000444917F015F878222046DC2114F0BEFBFB
:102A8000338805EB431398681CF07CF941EC100B7C
:102A90002046012117F074F820468E22142114F0EC
:102AA000ADFB20461922384916F0FAFF8E22204647
:102AB000DC2114F0A3FB3388DFED347A05EB4313FC
:102AC00093ED007A67EE277A17EE900A1CF05AF918
:102AD00041EC100B2046012117F052F82046A422A9
:102AE000142114F08BFB20461222294916F0D8FF3E
:102AF0002046A422DC2114F081FB338805EB43152A
:102B00002046A98A02B0BDE8F04117F02FB8214B4A
:102B1000154E1A883388012A1BD0022A08D0032AAE
:102B20000CD1124D05EB43118A8A52008A8246E786
:102B300013B1013B9BB233800C4D40E7042AFBD11B
:102B40000A4D05EB43118A8A032A84BF52088A8200
:102B500035E7032BF0D801339BB23380ECE700BF9D
:102B6000688BFF1FF86EFF1FC03CFF1F4433FF1F21
:102B700008E6FF1FAE3BFF1F586F02008062020095
:102B800060C40200A4620200B8620200A69BC43ABC
:102B9000D4620200FA8BFF1F109B0200DC4BDFEDBA
:102BA000DD7A30B5024693E80300B0EEC07ADA4D24
:102BB000B4EEE77A0B0CF1EE10FA83B02860A9802E
:102BC000AB7100F19F80DFEDD57AB4EEE70AF1EE4C
:102BD00010FA144600F19E80DFEDD17AB4EEE70AD8
:102BE000F1EE10FA00F1B880DFEDCE7AB4EEE70A2C
:102BF000F1EE10FA00F1CB80DFEDDE7AB4EEE70AF9
:102C0000F1EE10FA00F1CF80DFEDC77AB4EEE70AFB
:102C1000F1EE10FA00F1D380DFEDC47AB4EEE70AEA
:102C2000F1EE10FA00F1EF80DFEDC17AB4EEE70AC1
:102C3000F1EE10FA00F1F380DFEDBE7AB4EEE70AB0
:102C4000F1EE10FA00F1F780DFEDBB7AB4EEE70A9F
:102C5000F1EE10FA00F10281F7EE007AB4EEE70A25
:102C6000F1EE10FA00F13081F2EE047AB4EEE70AE8
:102C7000F1EE10FA00F1B880DFEDB07AB4EEE70AB9
:102C8000F1EE10FA00F1FD80DFEDAD7AB4EEE70A67
:102C9000F1EE10FA00F1FD80DFEDAA7AB4EEE70A5A
:102CA000F1EE10FA00F1FD80DFEDA77AB4EEE70A4D
:102CB000F1EE10FA00F11481DFEDA47AB4EEE70A28
:102CC000F1EE10FA00F11881DFEDA17AB4EEE70A17
:102CD000F1EE10FA00F15081DFED9E7AB4EEE70AD2
:102CE000F1EE10FA00F15B81DFED9B7AB4EEE70ABA
:102CF000F1EE10FA00F15F81984B93E8030085E84C
:102D0000030004E0964B93E8030085E80300824843
:102D100003B030BDDFED937A60EE277A17EE900AAC
:102D20001CF030F802460B4668468F491DF0C0FC87
:102D300068461DF045FF052823D8C0F10502002391
:102D400069462846AB541DF0D9FC216872481DF035
:102D5000D5FC714803B030BDDFED7F7A60EE277A95
:102D600017EE900A1CF00EF80B46804902462846E2
:102D70001DF09EFC616828461DF0C0FC664803B04B
:102D800030BD421C6946284614F058FADDE7DFEDF5
:102D9000727A60EE277A17EE900A1BF0F3FF0B466B
:102DA00002467349E3E7DFED6C7A60EE277A17EEAF
:102DB000900A1BF0E7FF0B4602466B49D7E7DFEDB1
:102DC000637A60EE277A17EE900A1BF0DBFF0B4662
:102DD0006649024628461DF06BFCA16828461DF096
:102DE0008DFC4D4803B030BD10EE100A1BF0CAFF39
:102DF0000B465E49024648481DF05AFC2169464888
:102E00001DF07CFC83E7DFED517A60EE277A17EE48
:102E1000900A1BF0B7FF0B4602465549DAE7DFED93
:102E20004B7A60EE277A17EE900A1BF0ABFF0B4649
:102E300002464D49CEE7DFED427A60EE277A17EE83
:102E4000900A1BF09FFF02460B46284647491DF09B
:102E50002FFCE16828461DF051FC58E7DFED387A79
:102E600060EE277A17EE900A1BF08CFF0B46404964
:102E7000024629481DF01CFCE16827481DF03EFC75
:102E800045E710EE100A1BF07DFF0B46024638495D
:102E9000B1E710EE100A1BF075FF0B4602463249EF
:102EA000A9E7DFED237A60EE277A17EE900A1BF090
:102EB00069FF0B462D49024617481DF0F9FB616971
:102EC00015481DF01BFC22E7DFED1D7A60EE277A26
:102ED00017EE900A1BF056FF0B4602462249C8E740
:102EE000DFED137A60EE277A17EE900A1BF04AFFA7
:102EF0000B4602461E49DFE7DFED0D7A60EE277ACA
:102F000017EE900A1BF03EFF0B4602461649D3E728
:102F1000E8620200132EE129F00A00205F70893078
:102F200077CC2B3295BFD633ACC5273717B7D138FE
:102F30006F12833A0AD7233CCDCCCC3D0000C84267
:102F400000007A4400401C460050C34700247449E6
:102F50008096184B20BCBE4C286B6E4E0863020056
:102F600010630200A5D46853F0620200F862020008
:102F700000630200BD3786355FED027A60EE277A86
:102F800017EE900A1BF0FEFE0B461149024611484F
:102F90001DF08EFBA1690F481DF0B0FBB7E6DFED19
:102FA0000E7A60EE277A17EE900A1BF0EBFE0B46C6
:102FB00002460A49EBE7DFED087A60EE277A17EE62
:102FC000900A1BF0DFFE0B4602460549DFE700BF13
:102FD000F8620200F00A0020BD3786350063020067
:102FE000F0620200B5EEC00A08B5F1EE10FA074B28
:102FF0004CBF2D222022B0EEC00A1A70FFF7CEFD82
:10300000014603481DF07AFD004808BD780A0020FB
:10301000790A0020FFFFFFFF2DE9F04FDFF85C8306
:10302000DFF85C93B8F81230DFF858B3C24C08EB05
:103030008303A3B0074658691BF0A4FE9FEDBA7B3B
:10304000D9F80030CDF808B07E010125CDE90401A2
:103050004FF0040A991902AA00230AA88DED067BF5
:103060008DF822300193ADF824A08DF820508DF812
:1030700021508DF823500CF091FCD9F8001002AAD1
:10308000314412A80CF064FC0AA912AA1AA80CF088
:10309000FBFC1F99019B8DF8623001F100411E9BE2
:1030A00016939DED1C7B9DED1E6B9DF88030179156
:1030B0009DF88110237661769DF882309DF883100B
:1030C000A37612AABDF88430E1761AA8214684EDD1
:1030D000027B8DED147B84ED046BCDF848B0ADF828
:1030E00064A0A3838DF860508DF861508DF8635013
:1030F0000CF07AFCDFF890E29DF881C08EF819C0E0
:10310000DDE91C23DDE91EAB9DF882C08EF81AC0F4
:103110009DF883C08EF81BC09DF88010BDF884C058
:103120008EF81810CEE90223CEE904AB1946AEF8AA
:103130001CC010461CF072F9804BDFF850A21860DA
:1031400000EE100A18F07EFAFAEE047A60EE277AA2
:1031500094ED021B94ED040BCAED007A18F096F87A
:1031600073A3D3E9002351EC100B1BF05FFE1CF09E
:1031700055F9DFF81CB298F83830CBF80000002B76
:1031800000F08D80012B00F08A816D4B1B78002BA5
:1031900040F002816B4B1B7813B923B0BDE8F08F70
:1031A000694BDFF8F08107EB470203EB0213186865
:1031B0001BF0E8FD41EC100B0321644816F0E0FC25
:1031C00098F80030002B40F056810121604815F03E
:1031D000FDFF604C5D482368334493ED020B0921E9
:1031E00016F0CEFC98F80030002B00F0538103213C
:1031F000594815F0EBFF23685448334493ED040B12
:10320000092116F0BDFC98F80030002B00F03D813C
:103210000421524815F0DAFF236851493344D3E9B9
:10322000022300201BF02CFF41EC100B0221474829
:1032300016F0A6FC23681E44D6E9040100230022F0
:103240001CF07AF898F80030002800F09181002BEB
:1032500000F064810321434815F0B8FF424B434816
:10326000BC00234493ED000AFFF798FC05461DF0CF
:10327000A7FC0146284615F0A9FF03213C4815F09C
:10328000A5FF3C4B1C4420681BF07CFD41EC100B5F
:1032900002212E48FFF762F823B0BDE8F08F2A4BD9
:1032A000DFF8F08007EB470703EB071738681BF0E0
:1032B00069FD41EC100B0321244816F061FC98F8DD
:1032C0000030002B40F0D2802946214815F07EFFC7
:1032D000DAF800001BF056FD41EC100B03211B48EF
:1032E00016F04EFC98F80030002B00F0C9800D213C
:1032F000214815F06BFF94ED021B94ED040B17F0C1
:10330000C5FF0BA3D3E9002351EC100B1BF08EFD7E
:1033100041EC100B02210D4816F032FC0B4816F060
:10332000D5FB23B0BDE8F08F0000000000000000D6
:1033300000000020DCA54C40D8DDFF1FFC6EFF1F05
:103340006C41FF1FC043FF1F6830FF1F2847FF1F4E
:10335000A05B0200B4BFFF1FA4630200A8630200C9
:103360000000F03F80630200840A00200833FF1F42
:1033700084630200948BFF1F2C630200D834FF1F6C
:10338000448CFF1FE0850200B8DDFF1FC851FF1FFE
:10339000D051FF1FD034FF1F9B4BDFF8B48207EBE7
:1033A000470203EB021318681BF0ECFC41EC100B16
:1033B0000321964816F0E4FB98F80030002B00F04B
:1033C000A8801121924815F001FFD9F800308F48EC
:1033D000334493ED020B032116F0D2FB98F8003032
:1033E000002B00F0918003218A4815F0EFFED9F8F8
:1033F00000308648334493ED040B032116F0C0FBE4
:10340000D9F800303344D3E90401002200231BF033
:103410007FFF98F80030002840F0DF80002B00F09C
:1034200092807D497948FEF73DFC7C4B7C48BC008E
:10343000234493ED000AFFF7B1FB01467348FEF702
:1034400031FC78497148FEF72DFC774B1C4420680D
:103450001BF098FC41EC100B02216C48FEF77EFF3C
:10346000724B1B78002B3FF498AE99E612217048FE
:1034700015F0ACFE2CE713216E4815F0A7FEA8E668
:1034800001216D4815F0A2FE35E701216A4815F0CB
:103490009DFEC1E60121684815F098FEABE65A4B47
:1034A000DFF8AC8107EB470703EB071738681BF021
:1034B00069FC41EC100B0321544816F061FB98F8AD
:1034C0000030002B6AD15C495048FEF7EBFB94EDCD
:1034D000041B94ED020B17F0DBFE51EC100B1BF0FC
:1034E0009DFF1BF04FFC41EC100B0521474816F0E7
:1034F00047FB98F80030002B6AD050494348FEF74C
:10350000D1FBDBF80000BFE601214B4815F05EFE61
:103510006DE72946484815F059FE56E7012146480F
:1035200015F054FE464BBC00234418681BF02AFCDF
:1035300041EC100B0C21354816F022FB01213E48CE
:1035400015F044FE9DE63C493048FEF7ABFB334B9B
:10355000BC00234418681BF015FC41EC100B09213A
:103560002A4816F00DFB34492848FEF79BFB6CE710
:10357000CBB129492548FEF795FB284B2848BC00CC
:10358000234493ED000AFFF709FB01461F48FEF7AD
:1035900089FB24491D48FEF785FB72E629491B4833
:1035A000FEF780FB93E724491848FEF77BFB1B4B93
:1035B000BC00234418681BF0E5FB41EC100B09210B
:1035C000124816F0DDFA1C491048FEF76BFB58E66E
:1035D00019490E48FEF766FB93E733B11A490B48C9
:1035E000FEF760FB0D4B194821E713490748FEF72A
:1035F00059FB0A4BBC00234418681BF0C3FB41EC89
:10360000100B0C21ACE700BF6830FF1F2847FF1FDD
:10361000686302007C63020088630200508CFF1F15
:103620002433FF1F84630200948BFF1FC043FF1FDE
:103630001863020090630200A05B02005C6302005A
:10364000840A00203C630200806302000833FF1FED
:10365000D034FF1F2DE9F0432DED028B5B4DDFF8D9
:1036600080815B4F5B4E83B00024C82322462846EE
:103670002146009301944FF4A07311F0BFFD28463A
:103680004FF6FF7113F0D6FD534BEB612846032232
:103690005F2113F0B3FD28461722504916F000FAB7
:1036A000A146D8F8003049484D4D1A1F4A4412B27D
:1036B000082113F0A3FDD6ED007A97ED007AFDEE18
:1036C000E77AB1EE477A17EE903A04FB03F307EE80
:1036D000903AF8EEE77A023477EE677A09F1280932
:1036E00017EE900A1BF04EFB41EC100B00213748FF
:1036F00016F046FA0A2C1FFA89F9D2D12A68334803
:10370000384E394F9FED398A1032214612B213F0EC
:1037100075FD032236492D4816F0C2F9B04625241E
:10372000002517E013F06AFDB8F80030274807EBD2
:103730004313D3ED027A67EE887A2B34FDEEE77AF5
:10374000A4B217EE901A05FB01F1013516F00EFA3E
:10375000062D24D033881D4821B2B722002BE1D199
:1037600013F04CFDB8F8003007EB431393ED027AE9
:1037700007EE905A27EE087AF8EEE77A013567EE01
:10378000277A2B3417EE900A1BF0FCFA41EC100B51
:1037900001210E4816F0F4F9062DA4B2DAD1B722B1
:1037A00040F21311094813F029FD0322114907487B
:1037B00016F076F9104B187808B14FF4FC6003B09E
:1037C000BDEC028BBDE8F043FEF70EBE08E6FF1F1E
:1037D000A8BFFF1FCC34FF1FF49A0200B0630200A1
:1037E0003830FF1FC03CFF1F4433FF1FCDCC4C3E81
:1037F000C8630200CC63020000E6FF1F38B5124B1D
:103800001A789AB11149124A0988124D02EB4112F5
:103810000024908829801C70FFF74AF8FFF71AFFF0
:103820000D4BB3F90030022B0AD038BD0949074AC5
:103830000C88074814800122808C0A801A70EBE7FC
:10384000BDE83840FDF70EBFA0DBFF1FD234FF1FDD
:103850004433FF1FC03CFF1FF86EFF1F10B5044626
:1038600020B1012816D002280AD010BD014624201C
:1038700014F02EF921462320BDE8104014F028B999
:103880000021242014F024F901212320BDE8104058
:1038900014F01EB9BDE81040FCF75ABE272810B539
:1038A00013D0262804461DD0252800D010BD0021A5
:1038B000272014F00DF90021262014F009F92046E4
:1038C0000121BDE8104014F003B9012114F000F902
:1038D0000021262014F0FCF800212520BDE810402E
:1038E00014F0F6B8BDE81040FCF73EBE2DE9F04FED
:1038F0002DED048B062083B0FEF78AFFB34BB44E48
:103900001B88B44A00240321142B1180B461F46194
:1039100064D0B14C0025CA232046294600932622B4
:103920004FF4A073019511F069FC20464FF6E07149
:1039300013F080FCA94BE36129462046262213F0B0
:103940005DFC20461D22A64916F0AAF8294620460D
:10395000462213F053FCA34BE361A34920462A22DD
:1039600016F09EF8294620465A2213F047FC2046BE
:1039700025229E4916F094F8294620466E2213F01F
:103980003DFC204628229A4916F08AF8294620460E
:103990008C2213F033FC20462222964916F080F840
:1039A00029462046A02213F029FC20462D229249C8
:1039B00016F076F829462046BC2213F01FFC20465C
:1039C0002E228E4916F06CF82520B561F56103B002
:1039D000BDEC048BBDE8F04FFFF760BF884B1B8840
:1039E000012B96D17C4E01940C2330460093BB22D0
:1039F0004FF4A073214611F001FC7A4F30464FF48A
:103A0000784113F017FC3046BC222146F76113F0D1
:103A1000F5FB30467B49FEF745F972B67A4D2B7FB0
:103A200003F0FF0203B12C7762B63AB172B647F6E3
:103A3000FF724FF40043EA832B8462B6DFF8DC9117
:103A4000D9F82830002B40F09F8129216F489FED45
:103A5000708ADFF8B4A19FED6F9A15F0B7FB6E483E
:103A600016F034F8F0EE488A0A244FF000081BE004
:103A700072B647F6FF734FF40041B5F91E20EB8391
:103A8000B5F92030298462B69B1A07EE903AF8EE19
:103A9000E77AD9F8283087EE897A38EE078AC3B9F1
:103AA0004FF00108013C1AD04FF4FA7014F01CF8E2
:103AB00072B62B7F03F0FF0213B100238AF81C308B
:103AC00062B6002AD4D1D9F828304FF00108002B73
:103AD000E6D052480CF0BAF978EE808AE2E7DFEDE2
:103AE000507A68EEA78A28EE278AB8F1000F00F016
:103AF00035814C4948484C4DFEF7E2F808214B48C7
:103B000015F064FB18EE100A1BF03CF941EC100BA9
:103B100007214148FEF722FC0821454815F056FBD5
:103B200018EE900A1BF02EF941EC100B07213A48D1
:103B3000FEF714FCDFED3F7ADFED3F6A68EEA78AFF
:103B4000B7EE006AC8EE887AB0EE007A77EEC67AF1
:103B500027EEA68AF0EEC87AF4EEC77AF1EE10FAF4
:103B600000F31681DFF8E890344BDFF8D880C9F80D
:103B7000003041F63D03324C18F80320002121604B
:103B800022B1002208F80320FEF7ACF84FF41670BB
:103B900013F0AAFF41F63D03002118F8032021602D
:103BA00028491AB10022CA54FEF79CF84FF4167047
:103BB00013F09AFFDFF89CA0234B9FED248A00228C
:103BC0004FF0000B1A80D04652E000BF688BFF1FF9
:103BD000048CFF1FF86EFF1F08E6FF1F489B0200C2
:103BE0006C650200F49A02008C650200B865020060
:103BF000E06502000C660200306602003C650200CF
:103C0000FA8BFF1FD063020028070020F063020038
:103C10000000000000FEFF462847FF1F500700205D
:103C2000CDCCCC3D34640200D834FF1F5C6402006C
:103C300068640200FF0435400000C84200007AC4F6
:103C4000E86EFF1FF872FF1F828BFF1F00C079C450
:103C5000D8DCFF1F358BFF1F9AF8003000210122AE
:103C600053B10023C4F800B088F80030FEF73AF8EA
:103C7000D9ED007A21680022F4EEC87AF1EE10FA4C
:103C8000EAD4002A40F0978017214C4815F09EFA9C
:103C9000D9F800001BF076F841EC100B03214848DE
:103CA000FEF75CFB99ED007ADFED467A464877EE49
:103CB000C77A1421C5ED857A15F088FAD5F8140273
:103CC0001BF060F841EC100B03213D48FEF746FB6A
:103CD000D5ED857AB0EE047AF4EEC77AF1EE10FAFB
:103CE00006D4B1EE0E7AF4EEC77AF1EE10FA03DDE7
:103CF00036493348FDF7E4FF4FF000080C23BB22A0
:103D0000414600933248CDF804804FF4A07311F07F
:103D100075FA4FF6E0712E482E4C13F08BFAF761CE
:103D20004146BC222A4813F069FA04F5067614F8D5
:103D3000011F601B13F012FDA642F8D12521264871
:103D400015F044FA1E4815F0C1FE24492048FDF73D
:103D5000A9FF03B0BDEC048BBDE8F08F9FED207A86
:103D6000204D21491648C7EE287AC5ED847AFDF723
:103D700099FFD5F810021BF005F841EC100B0B2150
:103D80000F48FEF7EBFAB9E648460CF05FF85CE640
:103D900016490B48FDF786FF18EE100A1AF0F2FFDD
:103DA00041EC100B0221064815F0EAFE10490448C8
:103DB000FDF786FFD6E6216066E700BFB06402002B
:103DC0002847FF1F9FABDFC0C8640200E064020009
:103DD00008E6FF1FD734FF1F146502003C65020090
:103DE000D1839036D834FF1F1C6402007464020033
:103DF000AC64020070B5394D2B789A07044622D581
:103E0000374B1B88002B43D0364B86003344186851
:103E10001AF0B8FF41EC100B0621334815F0B0FE44
:103E20000121324815F0D2F9314B1E4430681AF0A6
:103E3000A9FF41EC100B06212B4815F0A1FE2A48E2
:103E400015F044FE2B78DB0746D5254B1B888BB33A
:103E5000244BA400234418681AF094FF41EC100B83
:103E60000621244815F08CFE0121204814F04CF95D
:103E70001F4B1C4420681AF085FF41EC100B0621F3
:103E80001C4815F07DFE1B48BDE8704015F01EBEB5
:103E9000194B8600334418681AF074FF41EC100B7C
:103EA0000621114815F06CFE0121104815F08EF91D
:103EB000124BBAE7104BA400234418681AF062FFB3
:103EC00041EC100B06210B4815F05AFE0121074862
:103ED00014F01AF9094BCCE770BD00BF3030FF1F5A
:103EE00040E6FF1F9CC2FF1F2847FF1F586F0200BC
:103EF00090A6FF1F1047FF1F508DFF1FAC1800201A
:103F000010B50A4C23789A0708D4DB0700D410BDFB
:103F100004210748BDE8104014F0F6B80421044815
:103F200015F054F915F006FA2378EEE73030FF1F4C
:103F3000585B020038B5184C04F51C7594ED100B55
:103F40000821164815F01CFE0121154815F03EF910
:103F500094ED120B0521114815F012FE01211048B5
:103F600015F034F994ED140B08210C4815F008FEF7
:103F700001210B4815F02AF994ED160B052107488D
:103F800015F0FEFD3034054815F0A0FDAC42D5D14A
:103F9000BDE83840FFF7B4BF6830FF1F2847FF1F58
:103FA000A05B020038B564480BF094FA002866D094
:103FB0001BF05AFD614C624B208001225E481A8042
:103FC0000BF088FA18B11BF04FFD5E4B18805A4871
:103FD0000BF080FA00284FD01BF046FD5A4D80B2FE
:103FE000288040B3574B24881B88584A07EE900A14
:103FF0001B1BB8EE677A07EE903AF7EE006AF8EE10
:10400000E77A37EE667A411EC7EE876A89B20131D8
:10401000002307EE904AB8EEE77A98B207EE900ACE
:10402000F8EE677AB0EE476AA7EEA66A01338B42D4
:10403000A2EC016AF1D1464B01225A82FCF788FAC0
:10404000444A454BD2ED007A44484549454A2C88BC
:104050001C80B7EE007AF4EEC77A0023F1EE10FA76
:1040600003800B70138035DD3F4B72B63F4A002151
:10407000D361117662B638BD334D2888B1E73C4C28
:1040800023789A0736D4DB0703D4BDE83840FFF71E
:1040900037BF2A4B3748198815F068FD012136488B
:1040A00014F032F8334815F011FD264B31481988C9
:1040B00015F05CFD0121304814F026F82D4815F06C
:1040C00005FD214B2B48198815F050FDBDE83840FF
:1040D000FFF716BFBFEE007AF4EEC77AF1EE10FAE2
:1040E00027D49FED267A67EE877AFDEEE77A17EE02
:1040F000903ABAE7114B2248198815F037FD012193
:104100001D4815F063F81E4815F0E0FC0D4B1C48E7
:10411000198815F02BFD0121174815F057F818489C
:1041200015F0D4FC084B1648198815F01FFD2378AC
:10413000A9E7144B99E700BFE0EEFF1FB03BFF1F5C
:10414000800700206030FF1FAC3BFF1F6C55FF1F36
:10415000D834FF1F5C30FF1FA852FF1FAA3BFF1F70
:104160006A41FF1F4CE6FF1F0000FF7F18DDFF1FA5
:104170003030FF1F1047FF1F586F020000FEFF4E38
:104180002847FF1F00000180FFF7BABEFFF7B8BE47
:104190002DE9F04F2DED048B584C83B00025A12262
:1041A000B4F90C300092204626222946019511F0E0
:1041B00025F820464FF6E07113F03CF8504B514A79
:1041C0001B78E261002B00F08E80DFF85891DFF859
:1041D00058814D4FDFED4D9AAA462B25B9F8004086
:1041E000D8F800305444A4B203EB441BDBE90201CD
:1041F0001BF014F908EE900ADBE904011BF00EF93C
:1042000008EE100A68EE087A2EB2E8EEA87AB1EE4F
:10421000E70AB4EE400AF1EE10FA69D117F012FA8B
:10422000F0EE680AB0EE409AB0EE480A17F008FACD
:1042300004EB440407EB041432460A212F48B0EE85
:10424000408A12F0DBFF20681AF09CFD41EC100B55
:1042500000212A4815F094FC03222D49274815F027
:104260001FFC32465F21254812F0C8FF022229496F
:10427000224815F015FCF3EE047A69EE277A0AF16C
:10428000010A17EE900A1AF07DFD41EC100B022195
:104290001A4815F075FC02221F49184815F000FC59
:1042A0003246BE21154812F0A9FF03221B491348CC
:1042B00015F0F6FB68EE297A1FFA8AFA17EE900AD3
:1042C0001AF060FD41EC100B02210C4815F058FC6F
:1042D00003221349094815F0E3FB1335BAF1070F20
:1042E000ADB27FF47BAF03B0BDEC048BBDE8F08FC3
:1042F000B0EE670A17F022FA90E700BF08E6FF1F4A
:10430000F854FF1F109B02006830FF1FE12E65422A
:104310006066020064660200686602006C66020065
:10432000706602006841FF1FD08BFF1FF0B5254C5F
:10433000254FB4F90C30254E83B00025A12220462C
:104340002946009201958C2210F058FF20464FF626
:10435000E07112F06FFF1E4BE36120468D221421A5
:1043600012F04CFF204608221A4915F099FB3A88B2
:1043700002EB420206EB021210681AF003FD41EC58
:10438000100B2946204615F0FBFB0422204612495B
:1043900015F086FB3B88063303EB430306EB031360
:1043A00018681AF0EFFC41EC100B2946204615F076
:1043B000E7FB0A492046032203B0BDE8F04015F0B0
:1043C0006FBB00BF08E6FF1F6841FF1F6830FF1F7B
:1043D000109B0200746602008066020060660200A4
:1043E000C84B1B7803B970472DE9F04FC64BC74C3B
:1043F0001F68DFF870A3DFF87083DFF870932DED8E
:10440000028B4601374485B00546D7E902011BF00F
:1044100005F808EE900AD7E904011AF0FFFFBC4A3C
:10442000B4F90C301268324492ED047B4FF0920ED6
:104430000021D2E9026708EE100ACDF800E026223A
:10444000204601918DED027B10F0D8FE20464FF6FC
:10445000E07112F0EFFE204626221421C4F81CA0C1
:1044600012F0CCFE20464322142112F0C7FE0A228D
:10447000A849204615F014FBB0EE680AA648FEF7DE
:10448000B1FD83461CF09CFB59460246204615F0C0
:1044900007FB0422A149204615F002FBB0EE480AB2
:1044A0009D48FEF79FFD83461CF08AFBAD00024647
:1044B0005946204615F0F4FA08EB050B2046552224
:1044C0001E21C4F81C9012F099FE9BED007AF7EEC5
:1044D000007AB4EEE77AF1EE10FA40F3B380B5EE6D
:1044E000C08AF1EE10FA00F1C381B5EEC08AF1EE98
:1044F00010FAC0F2A9808A498448FDF7D3FB894BA2
:1045000089482B4493ED000AFEF748FB01467F489B
:10451000FDF7C8FB85497D48FDF7C4FB08EB0503A3
:10452000D3ED007A9FED827AF4EEC77AF1EE10FABD
:1045300040F1548117EE900A1AF024FC41EC100B64
:104540000121724815F01CFB394630461AF066FF0F
:1045500008EE900ADDE902011AF060FF4FF6E07103
:1045600008EE100A694812F065FE8122142167489E
:10457000C4F81CA012F042FE6E4B1B78002B00F01A
:10458000F78008226C49614815F08AFAB0EE680A93
:104590006A48FEF727FD06461CF012FB314602462C
:1045A0005A4815F07DFA04226549584815F078FA02
:1045B000B0EE480A6148FEF715FD06461CF000FB08
:1045C00031460246514815F06BFAC4F81C90972208
:1045D0001E214E4808EB050412F010FE94ED007AFF
:1045E000F7EE007AB4EEE77AF1EE10FA4FDDB5EEB1
:1045F000C08AF1EE10FA4BDB52494448FDF752FBFA
:10460000514B52481D4495ED000AFEF7C7FA01468A
:104610003E48FDF747FB45493C48FDF743FBD4EDD9
:10462000007A9FED437AF4EEC77AF1EE10FA00F1CA
:10463000028147493548FDF735FB05B0BDEC028BDB
:10464000BDE8F08F3FF751AF42493048FDF72AFBF4
:10465000B0EE680A3048FEF7C5FC01462B48FDF76E
:1046600021FBB5EEC08AF1EE10FA40F3F3803A492F
:104670002648FDF717FB2B4B2B482B4493ED000AE4
:10468000FEF78CFA01462148FDF70CFB5CE705DDDF
:10469000B5EEC08AF1EE10FA00F1AF8002222D498A
:1046A0001A4815F0FDF9DFED2D7AB0EEE87AB4EE98
:1046B000E77AF1EE10FA40F38C80B7EE000A80EE54
:1046C000280A1548FEF78EFC01461048FDF7EAFA65
:1046D000B5EEC08AF1EE10FA00F1C38020490B4814
:1046E000FDF7E0FA184B19481D4495ED000AFEF756
:1046F00055FA01460548FDF7D5FA05B0BDEC028B29
:10470000BDE8F08F6D41FF1F448CFF1F08E6FF1FBF
:10471000B4BFFF1F886602001030FF1F94660200BE
:10472000AC660200508CFF1F2433FF1F9C66020002
:10473000333F1C463D8CFF1FB46602003C30FF1F18
:10474000C06602009C6C0200840A00200833FF1F30
:10475000A466020090660200B0660200EA1C08022D
:10476000E8660200489B0200948BFF1FA4A0020091
:1047700053495448FDF796FADFED537AB0EEE87AE4
:10478000B4EEE77AF1EE10FA32DDB7EE000A80EE11
:10479000280A4E48FEF726FC01464A48FDF782FAF1
:1047A0004B494848FDF77EFADFED477AB0EEC87A0C
:1047B000B4EEE77AF1EE10FA15DDB7EE000A80EEFE
:1047C000080A4248FEF70EFC01463E48FDF76AFA29
:1047D000FBE640493B48FDF765FA79E73E49394831
:1047E000FDF760FAB0E63B493648FDF75BFAECE6C8
:1047F00038493448FDF756FAD2E738493148FDF7D1
:1048000051FA374B37482B4493ED000AFEF7C6F9AF
:1048100001462C48FDF746FA454433492948FDF73F
:1048200041FAD5ED007A9FED317AF4EEC77AF1EED8
:1048300010FA7FF5FEAE17EE900A1AF0A3FA41ECDB
:10484000100B2048012105B0BDEC028BBDE8F04FF4
:1048500015F096B926491B48FDF724FA254B264842
:104860000BE726491748FDF71DFA1D4B1D483BE78E
:1048700023492046FDF716FA1E4B1F482B4493EDA3
:10488000000AFEF78BF901462046FDF70BFA1649A0
:104890002046FDF707FADBED007A9FED147AF4EE7F
:1048A000C77AF1EE10FA99D517EE900A1AF06AFA63
:1048B00041EC100B0121204615F062F944E600BFDF
:1048C000C866020008E6FF1F7D1D90261030FF1FFE
:1048D00094660200D4660200A4660200AC66020080
:1048E000840A00202433FF1F9C660200333F1C46CD
:1048F00080630200508CFF1F0833FF1FE066020038
:104900009C6C020030B5154C83B000210E22B4F926
:104910000C300191054600922046B922822110F008
:104920006DFC20464FF4784112F084FC0C4BE3619F
:104930002046B922822112F061FC28461CF040F981
:1049400029460246204615F0ABF820464FF6E071A6
:1049500003B0BDE8304012F06DBC00BF08E6FF1F99
:1049600074D302002DE9F04F2DED028B684C9FEDC2
:10497000698AB4F90C30DFF8C8B183B00025A122F0
:104980002046294600920195262210F037FC204649
:104990004FF6E07112F04EFC5F4BE3612946204672
:1049A000262212F02BFC204622225C4915F078F8D2
:1049B0004FF03C0A61E017EE900A1AF0E3F941EC7F
:1049C000100B0121524815F0DBF8022254495048DF
:1049D00015F066F8494640461AF020FD00EE100A30
:1049E0005048FEF7FFFA80461CF0EAF841460246BE
:1049F000474815F055F802224949454815F050F846
:104A0000394630461AF00AFD00EE100A4548FEF716
:104A1000E9FA80461CF0D4F8414602463C4815F0BD
:104A20003FF802223E493A4815F03AF800220023A6
:104A3000304639461AF06CFC002865D130463946BC
:104A4000002200231AF078FC78B1374B374803EB8B
:104A5000840494ED000AFEF7A1F804461CF0B0F8B7
:104A6000214602462A4815F01BF80135ADB20AF17D
:104A7000140A072D1FFA8AFA41D02D4B24481C88AE
:104A8000DBF800302C44A4B203EB44130FFA8AF293
:104A90000021D3E90289D3E9046712F0AFFB254A6C
:104AA00004EB440302EB0313D3ED007AF4EEC87A6F
:104AB000F1EE10FA18D49FED207AF4EEC77AF1EEF9
:104AC00010FA3FF578AFB6EE000A37EE800A16F01E
:104AD0004BFB10EE100A1AF055F941EC100B0021B7
:104AE0000B4815F04DF870E717EE900A1AF04AF9E6
:104AF00041EC100B0221064815F042F865E703B0BF
:104B0000BDEC028BBDE8F08F074B0C489FE700BF60
:104B100008E6FF1F0000C842109B0200F06602007A
:104B2000EC6202001030FF1F508CFF1F2433FF1F68
:104B3000C23CFF1F6830FF1F00007A440833FF1F8C
:104B4000448CFF1FFFFFFFFF2DE9F047824B1B68DE
:104B500003EB4013D3E902672DED068BD3E904453F
:104B600082B032463B468246394630461AF05EF9FC
:104B70002246804689462B46204629461AF056F999
:104B80000B4602464946404619F09EFF41EC100B89
:104B900016F0F6FCB0EE40AAF0EE60AA16F066FC45
:104BA00047EC116BB0EE409AF0EE609A45EC104B7A
:104BB00016F06CFB694B1B7823B902B0BDEC068B79
:104BC000BDE8F087664CB0EE408AF0EE608A0025C2
:104BD0009222B4F90C3000922046262229460195F3
:104BE00010F00CFB20464FF6FF7112F023FB5D4BDB
:104BF000E36120462622142112F000FB20460E22FB
:104C0000594914F04DFF594B9FED597A0AEB4A0A66
:104C100003EB0A1ADAED007AF4EEC77AF1EE10FA35
:104C200000F18B809FED537AF4EEC77AF1EE10FA23
:104C300078D4B6EE000A37EE800A16F095FA10EE38
:104C4000100A1AF09FF841EC100B2946204614F088
:104C500097FF03224849424814F022FF14213E22C4
:104C60003F4812F0CBFA454B3D485B8A012B0CBF05
:104C7000434944490C2214F013FF562214213848AA
:104C800012F0BCFA0F224049354814F009FFB0EE8B
:104C90004A0AF0EE6A0A0521314814F071FF042235
:104CA0003A492F4814F0FCFE394BE3612C48782236
:104CB0001E2112F0A3FA07223649294814F0F0FE0B
:104CC000354B002251EC190B1AF0B0F841EC100BE7
:104CD0000321234814F054FF03223049204814F0E4
:104CE000DFFE9B221E211E4812F088FA08222C4962
:104CF0001B4814F0D5FE16A3D3E9002351EC180B82
:104D00001AF094F841EC100B0221154814F038FF0A
:104D100024491348042202B0BDEC068BBDE8F047DD
:104D200014F0BEBE17EE900A1AF02CF841EC100BEE
:104D30000121204614F024FF8BE717EE900A1AF0A9
:104D400021F841EC100B0221204614F019FF80E7F6
:104D500000000020DCA54C40D08BFF1F6D41FF1FE1
:104D600008E6FF1F2C9B0200146702006830FF1F3B
:104D70000000C84200007A4460660200D834FF1F79
:104D8000246702003467020044670200546702008F
:104D9000A4A002004C670200000034405C670200DF
:104DA000606702006C67020070B5194C82B0002584
:104DB0001626B4F90C3001952A462046294600965D
:104DC00010F01CFA20464FF6FF7112F033FA114B27
:104DD000E3612A4620463C2112F010FA20461522B3
:104DE0000D4914F05DFE0D4B187858B9FDF7FCFA2B
:104DF0000B4B0748E3614FF6E07102B0BDE870402D
:104E000012F018BA4FF4FC60FDF7EEFAF0E700BFBD
:104E100008E6FF1F60C402007467020000E6FF1F7F
:104E200050B4020010B5114C82B000211022B4F928
:104E30000C30019120460092162210F0DFF9204636
:104E40004FF6FF7112F0F6F920461622052112F0F6
:104E5000D5F920461122064914F022FE20464FF6CD
:104E6000E07102B0BDE8104012F0E4B908E6FF1F9F
:104E70008C670200F0B53C4D3C4E83B00024C82343
:104E8000284622462146009301944FF4A07310F067
:104E9000B5F9FFF789FFFFF7C5FF3549354B364AAE
:104EA0000C8028464FF6F7774FF6E0719C61DC6185
:104EB000178012F0BFF921462846EE61262212F033
:104EC0009DF928461C222D4914F0EAFD214628466A
:104ED0003C2212F093F92A4BEB612A4928462422FE
:104EE00014F0DEFD21462846EE61502212F086F9CC
:104EF000284623222449254E14F0D2FD2146284677
:104F0000642212F07BF928461622214914F0C8FDCC
:104F100021462846782212F071F928461D221D49A3
:104F200014F0BEFD214628468C2212F067F928466F
:104F30001722194914F0B4FD21462846A02212F088
:104F40005DF928461B221549154D14F0A9FD154899
:104F50001549164A164B34702C7004700C7014707E
:104F60001C7003B0F0BD00BF08E6FF1F109B0200DD
:104F7000F88BFF1F048CFF1FF86EFF1FA067020055
:104F8000F49A0200C0670200E8670200F854FF1FAD
:104F90000C68020024680200446802005C68020099
:104FA00054A6FF1F848BFF1F906EFF1FF68BFF1F01
:104FB0004C8BFF1F2DE9F04FB54FB64B3A688BB0C5
:104FC0000025059205221A80059CFFF7EDFE0020C2
:104FD000FDF70AFACA232622AF48009329464FF468
:104FE000A073019510F00AF9AB484FF6E07112F08A
:104FF00021F9A94AA94BD36110462946262212F06D
:10500000FDF81E22A649A44814F04AFD2946A248EC
:105010003C2212F0F3F8A04AA24BD361A2491046F9
:10502000282214F03DFD29469B48502212F0E6F854
:1050300029229E49984814F033FD29469648642257
:1050400012F0DCF841F2883B93489949232214F08E
:1050500027FDAA460395CDF808B096480FF000F951
:105060000028FAD03B680693069B1B1B962BF4D9AD
:10507000874B90491B68079308A8079C0FF0E0F83E
:10508000BDF92080BDF9229040F2DB53984540F3F2
:10509000E580994540F3ED80039B984506DD40F29D
:1050A000DB531FFA88F29945039203DDCA45B8BF66
:1050B0001FFA89FA002678254FF4A073314601962D
:1050C0002A467548009510F099F831462A467248EC
:1050D00012F094F8042278496F4814F0E1FC2A4653
:1050E00064216D4812F08AF841466B4814F03EFD89
:1050F00031468C22684812F081F804226F496648D4
:1051000014F0CEFC8C226421634812F077F84946F3
:10511000614814F02BFD3146A0225F48684E12F022
:105120006DF8132267495C4814F0BAFC5A48B4225F
:105130001421C66112F062F80299574814F016FD66
:10514000B4225021544812F059F85946524814F0EC
:105150000DFDC8222946504812F050F803994E48D8
:1051600014F004FDC822B4214B4812F047F8514610
:10517000494814F0FBFCB8F5FA6F7FF76EAF40F2C8
:10518000DB5399453FF769AF0299A1F165039BB2E3
:1051900040F28232934229D8ABF165039BB293422D
:1051A00024D80398A0F6B9339BB240F2DA52934266
:1051B0001CD8AAF6B9339BB2934217D8424DA5F832
:1051C0000212A5F80602A5F804B2A5F808A26C1E02
:1051D00005F2172614F8011F601B12F0BFFAB44243
:1051E000F8D13A493A48FCF76BFD09E0502200211A
:1051F000294812F003F822223649274814F050FCBF
:10520000254B2548B3F90C3000247A222146009220
:10521000019426220FF0F2FF214682221E4811F04F
:10522000EDFF16222C491C4814F03AFC41F288305C
:1052300012F05AFCCA232146009326224FF4A07391
:10524000154801940FF0DAFFFFF714FE234A244BB0
:10525000148012221A800BB0BDE8F08F029B984593
:1052600002DA1FFA88F3029340F2DB5399453FF7C5
:105270001DAFD94501DA1FFA89FB40F2DB5398458F
:105280007FF718AF039B4345FFF609AF12E700BF56
:1052900050350020F86EFF1F08E6FF1F489B0200F4
:1052A00078680200F49A020098680200C46802005C
:1052B000F0680200943BFF1F146902001C690200A1
:1052C000109B020024690200D834FF1F38690200D5
:1052D0002847FF1F686902008C690200FA8BFF1FD4
:1052E000688BFF1F10B51C4C1C484FF6FF7111F066
:1052F000A1FFE3891948012B0BBF0622052218499B
:10530000184914F0CDFB184B184A1B8803EB4303D4
:1053100002EB0313586819F035FD41EC100B032123
:105320000E4814F02DFC0A2211490C4814F0B8FB69
:10533000638A04EB8304606919F024FD41EC100BCF
:105340000221064814F01CFC4FF6E0710348BDE84A
:10535000104011F06FBF00BFD834FF1F08E6FF1FD9
:10536000A4690200AC6902004CE6FF1F6830FF1F11
:10537000B469020010B56A4C00EB40002DED028BC1
:1053800004EB001090ED008AFFF70EFDFFF74AFDD9
:10539000FFF7A8FFDFED637AB4EEE78AF1EE10FACB
:1053A00000F1AE80DFED607AB4EEE78AF1EE10FA3C
:1053B00000F18680DFED5D7AB4EEE78AF1EE10FA57
:1053C00039D4DFED5B7AB4EEE78AF1EE10FA77D4E8
:1053D000DFED587AB4EEE78AF1EE10FA2BD4DFED68
:1053E000567AB4EEE78AF1EE10FA69D4DFED537A1B
:1053F000B4EEE78AF1EE10FA1BD4DFED517AB4EE89
:10540000E78AF1EE10FA5BD4DFED4E7AB4EEE78A6C
:10541000F1EE10FA0DD4DFED4C7AB4EEE78AF1EE3E
:1054200010FA4DD4DFED497AB4EEE78AF1EE10FAC6
:1054300046D5062000E00520FDF73AFA4449454AE2
:105440000123CB61D361B0EE480AFDF751F8424B1E
:10545000424A1B8892ED007A414903EB430304EB77
:105460000314D4ED007A67EE877A0120F5EEC07A56
:10547000F1EE10FA08604AD49FED3A7AF4EEC77A5A
:10548000F1EE10FA2DDD384A384BD361F5EEC07AD3
:105490000023F1EE10FA13623DD49FED327AF4EE60
:1054A000C77AF1EE10FA0DDD314A304BD361BDEC15
:1054B000028B304B4FF0404001211062196010BD4B
:1054C0000720B9E79FED2C7A2849294A67EE877AA9
:1054D000FCEEE77A17EE903A8B42C2ED077AE4D8F9
:1054E000E5E79FED257A21491F4A27EE877ABCEE32
:1054F000C77A17EE103A8B4282ED077AC6D9C3E716
:105500000720FDF7D5F90120FDF716F99BE7164BAB
:105510000022DA611A62164A0023D361C7E700BF8E
:105520006830FF1F00C00F4500806D4500409C455E
:1055300000803B4600204B4600609F4600F8A7468F
:105540000070DF4600D0E84600881047007014471E
:10555000DCBFFF1F900700204CE6FF1FA43BFF1F8E
:1055600088E100E0A655AC4644DDFF1F0000FE7F49
:105570007CDDFF1F08E100E04B24BE47414B424861
:1055800070B501221A8009F0A5FF002865D01AF035
:105590006BFA3E4D28803C4809F09CFF00285AD009
:1055A0001AF062FA3A4C20800021272012F090FA7B
:1055B0000021262012F08CFA0021252012F088FA12
:1055C0002388334ED90755D49A074DD45B0746D468
:1055D0002888FEF743F92F4BD3ED007AB7EE007A17
:1055E000F4EEC77AF1EE10FA25DD2B4B72B62B4A9A
:1055F0000021D361117662B60720FFF7BBFE1221AE
:10560000274813F0E3FD2988264814F0AFFA0C214F
:10561000254813F0DBFD2188224814F0A7FA214821
:1056200014F054FA3321214813F0D0FD1D48BDE891
:10563000704014F04BBABFEE007AF4EEC77AF1EE88
:1056400010FA1DD49FED1A7A67EE877AFDEEE77A9D
:1056500017EE903ACAE70E4CA6E70C4D9BE70121E6
:10566000252012F035FAB3E70121262012F030FA96
:105670002388ABE70121272012F02AFA3388A3E719
:105680000C4BB3E7C4BFFF1FE0EEFF1F4C0A002026
:10569000C451FF1F5C30FF1F0000FF7F18DDFF1F9C
:1056A000C06902002847FF1FD4690200E4690200B4
:1056B00000FEFF4E0000018070B52349234A244CB0
:1056C0002448002382B002250B701380E58109F085
:1056D00001FF10B306461AF0C7F9322830D0304621
:1056E0001AF0C2F941F28833984208BF65821A4B1A
:1056F0001B7893B11E21194813F068FD638A04EBEF
:105700008304606919F03EFB41EC100B0221144840
:1057100014F036FA124814F0D9F912480021A122E7
:10572000B0F90C300191009226220FF067FDFFF7CF
:105730003BFBFFF777FB02B0BDE87040FFF7D2BD3F
:1057400001236382D3E700BFC8EEFF1F14DDFF1FF4
:10575000D834FF1FE0EEFF1F4E0A0020186A020037
:105760002847FF1F08E6FF1F38B51F4809F0B2FEA3
:105770001E4A1F4B002414701C80A0B11AF070F94F
:1057800051EC100B19F04AFE1A4A1B4B1B4D1060CE
:1057900000EE100A1C806860FCF70AFF184B1B78AB
:1057A00001222A823BB9FFF7FFFAFFF73BFBBDE876
:1057B0003840FFF797BD1621124813F007FD6868BF
:1057C00019F0E0FA41EC100B02210F4814F0D8F95F
:1057D0000D4814F07BF9FFF7E7FAFFF723FBBDE86C
:1057E0003840FFF77FBD00BFE0EEFF1FC8EEFF1F90
:1057F00014DDFF1F6830FF1F4CE6FF1FD834FF1F6A
:105800004E0A0020386A02002847FF1F70B513486F
:10581000134D144C144A00230121237003802B8262
:105820006C1E05F21726118014F8011F601B11F081
:1058300095FFB442F8D10D4B1B7833B110210C48C1
:1058400013F0C4FC0B4814F041F9FFF7ADFAFFF771
:10585000E9FABDE87040FFF745BD00BF14DDFF1F4A
:10586000D834FF1FC8EEFF1F4CE6FF1F4E0A002072
:10587000506A02002847FF1F70B52349234A244C71
:105880002448002301250B701380E58109F022FED6
:10589000002838D006461AF0E7F8322813D03046F0
:1058A0001AF0E2F841F28833984204BF022363827F
:1058B000194B1B7863B9FFF777FAFFF7B3FABDE826
:1058C0007040FFF70FBD144B65821B78002BF2D0A0
:1058D0000C21124813F07AFC638A04EB830460699C
:1058E00019F050FA41EC100B02210D4814F048F960
:1058F0000B4814F0EBF8FFF757FAFFF793FABDE8FF
:105900007040FFF7EFBC70BDC8EEFF1F14DDFF1F36
:10591000D834FF1FE0EEFF1F4E0A0020646A020029
:105920002847FF1FF8B5804809F0D4FD002800F093
:10593000CF8004461AF098F8632806D020461AF063
:1059400093F8002800F09280F8BD784B1B78002B6C
:1059500040F0B680764D774C774F784E4FF4067214
:10596000002128461AF050FC75497648696044F2D7
:105970003B31754B2980A86074497548EC614FF044
:105980007E5400226F61AE612C62724E724C69626D
:10599000A86201210220714F2E63C5E91023C5E9D9
:1059A0001223C5E91423C5E91623C5E91823C5E95F
:1059B0001A23C5E91C23C5E91E23C5E92023C5E92F
:1059C0002223C5E92423C5E92623C5E92823C5E9FF
:1059D00048236C63A981E981698285F8391085F8CB
:1059E000380085F83A005E4CEF625426C5E94A2338
:1059F0005C485D4985F80062C5E94C23C5E94E2342
:105A0000C5E95023C5E95223C5E95423C5E9562306
:105A1000C5E95823C5E95A23C5E95C23C5E95E23D6
:105A2000C5E960234FF4A07240F6BA63C5F80C4292
:105A3000C5F81002C5F81412A5F80222A5F8042230
:105A4000A5F80632A5F808326C1E05F2172614F8E0
:105A5000011F601B11F082FEA642F8D1FFF7A4F9E6
:105A6000FFF7E0F9BDE8F840FFF73CBC2E4809F02D
:105A700031FD002856D019F0F3FF51EC100B19F04E
:105A8000CDFC2B4DA861284809F024FD30B119F058
:105A9000E7FF51EC100B19F0C1FCE861334C04F541
:105AA000067614F8011F601B11F058FEA642F8D1CB
:105AB000FFF77AF9FFF7B6F9BDE8F840FFF712BC37
:105AC00019212B4813F082FB2A4813F0FFFF41E70E
:105AD00017212948164C13F079FB264813F0F6FFDE
