:1000000000000320D101000089720100417201004B
:100010004172010041720100417201004172010010
:1000200041720100417201004172010089720100B8
:100030008972010041720100B5930100B99301007A
:1000400089720100897201008972010089720100C0
:1000500089720100897201008972010089720100B0
:1000600089720100897201008972010089720100A0
:100070008972010089720100897201008972010090
:100080008972010089720100897201008972010080
:100090008972010089720100897201008972010070
:1000A0003939010045390100897201008972010066
:1000B0008972010089720100897201008972010050
:1000C0008972010089720100897201008972010040
:1000D00089720100D57C01008972010089720100DA
:1000E0008972010089720100897201008972010020
:1000F0008972010089720100897201008972010010
:1001000089720100897201008972010089720100FF
:1001100089720100617F010089720100897201000A
:1001200089720100897201008972010089720100DF
:1001300089720100897201008972010089720100CF
:1001400069910100897201008972010089720100C0
:1001500089720100897201008972010089720100AF
:100160008972010089720100513901008972010010
:10017000897201008972010089720100897201008F
:10018000897201008972010089720100897201007F
:10019000897201008972010089720100897201006F
:1001A000897201008972010089720100897201005F
:1001B000897201008972010089720100897201004F
:1001C000897201008972010089720100897201003F
:1001D0005C4B4CF2205210B51A804DF628121A8052
:1001E00000BF00BF17F054F8574B4FF030621A6051
:1001F000564A9A60564ADA60564B4FF470021A60BB
:10020000554B564A1A60564B1A78110703D51A787F
:1002100042F008021A70534B5349AA221A70534AEB
:10022000534B8B4204D252F8040F43F8040BF8E707
:10023000504B514900228B4202D243F8042BFAE77B
:100240004E494F4A002352F8230041F8230001335E
:10025000742BF8D14B4B4C4A802103F8011B93427D
:10026000FBD14A4B454A1A60494B8A221A70A3F5C2
:10027000805324225A70A0221A709A799207FCD5D2
:100280009A79D406FCD4434A937903F00C03082BE3
:10029000FAD1414B60221A7002331A78802AFCD1BD
:1002A0003C4B01221A715D225A719A799006FCD555
:1002B0009979384A4906FBD5384B394919600021EC
:1002C000596020231370937903F00C030C2BFAD19F
:1002D000344B354A1A60354A354C136813F4807331
:1002E00003D123604FF4A8531360324B324A1A6093
:1002F00000225A60072243F8042C304AC3F80C2D20
:1003000062B617F087F92368DA0705D52C4817F08D
:1003100011F92C4B2C4A1A602C4B1B785B0609D523
:10032000284C294B22689A4204D1254817F002F93B
:10033000002323601FF0ECF816F0B0FF19F07CFAF0
:10034000FEE700BF0E20054030800440823F0400DD
:100350000100002B88ED00E0002008E0030000858C
:1003600002D0074000E007408851FF1F9CDA0300DD
:10037000302FFF1F8851FF1FCC370020002AFF1F9E
:100380000000000000E400E064E400E008ED00E0AC
:10039000005006400040064001E007404480044011
:1003A0000000060204800440C010070010D0034083
:1003B00014D0034014E000E01FBF02000000202022
:1003C000A27FA55F1CE00340A5C3945A00F007403C
:1003D000FFFFFFFFFFFFFFFFFFFFFFFFFFFFFFFF2D
:1003E000FFFFFFFFFFFFFFFFFFFFFFFFFFFFFFFF1D
:1003F000FFFFFFFFFFFFFFFFFFFFFFFFFFFFFFFF0D
:10040000FFFFFFFFFFFFFFFFFFFFFFFFDEF9FFFF23
:1004100010B5054C237833B9044B13B10448AFF33E
:1004200000800123237010BD8851FF1F00000000D1
:1004300098DA0300084B10B51BB108490848AFF320
:1004400000800848036803B910BD074B002BFBD0A0
:10045000BDE81040184700BF000000008C51FF1F8E
:1004600098DA03008851FF1F00000000014B0522AD
:100470001A807047B88BFF1F704700BF10B5044645
:10048000006808B119F0E2F9204610BD30B50848FF
:10049000084CB0F90C3083B000210E22019100927B
:1004A0000125B9225021257014F0ECFB03B030BDBA
:1004B000E0E5FF1F6340FF1F70B5064C04F50676AC
:1004C000651C14F8011F601B16F08CFEB442F8D1B5
:1004D00070BD00BFD734FF1F08B50E4B0E48012278
:1004E0001A700EF03BFD68B10C4B02221A801EF010
:1004F000FFFF0B4A0B4B108000221A800A4B002290
:100500001A7008BD074B42F20F721A80064B002288
:100510001A7008BDA0EEFF1FB8EEFF1F580700209D
:1005200018E6FF1FB23BFF1F6240FF1F10B50446D5
:1005300018F0C4FD204610BD08B50121002017F0B9
:100540000BF800210120BDE8084017F005B800BFF6
:1005500008B50121242016F0FFFF00212320BDE86B
:10056000084016F0F9BF00BF08B50021272016F09B
:10057000F3FF0121262016F0EFFF00212520BDE822
:10058000084016F0E9BF00BF704700BF704700BFCA
:1005900038B5094A094B0A4C0A4911600025042262
:1005A0000948257014211A8018F054FB0748BDE84B
:1005B000384018F0CFBF00BF888CFF1F8A52FF1F42
:1005C000A0EEFF1F0AD7233CC05502002847FF1F9B
:1005D000F0B5274F274A3B78012111709A0783B065
:1005E00020D5254D2B88B3B1244E002406EB84037F
:1005F000D3ED007A2248FCEEE77A0134CDED017AA2
:10060000BDF8041018F0F6FF1D4818F0A3FF2B8862
:10061000A4B2A342EAD804211A4818F01BFB18F030
:10062000CDFB3B78DB0720D5134D2B88B3B1134EA0
:10063000002406EB8403D3ED007A1348FCEEE77A3E
:100640000134CDED017ABDF8041018F0D3FF0E4847
:1006500018F080FF2B88A4B2A342EAD809480421ED
:1006600003B0BDE8F04017F093BA03B0F0BD00BF8F
:100670003030FF1FA0EEFF1FAC3BFF1F2855FF1FB0
:100680002847FF1FD85502001047FF1FF8B5124832
:100690000EF064FC88B11EF02BFF104DA8816C1E7B
:1006A00005F2172614F8011F0C4F601B16F09AFD77
:1006B000B442F7D10A4B1B7803B9F8BD10210948A1
:1006C00018F0C8FAB989084818F094FF0648BDE840
:1006D000F84018F03FBF00BFB8EEFF1FD834FF1F2F
:1006E000260A0020E05502002847FF1F10B5082108
:1006F000154818F0AFFA00230A224FF40671134888
:1007000018F038FF1C21124818F0A4FA0F4818F00E
:1007100021FF002421460D4818F06CFF01210D48EF
:1007200018F098FA204616F043FD002301460A22ED
:10073000064818F01FFF0134044818F00BFFB4F509
:10074000067FE7D110BD00BFF45502002847FF1F08
:10075000005602002056020070B5124C124EA389BA
:1007600082B000250E22503B1BB220468DE82400AB
:100770005021B922357014F085FA20464FF6FF71EA
:1007800016F09CFA094BE3612046B922912116F03C
:1007900079FA07492046192202B0BDE8704018F0E6
:1007A000C3BE00BFE0E5FF1F6340FF1F58A8020063
:1007B0002456020010B50E4C23789A070FD4DB079D
:1007C00000D410BD01210B4817F0E2F90A4818F0D7
:1007D000C1FE04210948BDE8104017F0D9B909212C
:1007E000074818F037FA074818F0B4FE2378E6E710
:1007F0003030FF1F485602001047FF1FD855020037
:10080000405602002847FF1F10B5114C23789A0765
:100810000FD4DB0700D410BD0B210E4817F0B8F938
:100820000D4818F097FE04210C48BDE8104017F061
:10083000AFB90B21074818F00DFA094818F08AFEE5
:100840000421064818F006FA18F0B8FA2378E0E711
:100850003030FF1F4C5602001047FF1FD8550200D2
:100860002847FF1F30B51E4C83B00025A122B4F9E4
:100870000C300092204629462622019514F002FAF7
:1008800020464FF6E07116F019FA164BE36129463F
:1008900020463C2216F0F6F920461622124918F09E
:1008A00043FE124B5A8A03EB820358691DF0AEFFD8
:1008B00041EC100B2046022118F0A6FE204605222E
:1008C0000B4918F031FE294620465A2216F0DAF973
:1008D00008492046292203B0BDE8304018F024BE64
:1008E000E0E5FF1F5495020058560200D834FF1F60
:1008F000F87902007056020010B51B4C1B4A237891
:10090000012111709A0717D4DB0700D410BD05210F
:10091000174817F03DF95221164818F06BFE0921CF
:10092000154817F035F9134818F014FE0421134840
:10093000BDE8104017F02CB90321114818F08AF9CE
:100940005221104818F056FE09210B4818F082F980
:100950000C4818F0FFFD0421084818F07BF918F046
:100960002DFA2378D0E700BF3030FF1FA0EEFF1F25
:10097000AC5602001047FF1FA0560200D8550200D7
:100980009C5602002847FF1F70B5234C234823784C
:100990002349244D0022012602700A709A072E7006
:1009A0001DD4DB0700D470BD09211F4817F0F0F8F3
:1009B0001E4818F0CFFD0C211D4817F0E9F81B4820
:1009C00018F0C8FD17211B4817F0E2F8174818F077
:1009D000C1FD04211848BDE8704017F0D9B80921BD
:1009E000114818F037F9154818F0B4FD0C211048DB
:1009F00018F030F9114818F0ADFD17210D4818F026
:100A000029F90E4818F0A6FD04210B4818F022F928
:100A100018F0D4F92378C4E73030FF1FD034FF1F1B
:100A2000260A0020A0EEFF1FB45602001047FF1F49
:100A3000C0560200D0560200D85502002847FF1FBA
:100A400010B50F480EF08AFA48B10E4904461FF05F
:100A50002BFC88B120460C491FF026FC00B110BDCC
:100A60000A4B0B48012212211A7018F0F3F80948BA
:100A7000BDE8104018F06EBD044B187010BD00BFEB
:100A8000B8EEFF1F2CD0030024740200D034FF1FE7
:100A9000E85602002847FF1F70B5324E3248334DEA
:100AA000334C032118F0D6F8338803EB430305EBEE
:100AB000031318681DF0AAFE41EC100B2046032119
:100AC00018F0A2FD04212B4818F0C4F82A4B204648
:100AD00093ED000B022118F097FD0521274818F02F
:100AE000B9F8274B204693ED000B022118F08CFD3E
:100AF0000521244818F0AEF8234B204693ED000B57
:100B0000022118F081FD0621204818F0A3F8204B9F
:100B1000204693ED000B022118F076FD09211D48B7
:100B200018F098F8338803EB430305EB031393EDB8
:100B3000040B2046052118F067FD0821164818F01F
:100B400089F8338803EB430305EB031595ED060B9A
:100B50002046022118F058FD2046BDE8704018F0EC
:100B6000F9BC00BF24E6FF1FFC5602006830FF1FDF
:100B70002847FF1F00570200208BFF1F0857020065
:100B80006007002010570200188BFF1F1857020043
:100B9000108BFF1F205702002C570200F0B5314A7E
:100BA000314C324EB4F90C3083B00025A121062718
:100BB0008DE82200204629461780262214F062F88C
:100BC00020464FF6E07116F079F829462046262295
:100BD000E66116F057F820462422254918F0A4FCB7
:100BE000294620463E2216F04DF8224B2249E36169
:100BF00020462F2218F098FC29462046562216F04F
:100C000041F8204629221D4918F08EFC294620462D
:100C10006E2216F037F820461422194918F084FC89
:100C200029462046862216F02DF820462422154912
:100C300018F07AFC294620469E2216F023F820461A
:100C40002C22114918F070FC29462046B62216F0D5
:100C500019F820462E220D4918F066FCE66103B013
:100C6000F0BD00BFB88BFF1FE0E5FF1F54950200E9
:100C700038570200B8CD02006057020090570200BA
:100C8000BC570200D4570200FC5702002C58020047
:100C9000F0B5314A314C324EB4F90C3083B00025F6
:100CA000A12106278DE8220020462946178026220A
:100CB00013F0E8FF20464FF6E07115F0FFFF2946DC
:100CC00020462622E66115F0DDFF20462322254935
:100CD00018F02AFC244BE361294620463E2215F0F9
:100CE000D1FF20462A22214918F01EFC2946204621
:100CF000562215F0C7FF20461E221D4918F014FC8D
:100D0000294620466E2215F0BDFF20461B221949B8
:100D100018F00AFC29462046862215F0B3FF20462B
:100D20002522154918F000FC294620469E2215F080
:100D3000A9FF20461622114918F0F6FB2946204645
:100D4000B62215F09FFF20462D220D4918F0ECFB2E
:100D5000E66103B0F0BD00BFB88BFF1FE0E5FF1FE9
:100D6000549502005C580200B8CD02008058020081
:100D7000AC580200CC580200E8580200105902009A
:100D800028590200F0B52B4B2B4885B000241C706D
:100D90000EF0E4F830B31EF0ABFB284E00B2A042D8
:100DA000308031D020DD264B264F0FCB6C4607C458
:100DB00002226D4623703A80234B1B7893B10C219D
:100DC000224817F047FFB6F90010214818F012FC2E
:100DD00028461FF035FC0146284617F03BFF1C480B
:100DE00018F0B8FB05B0F0BD013017D0DFF86CE0AB
:100DF0003480BEE80F006F460FC7124BDEF80020AC
:100E00003A706D461C80D7E7124B0E4F0FCB6C46E5
:100E100007C401226D4623803A80CDE70E4B094C72
:100E200093E807006B4603C303216D461A802180B7
:100E3000C2E700BFA0EEFF1FB8EEFF1F7CC2FF1F7E
:100E4000685902008A52FF1F260A002098590200A2
:100E50002847FF1F585902007859020084590200A0
:100E60002DE9F041584B594A1B884FF6FE710E2B65
:100E700082B0118057D0DFF87C81554F554C564ECB
:100E8000B4F90C300025C82220460195294600926D
:100E9000262213F0F7FE20464FF6E07115F00EFF04
:100EA000294620462622E66115F0ECFE2046012266
:100EB0004A494B4D18F038FB20463C22142115F0CE
:100EC000E1FE20461822474918F02EFB3A22204620
:100ED000D22115F0D7FED8F80000E5611DF096FC90
:100EE00041EC100B2046022118F08EFB20465A22BE
:100EF0001421E66115F0C6FE204615223A4918F085
:100F000013FB20465822D22115F0BCFE3868E5615B
:100F10001DF07CFC41EC100B2046022102B0BDE824
:100F2000F04118F071BB314B1B88012B34D0022BE0
:100F30000DD0032B21D1264FDFF8B880D7ED007AF2
:100F4000B1EE047A77EE877AC7ED007A96E7DFF89C
:100F5000A480D8ED007AB1EE047AF4EEC77AF1EE0F
:100F600010FA08DDF2EE066AF4EEE67AF1EE10FA17
:100F700024DC88ED007A164F80E7042B7FF47BAFEA
:100F8000134FDFF87080D7ED007AB1EE047A77EE78
:100F9000C77AC7ED007A71E7DFF85880D8ED007A9C
:100FA000B3EE047AF4EEC77AF1EE10FAE3D5F2EE7E
:100FB000026AF4EEE67AF1EE10FADAD50C4BC8F8D4
:100FC0000030034F5AE700BF288BFF1FB46EFF1F8E
:100FD00090BFFF1FE0E5FF1F54950200A0690200CB
:100FE000A4BE0200A8590200C4590200BA8BFF1F18
:100FF00000002041CC34FF1F10B50E480DF0AEFFAD
:1010000070B11EF075FA04460A480DF0A7FF38B11A
:101010001EF06EFAC1B2A0B2BDE8104016F0E2B800
:101020002B21054817F016FE0448BDE8104018F0C3
:1010300091BA00BFB8EEFF1FDC5902002847FF1F1E
:1010400010B516480DF08AFF78B1154904461FF017
:101050002BF958B1204613491FF026F928B9124B35
:10106000124A1B78012111707BB910BD0E4B0F4A3B
:101070001B781070002BF8D00B210D4817F0EAFDFB
:101080000C48BDE8104018F065BA0F210A4817F067
:10109000E1FD0848BDE8104018F05CBAB8EEFF1F4B
:1010A0002CD0030024740200D034FF1F260A002035
:1010B000085A02002847FF1F145A0200FFFFFFFFD3
:1010C0002DE9F84F6A4D05F50676AA462C46601BB9
:1010D00016F06EF804F8010BB442F8D1DFF8CC81B9
:1010E000644E08F1700708F1E00908F5A87BBE46D8
:1010F0004C465846414633460022B1EC026BBEECEA
:10110000027B83ED046B83ED067BB4EC026BB0ECE9
:10111000027B0832702A83ED086B83ED0A7B03F1B2
:101120003003EAD11B21544817F094FD00230A2212
:101130009AF80012514818F01DFA504818F00AFAAF
:101140009AF80032452B60D84D4A9FED456B9FEDD4
:10115000467BA2F17000A2F1E001A2F5A873A3EC16
:10116000026B9F42A1EC027BA0EC026BA2EC027B23
:10117000F5D146233B22312142488AF800328AF8D1
:10118000002017F067FD3D4818F0E4F94A213E4879
:1011900017F060FD394818F0DDF99AF800324F2B4E
:1011A00035D93A4C04F5067A14F8011F601B16F085
:1011B00019F85445F8D10023B8EC026BB7EC027B68
:1011C000F9E80245FBE802010833702B86ED046B59
:1011D00086ED067BC6E90845C6E90A0106F1300638
:1011E000EAD10F212A4817F035FD00230A224FF4D7
:1011F0000671224818F0BEF90621264817F02AFD8C
:101200001E48BDE8F84F18F0A5B94F2BD3D8224A95
:10121000224BCAF80C22CAF810324FF4A07240F6E2
:10122000BA63AAF80222AAF80422AAF806321C4AD3
:10123000AAF80832342152231A48CAF814228AF82C
:10124000003217F007FD0D4818F084F92E211648DA
:1012500017F000FD094818F07DF9A2E7AFF3008010
:10126000000000000000F03F00000000000000004F
:10127000D834FF1F6830FF1F245A02002847FF1F81
:101280006836FF1F405A0200745A0200D734FF1F0D
:10129000285B0200385B02003A23CA3FCA2F673737
:1012A00000009040C05A0200F85A02001835FF1F93
:1012B00070B524488CB00DF051FE40B31EF018F903
:1012C000214D85F838001F480DF048FE18B11EF07A
:1012D0000FF985F839001B480DF040FE18B11EF0DB
:1012E00007F985F83A0017480DF038FE18B11EF0DE
:1012F000FFF885F83B00154C04F5067614F8011F3D
:10130000601B15F06FFFB442F8D10CB070BD0E48F1
:101310000F4990F8393090F8382090F83B4090F819
:101320003A008DE8110003A81EF006FF03A81FF085
:1013300087F9014603A817F08DFC064818F00AF952
:101340000CB070BDB8EEFF1FD834FF1FD734FF1F9D
:10135000405B02002847FF1F10B52D480DF0FEFD31
:10136000C8B12C4904461EF09FFFA8B92A4B2B4A4E
:101370001B781070002B43D125480DF0EFFD04467B
:1013800048B124491EF090FFD8B9234B244A1B785A
:101390001070002B2BD110BD204622491EF084FF77
:1013A0000028E9D11C4B1D4A1B7801211170002B2C
:1013B000E2D013211C4817F04DFC1C4818F0CAF865
:1013C000DAE7204617491EF06FFF0028E3D1124BE1
:1013D000134A1B7801211170002BDCD01521144811
:1013E00017F038FC1148BDE8104018F0B3B81921C7
:1013F000104817F02FFC0D48BDE8104018F0AAB8AF
:1014000017210D4817F026FC084818F0A3F8B3E799
:10141000B8EEFF1F2CD00300D034FF1F6440FF1F25
:10142000B842FF1F24740200785B02002847FF1FA8
:10143000A85B02008C5B0200605B0200FFFFFFFF05
:1014400070B569480DF08AFD002850D01EF04CF8A8
:101450005FA3D3E9002351EC100B1DF02BFA1DF014
:1014600021FD624D686260480DF078FD30B11EF0DC
:101470003BF851EC100B1DF015FDA8625A480DF019
:101480006DFD58B11EF030F853A3D3E9002351ECA1
:10149000100B1DF00FFA1DF005FDE86252480DF02B
:1014A0005DFD30B11EF020F851EC100B1DF0FAFC80
:1014B00028634D480DF052FD58B11EF015F848A3B1
:1014C000D3E9002351EC100B1DF0F4F91DF0EAFCF8
:1014D00068634548464C0DF041FD04F5067614F866
:1014E000011F601B15F07EFEB442F8D170BD0446AA
:1014F000172140483D4D17F0ADFB3F4818F02AF842
:101500000F213E4817F0A6FB95ED097ADFED3C7AF6
:1015100067EE277A17EE900A1DF078F941EC100B70
:101520000121354818F070F8334818F013F80F21EE
:10153000344817F08FFBA86A1DF068F941EC100BD6
:1015400021462D4818F060F82B4818F003F80F21B9
:101550002D4817F07FFB95ED0B7ADFED2C7A67EEC7
:10156000277A17EE900A1DF051F941EC100B032178
:10157000214818F049F8204817F0ECFF0F212448C3
:1015800017F068FB286B1DF041F941EC100B0421AA
:10159000194818F039F8184817F0DCFF0F211D48DA
:1015A00017F058FB95ED0D7ADFED1B7A67EE277A81
:1015B00017EE900A1DF02AF941EC100B01210E489C
:1015C00018F022F80C48BDE8704017F0C3BF00BF08
:1015D000000000809997713D000000A0F7C6B03E62
:1015E000000000E00B2E113EB8EEFF1FD834FF1FA5
:1015F000D734FF1FC05B02002847FF1FD85B0200E3
:10160000A5D46853E85B0200F85B0200002474492B
:10161000085C0200185C0200286B6E4E2DE9F04F4A
:101620009F4BDFF894B29F4A1B681268DBF80010EA
:101630009D482DED048B023387B01BB2013A05396A
:101640000024009312B209B201944FF4837313F093
:1016500019FB4FF62055934BDBF800101A6892489F
:1016600000952244053912B2283409B240F203131E
:1016700013F060F9C82CEED114244FF62055894B95
:10168000BBF900101A6888480095224412B2283429
:10169000FE2313F04FF9B42CF1D19FED848A9FED16
:1016A000849A0624F6EE008A78EE287ADBF8003079
:1016B0007C4A7D48B2F90020FDEEE77A4FF62055CE
:1016C00017EE901A194409B20095A52313F022F9D8
:1016D000013C38EE098AE7D19FED768ADFED748A06
:1016E0000627F6EE007A78EE277ADBF800306D4AAE
:1016F0006D48B2F900206B4D6F4CFDEEE77A4FF666
:10170000205617EE901A194409B20096A02313F040
:1017100001F9013F38EE288AE3D12368B5F90020AA
:101720006148009603F1FF0109B2A023634E0396BE
:1017300013F0F0F823682A685B48009703F12B0147
:10174000023212B209B2102313F0E4F821682A68B9
:10175000554800970232EB3112B209B2102313F050
:10176000D9F8DFED578A9FED578ADFF85CA13C4638
:101770003A4619E0DBF800104B48A4B231442B1B69
:10178000621C4FF6FF761BB212B209B2009613F03C
:10179000C1F8039B01370233FE2F03930AF1020ABB
:1017A00000F0948044464A46BEB2B31EFC2B40F281
:1017B000C381039BBAF900E0B3F90050384B1868B5
:1017C000384B00F10108C6451FFA80FC1868C4BFF9
:1017D0000CF1010E0FFA8EFE0138A845B8BF0CF1CE
:1017E0000105604481B2B8BF2DB2CEEB010E4D1B96
:1017F0001FFA8EFEADB20FFA8EF90FFA85F8002FA0
:1018000000F09781C2EB0903C4EB0801012B04919E
:1018100021DDDBF80010244892B2C2EB0E03314404
:1018200001324FF0000C1BB212B209B2CDF800C069
:1018300013F070F8049B012B9CDC049BDBF8001078
:101840001948013313DB314409B24FF6FF734246A6
:1018500012F0D4FE9DE7013314DBDBF800101248D0
:10186000314409B200234A4612F0C8FEE2E7631B86
:1018700031444FF6FF7200921BB209B2424613F098
:1018800049F886E7DBF800100748CEEB0203314445
:10189000002200921BB209B24A4613F03BF8C9E796
:1018A0002C30FF1F3830FF1FE0E5FF1F0000000055
:1018B000ACAA2A42A9AAAA413430FF1F8C52FF1FAA
:1018C000EC51383E295C8F3D000500201522462151
:1018D000CC4815F0D7F9CC4BCC4AD3ED007A92ED39
:1018E000857A77EE277A17EE900A1CF08FFF41EC8D
:1018F000100B0221C34817F087FE15224FF48271A6
:10190000C04815F0BFF9C24BD3ED007AF5EEC07AAE
:10191000F1EE10FA40F3078117EE900A1CF076FF03
:1019200041EC100B0121B74817F06EFEB94BBA4AD3
:1019300003F5007033F8021F22F8021F9842F9D114
:10194000B64B1B78002B00F0E9804FF6FF71AD48D5
:10195000B34DB44E9FEDB48A15F0B0F9A948B34B1E
:10196000C3612422F02115F08DF90822B049A54861
:1019700017F0DAFD2E22F021A24815F083F9042297
:10198000AC49A04817F0D0FD2E2240F213119D481B
:1019900015F078F996ED007AD5ED007A77EEC77AF2
:1019A0004FF4FC6477EE887A17EE900A1CF02EFF55
:1019B00041EC100B0121934817F026FE3822F0214C
:1019C000904815F05FF90A229B498E4817F0ACFD4C
:1019D000382240F213118B4815F054F94222F021BD
:1019E000884815F04FF90A229449864817F09CFD63
:1019F0004C2240F21311834815F044F9D6ED006AE9
:101A0000D5ED007A9FED8E7A77EEE67A4FF4784541
:101A100077EE887A77EEC77A17EE900A1CF0F6FE1A
:101A200041EC100B0121774817F0EEFD5622F02112
:101A3000744815F027F905228249724817F074FDA1
:101A4000562240F213116F4815F01CF97E4BD6ED6B
:101A5000006AD3ED007A9FED7D7A77EEE67A77EE35
:101A6000C77A17EE900A1CF0D1FE41EC100B012151
:101A7000644817F0C9FD764B62481A68DBF80030FD
:101A8000009403F10D019E3212B209B21C2312F030
:101A900051FF6F4B5B481A68DBF80030009503F18B
:101AA00029019E3212B209B2042312F043FF684B9F
:101AB00054481A68DBF80030009403F12D019E327F
:101AC00012B209B2802312F035FF614B4D481A68FB
:101AD000DBF80030009403F10D019F3212B209B21D
:101AE0001C2312F027FF5A4B46481A68DBF80030D7
:101AF000009503F129019F3212B209B2042312F0BA
:101B000019FF534BDBF800101A683E4800949F32CF
:101B10002D3112B209B2802312F00CFF07B0BDECD8
:101B2000048BBDE8F08F04224A49364817F0FCFCCC
:101B3000FCE64446049790E6474BB3F90030002B8F
:101B40003FF437AE039931F9023C07EE103A3AF907
:101B5000023C07EE903AB1F9003006EE903ABAF93D
:101B60000030B8EEC77A05EE903AF8EEE77AB1F9B0
:101B70000230F8EEE66A06EE103AF8EEE55ABAF9E7
:101B8000023027EE287A67EEA87AF6EE004AA6EE33
:101B9000A47A05EE103AE5EEA47A31F9043CB8EEE9
:101BA000C66A06EE903AB8EEC55A3AF9043CA6EE7B
:101BB000287A05EE903AE5EE287AB1F90430F8EE8D
:101BC000E66A06EE103AF8EEE55ABAF90430A6EEE7
:101BD000887AE5EE887A06EE903AB8EEC66AF8EEB4
:101BE000E66AA6EE087AE6EE887ABDEEC77AFDEEE2
:101BF000E77A8DED047ACDED057ABDF91050BDF987
:101C000014E0DBE5E0E5FF1FB8DCFF1FD834FF1F61
:101C1000A4BFFF1F8A52FF1FFE04002084DBFF1FAA
:101C2000E8DCFF1FF0DCFF1F46B6A14158A8020008
:101C3000305C02003C5C0200445C0200505C02002C
:101C4000713DAC415C5C02002455FF1F31082C3D06
:101C50003830FF1F285C0200D2DDFF1F70B504463C
:101C600008460D461EF0ECFC236802462946204635
:101C70005B68BDE87040184738B5044608460D4615
:101C80001EF0DEFC2368024629465B682046984722
:101C90000546204617F05EFC284438BD2DE9F04F7C
:101CA000BF4FC04C3B88C04E04EB43132DED068B59
:101CB0009B8A00EE103A83B0B8EE400A19F006FA9B
:101CC000BA48BB4BBB4A036006F50065B1463346D4
:101CD000D3ED007AB2EC017A77EE877AE3EC017A01
:101CE000AB42F5D1DFF82C833A88B8F8003004EB2A
:101CF00042120133928A9BB29A42A8F8003000F255
:101D000029819FEDAD7AA84A80ED007A00218A46AC
:101D10000B46F2EC017AF4EEC77AF1EE10FA04DD2C
:101D2000B0EE677A1FFA83FA01210133B3F5007F21
:101D3000EFD1002940F0AB82B2EE04AABAF1010F54
:101D400060EE0A9A40F21D82BAF5FF7FC0F0D8819A
:101D50009A4B9B4AD3ED007A93ED010A09EB8A0373
:101D600037EE800A13ED019AD3ED008A82ED000A66
:101D700019F0ACF9B1EEC98A924BF0EE697AD0EE67
:101D80000A7AB4EE488AF1EE10FAC3ED007A40F018
:101D90008182B1EEE80AB4EE400AF1EE10FA40F0AA
:101DA0008082BAF5FF7FF0EE408A40F28B82DFED51
:101DB000867AB4EEE78AF1EE10FA40F1918188EE6E
:101DC000A77A3B88814A04EB4314B0EE006AF7EE31
:101DD000006A36EE476A77EE266A07EE90AA86EE2C
:101DE000267AF8EE677AD4ED005A9FED796ADFED36
:101DF000796A99ED009AD9ED018A77EE277A39EE62
:101E0000288A67EEA57AE7EE866AC2ED006A724B11
:101E10009FED690A03F1E402F3EC017A9A4230EE95
:101E2000270AF9D16D4B03F57F72F3EC017A9342E7
:101E300030EE270AF9D16A4B019383ED000A19F0BD
:101E400045F999ED547AD9ED557AD9ED566ADFF80E
:101E5000C8A1644A644C654F9FED65AADFF8BCB128
:101E6000DFF8BC9177EE277AF2EE048A77EEA67A55
:101E700020EE287AB0EE670A82ED007ACAED007A89
:101E800019F024F9019B9AED007AD3ED007A594AB2
:101E9000594BDFF890A177EE877A20EE287AB0EEE2
:101EA000670AC3ED007A82ED007A19F00FF9534BFF
:101EB00020EE280A83ED000A2CE09AED858A19F0BD
:101EC00005F9F2EE047AA0EE278A38EE697ADBEDA6
:101ED000007AD9ED006A77EE277AB3EE046A67EEEE
:101EE000867A083487EEA67A023777EE0A7AFDEE14
:101EF000E77ACDED017ABDF90430002BB8BF00239D
:101F0000AC4227F8023C2AD014ED029A54ED018A23
:101F100039EE288AB5EEC08AF1EE10FAB0EE480A22
:101F2000CBDC9FED377AD2E7DB0603D5354936485F
:101F3000FFF7A2FEBAF90030344A002B05DD013B61
:101F40009BB2002B00F078811380002346F8043BFD
:101F5000AE42FBD103B0BDEC068BBDE8F08F2C4B3D
:101F6000B3F90030022B00F06D81DFF8A0A0BAF9C0
:101F7000003000229342A8F80020E6DBDFF8A8B08A
:101F8000BBF80030002BE0D0DFF8A080B8F80030BC
:101F9000D80600F14A81044FDFF89090002479E0E0
:101FA000B83BFF1F4433FF1FD8DDFF1F280A002066
:101FB000000048C3CC72FF1F00000000D0E5FF1FE7
:101FC000A46EFF1FB8DCFF1F95BFD633A4BFFF1F51
:101FD0000000803ACDCC4C3D40DEFF1F38DFFF1FB4
:101FE000488BFF1FF0DCFF1FE0DDFF1F8C52FF1F3F
:101FF00000002043E8DCFF1F980A00202455FF1F43
:102000007593B4C2645C02002847FF1F7CC2FF1FA7
:10201000B46EFF1F2CE6FF1FBCDCFF1F90BFFF1F2D
:10202000CC34FF1FD834FF1F8A52FF1F5A30FF1FC6
:1020300097ED000AB5EEC00AF1EE10FA4BD919F08F
:1020400045F8F2EE047A60EE277A17EE900A1CF05B
:10205000DDFB41EC100B0321A14817F0D5FAB8F8CD
:102060000030DA0709D540F2FF12944205D0012171
:102070009C4816F0EFFDB9F80030980724D41907F2
:102080001BD45A0712D40134B4F5007F07F10407BA
:102090003FF44AAF9906CBD438681CF0B7FB41EC4B
:1020A000100B08218E4817F0AFFAD8E701218E48AF
:1020B00016F0D0FDB8F80030E5E701218B4816F0A6
:1020C000C9FDB8F80030DCE70121894816F0C2FDEF
:1020D000B8F80030D3E70821864816F0BBFDBEE70C
:1020E00040F2FF139A4577D0B4EEE78AF1EE10FA8A
:1020F00072DC99ED009AD9ED018A39EE288A86E6DC
:102100000AF1010B09EB8A0309EB8B02D2ED007A8D
:10211000D3ED008A13ED019A774A78EEA77A77EE2D
:10212000897AB0EE670AC2ED007A18F0CFFFB1EEFF
:10213000C98A724BF0EE697AD0EE0A7AB4EE488A18
:10214000F1EE10FAC3ED007A40F0B080B1EEE80A8B
:10215000B4EE400AF1EE10FA40F0AF80F0EE408AA3
:1021600009EB8B0B9BED000AF1EEC07AF4EE677A77
:10217000F1EE10FA3FF41DAE19F024F8F0EE407ABB
:1021800017E699ED009AD9ED018A5B4B5C4C39EE6C
:10219000288AB0EE480A83ED008A18F097FFF0EE27
:1021A000697AD0EE0A7A554BC3ED007ABAF1000F86
:1021B0004BD1F1EEC97AF4EE677AF1EE10FA40F005
:1021C0008980F1EEE87AF4EE677AF1EE10FA7CD1CC
:1021D0004C4B00221A601AE6C8EE887A3A88494BBE
:1021E00004EB4214B0EE006AF7EE006A36EE676A5E
:1021F00077EEA66A07EE90AAB8EE677AC6EE267A60
:10220000D4ED005A9FED406ADFED406A99ED009AE7
:10221000D9ED018A77EE677A39EE288A67EEA57ADA
:10222000E7EE866AC3ED006AF1E50121384816F051
:1022300011FDB8F80030AEE64FF6FF71ABF8003094
:10224000118082E6FFF7EAF98FE694ED000AF1EEDD
:10225000C07AF4EE677AF1EE10FA01D018F0B2FF0E
:1022600099ED010AF1EEC07AF4EE677AF1EE10FA18
:1022700001D018F0A7FF99ED020AF1EEC07AF4EE52
:10228000677AF1EE10FAA3D018F09CFFA0E780ED7A
:10229000007A51E5B0EE490A18F094FFB0EE408A9A
:1022A00077E5B0EE680A18F08DFF7AE5B0EE490ADE
:1022B00018F088FFB0EE408A48E7B0EE680A18F0E0
:1022C00081FF4BE70AF1010B4AE7B0EE680A18F00C
:1022D00079FF7DE7B0EE490A18F074FF71E700BF9F
:1022E0002847FF1F20560200745C0200BC56020003
:1022F000A0690200685C0200A46EFF1FB8DCFF1F2B
:10230000D8DDFF1FA4BFFF1F0000803ACDCC4C3D9D
:10231000645C020038B5C9B2054617F075F9044689
:10232000284617F017F9204438BD00BF002310B429
:10233000114C4172026104600372C36041B11946DD
:1023400000E0026942F82310427A01339A42F8DC35
:102350000A4B1A680AB90CE01A465369002BFBD1E4
:102360005061002343618380C38083725DF8044B16
:1023700070471860F5E700BF90550200BC3600209A
:1023800004460549054808B5FFF768FC214603489F
:10239000FFF772FCFEE700BF945C02002847FF1FB6
:1023A00070B5194C82B000231226054601932046D1
:1023B0001023012240F22F11009612F063FC0195C8
:1023C000009620461023012240F22F1113F0DAFB71
:1023D0008DB14FF6FF71204614F070FC0B4BE3619A
:1023E00006224FF49A71204614F04CFC204601223C
:1023F000074917F099F804484FF6E07102B0BDE8BC
:10240000704014F05BBC00BFE0E5FF1F58A802005D
:10241000C07D020030B51D4A1D4B10784FF6F77293
:1024200083B01A8068BBFFF7BBFF1A4C0025A022BF
:10243000B4F90C300092204629462622019512F06C
:1024400021FC20464FF6E07114F038FC124BE3619A
:1024500029462046262214F015FC204612220F4958
:1024600017F062F8294620463C2214F00BFC0C4B76
:102470000C49E3612046182203B0BDE8304017F054
:1024800053B84FF4FC60FFF78BFFCEE7D8E5FF1F92
:10249000B46EFF1FE0E5FF1F8C950200A45C0200F4
:1024A00038950200B85C020010B52DED048B9FED4D
:1024B000268A20EE088A82B0F0EE408AB0EE480A02
:1024C00018F096FBDFED217A38EE407AB4EEE77A29
:1024D000F1EE10FA05D5B7EE000A38EE400A18F012
:1024E00087FB1B4B1B4C93ED009AB7EE008A30EE36
:1024F000088AF6EE007A28EE097A87EE280A30EE8E
:10250000270A18F075FBC8EE287A134B134A1B886C
:10251000134803EB430302EB031280EE097A67EEE4
:10252000A88AFCEEC07A88EE870ACDED017ABDF864
:10253000043082ED010A190AA3EB012323800180F4
:1025400002B0BDEC048B10BDCDCCCC3DBD37863583
:10255000B43BFF1F686EFF1F24E6FF1F6830FF1F9C
:10256000B48BFF1FFFFFFFFF2DE9F047F2EE047A67
:10257000B4EEE70AF1EE10FA2DED028B40F2838003
:10258000DFED577AB4EE670AF1EE10FAA8BFB0EEAD
:10259000670AFFF789FF534B93ED018A1D461C46DE
:1025A00003F5107AD4ED197AF4EEC87AF1EE10FA48
:1025B00053DD94ED0D7A77EEC77A38EE477AC7EEA1
:1025C000276A16EE900A1CF021F9D4E91089064614
:1025D0000F464246D4E91C014B461BF0B7FF32467A
:1025E0003B461CF067F942464B461BF0B1FFC5E97C
:1025F0000401D4E91223D4E91E011BF0A7FF3246DF
:102600003B461CF057F9D4E910231BF0A1FFC5E9A4
:102610000601D4E91489D4E9200142464B461BF057
:1026200095FF32463B461CF045F942464B461BF0AF
:102630008FFFC5E90801D4E91689D4E92201424691
:102640004B461BF083FF32463B461CF033F94246B3
:102650004B461BF07DFFC5E90A0130345445A1D13A
:10266000D5ED007A9FED207A1E4CF4EEC77AF1EE9C
:1026700010FA0BD4BDEC028B012323811B4BC3ED5D
:10268000007ABDE8F087B0EE670A82E717EE900A9D
:102690001CF0BCF841EC100B18F0A4FB0CA3D3E920
:1026A000002351EC100B1CF005F90B4602460AA161
:1026B000D1E900011BF04AFF1CF0ACFBBDEC028B22
:1026C000D4ED007A094B2081C3ED007ABDE8F08794
:1026D000000000803FB50C40000000A099993840F0
:1026E000003E1C476830FF1F0000164494BFFF1FC8
:1026F000012806D020B91749174A0123CB61D361BD
:10270000704730B5154C134D012C83B0EC6103D8E4
:10271000114BDC6103B030BD80230093224605F1EC
:102720002C03642105F1200017F058FE08B10023A6
:10273000EB61094D094AEC618021009105F12C0300
:1027400005F12000642117F049FE0028E2D00023A3
:10275000EB61DFE7C0BFFF1F680700200434FF1FE5
:10276000012810B504460ED002281ED0032826D01A
:1027700000B110BD014614F0EFFE21460120BDE876
:10278000104014F0E9BE0146002014F0EBFE214693
:10279000204614F0E7FE0021084614F0DDFE204636
:1027A0000021BDE8104014F0D7BE0021084614F007
:1027B000D3FE01210846BDE8104014F0CDBEBDE8AF
:1027C0001040FDF7B9BE00BFF0B5234F234D796827
:1027D000BA68FB6889B00646386801AC0FC438692E
:1027E00079693A8BBB7E03C42280A3702B68002BCF
:1027F000FCDB08AB06EB46069819194910F81C3C9F
:1028000030F81B4C013B621E1B03C2F30B0203F4A6
:102810007F2313430B6010F81C0C1BF0D5FF0CA397
:10282000D3E900231CF046F8064620460F461BF06D
:10283000CBFF00220B4B1CF03DF802460B46304606
:1028400039461CF061F941EC100B09B0F0BD00BF36
:10285000000000002A75A5419455020000F10240D5
:1028600004F102400000704070B5FFF7ADFF51EC7D
:10287000100B1CF017FB9FED2E7A2E492E4A2F4B82
:1028800091ED836A9FED2E4A2E499FED2F5ADFED81
:102890002F4A2F4E07EE900AC7EE276A2D4803F104
:1028A000A8050024C0ED007AF7EE005AC2ED006AD8
:1028B000D1ED017A91ED007AB1F90A0066EE277A3E
:1028C00026EE877AF5EEC07AF1EE10FA27D4F4EE10
:1028D000E57AF1EE10FA24DD4FF48032B5EEC07ADD
:1028E000F1EE10FA5A6218D4B4EEC57AF1EE10FA8D
:1028F00011DC27EE247AFCEEC77A17EE902AB2425A
:10290000C3ED077A07D81C6258863833AB4201F111
:102910000C01CDD170BDDE61F5E7DC61F3E700228B
:10292000DCE767EE847AFDEEE77A17EE902AD5E7CA
:10293000A6552C47D834FF1FA43BFF1FD8DBFF1F31
:10294000000080478842FF1FA655AC464B24BE4777
:102950000000FE7FB43BFF1F2DE9F0436C4BDFF816
:10296000E4811B884FF6FE720D2B83B0A8F800207F
:1029700000F0A580674E684D3388684CDFF8C89139
:1029800005EB431300279888FFF76EFF32886449F0
:10299000B4F90C3005EB4212C820928A8DE8810010
:1029A00020460A803946262212F06CF920464FF65E
:1029B000E07114F083F9394620462622C4F81C90B1
:1029C00014F060F920460122564916F0ADFD20466C
:1029D0003C22142114F056F920462122524916F0C7
:1029E000A3FD20465222782114F04CF937884F4B32
:1029F000E36105EB47170C3738461DF021FE3946D9
:102A00000246204616F090FD204678221421C4F894
:102A10001C9014F037F920461122454916F084FD28
:102A200078222046DC2114F02DF9338805EB43137E
:102A300098681BF0EBFE41EC100B2046012116F0CC
:102A4000E3FD20468E22142114F01CF920461922A1
:102A5000384916F069FD8E222046DC2114F012F967
:102A60003388DFED357A05EB431393ED007A67EE9B
:102A7000277A17EE900A1BF0C9FE41EC100B204696
:102A8000012116F0C1FD2046A422142114F0FAF809
:102A900020461222294916F047FD2046A422DC21B7
:102AA00014F0F0F8338805EB43152046A98A16F098
:102AB000A1FD0223A8F8003003B0BDE8F083204B4D
:102AC000144E1A883388012A1BD0022A08D0032A00
:102AD0000CD1114D05EB43118A8A52008A824CE7D2
:102AE00013B1013B9BB233800B4D46E7042AFBD167
:102AF000094D05EB43118A8A032A84BF52088A8252
:102B00003BE7032BF0D801339BB23380ECE700BFE7
:102B1000288BFF1FB83BFF1F4433FF1FE0E5FF1F5B
:102B2000AE3BFF1FA0690200005D0200A4BE0200D0
:102B3000245D0200385D0200A69BC43A545D020089
:102B4000BA8BFF1FB46EFF1F54950200DC4BDFED04
:102B5000DD7A30B5024693E80300B0EEC07ADA4D74
:102B6000B4EEE77A0B0CF1EE10FA83B02860A9807E
:102B7000AB7100F19F80DFEDD57AB4EEE70AF1EE9C
:102B800010FA144600F19E80DFEDD17AB4EEE70A28
:102B9000F1EE10FA00F1B880DFEDCE7AB4EEE70A7C
:102BA000F1EE10FA00F1CB80DFEDDE7AB4EEE70A49
:102BB000F1EE10FA00F1CF80DFEDC77AB4EEE70A4C
:102BC000F1EE10FA00F1D380DFEDC47AB4EEE70A3B
:102BD000F1EE10FA00F1EF80DFEDC17AB4EEE70A12
:102BE000F1EE10FA00F1F380DFEDBE7AB4EEE70A01
:102BF000F1EE10FA00F1F780DFEDBB7AB4EEE70AF0
:102C0000F1EE10FA00F10281F7EE007AB4EEE70A75
:102C1000F1EE10FA00F13081F2EE047AB4EEE70A38
:102C2000F1EE10FA00F1B880DFEDB07AB4EEE70A09
:102C3000F1EE10FA00F1FD80DFEDAD7AB4EEE70AB7
:102C4000F1EE10FA00F1FD80DFEDAA7AB4EEE70AAA
:102C5000F1EE10FA00F1FD80DFEDA77AB4EEE70A9D
:102C6000F1EE10FA00F11481DFEDA47AB4EEE70A78
:102C7000F1EE10FA00F11881DFEDA17AB4EEE70A67
:102C8000F1EE10FA00F15081DFED9E7AB4EEE70A22
:102C9000F1EE10FA00F15B81DFED9B7AB4EEE70A0A
:102CA000F1EE10FA00F15F81984B93E8030085E89C
:102CB000030004E0964B93E8030085E80300824894
:102CC00003B030BDDFED937A60EE277A17EE900AFD
:102CD0001BF09CFD02460B4668468F491DF02CFAFE
:102CE00068461DF0ADFC052823D8C0F1050200237D
:102CF00069462846AB541DF045FA216872481DF01C
:102D000041FA714803B030BDDFED7F7A60EE277A7B
:102D100017EE900A1BF07AFD0B46804902462846C2
:102D20001DF00AFA616828461DF02CFA664803B0C7
:102D300030BD421C6946284613F0C4FFDDE7DFEDD5
:102D4000727A60EE277A17EE900A1BF05FFD0B4651
:102D500002467349E3E7DFED6C7A60EE277A17EEFF
:102D6000900A1BF053FD0B4602466B49D7E7DFED97
:102D7000637A60EE277A17EE900A1BF047FD0B4648
:102D80006649024628461DF0D7F9A16828461DF07D
:102D9000F9F94D4803B030BD10EE100A1BF036FDB6
:102DA0000B465E49024648481DF0C6F9216946486F
:102DB0001DF0E8F983E7DFED517A60EE277A17EE30
:102DC000900A1BF023FD0B4602465549DAE7DFED7A
:102DD0004B7A60EE277A17EE900A1BF017FD0B4630
:102DE00002464D49CEE7DFED427A60EE277A17EED4
:102DF000900A1BF00BFD02460B46284647491DF082
:102E00009BF9E16828461DF0BDF958E7DFED387AF7
:102E100060EE277A17EE900A1BF0F8FC0B4640494B
:102E2000024629481DF088F9E16827481DF0AAF9F3
:102E300045E710EE100A1BF0E9FC0B460246384944
:102E4000B1E710EE100A1BF0E1FC0B4602463249D6
:102E5000A9E7DFED237A60EE277A17EE900A1BF0E0
:102E6000D5FC0B462D49024617481DF065F96169EE
:102E700015481DF087F922E7DFED1D7A60EE277A0D
:102E800017EE900A1BF0C2FC0B4602462249C8E727
:102E9000DFED137A60EE277A17EE900A1BF0B6FC8E
:102EA0000B4602461E49DFE7DFED0D7A60EE277A1A
:102EB00017EE900A1BF0AAFC0B4602461649D3E710
:102EC000685D0200132EE129C80A00205F70893076
:102ED00077CC2B3295BFD633ACC5273717B7D1384F
:102EE0006F12833A0AD7233CCDCCCC3D0000C842B8
:102EF00000007A4400401C460050C3470024744937
:102F00008096184B20BCBE4C286B6E4E885D02002C
:102F1000905D0200A5D46853705D0200785D0200E8
:102F2000805D0200BD3786355FED027A60EE277A5C
:102F300017EE900A1BF06AFC0B4611490246114835
:102F40001DF0FAF8A1690F481DF01CF9B7E6DFED96
:102F50000E7A60EE277A17EE900A1BF057FC0B46AC
:102F600002460A49EBE7DFED087A60EE277A17EEB2
:102F7000900A1BF04BFC0B4602460549DFE700BFF9
:102F8000785D0200C80A0020BD378635805D0200EA
:102F9000705D0200B5EEC00A08B5F1EE10FA074BFD
:102FA0004CBF2D222022B0EEC00A1A70FFF7CEFDD2
:102FB000014603481DF0E2FA004808BD500A00200F
:102FC000510A0020FFFFFFFF2DE9F04FDFF85C837F
:102FD000DFF85C93B8F81230DFF858B3C24C08EB56
:102FE0008303A3B0074658691BF010FC9FEDBA7B22
:102FF000D9F80030CDF808B07E010125CDE90401F3
:103000004FF0040A991902AA00230AA88DED067B45
:103010008DF822300193ADF824A08DF820508DF862
:1030200021508DF823500CF0FDF9D9F8001002AAB8
:10303000314412A80CF0D0F90AA912AA1AA80CF06F
:1030400067FA1F99019B8DF8623001F100411E9BC8
:1030500016939DED1C7B9DED1E6B9DF880301791A6
:103060009DF88110237661769DF882309DF883105B
:10307000A37612AABDF88430E1761AA8214684ED21
:10308000027B8DED147B84ED046BCDF848B0ADF878
:1030900064A0A3838DF860508DF861508DF8635063
:1030A0000CF0E6F9DFF890E29DF881C08EF819C0C7
:1030B000DDE91C23DDE91EAB9DF882C08EF81AC045
:1030C0009DF883C08EF81BC09DF88010BDF884C0A9
:1030D0008EF81810CEE90223CEE904AB1946AEF8FB
:1030E0001CC010461BF0DEFE804BDFF850A21860BB
:1030F00000EE100A17F0EAFFFAEE047A60EE277A83
:1031000094ED021B94ED040BCAED007A17F002FE59
:1031100073A3D3E9002351EC100B1BF0CBFB1BF086
:10312000C1FEDFF81CB298F83830CBF80000002B55
:1031300000F08D80012B00F08A816D4B1B78002BF5
:1031400040F002816B4B1B7813B923B0BDE8F08FC0
:10315000694BDFF8F08107EB470203EB02131868B5
:103160001BF054FB41EC100B0321644816F04CFAA1
:1031700098F80030002B40F056810121604815F08E
:1031800069FD604C5D482368334493ED020B0921CF
:1031900016F03AFA98F80030002B00F05381032122
:1031A000594815F057FD23685448334493ED040BF8
:1031B000092116F029FA98F80030002B00F03D8123
:1031C0000421524815F046FD236851493344D3E9A0
:1031D000022300201BF098FC41EC100B0221474811
:1031E00016F012FA23681E44D6E9040100230022D7
:1031F0001BF0E6FD98F80030002800F09181002BCC
:1032000000F064810321434815F024FD424B4348FC
:10321000BC00234493ED000AFFF798FC05461DF01F
:103220000FFA0146284615F015FD03213C4815F01C
:1032300011FD3C4B1C4420681BF0E8FA41EC100BDC
:1032400002212E48FFF766F823B0BDE8F08F2A4B25
:10325000DFF8F08007EB470703EB071738681BF030
:10326000D5FA41EC100B0321244816F0CDF998F85B
:103270000030002B40F0D2802946214815F0EAFCAE
:10328000DAF800001BF0C2FA41EC100B03211B48D6
:1032900016F0BAF998F80030002B00F0C9800D2123
:1032A000214815F0D7FC94ED021B94ED040B17F0A8
:1032B00031FD0BA3D3E9002351EC100B1BF0FAFAFC
:1032C00041EC100B02210D4816F09EF90B4816F048
:1032D00041F923B0BDE8F08F0000000000000000BD
:1032E00000000020DCA54C40B0DDFF1FB86EFF1FC2
:1032F0006440FF1FB842FF1F6830FF1F2847FF1FB1
:103300002056020098BFFF1F245E0200285E0200C4
:103310000000F03F005E02005C0A00200833FF1F3F
:10332000045E0200548BFF1FAC5D0200D834FF1F07
:10333000008CFF1F2480020090DDFF1FC851FF1F7B
:10334000D051FF1FD034FF1F9B4BDFF8B48207EB37
:10335000470203EB021318681BF058FA41EC100BFC
:103360000321964816F050F998F80030002B00F031
:10337000A8801121924815F06DFCD9F800308F48D3
:10338000334493ED020B032116F03EF998F8003018
:10339000002B00F0918003218A4815F05BFCD9F8DE
:1033A00000308648334493ED040B032116F02CF9CA
:1033B000D9F800303344D3E90401002200231BF084
:1033C000EBFC98F80030002840F0DF80002B00F084
:1033D00092807D497948FEF741FC7C4B7C48BC00DB
:1033E000234493ED000AFFF7B1FB01467348FEF753
:1033F00035FC78497148FEF731FC774B1C44206856
:103400001BF004FA41EC100B02216C48FEF782FF1E
:10341000724B1B78002B3FF498AE99E6122170484E
:1034200015F018FC2CE713216E4815F013FCA8E6E4
:1034300001216D4815F00EFC35E701216A4815F0B1
:1034400009FCC1E60121684815F004FCABE65A4BC3
:10345000DFF8AC8107EB470703EB071738681BF071
:10346000D5F941EC100B0321544816F0CDF898F82B
:103470000030002B6AD15C495048FEF7EFFB94ED19
:10348000041B94ED020B17F047FC51EC100B1BF0E2
:1034900009FD1BF0BBF941EC100B0521474816F064
:1034A000B3F898F80030002B6AD050494348FEF733
:1034B000D5FBDBF80000BFE601214B4815F0CAFB45
:1034C0006DE72946484815F0C5FB56E701214648F7
:1034D00015F0C0FB464BBC00234418681BF096F95E
:1034E00041EC100B0C21354816F08EF801213E48B6
:1034F00015F0B0FB9DE63C493048FEF7AFFB334B7F
:10350000BC00234418681BF081F941EC100B092121
:103510002A4816F079F834492848FEF79FFB6CE7F3
:10352000CBB129492548FEF799FB284B2848BC0018
:10353000234493ED000AFFF709FB01461F48FEF7FD
:103540008DFB24491D48FEF789FB72E629491B487B
:10355000FEF784FB93E724491848FEF77FFB1B4BDB
:10356000BC00234418681BF051F941EC100B0921F1
:10357000124816F049F81C491048FEF76FFB58E650
:1035800019490E48FEF76AFB93E733B11A490B4815
:10359000FEF764FB0D4B194821E713490748FEF776
:1035A0005DFB0A4BBC00234418681BF02FF941EC6B
:1035B000100B0C21ACE700BF6830FF1F2847FF1F2E
:1035C000E85D0200FC5D0200085E02000C8CFF1F3B
:1035D0002433FF1F045E0200548BFF1FB842FF1FFD
:1035E000985D0200105E020020560200DC5D0200C1
:1035F0005C0A0020BC5D0200005E02000833FF1F71
:10360000D034FF1F2DE9F0432DED028B5B4DDFF829
:1036100080815B4F5B4E83B00024C823224628463E
:103620002146009301944FF4A07311F02BFB284620
:103630004FF6FF7113F042FB534BEB612846032218
:103640005F2113F01FFB28461722504915F06CFF2D
:10365000A146D8F8003049484D4D1A1F4A4412B2CD
:10366000082113F00FFBD6ED007A97ED007AFDEEFE
:10367000E77AB1EE477A17EE903A04FB03F307EED0
:10368000903AF8EEE77A023477EE677A09F1280982
:1036900017EE900A1BF0BAF841EC100B00213748E6
:1036A00015F0B2FF0A2C1FFA89F9D2D12A683348E3
:1036B000384E394F9FED398A1032214612B213F03D
:1036C000E1FA032236492D4815F02EFFB046252495
:1036D000002517E013F0D6FAB8F80030274807EBBA
:1036E0004313D3ED027A67EE887A2B34FDEEE77A46
:1036F000A4B217EE901A05FB01F1013515F07AFF1F
:10370000062D24D033881D4821B2B722002BE1D1E9
:1037100013F0B8FAB8F8003007EB431393ED027AD0
:1037200007EE905A27EE087AF8EEE77A013567EE51
:10373000277A2B3417EE900A1BF068F841EC100B37
:1037400001210E4815F060FF062DA4B2DAD1B72290
:1037500040F21311094813F095FA03221149074862
:1037600015F0E2FE104B187808B14FF4FC6003B07E
:10377000BDEC028BBDE8F043FEF712BEE0E5FF1F93
:1037800090BFFF1FCC34FF1F38950200305E02004F
:103790003830FF1FB83BFF1F4433FF1FCDCC4C3EDA
:1037A000485E02004C5E0200D8E5FF1F38B5124BA0
:1037B0001A789AB11149124A0988124D02EB411246
:1037C0000024908829801C70FFF74EF8FFF71AFF3D
:1037D0000D4BB3F90030022B0AD038BD0949074A16
:1037E0000C88074814800122808C0A801A70EBE74D
:1037F000BDE83840FDF712BF84DBFF1FD234FF1F46
:103800004433FF1FB83BFF1FB46EFF1F10B50446C3
:1038100020B1012816D002280AD010BD014624206C
:1038200013F09AFE21462320BDE8104013F094BE09
:103830000021242013F090FE01212320BDE8104038
:1038400013F08ABEBDE81040FCF782BE272810B5F1
:1038500013D0262804461DD0252800D010BD0021F5
:10386000272013F079FE0021262013F075FE204654
:103870000121BDE8104013F06FBE012113F06CFE72
:103880000021262013F068FE00212520BDE810400D
:1038900013F062BEBDE81040FCF766BE2DE9F04FA4
:1038A0002DED048B062083B0FEF78EFFB24BB34A9A
:1038B0001B880321142B118065D0B14C0025CA232D
:1038C00020462946009326224FF4A073019511F05B
:1038D000D9F920464FF6E07113F0F0F9A94BE361F6
:1038E00029462046262213F0CDF920461D22A6495E
:1038F00015F01AFE29462046462213F0C3F9A34BC1
:10390000E361A34920462A2215F00EFE29462046EF
:103910005A2213F0B7F9204625229E4915F004FEDD
:10392000294620466E2213F0ADF9204628229A49F6
:1039300015F0FAFD294620468C2213F0A3F9204603
:103940002222964915F0F0FD29462046A02213F0C8
:1039500099F920462D22924915F0E6FD2946204688
:10396000BC2213F08FF920462E228E4915F0DCFD83
:103970008D4B25209D61DD6103B0BDEC048BBDE85E
:10398000F04FFFF763BF894B1B88012B95D17C4E0D
:103990007E4F00250C23304629460093BB224FF46E
:1039A000A073019511F06EF930464FF4784113F091
:1039B00085F929463046BC22F76113F063F9304699
:1039C0007B49FEF74BF972B67A4C237F03F0FF0276
:1039D00003B1257762B63AB172B647F6FF724FF47B
:1039E0000043E283238462B6DFF8DC91D9F8283003
:1039F000002B40F09F8129216F489FED708ADFF8EE
:103A0000B4A19FED6F9A15F025F96E4815F0A2FD4F
:103A1000F0EE488A0A254FF000081BE072B647F620
:103A2000FF734FF40041B4F91E20E383B4F9203052
:103A3000218462B69B1A07EE903AF8EEE77AD9F83D
:103A4000283087EE897A38EE078AC3B94FF001082B
:103A5000013D1AD04FF4FA7013F08AFD72B6237F3D
:103A600003F0FF0213B100238AF81C3062B6002A6B
:103A7000D4D1D9F828304FF00108002BE6D05248B5
:103A80000BF028FF78EE808AE2E7DFED507A68EEEF
:103A9000A78A28EE278AB8F1000F00F035814C493B
:103AA00048484C4DFEF7E8F808214B4815F0D2F88D
:103AB00018EE100A1AF0AAFE41EC100B072141483B
:103AC000FEF728FC0821454815F0C4F818EE900AC6
:103AD0001AF09CFE41EC100B07213A48FEF71AFC45
:103AE000DFED3F7ADFED3F6A68EEA78AB7EE006A46
:103AF000C8EE887AB0EE007A77EEC67A27EEA68A0C
:103B0000F0EEC87AF4EEC77AF1EE10FA00F31681FF
:103B1000DFF8E890344BDFF8D880C9F8003041F680
:103B20003D03324C18F803200021216022B100220D
:103B300008F80320FEF7B2F84FF4167013F018FDE2
:103B400041F63D03002118F80320216028491AB1ED
:103B50000022CA54FEF7A2F84FF4167013F008FDC5
:103B6000DFF89CA0234B9FED248A00224FF0000B2E
:103B70001A80D04652E000BF288BFF1FB46EFF1F93
:103B8000E0E5FF1F8C950200EC5F02003895020013
:103B90000C60020038600200606002008C6002006D
:103BA000B0600200BC5F0200C08BFF1FBA8BFF1F1A
:103BB000505E020000070020705E0200000000005E
:103BC00000FEFF462847FF1F28070020CDCCCC3D34
:103BD000B45E0200D834FF1FDC5E0200E85E020023
:103BE000FF0435400000C84200007AC4A46EFF1FE5
:103BF000B472FF1F428BFF1F00C079C4B8DCFF1FE7
:103C0000F18AFF1F9AF800300021012253B10023EE
:103C1000C4F800B088F80030FEF740F8D9ED007A1B
:103C200021680022F4EEC87AF1EE10FAEAD4002AF4
:103C300040F0978017214C4815F00CF8D9F8000097
:103C40001AF0E4FD41EC100B03214848FEF762FB3B
:103C500099ED007ADFED467A464877EEC77A14216F
:103C6000C5ED857A14F0F6FFD5F814021AF0CEFDF2
:103C700041EC100B03213D48FEF74CFBD5ED857A56
:103C8000B0EE047AF4EEC77AF1EE10FA06D4B1EE93
:103C90000E7AF4EEC77AF1EE10FA03DD36493348B6
:103CA000FDF7EAFF4FF000080C23BB2241460093CA
:103CB0003248CDF804804FF4A07310F0E3FF4FF6C4
:103CC000E0712E482E4C12F0F9FFF7614146BC22FC
:103CD0002A4812F0D7FF04F5067614F8011F601B7E
:103CE00013F080FAA642F8D12521264814F0B2FF3D
:103CF0001E4815F02FFC24492048FDF7AFFF03B004
:103D0000BDEC048BBDE8F08F9FED207A204D21495A
:103D10001648C7EE287AC5ED847AFDF79FFFD5F8DF
:103D200010021AF073FD41EC100B0B210F48FEF747
:103D3000F1FAB9E648460BF0CDFD5CE616490B48B2
:103D4000FDF78CFF18EE100A1AF060FD41EC100B25
:103D50000221064815F058FC10490448FDF78CFF75
:103D6000D6E6216066E700BF305F02002847FF1FEC
:103D70009FABDFC0485F0200605F0200E0E5FF1F0D
:103D8000D734FF1F945F0200BC5F0200D1839036DE
:103D9000D834FF1F9C5E0200F45E02002C5F02001C
:103DA00070B5394D2B789A07044622D5374B1B88BE
:103DB000002B43D0364B8600334418681AF026FD9A
:103DC00041EC100B0621334815F01EFC012132484E
:103DD00014F040FF314B1E4430681AF017FD41ECDF
:103DE000100B06212B4815F00FFC2A4815F0B2FBEA
:103DF0002B78DB0746D5254B1B888BB3244BA400BF
:103E0000234418681AF002FD41EC100B06212448E7
:103E100015F0FAFB0121204813F0BAFE1F4B1C4499
:103E200020681AF0F3FC41EC100B06211C4815F039
:103E3000EBFB1B48BDE8704015F08CBB194B8600AE
:103E4000334418681AF0E2FC41EC100B06211148CB
:103E500015F0DAFB0121104814F0FCFE124BBAE712
:103E6000104BA400234418681AF0D0FC41EC100B4E
:103E700006210B4815F0C8FB0121074813F088FE06
:103E8000094BCCE770BD00BF3030FF1F18E6FF1FA5
:103E900080C2FF1F2847FF1FA069020078A6FF1FEE
:103EA0001047FF1F108DFF1F9818002010B50A4CF7
:103EB00023789A0708D4DB0700D410BD04210748F3
:103EC000BDE8104013F064BE0421044814F0C2FEA3
:103ED00014F074FF2378EEE73030FF1FD85502004E
:103EE00038B5184C04F51C7594ED100B08211648D4
:103EF00015F08AFB0121154814F0ACFE94ED120B6D
:103F00000521114815F080FB0121104814F0A2FE94
:103F100094ED140B08210C4815F076FB01210B4899
:103F200014F098FE94ED160B0521074815F06CFB74
:103F30003034054815F00EFBAC42D5D1BDE8384011
:103F4000FFF7B4BF6830FF1F2847FF1F205602004D
:103F500038B564480BF002F8002866D01BF0C8FAA8
:103F6000614C624B208001225E481A800AF0F6FF05
:103F700018B11BF0BDFA5E4B18805A480AF0EEFFEC
:103F800000284FD01BF0B4FA5A4D80B2288040B3BD
:103F9000574B24881B88584A07EE900A1B1BB8EE23
:103FA000677A07EE903AF7EE006AF8EEE77A37EEB6
:103FB000667A411EC7EE876A89B20131002307EE97
:103FC000904AB8EEE77A98B207EE900AF8EE677A70
:103FD000B0EE476AA7EEA66A01338B42A2EC016AF3
:103FE000F1D1464B01225A82FCF7B2FA444A454BC2
:103FF000D2ED007A44484549454A2C881C80B7EEEA
:10400000007AF4EEC77A0023F1EE10FA03800B7009
:10401000138035DD3F4B72B63F4A0021D3611176E4
:1040200062B638BD334D2888B1E73C4C23789A07F7
:1040300036D4DB0703D4BDE83840FFF737BF2A4B3F
:104040003748198815F0D6FA0121364813F0A0FD3B
:10405000334815F07FFA264B3148198815F0CAFA13
:104060000121304813F094FD2D4815F073FA214BCF
:104070002B48198815F0BEFABDE83840FFF716BF87
:10408000BFEE007AF4EEC77AF1EE10FA27D49FED76
:10409000267A67EE877AFDEEE77A17EE903ABAE76E
:1040A000114B2248198815F0A5FA01211D4814F07A
:1040B000D1FD1E4815F04EFA0D4B1C48198815F01D
:1040C00099FA0121174814F0C5FD184815F042FA75
:1040D000084B1648198815F08DFA2378A9E7144B78
:1040E00099E700BFB8EEFF1FB03BFF1F5807002045
:1040F0006030FF1FAC3BFF1F2855FF1FD834FF1F48
:104100005C30FF1F8852FF1FAA3BFF1F6240FF1F4A
:1041100024E6FF1F0000FF7FF4DCFF1F3030FF1F8D
:104120001047FF1FA069020000FEFF4E2847FF1F37
:1041300000000180FFF7BABEFFF7B8BE2DE9F04FCF
:104140002DED048B584C83B00025A122B4F90C301E
:104150000092204626222946019510F093FD204624
:104160004FF6E07112F0AAFD504B514A1B78E26104
:10417000002B00F08E80DFF85891DFF858814D4F0A
:10418000DFED4D9AAA462B25B9F80040D8F800304B
:104190005444A4B203EB441BDBE902011AF082FE93
:1041A00008EE900ADBE904011AF07CFE08EE100A22
:1041B00068EE087A2EB2E8EEA87AB1EEE70AB4EE1D
:1041C000400AF1EE10FA69D116F080FFF0EE680AAD
:1041D000B0EE409AB0EE480A16F076FF04EB4404C5
:1041E00007EB041432460A212F48B0EE408A12F041
:1041F00049FD20681AF00AFB41EC100B00212A4807
:1042000015F002FA03222D49274815F08DF93246A0
:104210005F21254812F036FD02222949224815F077
:1042200083F9F3EE047A69EE277A0AF1010A17EEB0
:10423000900A1AF0EBFA41EC100B02211A4815F023
:10424000E3F902221F49184815F06EF93246BE21E3
:10425000154812F017FD03221B49134815F064F9A5
:1042600068EE297A1FFA8AFA17EE900A1AF0CEFA47
:1042700041EC100B02210C4815F0C6F9032213493A
:10428000094815F051F91335BAF1070FADB27FF4B3
:104290007BAF03B0BDEC048BBDE8F08FB0EE670AD6
:1042A00016F090FF90E700BFE0E5FF1FB454FF1F3A
:1042B000549502006830FF1FE12E6542E060020065
:1042C000E4600200E8600200EC600200F0600200BE
:1042D0006040FF1F908BFF1FF0B5254C254FB4F9B0
:1042E0000C30254E83B00025A1222046294600929D
:1042F00001958C2210F0C6FC20464FF6E07112F0BA
:10430000DDFC1E4BE36120468D22142112F0BAFC25
:10431000204608221A4915F007F93A8802EB4202B2
:1043200006EB021210681AF071FA41EC100B2946E4
:10433000204615F069F904222046124915F0F4F8D8
:104340003B88063303EB430306EB031318681AF0AC
:104350005DFA41EC100B2946204615F055F90A4943
:104360002046032203B0BDE8F04015F0DDB800BFE1
:10437000E0E5FF1F6040FF1F6830FF1F54950200FB
:10438000F460020000610200E0600200CB4B1B7889
:1043900003B970472DE9F04FC94BCA4C1F68DFF8CD
:1043A0007CA3DFF87C83DFF87C932DED028B460144
:1043B000374485B00546D7E902011AF073FD08EECF
:1043C000900AD7E904011AF06DFDBF4AB4F90C3028
:1043D0001268324492ED047B4FF0920E0021D2E934
:1043E000026708EE100ACDF800E02622204601916F
:1043F0008DED027B10F046FC20464FF6E07112F086
:104400005DFC204626221421C4F81CA012F03AFCC0
:1044100020464322142112F035FC0A22AB492046E3
:1044200015F082F8B0EE680AA948FEF7B3FD83469E
:104430001CF006F959460246204615F075F804228C
:10444000A449204615F070F8B0EE480AA048FEF7DF
:10445000A1FD83461CF0F4F8AD0002465946204603
:1044600015F062F808EB050B204655221E21C4F812
:104470001C9012F007FC9BED007AF7EE007AB4EE88
:10448000E77AF1EE10FA40F3B380B5EEC08AF1EEB0
:1044900010FA00F1CA81B5EEC08AF1EE10FAC0F24E
:1044A000A9808D498748FDF7D9FB8C4B8C482B445C
:1044B00093ED000AFEF74AFB01468248FDF7CEFB6A
:1044C00088498048FDF7CAFB08EB0503D3ED007A65
:1044D0009FED857AF4EEC77AF1EE10FA40F15B8138
:1044E00017EE900A1AF092F941EC100B0121754871
:1044F00015F08AF8394630461AF0D4FC08EE900AD6
:10450000DDE902011AF0CEFC4FF6E07108EE100A68
:104510006C4812F0D3FB812214216A48C4F81CA015
:1045200012F0B0FB714B1B780822002B00F0FC80CE
:104530006F49644814F0F8FFB0EE680A6D48FEF762
:1045400029FD06461CF07CF8314602465D4814F011
:10455000EBFF042268495B4814F0E6FFB0EE480A1E
:104560006448FEF717FD06461CF06AF8314602461D
:10457000544814F0D9FFC4F81C9097221E215148CA
:1045800008EB050412F07EFB94ED007AF7EE007A5A
:10459000B4EEE77AF1EE10FA54DDB5EEC08AF1EE32
:1045A00010FA50DB55494748FDF758FB544B554826
:1045B0001D4495ED000AFEF7C9FA01464148FDF792
:1045C0004DFB48493F48FDF749FBD4ED007A9FED8C
:1045D000467AF4EEC77AF1EE10FA00F109814A4901
:1045E0003848FDF73BFB05B0BDEC028BBDE8F08F12
:1045F0003FF751AF02224549324814F095FFB0EE23
:10460000680A3348FEF7C6FC83461CF019F8594681
:1046100002462C4814F088FFB5EEC08AF1EE10FA7D
:1046200040F3F5803A492748FDF718FB2B4B2C48FF
:104630002B4493ED000AFEF789FA01462148FDF765
:104640000DFB57E705DDB5EEC08AF1EE10FA00F17B
:10465000B18002222D491B4814F066FFDFED2D7A50
:10466000B0EEE87AB4EEE77AF1EE10FA40F38E801D
:10467000B7EE000A80EE280A1548FEF78BFC0146CB
:104680001048FDF7EBFAB5EEC08AF1EE10FA00F132
:10469000C58021490B48FDF7E1FA194B19481D4423
:1046A00095ED000AFEF752FA01460648FDF7D6FAE4
:1046B00005B0BDEC028BBDE8F08F00BF6540FF1F69
:1046C000008CFF1FE0E5FF1F98BFFF1F086102007D
:1046D0001030FF1F146102002C6102000C8CFF1FC0
:1046E0002433FF1F1C610200333F1C46F98BFF1F60
:1046F000346102003C30FF1F40610200E4660200AA
:104700005C0A00200833FF1F2461020010610200D0
:1047100030610200EA1C0802686102008C95020008
:10472000548BFF1FE89A02005349544814F0FCFED2
:10473000DFED537AB0EEE87AB4EEE77AF1EE10FAF4
:1047400033DDB7EE000A80EE280A4E48FEF722FC61
:1047500001464A48FDF782FA04224B49474814F0C3
:10476000E3FEDFED477AB0EEC87AB4EEE77AF1EE19
:1047700010FA15DDB7EE000A80EE080A4148FEF790
:1047800009FC01463D48FDF769FAF4E63F493B481C
:10479000FDF764FA77E73E493848FDF75FFAA9E686
:1047A0003A493648FDF75AFAE5E638493348FDF705
:1047B00055FAD1E737493148FDF750FA364B3748BB
:1047C0002B4493ED000AFEF7C1F901462B48FDF793
:1047D00045FA454432492948FDF740FAD5ED007ABB
:1047E0009FED307AF4EEC77AF1EE10FA7FF5F7AE6E
:1047F00017EE900A1AF00AF841EC100B1F4801213D
:1048000005B0BDEC028BBDE8F04F14F0FDBE2649AB
:104810001A48FDF723FA254B254809E7254917488B
:10482000FDF71CFA1C4B1D4839E723492046FDF7CC
:1048300015FA1E4B1E482B4493ED000AFEF786F92D
:1048400001462046FDF70AFA15492046FDF706FA0B
:10485000DBED007A9FED137AF4EEC77AF1EE10FAF1
:1048600099D517EE900A19F0D1FF41EC100B0121F8
:10487000204614F0C9FE3DE648610200E0E5FF1F56
:104880007D1D90261030FF1F14610200546102004C
:10489000246102002C6102005C0A00202433FF1F07
:1048A0001C610200333F1C46005E02000C8CFF1F9F
:1048B0000833FF1F60610200E466020030B5154C4A
:1048C00083B000210E22B4F90C300191054600920C
:1048D0002046B922822110F0D5F920464FF47841C4
:1048E00012F0ECF90C4BE3612046B922822112F060
:1048F000C9F928461BF0A4FE29460246204614F0BA
:1049000013FE20464FF6E07103B0BDE8304012F0D0
:10491000D5B900BFE0E5FF1FB8CD02002DE9F04F8B
:104920002DED028B684C9FED698AB4F90C30DFF8ED
:10493000C8B183B00025A1222046294600920195E6
:10494000262210F09FF920464FF6E07112F0B6F9DA
:104950005F4BE36129462046262212F093F9204658
:1049600022225C4914F0E0FD4FF03C0A61E017EEB2
:10497000900A19F04BFF41EC100B0121524814F042
:1049800043FE02225449504814F0CEFD49464046A9
:104990001AF088FA00EE100A5048FEF7FBFA80463B
:1049A0001BF04EFE41460246474814F0BDFD022270
:1049B0004949454814F0B8FD394630461AF072FAB4
:1049C00000EE100A4548FEF7E5FA80461BF038FE77
:1049D000414602463C4814F0A7FD02223E493A48AF
:1049E00014F0A2FD00220023304639461AF0D4F913
:1049F000002865D130463946002200231AF0E0F93C
:104A000078B1374B374803EB840494ED000AFEF786
:104A10009DF804461BF014FE214602462A4814F075
:104A200083FD0135ADB20AF1140A072D1FFA8AFA87
:104A300041D02D4B24481C88DBF800302C44A4B214
:104A400003EB44130FFA8AF20021D3E90289D3E978
:104A5000046712F017F9254A04EB440302EB031331
:104A6000D3ED007AF4EEC87AF1EE10FA18D49FED87
:104A7000207AF4EEC77AF1EE10FA3FF578AFB6EE91
:104A8000000A37EE800A16F0B3F810EE100A19F09B
:104A9000BDFE41EC100B00210B4814F0B5FD70E792
:104AA00017EE900A19F0B2FE41EC100B02210648F5
:104AB00014F0AAFD65E703B0BDEC028BBDE8F08FF2
:104AC000074B0C489FE700BFE0E5FF1F0000C8420E
:104AD00054950200706102006C5D02001030FF1FEF
:104AE0000C8CFF1F2433FF1FBA3BFF1F6830FF1FD2
:104AF00000007A440833FF1F008CFF1FFFFFFFFFF9
:104B00002DE9F047824B1B6803EB4013D3E90267A2
:104B10002DED068BD3E9044582B032463B468246F2
:104B20003946304619F0C6FE2246804689462B4655
:104B30002046294619F0BEFE0B460246494640462D
:104B400019F006FD41EC100B16F05EFAB0EE40AA2B
:104B5000F0EE60AA16F0CEF947EC116BB0EE409A79
:104B6000F0EE609A45EC104B16F0D4F8694B1B78C8
:104B700023B902B0BDEC068BBDE8F087664CB0EE01
:104B8000408AF0EE608A00259222B4F90C3000923F
:104B9000204626222946019510F074F820464FF64B
:104BA000FF7112F08BF85D4BE36120462622142141
:104BB00012F068F820460E22594914F0B5FC594B02
:104BC0009FED597A0AEB4A0A03EB0A1ADAED007AEA
:104BD000F4EEC77AF1EE10FA00F18B809FED537A74
:104BE000F4EEC77AF1EE10FA78D4B6EE000A37EE9A
:104BF000800A15F0FDFF10EE100A19F007FE41ECD7
:104C0000100B2946204614F0FFFC03224849424875
:104C100014F08AFC14213E223F4812F033F8454B31
:104C20003D485B8A012B0CBF434944490C2214F0D8
:104C30007BFC56221421384812F024F80F224049F8
:104C4000354814F071FCB0EE4A0AF0EE6A0A05210C
:104C5000314814F0D9FC04223A492F4814F064FC7E
:104C6000394BE3612C4878221E2112F00BF8072201
:104C70003649294814F058FC354B002251EC190BE9
:104C800019F018FE41EC100B0321234814F0BCFC72
:104C900003223049204814F047FC9B221E211E4865
:104CA00011F0F0FF08222C491B4814F03DFC16A31C
:104CB000D3E9002351EC180B19F0FCFD41EC100B6B
:104CC0000221154814F0A0FC24491348042202B024
:104CD000BDEC068BBDE8F04714F026BC17EE900A39
:104CE00019F094FD41EC100B0121204614F08CFCCE
:104CF0008BE717EE900A19F089FD41EC100B0221A9
:104D0000204614F081FC80E700000020DCA54C4028
:104D1000908BFF1F6540FF1FE0E5FF1F70950200AD
:104D2000946102006830FF1F0000C84200007A440E
:104D3000E0600200D834FF1FA4610200B4610200E9
:104D4000C4610200D4610200E89A0200CC61020052
:104D500000003440DC610200E0610200EC6102000E
:104D600070B5194C82B000251626B4F90C300195A7
:104D70002A462046294600960FF084FF20464FF62B
:104D8000FF7111F09BFF114BE3612A4620463C2145
:104D900011F078FF204615220D4914F0C5FB0D4B8C
:104DA000187858B9FDF7FCFA0B4B0748E3614FF64A
:104DB000E07102B0BDE8704011F080BF4FF4FC60BC
:104DC000FDF7EEFAF0E700BFE0E5FF1FA4BE02002A
:104DD000F4610200D8E5FF1F94AE020010B5114C3B
:104DE00082B000211022B4F90C30019120460092CB
:104DF00016220FF047FF20464FF6FF7111F05EFFBD
:104E000020461622052111F03DFF204611220649B9
:104E100014F08AFB20464FF6E07102B0BDE8104066
:104E200011F04CBFE0E5FF1F0C62020070B53A4C78
:104E30003A4E82B00025C82320462A4629460093D0
:104E400001954FF4A0730FF01DFFFFF789FFFFF7E7
:104E5000C5FF334A334B158020464FF6F7724FF6A5
:104E6000E0711A8011F02AFF29462046E6612622C9
:104E700011F008FF20461C222B4914F055FB29464F
:104E800020463C2211F0FEFE284BE36128492046D3
:104E9000242214F049FB29462046E661502211F0F5
:104EA000F1FE204623222349234E14F03DFB2946E0
:104EB0002046642211F0E6FE204616221F4914F017
:104EC00033FB29462046782211F0DCFE20461D22C5
:104ED0001B4914F029FB294620468C2211F0D2FEF2
:104EE00020461722174914F01FFB29462046A0220E
:104EF00011F0C8FE20461B221349144C14F014FB79
:104F000013481449144A154B3570257005700D70FF
:104F100015701D7002B070BDE0E5FF1F54950200D2
:104F2000B88BFF1FB46EFF1F20620200389502008D
:104F30004062020068620200B454FF1F8C620200EB
:104F4000A4620200C4620200DC62020014A6FF1F19
:104F5000448BFF1F4C6EFF1FB68BFF1F088BFF1F7C
:104F60002DE9F04FB54FB64B3A688BB0002505924E
:104F700005221A80059CFFF7F3FE0020FDF710FACA
:104F8000CA232622AF48009329464FF4A073019507
:104F90000FF078FEAB484FF6E07111F08FFEA94A92
:104FA000A94BD36110462946262211F06BFE1E2222
:104FB000A649A44814F0B8FA2946A2483C2211F0A8
:104FC00061FEA04AA24BD361A2491046282214F0E8
:104FD000ABFA29469B48502211F054FE29229E49E3
:104FE000984814F0A1FA29469648642211F04AFE26
:104FF00041F2883B93489949232214F095FAAA4636
:105000000395CDF808B096480EF06EFE0028FAD051
:105010003B680693069B1B1B962BF4D9874B904944
:105020001B68079308A8079C0EF04EFEBDF9208070
:10503000BDF9229040F2DB53984540F3E580994555
:1050400040F3ED80039B984506DD40F2DB531FFAE9
:1050500088F29945039203DDCA45B8BF1FFA89FA61
:10506000002678254FF4A073314601962A467548EC
:1050700000950FF007FE31462A46724811F002FEF5
:10508000042278496F4814F04FFA2A4664216D488B
:1050900011F0F8FD41466B4814F0ACFA31468C2211
:1050A000684811F0EFFD04226F49664814F03CFA9D
:1050B0008C226421634811F0E5FD4946614814F0F3
:1050C00099FA3146A0225F48684E11F0DBFD1322A9
:1050D00067495C4814F028FA5A48B4221421C66182
:1050E00011F0D0FD0299574814F084FAB4225021EF
:1050F000544811F0C7FD5946524814F07BFAC822B3
:105100002946504811F0BEFD03994E4814F072FA3A
:10511000C822B4214B4811F0B5FD5146494814F05E
:1051200069FAB8F5FA6F7FF76EAF40F2DB53994535
:105130003FF769AF0299A1F165039BB240F2823259
:10514000934229D8ABF165039BB2934224D80398CC
:10515000A0F6B9339BB240F2DA5293421CD8AAF6B9
:10516000B9339BB2934217D8424DA5F80212A5F865
:105170000602A5F804B2A5F808A26C1E05F21726CF
:1051800014F8011F601B12F02DF8B442F8D13A490F
:105190003A48FCF771FD09E050220021294811F03E
:1051A00071FD22223649274814F0BEF9254B2548C7
:1051B000B3F90C3000247A22214600920194262271
:1051C0000FF060FD214682221E4811F05BFD162281
:1051D0002C491C4814F0A8F941F2883012F0C8F9A3
:1051E000CA232146009326224FF4A0731548019448
:1051F0000FF048FDFFF71AFE234A244B14801222B9
:105200001A800BB0BDE8F08F029B984502DA1FFAB6
:1052100088F3029340F2DB5399453FF71DAFD94520
:1052200001DA1FFA89FB40F2DB5398457FF718AF8C
:10523000039B4345FFF609AF12E700BF403500204E
:10524000B46EFF1FE0E5FF1F8C950200F8620200BC
:105250003895020018630200446302007063020084
:10526000943BFF1F946302009C630200549502006C
:10527000A4630200D834FF1FB86302002847FF1F51
:10528000E86302000C640200BA8BFF1F288BFF1F2B
:1052900010B51C4C1C484FF6FF7111F00FFDE3894F
:1052A0001948012B0BBF062205221849184914F092
:1052B0003BF9184B184A1B8803EB430302EB03131B
:1052C000586819F0A3FA41EC100B03210E4814F0B2
:1052D0009BF90A2211490C4814F026F9638A04EB61
:1052E0008304606919F092FA41EC100B0221064820
:1052F00014F08AF94FF6E0710348BDE8104011F050
:10530000DDBC00BFD834FF1FE0E5FF1F24640200AE
:105310002C64020024E6FF1F6830FF1F3464020083
:1053200010B56A4C00EB40002DED028B04EB001031
:1053300090ED008AFFF714FDFFF750FDFFF7A8FF7F
:10534000DFED637AB4EEE78AF1EE10FA00F1AE8099
:10535000DFED607AB4EEE78AF1EE10FA00F18680B4
:10536000DFED5D7AB4EEE78AF1EE10FA39D4DFEDC5
:105370005B7AB4EEE78AF1EE10FA77D4DFED587A73
:10538000B4EEE78AF1EE10FA2BD4DFED567AB4EEE4
:10539000E78AF1EE10FA69D4DFED537AB4EEE78ACA
:1053A000F1EE10FA1BD4DFED517AB4EEE78AF1EE9C
:1053B00010FA5BD4DFED4E7AB4EEE78AF1EE10FA24
:1053C0000DD4DFED4C7AB4EEE78AF1EE10FA4DD44D
:1053D000DFED497AB4EEE78AF1EE10FA46D5062001
:1053E00000E00520FDF740FA4449454A0123CB611E
:1053F000D361B0EE480AFDF757F8424B424A1B888A
:1054000092ED007A414903EB430304EB0314D4ED1E
:10541000007A67EE877A0120F5EEC07AF1EE10FA95
:1054200008604AD49FED3A7AF4EEC77AF1EE10FAAA
:105430002DDD384A384BD361F5EEC07A0023F1EE0A
:1054400010FA13623DD49FED327AF4EEC77AF1EE92
:1054500010FA0DDD314A304BD361BDEC028B304B7D
:105460004FF0404001211062196010BD0720B9E7DC
:105470009FED2C7A2849294A67EE877AFCEEE77A75
:1054800017EE903A8B42C2ED077AE4D8E5E79FED3C
:10549000257A21491F4A27EE877ABCEEC77A17EE94
:1054A000103A8B4282ED077AC6D9C3E70720FDF791
:1054B000DBF90120FDF71CF99BE7164B0022DA61AE
:1054C0001A62164A0023D361C7E700BF6830FF1F86
:1054D00000C00F4500806D4500409C4500803B4664
:1054E00000204B4600609F4600F8A7460070DF464C
:1054F00000D0E8460088104700701447C0BFFF1F67
:105500006807002024E6FF1FA43BFF1F88E100E09E
:10551000A655AC4620DDFF1F0000FE7F58DDFF1FB3
:1055200008E100E04B24BE47414B424870B50122E0
:105530001A8009F013FD002865D019F0D9FF3E4DFF
:1055400028803C4809F00AFD00285AD019F0D0FF05
:105550003A4C20800021272011F0FEFF0021262058
:1055600011F0FAFF0021252011F0F6FF2388334EB9
:10557000D90755D49A074DD45B0746D42888FEF73F
:1055800045F92F4BD3ED007AB7EE007AF4EEC77AE7
:10559000F1EE10FA25DD2B4B72B62B4A0021D361B8
:1055A000117662B60720FFF7BBFE1221274813F0E1
:1055B00051FB2988264814F01DF80C21254813F0CA
:1055C00049FB2188224814F015F8214813F0C2FF46
:1055D0003321214813F03EFB1D48BDE8704013F015
:1055E000B9BFBFEE007AF4EEC77AF1EE10FA1DD41F
:1055F0009FED1A7A67EE877AFDEEE77A17EE903A1A
:10560000CAE70E4CA6E70C4D9BE70121252011F0BF
:10561000A3FFB3E70121262011F09EFF2388ABE70B
:105620000121272011F098FF3388A3E70C4BB3E743
:10563000A8BFFF1FB8EEFF1F240A0020C451FF1FA0
:105640005C30FF1F0000FF7FF4DCFF1F406402009E
:105650002847FF1F546402006464020000FEFF4EEE
:105660000000018010B50A4CB4F90030012B07D0BE
:10567000084A00234FF48031D1619361238010BD2B
:10568000054A064B12681A600020FFF749FEEFE753
:10569000B46EFF1FC08BFF1F94BFFF1F6830FF1F3A
:1056A00070B52349234A244C2448002382B00225A4
:1056B0000B701380E58109F051FC10B3064619F018
:1056C00017FF322830D0304619F012FF41F28833EC
:1056D000984208BF65821A4B1B7893B11E21194866
:1056E00013F0B8FA638A04EB8304606919F08EF84A
:1056F00041EC100B0221144813F086FF124813F0FE
:1057000029FF12480021A122B0F90C30019100922A
:1057100026220FF0B7FAFFF723FBFFF75FFB02B07B
:10572000BDE87040FFF7B4BD01236382D3E700BF3B
:10573000A0EEFF1F8A52FF1FD834FF1FB8EEFF1FD5
:10574000260A0020986402002847FF1FE0E5FF1F9B
:1057500038B51F4809F002FC1E4A1F4B0024147084
:105760001C80A0B119F0C0FE51EC100B19F09AFB8F
:105770001A4A1B4B1B4D106000EE100A1C8068601B
:10578000FCF7F2FE184B1B7801222A823BB9FFF787
:10579000E7FAFFF723FBBDE83840FFF779BD162194
:1057A000124813F057FA686819F030F841EC100B02
:1057B00002210F4813F028FF0D4813F0CBFEFFF72E
:1057C000CFFAFFF70BFBBDE83840FFF761BD00BF24
:1057D000B8EEFF1FA0EEFF1F8A52FF1F6830FF1FA9
:1057E00024E6FF1FD834FF1F260A0020B8640200F9
:1057F0002847FF1F70B51348134D144C144A00235B
:105800000121237003802B826C1E05F21726118064
:1058100014F8011F601B11F0E5FCB442F8D10D4BE8
:105820001B7833B110210C4813F014FA0B4813F015
:1058300091FEFFF795FAFFF7D1FABDE87040FFF748
:1058400027BD00BF8A52FF1FD834FF1FA0EEFF1FE5
:1058500024E6FF1F260A0020D06402002847FF1F0D
:1058600070B52349234A244C2448002301250B709A
:105870001380E58109F072FB002838D0064619F044
:1058800037FE322813D0304619F032FE41F2883309
:10589000984204BF02236382194B1B7863B9FFF758
:1058A0005FFAFFF79BFABDE87040FFF7F1BC144BBD
:1058B00065821B78002BF2D00C21124813F0CAF934
:1058C000638A04EB8304606918F0A0FF41EC100BBD
:1058D00002210D4813F098FE0B4813F03BFEFFF732
:1058E0003FFAFFF77BFABDE87040FFF7D1BC70BD0F
:1058F000A0EEFF1F8A52FF1FD834FF1FB8EEFF1F14
:10590000260A0020E46402002847FF1FF8B58048FB
:1059100009F024FB002800F0CF80044619F0E8FDD0
:10592000632806D0204619F0E3FD002800F092809D
:10593000F8BD784B1B78002B40F0B680764D774C45
:10594000774F784E4FF40672002128461AF0A0F9DE
:1059500075497648696044F23B31754B2980A860EF
:1059600074497548EC614FF07E5400226F61AE615E
:105970002C62724E724C6962A86201210220714F42
:105980002E63C5E91023C5E91223C5E91423C5E92F
:105990001623C5E91823C5E91A23C5E91C23C5E95F
:1059A0001E23C5E92023C5E92223C5E92423C5E92F
:1059B0002623C5E92823C5E948236C63A981E98129
:1059C000698285F8391085F8380085F83A005E4C10
:1059D000EF625226C5E94A235C485D4985F80062BA
:1059E000C5E94C23C5E94E23C5E95023C5E9522337
:1059F000C5E95423C5E95623C5E95823C5E95A2307
:105A0000C5E95C23C5E95E23C5E960234FF4A072B4
:105A100040F6BA63C5F80C42C5F81002C5F8141276
:105A2000A5F80222A5F80422A5F80632A5F8083246
:105A30006C1E05F2172614F8011F601B11F0D2FB33
:105A4000A642F8D1FFF78CF9FFF7C8F9BDE8F84096
:105A5000FFF71EBC2E4809F081FA002856D019F035
:105A600043FD51EC100B19F01DFA2B4DA86128488D
:105A700009F074FA30B119F037FD51EC100B19F040
:105A800011FAE861334C04F5067614F8011F601B27
:105A900011F0A8FBA642F8D1FFF762F9FFF79EF9D3
:105AA000BDE8F840FFF7F4BB19212B4813F0D2F8FA
:105AB0002A4813F04FFD41E717212948164C13F0EF
:105AC000C9F8264813F046FD1621264813F0C2F8FF
:105AD000A06918F09BFE41EC100B03211F4813F046
