:1000000000000320D1010000B57601006D760100EB
:100010006D7601006D7601006D7601006D76010050
:100020006D7601006D7601006D760100B5760100F8
:10003000B57601006D760100E1970100E5970100BA
:10004000B5760100B5760100B5760100B576010000
:10005000B5760100B5760100B5760100B5760100F0
:10006000B5760100B5760100B5760100B5760100E0
:10007000B5760100B5760100B5760100B5760100D0
:10008000B5760100B5760100B5760100B5760100C0
:10009000B5760100B5760100B5760100B5760100B0
:1000A000653D0100713D0100B5760100B5760100A6
:1000B000B5760100B5760100B5760100B576010090
:1000C000B5760100B5760100B5760100B576010080
:1000D000B576010001810100B5760100B576010019
:1000E000B5760100B5760100B5760100B576010060
:1000F000B5760100B5760100B5760100B576010050
:10010000B5760100B5760100B5760100B57601003F
:10011000B57601008D830100B5760100B57601004A
:10012000B5760100B5760100B5760100B57601001F
:10013000B5760100B5760100B5760100B57601000F
:1001400095950100B5760100B5760100B576010000
:10015000B5760100B5760100B5760100B5760100EF
:10016000B5760100B57601007D3D0100B576010050
:10017000B5760100B5760100B5760100B5760100CF
:10018000B5760100B5760100B5760100B5760100BF
:10019000B5760100B5760100B5760100B5760100AF
:1001A000B5760100B5760100B5760100B57601009F
:1001B000B5760100B5760100B5760100B57601008F
:1001C000B5760100B5760100B5760100B57601007F
:1001D0005C4B4CF2205210B51A804DF628121A8052
:1001E00000BF00BF17F06AFA574B4FF030621A6039
:1001F000564A9A60564ADA60564B4FF470021A60BB
:10020000554B564A1A60564B1A78110703D51A787F
:1002100042F008021A70534B5349AA221A70534AEB
:10022000534B8B4204D252F8040F43F8040BF8E707
:10023000504B514900228B4202D243F8042BFAE77B
:100240004E494F4A002352F8230041F8230001335E
:10025000742BF8D14B4B4C4A802103F8011B93427D
:10026000FBD14A4B454A1A60494B8A221A70A3F5C2
:10027000805324225A70A0221A709A799207FCD5D2
:100280009A79D406FCD4434A937903F00C03082BE3
:10029000FAD1414B60221A7002331A78802AFCD1BD
:1002A0003C4B01221A715D225A719A799006FCD555
:1002B0009979384A4906FBD5384B394919600021EC
:1002C000596020231370937903F00C030C2BFAD19F
:1002D000344B354A1A60354A354C136813F4807331
:1002E00003D123604FF4A8531360324B324A1A6093
:1002F00000225A60072243F8042C304AC3F80C2D20
:1003000062B617F09DFB2368DA0705D52C4817F075
:1003100027FB2C4B2C4A1A602C4B1B785B0609D50B
:10032000284C294B22689A4204D1254817F018FB23
:10033000002323601FF000FB17F0C6F919F090FCB2
:10034000FEE700BF0E20054030800440823F0400DD
:100350000100002B88ED00E0002008E0030000858C
:1003600002D0074000E007408851FF1F14DF030060
:10037000302FFF1F8851FF1FDC370020002AFF1F8E
:100380000000000000E400E064E400E008ED00E0AC
:10039000005006400040064001E007404480044011
:1003A0000000060204800440C010070010D0034083
:1003B00014D0034014E000E01FBF02000000202022
:1003C0007CC2B75F1CE00340A5C3945A00F007400D
:1003D000FFFFFFFFFFFFFFFFFFFFFFFFFFFFFFFF2D
:1003E000FFFFFFFFFFFFFFFFFFFFFFFFFFFFFFFF1D
:1003F000FFFFFFFFFFFFFFFFFFFFFFFFFFFFFFFF0D
:10040000FFFFFFFFFFFFFFFFFFFFFFFFDEF9FFFF23
:1004100010B5054C237833B9044B13B10448AFF33E
:1004200000800123237010BD8851FF1F00000000D1
:1004300010DF0300084B10B51BB108490848AFF3A3
:1004400000800848036803B910BD074B002BFBD0A0
:10045000BDE81040184700BF000000008C51FF1F8E
:1004600010DF03008851FF1F00000000014B052230
:100470001A807047F88BFF1F704700BF10B5044605
:10048000006808B119F0F6FB204610BD30B50848E9
:10049000084CB0F90C3083B000210E22019100927B
:1004A0000125B9225021257014F002FE03B030BDA1
:1004B00008E6FF1F6B41FF1F70B5064C04F506767A
:1004C000651C14F8011F601B17F0A2F8B442F8D1A4
:1004D00070BD00BFD734FF1F08B50E4B0E48012278
:1004E0001A700EF051FF68B10C4B02221A801FF0F7
:1004F00013FA0B4A0B4B108000221A800A4B002281
:100500001A7008BD074B42F20F721A80064B002288
:100510001A7008BDC8EEFF1FE0EEFF1F8007002025
:1005200040E6FF1FB23BFF1F6A41FF1F10B50446A4
:1005300018F0DAFF204610BD08B50121002017F0A1
:1005400021FA00210120BDE8084017F01BBA00BFC6
:1005500008B50121242017F015FA00212320BDE859
:10056000084017F00FBA00BF08B50021272017F088
:1005700009FA0121262017F005FA00212520BDE8FF
:10058000084017F0FFB900BF704700BF704700BFB9
:1005900038B5094A094B0A4C0A4911600025042262
:1005A0000948257014211A8018F06AFD0748BDE833
:1005B000384019F0E5B900BFCC8CFF1F14DDFF1FD8
:1005C000C8EEFF1F0AD7233C005A02002847FF1F2E
:1005D000F0B5274F274A3B78012111709A0783B065
:1005E00020D5254D2B88B3B1244E002406EB84037F
:1005F000D3ED007A2248FCEEE77A0134CDED017AA2
:10060000BDF8041019F00CFA1D4819F0B9F92B883F
:10061000A4B2A342EAD804211A4818F031FD18F018
:10062000E3FD3B78DB0720D5134D2B88B3B1134E88
:10063000002406EB8403D3ED007A1348FCEEE77A3E
:100640000134CDED017ABDF8041019F0E9F90E4836
:1006500019F096F92B88A4B2A342EAD809480421DC
:1006600003B0BDE8F04017F0A9BC03B0F0BD00BF77
:100670003030FF1FC8EEFF1FAC3BFF1F6C55FF1F44
:100680002847FF1F185A02001047FF1FF8B51248ED
:100690000EF07AFE88B11FF03FF9104DA8816C1E54
:1006A00005F2172614F8011F0C4F601B16F0B0FF5F
:1006B000B442F7D10A4B1B7803B9F8BD10210948A1
:1006C00018F0DEFCB989084819F0AAF90648BDE817
:1006D000F84019F055B900BFE0EEFF1FD834FF1FF6
:1006E0004E0A0020205A02002847FF1F10B508219B
:1006F000154818F0C5FC00230A224FF40671134870
:1007000019F04EF91C21124818F0BAFC0F4819F0E4
:1007100037F9002421460D4819F082F901210D48CE
:1007200018F0AEFC204616F059FF002301460A22BD
:10073000064819F035F90134044819F021F9B4F5E7
:10074000067FE7D110BD00BF345A02002847FF1FC3
:10075000405A0200605A020070B5124C124EA38932
:1007600082B000250E22503B1BB220468DE82400AB
:100770005021B922357014F09BFC20464FF6FF71D2
:1007800016F0B2FC094BE3612046B922912116F024
:100790008FFC07492046192202B0BDE8704019F0CD
:1007A000D9B800BF08E6FF1F6B41FF1FD0AC0200A5
:1007B000645A020010B50E4C23789A070FD4DB0759
:1007C00000D410BD01210B4817F0F8FB0A4819F0BE
:1007D000D7F804210948BDE8104017F0EFBB092104
:1007E000074818F04DFC074819F0CAF82378E6E7E7
:1007F0003030FF1F885A02001047FF1F185A0200AE
:10080000805A02002847FF1F10B5114C23789A0721
:100810000FD4DB0700D410BD0B210E4817F0CEFB20
:100820000D4819F0ADF804210C48BDE8104017F050
:10083000C5BB0B21074818F023FC094819F0A0F8A4
:100840000421064818F01CFC18F0CEFC2378E0E7E1
:100850003030FF1F8C5A02001047FF1F185A020049
:100860002847FF1F30B51E4C83B00025A122B4F9E4
:100870000C300092204629462622019514F018FCDF
:1008800020464FF6E07116F02FFC164BE361294627
:1008900020463C2216F00CFC20461622124919F084
:1008A00059F8124B5A8A03EB820358691EF0C2F9B9
:1008B00041EC100B2046022119F0BAF8204605221F
:1008C0000B4919F047F8294620465A2216F0F0FB4A
:1008D00008492046292203B0BDE8304019F03AB853
:1008E00008E6FF1FCC990200985A0200D834FF1F77
:1008F000887E0200B05A020010B51B4C1B4A2378B8
:10090000012111709A0717D4DB0700D410BD05210F
:10091000174817F053FB5321164819F081F80921A5
:10092000154817F04BFB134819F02AF80421134817
:10093000BDE8104017F042BB0321114818F0A0FB9E
:100940005321104819F06CF809210B4818F098FB56
:100950000C4819F015F80421084818F091FB18F01C
:1009600043FC2378D0E700BF3030FF1FC8EEFF1FE5
:10097000EC5A02001047FF1FE05A0200185A02000A
:10098000DC5A02002847FF1F70B5234C2348237808
:100990002349244D0022012602700A709A072E7006
:1009A0001DD4DB0700D470BD09211F4817F006FBDA
:1009B0001E4818F0E5FF0C211D4817F0FFFA1B48F0
:1009C00018F0DEFF17211B4817F0F8FA174818F047
:1009D000D7FF04211848BDE8704017F0EFBA09218D
:1009E000114818F04DFB154818F0CAFF0C211048AB
:1009F00018F046FB114818F0C3FF17210D4818F0F6
:100A00003FFB0E4818F0BCFF04210B4818F038FBE0
:100A100018F0EAFB2378C4E73030FF1FD034FF1F03
:100A20004E0A0020C8EEFF1FF45A02001047FF1FB5
:100A3000005B0200105B0200185A02002847FF1FEB
:100A400010B50F480EF0A0FC48B10E4904461FF047
:100A50003BFE88B120460C491FF036FE00B110BDA8
:100A60000A4B0B48012212211A7018F009FB0948A1
:100A7000BDE8104018F084BF044B187010BD00BFD3
:100A8000E0EEFF1FA4D4030094780200D034FF1FCF
:100A9000285B02002847FF1F70B5324E3248334DA5
:100AA000334C032118F0ECFA338803EB430305EBD6
:100AB000031318681EF0BEF841EC100B204603210A
:100AC00018F0B6FF04212B4818F0DAFA2A4B20461A
:100AD00093ED000B022118F0ABFF0521274818F019
:100AE000CFFA274B204693ED000B022118F0A0FF10
:100AF0000521244818F0C4FA234B204693ED000B3F
:100B0000022118F095FF0621204818F0B9FA204B71
:100B1000204693ED000B022118F08AFF09211D48A1
:100B200018F0AEFA338803EB430305EB031393EDA0
:100B3000040B2046052118F07BFF0821164818F009
:100B40009FFA338803EB430305EB031595ED060B82
:100B50002046022118F06CFF2046BDE8704018F0D6
:100B60000FBF00BF4CE6FF1F3C5B02006830FF1F59
:100B70002847FF1F405B0200608BFF1F485B02009D
:100B800088070020505B0200588BFF1F585B020053
:100B9000508BFF1F605B02006C5B0200F0B5314AB6
:100BA000314C324EB4F90C3083B00025A121062718
:100BB0008DE82200204629461780262214F078FA74
:100BC00020464FF6E07116F08FFA2946204626227D
:100BD000E66116F06DFA20462422254918F0BAFE87
:100BE000294620463E2216F063FA224B2249E36151
:100BF00020462F2218F0AEFE29462046562216F037
:100C000057FA204629221D4918F0A4FE29462046FD
:100C10006E2216F04DFA20461422194918F09AFE59
:100C200029462046862216F043FA204624221549FA
:100C300018F090FE294620469E2216F039FA2046EA
:100C40002C22114918F086FE29462046B62216F0BD
:100C50002FFA20462E220D4918F07CFEE66103B0E3
:100C6000F0BD00BFF88BFF1F08E6FF1FCC99020004
:100C7000785B020030D20200A05B0200D05B020071
:100C8000FC5B0200145C02003C5C02006C5C020035
:100C9000F0B5314A314C324EB4F90C3083B00025F6
:100CA000A12106278DE8220020462946178026220A
:100CB00014F0FEF920464FF6E07116F015FA2946B9
:100CC00020462622E66116F0F3F920462322254924
:100CD00018F040FE244BE361294620463E2216F0E0
:100CE000E7F920462A22214918F034FE29462046F9
:100CF000562216F0DDF920461E221D4918F02AFE64
:100D0000294620466E2216F0D3F920461B221949A7
:100D100018F020FE29462046862216F0C9F9204602
:100D20002522154918F016FE294620469E2216F067
:100D3000BFF920461622114918F00CFE294620461C
:100D4000B62216F0B5F920462D220D4918F002FE04
:100D5000E66103B0F0BD00BFF88BFF1F08E6FF1F80
:100D6000CC9902009C5C020030D20200C05C020000
:100D7000EC5C02000C5D0200285D0200505D020088
:100D8000685D0200F0B52B4B2B4885B000241C7029
:100D90000EF0FAFA30B31EF0BFFD284E00B2A042AA
:100DA000308031D020DD264B264F0FCB6C4607C458
:100DB00002226D4623703A80234B1B7893B10C219D
:100DC000224818F05DF9B6F90010214818F028FE05
:100DD00028461FF055FE0146284618F051F91C48D8
:100DE00018F0CEFD05B0F0BD013017D0DFF86CE093
:100DF0003480BEE80F006F460FC7124BDEF80020AC
:100E00003A706D461C80D7E7124B0E4F0FCB6C46E5
:100E100007C401226D4623803A80CDE70E4B094C72
:100E200093E807006B4603C303216D461A802180B7
:100E3000C2E700BFC8EEFF1FE0EEFF1F98C2FF1F12
:100E4000A85D020014DDFF1F4E0A0020D85D0200DD
:100E50002847FF1F985D0200B85D0200C45D0200D4
:100E60002DE9F041614B624A1B884FF6FE710E2B53
:100E700082B0118057D0DFF8B0815E4F5E4C5F4E7C
:100E8000B4F90C300025C82220460195294600926D
:100E9000262214F00DF920464FF6E07116F024F9E1
:100EA000294620462622E66116F002F92046012254
:100EB0005349544D18F04EFD20463C22142116F0A3
:100EC000F7F820461822504918F044FD3A222046EF
:100ED000D22116F0EDF8D8F80000E5611DF0AAFE69
:100EE00041EC100B2046022118F0A2FD20465A22A8
:100EF0001421E66116F0DCF820461522434918F06B
:100F000029FD20465822D22116F0D2F83868E56132
:100F10001DF090FE41EC100B2046022102B0BDE80E
:100F2000F04118F085BD3A4B1B88012B2DD0022BC8
:100F30000DD0032B46D12F4FDFF8EC80D7ED007A90
:100F4000B1EE047A77EE877AC7ED007A96E7DFF89C
:100F5000D880D8ED007AB0EE007AF4EEC77AF1EEE0
:100F600010FA2DDDDFED2B6AF4EEE67AF1EE10FAE1
:100F700037DCDFED296AF4EEE67AF1EE10FA1DDDDA
:100F8000264BC8F800301B4F78E7DFF89C80D8ED7F
:100F9000007AB3EE047AF4EEC77AF1EE10FA0FD5C8
:100FA000DFED1F6AF4EEE67AF1EE10FAE8D4DFED39
:100FB0001A6AF4EEE67AF1EE10FA12D488ED007AAD
:100FC0000C4F5BE7042B7FF456AF0A4FDFF85880D5
:100FD000D7ED007AB1EE047A77EEC77AC7ED007AE2
:100FE0004CE7104BC8F80030024F47E7688BFF1FF3
:100FF000F86EFF1FA8BFFF1F08E6FF1FCC99020075
:10100000106E02001CC30200E85D0200045E0200D4
:10101000FA8BFF1F9A9921413333A3400000A0406F
:101020006666064000002041CC34FF1F10B50E4814
:101030000EF0AAF970B11EF06FFC04460A480EF0DB
:10104000A3F938B11EF068FCC1B2A0B2BDE81040EF
:1010500016F0DEBA2B21054818F012F80448BDE856
:10106000104018F08DBC00BFE0EEFF1F1C5E0200B8
:101070002847FF1F10B516480EF086F978B11549BC
:1010800004461FF021FB58B1204613491FF01CFBFA
:1010900028B9124B124A1B78012111707BB910BD7F
:1010A0000E4B0F4A1B781070002BF8D00B210D4807
:1010B00017F0E6FF0C48BDE8104018F061BC0F21A6
:1010C0000A4817F0DDFF0848BDE8104018F058BC8A
:1010D000E0EEFF1FA4D4030094780200D034FF1F79
:1010E0004E0A0020485E02002847FF1F545E02009F
:1010F0002DE9F84F6A4D05F50676AA462C46601B89
:1011000016F06CFA04F8010BB442F8D1DFF8CC8188
:10111000644E08F1700708F1E00908F5A87BBE46A7
:101120004C465846414633460022B1EC026BBEECB9
:10113000027B83ED046B83ED067BB4EC026BB0ECB9
:10114000027B0832702A83ED086B83ED0A7B03F182
:101150003003EAD11B21544817F092FF00230A22E2
:101160009AF80012514818F01BFC504818F008FC7F
:101170009AF80032452B60D84D4A9FED456B9FEDA4
:10118000467BA2F17000A2F1E001A2F5A873A3ECE6
:10119000026B9F42A1EC027BA0EC026BA2EC027BF3
:1011A000F5D146233B22312142488AF800328AF8A1
:1011B000002017F065FF3D4818F0E2FB4A213E4849
:1011C00017F05EFF394818F0DBFB9AF800324F2B1E
:1011D00035D93A4C04F5067A14F8011F601B16F055
:1011E00017FA5445F8D10023B8EC026BB7EC027B38
:1011F000F9E80245FBE802010833702B86ED046B29
:1012000086ED067BC6E90845C6E90A0106F1300607
:10121000EAD10F212A4817F033FF00230A224FF4A6
:101220000671224818F0BCFB0621264817F028FF5B
:101230001E48BDE8F84F18F0A3BB4F2BD3D8224A65
:10124000224BCAF80C22CAF810324FF4A07240F6B2
:10125000BA63AAF80222AAF80422AAF806321C4AA3
:10126000AAF80832342153231A48CAF814228AF8FB
:10127000003217F005FF0D4818F082FB2E211648AA
:1012800017F0FEFE094818F07BFBA2E7AFF30080E1
:10129000000000000000F03F00000000000000001F
:1012A000D834FF1F6830FF1F645E02002847FF1F0D
:1012B0006836FF1F805E0200B45E0200D734FF1F55
:1012C000685F0200785F02003A23CA3FCA2F67377F
:1012D00000009040005F0200385F02001835FF1FD9
:1012E00070B524488CB00EF04FF840B31EF014FBDC
:1012F000214D85F838001F480EF046F818B11EF051
:101300000BFB85F839001B480EF03EF818B11EF0B3
:1013100003FB85F83A0017480EF036F818B11EF0B6
:10132000FBFA85F83B00154C04F5067614F8011F0E
:10133000601B16F06DF9B442F8D10CB070BD0E48C8
:101340000F4990F8393090F8382090F83B4090F8E9
:101350003A008DE8110003A81FF002F903A81FF05E
:101360008FFB014603A817F08BFE064818F008FB18
:101370000CB070BDE0EEFF1FD834FF1FD734FF1F45
:10138000805F02002847FF1F10B52D480DF0FCFFBD
:10139000C8B12C4904461FF097F9A8B92A4B2B4A2B
:1013A0001B781070002B43D125480DF0EDFF04464B
:1013B00048B124491FF088F9D8B9234B244A1B7837
:1013C0001070002B2BD110BD204622491FF07CF954
:1013D0000028E9D11C4B1D4A1B7801211170002BFC
:1013E000E2D013211C4817F04BFE1C4818F0C8FA35
:1013F000DAE7204617491FF067F90028E3D1124BBE
:10140000134A1B7801211170002BDCD015211448E0
:1014100017F036FE1148BDE8104018F0B1BA192196
:10142000104817F02DFE0D48BDE8104018F0A8BA7E
:1014300017210D4817F024FE084818F0A1FAB3E769
:10144000E0EEFF1FA4D40300D034FF1F6C41FF1F48
:10145000C043FF1F94780200B85F02002847FF1FB7
:10146000E85F0200CC5F0200A05F0200FFFFFFFF09
:1014700070B569480DF088FF002850D01EF048FA7A
:101480005FA3D3E9002351EC100B1DF027FC1DF0E6
:101490001DFF624D686260480DF076FF30B11EF0AE
:1014A00037FA51EC100B1DF011FFA8625A480DF0ED
:1014B0006BFF58B11EF02CFA53A3D3E9002351EC73
:1014C000100B1DF00BFC1DF001FFE86252480DF0FF
:1014D0005BFF30B11EF01CFA51EC100B1DF0F6FE54
:1014E00028634D480DF050FF58B11EF011FA48A383
:1014F000D3E9002351EC100B1DF0F0FB1DF0E6FECC
:1015000068634548464C0DF03FFF04F5067614F835
:10151000011F601B16F07CF8B442F8D170BD044680
:10152000172140483D4D17F0ABFD3F4818F028FA11
:101530000F213E4817F0A4FD95ED097ADFED3C7AC6
:1015400067EE277A17EE900A1DF074FB41EC100B42
:101550000121354818F06CFA334818F011FA0F21C0
:10156000344817F08DFDA86A1DF064FB41EC100BA8
:1015700021462D4818F05CFA2B4818F001FA0F218B
:101580002D4817F07DFD95ED0B7ADFED2C7A67EE97
:10159000277A17EE900A1DF04DFB41EC100B03214A
:1015A000214818F045FA204818F0EAF90F2124489C
:1015B00017F066FD286B1DF03DFB41EC100B04217C
:1015C000194818F035FA184818F0DAF90F211D48B3
:1015D00017F056FD95ED0D7ADFED1B7A67EE277A51
:1015E00017EE900A1DF026FB41EC100B01210E486E
:1015F00018F01EFA0C48BDE8704018F0C1B900BFE1
:10160000000000809997713D000000A0F7C6B03E31
:10161000000000E00B2E113EE0EEFF1FD834FF1F4C
:10162000D734FF1F006002002847FF1F1860020028
:10163000A5D4685328600200386002000024744971
:101640004860020058600200286B6E4E2DE9F04F92
:101650009F4BDFF894B29F4A1B681268DBF80010BA
:101660009D482DED048B023387B01BB2013A05393A
:101670000024009312B209B201944FF4837313F063
:1016800017FD4FF62055934BDBF800101A6892486F
:1016900000952244053912B2283409B240F20313EE
:1016A00013F05EFBC82CEED114244FF62055894B65
:1016B000BBF900101A6888480095224412B22834F9
:1016C000FE2313F04DFBB42CF1D19FED848A9FEDE6
:1016D000849A0624F6EE008A78EE287ADBF8003049
:1016E0007C4A7D48B2F90020FDEEE77A4FF620559E
:1016F00017EE901A194409B20095A52313F020FBA8
:10170000013C38EE098AE7D19FED768ADFED748AD5
:101710000627F6EE007A78EE277ADBF800306D4A7D
:101720006D48B2F900206B4D6F4CFDEEE77A4FF635
:10173000205617EE901A194409B20096A02313F010
:10174000FFFA013F38EE288AE3D12368B5F900207B
:101750006148009603F1FF0109B2A023634E03968E
:1017600013F0EEFA23682A685B48009703F12B0117
:10177000023212B209B2102313F0E2FA21682A6889
:10178000554800970232EB3112B209B2102313F020
:10179000D7FADFED578A9FED578ADFF85CA13C4608
:1017A0003A4619E0DBF800104B48A4B231442B1B39
:1017B000621C4FF6FF761BB212B209B2009613F00C
:1017C000BFFA039B01370233FE2F03930AF1020A8B
:1017D00000F0948044464A46BEB2B31EFC2B40F251
:1017E000C381039BBAF900E0B3F90050384B186885
:1017F000384B00F10108C6451FFA80FC1868C4BFC9
:101800000CF1010E0FFA8EFE0138A845B8BF0CF19D
:101810000105604481B2B8BF2DB2CEEB010E4D1B65
:101820001FFA8EFEADB20FFA8EF90FFA85F8002F6F
:1018300000F09781C2EB0903C4EB0801012B04916E
:1018400021DDDBF80010244892B2C2EB0E033144D4
:1018500001324FF0000C1BB212B209B2CDF800C039
:1018600013F06EFA049B012B9CDC049BDBF8001048
:101870001948013313DB314409B24FF6FF73424676
:1018800013F0D2F89DE7013314DBDBF800101248A7
:10189000314409B200234A4613F0C6F8E2E7631B5D
:1018A00031444FF6FF7200921BB209B2424613F068
:1018B00047FA86E7DBF800100748CEEB0203314415
:1018C000002200921BB209B24A4613F039FAC9E766
:1018D0002C30FF1F3830FF1F08E6FF1F00000000FC
:1018E000ACAA2A42A9AAAA413430FF1FD052FF1F36
:1018F000EC51383E295C8F3D2805002015224621F9
:10190000CC4815F0D5FBCC4BCC4AD3ED007A92ED08
:10191000857A77EE277A17EE900A1DF08BF941EC65
:10192000100B0221C34818F083F815224FF482717E
:10193000C04815F0BDFBC24BD3ED007AF5EEC07A7E
:10194000F1EE10FA40F3078117EE900A1DF072F9DC
:1019500041EC100B0121B74818F06AF8B94BBA4AAC
:1019600003F5007033F8021F22F8021F9842F9D1E4
:10197000B64B1B78002B00F0E9804FF6FF71AD48A5
:10198000B34DB44E9FEDB48A15F0AEFBA948B34BEE
:10199000C3612422F02115F08BFB0822B049A54831
:1019A00017F0D8FF2E22F021A24815F081FB042267
:1019B000AC49A04817F0CEFF2E2240F213119D48EB
:1019C00015F076FB96ED007AD5ED007A77EEC77AC2
:1019D0004FF4FC6477EE887A17EE900A1DF02AF92E
:1019E00041EC100B0121934818F022F83822F02125
:1019F000904815F05DFB0A229B498E4817F0AAFF1C
:101A0000382240F213118B4815F052FB4222F0218C
:101A1000884815F04DFB0A229449864817F09AFF32
:101A20004C2240F21311834815F042FBD6ED006AB8
:101A3000D5ED007A9FED8E7A77EEE67A4FF4784511
:101A400077EE887A77EEC77A17EE900A1DF0F2F8F3
:101A500041EC100B0121774817F0EAFF5622F021E4
:101A6000744815F025FB05228249724817F072FF71
:101A7000562240F213116F4815F01AFB7E4BD6ED3B
:101A8000006AD3ED007A9FED7D7A77EEE67A77EE05
:101A9000C77A17EE900A1DF0CDF841EC100B01212A
:101AA000644817F0C5FF764B62481A68DBF80030CF
:101AB000009403F10D019E3212B209B21C2313F0FF
:101AC0004FF96F4B5B481A68DBF80030009503F163
:101AD00029019E3212B209B2042313F041F9684B76
:101AE00054481A68DBF80030009403F12D019E324F
:101AF00012B209B2802313F033F9614B4D481A68D2
:101B0000DBF80030009403F10D019F3212B209B2EC
:101B10001C2313F025F95A4B46481A68DBF80030AD
:101B2000009503F129019F3212B209B2042313F088
:101B300017F9534BDBF800101A683E4800949F32A7
:101B40002D3112B209B2802313F00AF907B0BDECAF
:101B5000048BBDE8F08F04224A49364817F0FAFE9C
:101B6000FCE64446049790E6474BB3F90030002B5F
:101B70003FF437AE039931F9023C07EE103A3AF9D7
:101B8000023C07EE903AB1F9003006EE903ABAF90D
:101B90000030B8EEC77A05EE903AF8EEE77AB1F980
:101BA0000230F8EEE66A06EE103AF8EEE55ABAF9B7
:101BB000023027EE287A67EEA87AF6EE004AA6EE03
:101BC000A47A05EE103AE5EEA47A31F9043CB8EEB9
:101BD000C66A06EE903AB8EEC55A3AF9043CA6EE4B
:101BE000287A05EE903AE5EE287AB1F90430F8EE5D
:101BF000E66A06EE103AF8EEE55ABAF90430A6EEB7
:101C0000887AE5EE887A06EE903AB8EEC66AF8EE83
:101C1000E66AA6EE087AE6EE887ABDEEC77AFDEEB1
:101C2000E77A8DED047ACDED057ABDF91050BDF956
:101C300014E0DBE508E6FF1FD8DCFF1FD834FF1FE8
:101C4000C0BFFF1FCE52FF1F26050020A0DBFF1FD5
:101C500008DDFF1F10DDFF1F46B6A141D0AC02001A
:101C6000706002007C6002008460020090600200EC
:101C7000713DAC419C6002006855FF1F31082C3D4E
:101C80003830FF1F68600200FADDFF1F70B50446A0
:101C900008460D461EF0F4FE2368024629462046FB
:101CA0005B68BDE87040184738B5044608460D46E5
:101CB0001EF0E6FE2368024629465B6820469847E8
:101CC0000546204617F05CFE284438BD2DE9F04F4C
:101CD000BF4FC04C3B88C04E04EB43132DED068B29
:101CE0009B8A00EE103A83B0B8EE400A19F002FC6D
:101CF000BA48BB4BBB4A036006F50065B1463346A4
:101D0000D3ED007AB2EC017A77EE877AE3EC017AD0
:101D1000AB42F5D1DFF82C833A88B8F8003004EBF9
:101D200042120133928A9BB29A42A8F8003000F224
:101D300029819FEDAD7AA84A80ED007A00218A467C
:101D40000B46F2EC017AF4EEC77AF1EE10FA04DDFC
:101D5000B0EE677A1FFA83FA01210133B3F5007FF1
:101D6000EFD1002940F0AB82B2EE04AABAF1010F24
:101D700060EE0A9A40F21D82BAF5FF7FC0F0D8816A
:101D80009A4B9B4AD3ED007A93ED010A09EB8A0343
:101D900037EE800A13ED019AD3ED008A82ED000A36
:101DA00019F0A8FBB1EEC98A924BF0EE697AD0EE39
:101DB0000A7AB4EE488AF1EE10FAC3ED007A40F0E8
:101DC0008182B1EEE80AB4EE400AF1EE10FA40F07A
:101DD0008082BAF5FF7FF0EE408A40F28B82DFED21
:101DE000867AB4EEE78AF1EE10FA40F1918188EE3E
:101DF000A77A3B88814A04EB4314B0EE006AF7EE01
:101E0000006A36EE476A77EE266A07EE90AA86EEFB
:101E1000267AF8EE677AD4ED005A9FED796ADFED05
:101E2000796A99ED009AD9ED018A77EE277A39EE31
:101E3000288A67EEA57AE7EE866AC2ED006A724BE1
:101E40009FED690A03F1E402F3EC017A9A4230EE65
:101E5000270AF9D16D4B03F57F72F3EC017A9342B7
:101E600030EE270AF9D16A4B019383ED000A19F08D
:101E700041FB99ED547AD9ED557AD9ED566ADFF8E0
:101E8000C8A1644A644C654F9FED65AADFF8BCB1F8
:101E9000DFF8BC9177EE277AF2EE048A77EEA67A25
:101EA00020EE287AB0EE670A82ED007ACAED007A59
:101EB00019F020FB019B9AED007AD3ED007A594A84
:101EC000594BDFF890A177EE877A20EE287AB0EEB2
:101ED000670AC3ED007A82ED007A19F00BFB534BD1
:101EE00020EE280A83ED000A2CE09AED858A19F08D
:101EF00001FBF2EE047AA0EE278A38EE697ADBED78
:101F0000007AD9ED006A77EE277AB3EE046A67EEBD
:101F1000867A083487EEA67A023777EE0A7AFDEEE3
:101F2000E77ACDED017ABDF90430002BB8BF00236C
:101F3000AC4227F8023C2AD014ED029A54ED018AF3
:101F400039EE288AB5EEC08AF1EE10FAB0EE480AF2
:101F5000CBDC9FED377AD2E7DB0603D5354936482F
:101F6000FFF7A2FEBAF90030344A002B05DD013B31
:101F70009BB2002B00F078811380002346F8043BCD
:101F8000AE42FBD103B0BDEC068BBDE8F08F2C4B0D
:101F9000B3F90030022B00F06D81DFF8A0A0BAF990
:101FA000003000229342A8F80020E6DBDFF8A8B05A
:101FB000BBF80030002BE0D0DFF8A080B8F800308C
:101FC000D80600F14A81044FDFF89090002479E0B0
:101FD000C03CFF1F4433FF1F00DEFF1F500A0020DC
:101FE000000048C31073FF1F00000000F8E5FF1F4A
:101FF000E86EFF1FD8DCFF1F95BFD633C0BFFF1FA1
:102000000000803ACDCC4C3D68DEFF1F60DFFF1F33
:10201000888BFF1F10DDFF1F08DEFF1FD052FF1F40
:102020000000204308DDFF1FC00A00206855FF1F85
:102030007593B4C2A46002002847FF1F98C2FF1F17
:10204000F86EFF1F54E6FF1FDCDCFF1FA8BFFF1F59
:10205000CC34FF1FD834FF1F14DDFF1F5A30FF1F81
:1020600097ED000AB5EEC00AF1EE10FA4BD919F05F
:1020700041FAF2EE047A60EE277A17EE900A1CF02D
:10208000D9FD41EC100B0321A14817F0D1FCB8F8A1
:102090000030DA0709D540F2FF12944205D0012141
:1020A0009C4816F0EDFFB9F80030980724D41907C2
:1020B0001BD45A0712D40134B4F5007F07F104078A
:1020C0003FF44AAF9906CBD438681CF0B3FD41EC1D
:1020D000100B08218E4817F0ABFCD8E701218E4881
:1020E00016F0CEFFB8F80030E5E701218B4816F076
:1020F000C7FFB8F80030DCE70121894816F0C0FFBF
:10210000B8F80030D3E70821864816F0B9FFBEE7DB
:1021100040F2FF139A4577D0B4EEE78AF1EE10FA59
:1021200072DC99ED009AD9ED018A39EE288A86E6AB
:102130000AF1010B09EB8A0309EB8B02D2ED007A5D
:10214000D3ED008A13ED019A774A78EEA77A77EEFD
:10215000897AB0EE670AC2ED007A19F0CBF9B1EED8
:10216000C98A724BF0EE697AD0EE0A7AB4EE488AE8
:10217000F1EE10FAC3ED007A40F0B080B1EEE80A5B
:10218000B4EE400AF1EE10FA40F0AF80F0EE408A73
:1021900009EB8B0B9BED000AF1EEC07AF4EE677A47
:1021A000F1EE10FA3FF41DAE19F020FAF0EE407A8D
:1021B00017E699ED009AD9ED018A5B4B5C4C39EE3C
:1021C000288AB0EE480A83ED008A19F093F9F0EE00
:1021D000697AD0EE0A7A554BC3ED007ABAF1000F56
:1021E0004BD1F1EEC97AF4EE677AF1EE10FA40F0D5
:1021F0008980F1EEE87AF4EE677AF1EE10FA7CD19C
:102200004C4B00221A601AE6C8EE887A3A88494B8D
:1022100004EB4214B0EE006AF7EE006A36EE676A2D
:1022200077EEA66A07EE90AAB8EE677AC6EE267A2F
:10223000D4ED005A9FED406ADFED406A99ED009AB7
:10224000D9ED018A77EE677A39EE288A67EEA57AAA
:10225000E7EE866AC3ED006AF1E50121384816F021
:102260000FFFB8F80030AEE64FF6FF71ABF8003064
:10227000118082E6FFF7EAF98FE694ED000AF1EEAD
:10228000C07AF4EE677AF1EE10FA01D019F0AEF9E7
:1022900099ED010AF1EEC07AF4EE677AF1EE10FAE8
:1022A00001D019F0A3F999ED020AF1EEC07AF4EE2B
:1022B000677AF1EE10FAA3D019F098F9A0E780ED53
:1022C000007A51E5B0EE490A19F090F9B0EE408A73
:1022D00077E5B0EE680A19F089F97AE5B0EE490AB7
:1022E00019F084F9B0EE408A48E7B0EE680A19F0B8
:1022F0007DF94BE70AF1010B4AE7B0EE680A19F0E5
:1023000075F97DE7B0EE490A19F070F971E700BF81
:102310002847FF1F605A0200B4600200FC5A020006
:10232000106E0200A8600200E86EFF1FD8DCFF1FDD
:1023300000DEFF1FC0BFFF1F0000803ACDCC4C3D28
:10234000A460020038B5C9B2054617F071FB044617
:10235000284617F015FB204438BD00BF002310B4F9
:10236000114C4172026104600372C36041B11946AD
:1023700000E0026942F82310427A01339A42F8DC05
:102380000A4B1A680AB90CE01A465369002BFBD1B4
:102390005061002343618380C38083725DF8044BE6
:1023A00070471860F5E700BFD0590200CC36002016
:1023B00004460549054808B5FFF768FC214603486F
:1023C000FFF772FCFEE700BFD46002002847FF1F42
:1023D00070B5194C82B000231226054601932046A1
:1023E0001023012240F22F11009612F061FE019598
:1023F000009620461023012240F22F1113F0D8FD41
:102400008DB14FF6FF71204614F06EFE0B4BE36169
:1024100006224FF49A71204614F04AFE204601220B
:10242000074917F097FA04484FF6E07102B0BDE88B
:10243000704014F059BE00BF08E6FF1FD0AC020088
:102440005082020030B51D4A1D4B10784FF6F772CE
:1024500083B01A8068BBFFF7BBFF1A4C0025A0228F
:10246000B4F90C300092204629462622019512F03C
:102470001FFE20464FF6E07114F036FE124BE3616A
:1024800029462046262214F013FE204612220F4928
:1024900017F060FA294620463C2214F009FE0C4B46
:1024A0000C49E3612046182203B0BDE8304017F024
:1024B00051BA4FF4FC60FFF78BFFCEE700E6FF1F39
:1024C000F86EFF1F08E6FF1F049A0200E460020096
:1024D000B0990200F860020010B52DED048B9FED5D
:1024E000268A20EE088A82B0F0EE408AB0EE480AD2
:1024F00018F092FDDFED217A38EE407AB4EEE77AFB
:10250000F1EE10FA05D5B7EE000A38EE400A18F0E1
:1025100083FD1B4B1B4C93ED009AB7EE008A30EE07
:10252000088AF6EE007A28EE097A87EE280A30EE5D
:10253000270A18F071FDC8EE287A134B134A1B883E
:10254000134803EB430302EB031280EE097A67EEB4
:10255000A88AFCEEC07A88EE870ACDED017ABDF834
:10256000043082ED010A190AA3EB012323800180C4
:1025700002B0BDEC048B10BDCDCCCC3DBD37863553
:10258000B43BFF1FF4DBFF1F4CE6FF1F6830FF1F4B
:10259000F48BFF1FFFFFFFFF2DE9F047F2EE047AF7
:1025A000B4EEE70AF1EE10FA2DED028B40F28380D3
:1025B000DFED577AB4EE670AF1EE10FAA8BFB0EE7D
:1025C000670AFFF789FF534B93ED018A1D461C46AE
:1025D00003F5107AD4ED197AF4EEC87AF1EE10FA18
:1025E00053DD94ED0D7A77EEC77A38EE477AC7EE71
:1025F000276A16EE900A1CF01DFBD4E910890646E6
:102600000F464246D4E91C014B461CF0B3F9324652
:102610003B461CF063FB42464B461CF0ADF9C5E956
:102620000401D4E91223D4E91E011CF0A3F93246B7
:102630003B461CF053FBD4E910231CF09DF9C5E97F
:102640000601D4E91489D4E9200142464B461CF026
:1026500091F932463B461CF041FB42464B461CF08A
:102660008BF9C5E90801D4E91689D4E9220142466B
:102670004B461CF07FF932463B461CF02FFB42468E
:102680004B461CF079F9C5E90A0130345445A1D113
:10269000D5ED007A9FED207A1E4CF4EEC77AF1EE6C
:1026A00010FA0BD4BDEC028B012323811B4BC3ED2D
:1026B000007ABDE8F087B0EE670A82E717EE900A6D
:1026C0001CF0B8FA41EC100B18F0A0FD0CA3D3E9F4
:1026D000002351EC100B1CF001FB0B4602460AA133
:1026E000D1E900011CF046F91CF0A8FDBDEC028BFD
:1026F000D4ED007A094B2081C3ED007ABDE8F08764
:10270000000000803FB50C40000000A099993840BF
:10271000003E1C476830FF1F00001644ACBFFF1F7F
:10272000012806D020B91749174A0123CB61D3618C
:10273000704730B5154C134D012C83B0EC6103D8B4
:10274000114BDC6103B030BD80230093224605F1BC
:102750002C03642105F1200018F054F808B100237F
:10276000EB61094D094AEC618021009105F12C03D0
:1027700005F12000642118F045F80028E2D000237C
:10278000EB61DFE7DCBFFF1F900700200434FF1F71
:10279000012810B504460ED002281ED0032826D0EA
:1027A00000B110BD014615F0EDF821460120BDE84D
:1027B000104015F0E7B80146002015F0E9F8214671
:1027C000204615F0E5F80021084615F0DBF8204614
:1027D0000021BDE8104015F0D5B80021084615F0DD
:1027E000D1F801210846BDE8104015F0CBB8BDE88E
:1027F0001040FDF7A1BE00BFF0B5234F234D79680F
:10280000BA68FB6889B00646386801AC0FC43869FD
:1028100079693A8BBB7E03C42280A3702B68002B9E
:10282000FCDB08AB06EB46069819194910F81C3C6E
:1028300030F81B4C013B621E1B03C2F30B0203F476
:102840007F2313430B6010F81C0C1CF0D1F90CA370
:10285000D3E900231CF042FA064620460F461CF03E
:10286000C7F900220B4B1CF039FA02460B463046E2
:1028700039461CF05DFB41EC100B09B0F0BD00BF08
:10288000000000002A75A541D459020000F1024061
:1028900004F102400000704070B5FFF7ADFF51EC4D
:1028A000100B1CF013FD9FED2E7A2E492E4A2F4B54
:1028B00091ED836A9FED2E4A2E499FED2F5ADFED51
:1028C0002F4A2F4E07EE900AC7EE276A2D4803F1D4
:1028D000A8050024C0ED007AF7EE005AC2ED006AA8
:1028E000D1ED017A91ED007AB1F90A0066EE277A0E
:1028F00026EE877AF5EEC07AF1EE10FA27D4F4EEE0
:10290000E57AF1EE10FA24DD4FF48032B5EEC07AAC
:10291000F1EE10FA5A6218D4B4EEC57AF1EE10FA5C
:1029200011DC27EE247AFCEEC77A17EE902AB24229
:10293000C3ED077A07D81C6258863833AB4201F1E1
:102940000C01CDD170BDDE61F5E7DC61F3E700225B
:10295000DCE767EE847AFDEEE77A17EE902AD5E79A
:10296000A6552C47D834FF1FA43BFF1FF8DBFF1FE1
:10297000000080479043FF1FA655AC464B24BE473E
:102980000000FE7FB43BFF1F2DE9F041694B6A4A0E
:102990001B884FF6FE710D2B82B0118000F0A280D3
:1029A000664E674D3388674CDFF8C08105EB4313F3
:1029B00000279888FFF770FF32886349B4F90C301C
:1029C00005EB4212C820928A8DE8810020460A80D9
:1029D0003946262212F06CFB20464FF6E07114F0C7
:1029E00083FB394620462622C4F81C8014F060FB85
:1029F00020460122554916F0ADFF20463C22142105
:102A000014F056FB20462122514916F0A3FF204620
:102A10005222782114F04CFB37884E4BE36105EBD2
:102A200047170C3738461EF02BF839460246204629
:102A300016F090FF204678221421C4F81C8014F070
:102A400037FB20461122444916F084FF78222046A5
:102A5000DC2114F02DFB338805EB431398681CF040
:102A6000E9F841EC100B2046012116F0E1FF204669
:102A70008E22142114F01CFB20461922374916F02F
:102A800069FF8E222046DC2114F012FB3388DFED33
:102A9000347A05EB431393ED007A67EE277A17EE4D
:102AA000900A1CF0C7F841EC100B2046012116F0EB
:102AB000BFFF2046A422142114F0FAFA2046122265
:102AC000284916F047FF2046A422DC2114F0F0FA32
:102AD000338805EB43152046A98A02B0BDE8F041D2
:102AE00016F09EBF204B154E1A883388012A1BD042
:102AF000022A08D0032A0CD1114D05EB43118A8A12
:102B000052008A824FE713B1013B9BB233800C4DD8
:102B100049E7042AFBD10A4D05EB43118A8A032AAF
:102B200084BF52088A823EE7032BF0D801339BB260
:102B30003380ECE7688BFF1FF86EFF1FC03CFF1F60
:102B40004433FF1F08E6FF1FAE3BFF1F106E02005D
:102B5000406102001CC3020064610200786102004F
:102B6000A69BC43A94610200FA8BFF1FCC99020025
:102B7000DC4BDFEDDD7A30B5024693E80300B0EEC2
:102B8000C07ADA4DB4EEE77A0B0CF1EE10FA83B0AE
:102B90002860A980AB7100F19F80DFEDD57AB4EE9B
:102BA000E70AF1EE10FA144600F19E80DFEDD17ACB
:102BB000B4EEE70AF1EE10FA00F1B880DFEDCE7A5C
:102BC000B4EEE70AF1EE10FA00F1CB80DFEDDE7A29
:102BD000B4EEE70AF1EE10FA00F1CF80DFEDC77A2C
:102BE000B4EEE70AF1EE10FA00F1D380DFEDC47A1B
:102BF000B4EEE70AF1EE10FA00F1EF80DFEDC17AF2
:102C0000B4EEE70AF1EE10FA00F1F380DFEDBE7AE0
:102C1000B4EEE70AF1EE10FA00F1F780DFEDBB7ACF
:102C2000B4EEE70AF1EE10FA00F10281F7EE007A55
:102C3000B4EEE70AF1EE10FA00F13081F2EE047A18
:102C4000B4EEE70AF1EE10FA00F1B880DFEDB07AE9
:102C5000B4EEE70AF1EE10FA00F1FD80DFEDAD7A97
:102C6000B4EEE70AF1EE10FA00F1FD80DFEDAA7A8A
:102C7000B4EEE70AF1EE10FA00F1FD80DFEDA77A7D
:102C8000B4EEE70AF1EE10FA00F11481DFEDA47A58
:102C9000B4EEE70AF1EE10FA00F11881DFEDA17A47
:102CA000B4EEE70AF1EE10FA00F15081DFED9E7A02
:102CB000B4EEE70AF1EE10FA00F15B81DFED9B7AEA
:102CC000B4EEE70AF1EE10FA00F15F81984B93E859
:102CD000030085E8030004E0964B93E8030085E8D1
:102CE0000300824803B030BDDFED937A60EE277AAF
:102CF00017EE900A1BF09EFF02460B4668468F496E
:102D00001DF02EFC68461DF0BBFE052823D8C0F13F
:102D10000502002369462846AB541DF047FC216894
:102D200072481DF043FC714803B030BDDFED7F7A7F
:102D300060EE277A17EE900A1BF07CFF0B46804965
:102D4000024628461DF00CFC616828461DF02EFC4A
:102D5000664803B030BD421C6946284614F0C8F9E5
:102D6000DDE7DFED727A60EE277A17EE900A1BF04E
:102D700061FF0B4602467349E3E7DFED6C7A60EED4
:102D8000277A17EE900A1BF055FF0B4602466B4957
:102D9000D7E7DFED637A60EE277A17EE900A1BF033
:102DA00049FF0B466649024628461DF0D9FBA1683B
:102DB00028461DF0FBFB4D4803B030BD10EE100A55
:102DC0001BF038FF0B465E49024648481DF0C8FB21
:102DD000216946481DF0EAFB83E7DFED517A60EE9A
:102DE000277A17EE900A1BF025FF0B46024655493D
:102DF000DAE7DFED4B7A60EE277A17EE900A1BF0E8
:102E000019FF0B4602464D49CEE7DFED427A60EEF0
:102E1000277A17EE900A1BF00DFF02460B46284654
:102E200047491DF09DFBE16828461DF0BFFB58E7B0
:102E3000DFED387A60EE277A17EE900A1BF0FAFE83
:102E40000B464049024629481DF08AFBE1682748A5
:102E50001DF0ACFB45E710EE100A1BF0EBFE0B4635
:102E600002463849B1E710EE100A1BF0E3FE0B46AC
:102E700002463249A9E7DFED237A60EE277A17EEA2
:102E8000900A1BF0D7FE0B462D49024617481DF04D
:102E900067FB616915481DF089FB22E7DFED1D7AAC
:102EA00060EE277A17EE900A1BF0C4FE0B4602462E
:102EB0002249C8E7DFED137A60EE277A17EE900A11
:102EC0001BF0B8FE0B4602461E49DFE7DFED0D7A28
:102ED00060EE277A17EE900A1BF0ACFE0B46024616
:102EE0001649D3E7A8610200132EE129F00A002059
:102EF0005F70893077CC2B3295BFD633ACC527377E
:102F000017B7D1386F12833A0AD7233CCDCCCC3DCA
:102F10000000C84200007A4400401C460050C347ED
:102F2000002474498096184B20BCBE4C286B6E4E12
:102F3000C8610200D0610200A5D46853B0610200EC
:102F4000B8610200C0610200BD3786355FED027ACC
:102F500060EE277A17EE900A1BF06CFE0B461149C3
:102F6000024611481DF0FCFAA1690F481DF01EFB36
:102F7000B7E6DFED0E7A60EE277A17EE900A1BF0C7
:102F800059FE0B4602460A49EBE7DFED087A60EE90
:102F9000277A17EE900A1BF04DFE0B4602460549B4
:102FA000DFE700BFB8610200F00A0020BD378635B8
:102FB000C0610200B0610200B5EEC00A08B5F1EED2
:102FC00010FA074B4CBF2D222022B0EEC00A1A7017
:102FD000FFF7CEFD014603481DF0E0FC004808BDA8
:102FE000780A0020790A00202DE9F04FDFF85C8391
:102FF000DFF85C93B8F81230DFF858B3C24C08EB36
:103000008303A3B0074658691BF014FE9FEDBA7BFB
:10301000D9F80030CDF808B07E010125CDE90401D2
:103020004FF0040A991902AA00230AA88DED067B25
:103030008DF822300193ADF824A08DF820508DF842
:1030400021508DF823500CF003FCD9F8001002AA8F
:10305000314412A80CF0D6FB0AA912AA1AA80CF047
:103060006DFC1F99019B8DF8623001F100411E9BA0
:1030700016939DED1C7B9DED1E6B9DF88030179186
:103080009DF88110237661769DF882309DF883103B
:10309000A37612AABDF88430E1761AA8214684ED01
:1030A000027B8DED147B84ED046BCDF848B0ADF858
:1030B00064A0A3838DF860508DF861508DF8635043
:1030C0000CF0ECFBDFF890E29DF881C08EF819C09F
:1030D000DDE91C23DDE91EAB9DF882C08EF81AC025
:1030E0009DF883C08EF81BC09DF88010BDF884C089
:1030F0008EF81810CEE90223CEE904AB1946AEF8DB
:103100001CC010461CF0E2F8804BDFF850A218609B
:1031100000EE100A18F0EEF9FAEE047A60EE277A63
:1031200094ED021B94ED040BCAED007A18F006F83A
:1031300073A3D3E9002351EC100B1BF0CFFD1CF05F
:10314000C5F8DFF81CB298F83830CBF80000002B37
:1031500000F08D80012B00F08A816D4B1B78002BD5
:1031600040F002816B4B1B7813B923B0BDE8F08FA0
:10317000694BDFF8F08107EB470203EB0213186895
:103180001BF058FD41EC100B0321644816F050FC75
:1031900098F80030002B40F056810121604815F06E
:1031A0006FFF604C5D482368334493ED020B0921A7
:1031B00016F03EFC98F80030002B00F053810321FC
:1031C000594815F05DFF23685448334493ED040BD0
:1031D000092116F02DFC98F80030002B00F03D81FD
:1031E0000421524815F04CFF236851493344D3E978
:1031F000022300201BF09CFE41EC100B02214748EB
:1032000016F016FC23681E44D6E9040100230022B0
:103210001BF0EAFF98F80030002800F09181002BA5
:1032200000F064810321434815F02AFF424B4348D4
:10323000BC00234493ED000AFFF79AFC05461DF0FD
:103240001FFC0146284615F01BFF03213C4815F0E2
:1032500017FF3C4B1C4420681BF0ECFC41EC100BAE
:1032600002212E48FFF76EF823B0BDE8F08F2A4BFD
:10327000DFF8F08007EB470703EB071738681BF010
:10328000D9FC41EC100B0321244816F0D1FB98F82F
:103290000030002B40F0D2802946214815F0F0FE86
:1032A000DAF800001BF0C6FC41EC100B03211B48B0
:1032B00016F0BEFB98F80030002B00F0C9800D21FD
:1032C000214815F0DDFE94ED021B94ED040B17F080
:1032D00035FF0BA3D3E9002351EC100B1BF0FEFCD0
:1032E00041EC100B02210D4816F0A2FB0B4816F022
:1032F00047FB23B0BDE8F08F000000000000000095
:1033000000000020DCA54C40D8DDFF1FFC6EFF1F35
:103310006C41FF1FC043FF1F6830FF1F2847FF1F7E
:10332000605A0200B4BFFF1F6462020068620200BC
:103330000000F03F40620200840A00200833FF1FB3
:1033400044620200948BFF1FEC610200D834FF1F1F
:10335000448CFF1F9C840200B8DDFF1FC851FF1F73
:10336000D051FF1FD034FF1F9B4BDFF8B48207EB17
:10337000470203EB021318681BF05CFC41EC100BD6
:103380000321964816F054FB98F80030002B00F00B
:10339000A8801121924815F073FED9F800308F48AB
:1033A000334493ED020B032116F042FB98F80030F2
:1033B000002B00F0918003218A4815F061FED9F8B6
:1033C00000308648334493ED040B032116F030FBA4
:1033D000D9F800303344D3E90401002200231BF064
:1033E000EFFE98F80030002840F0DF80002B00F05E
:1033F00092807D497948FEF749FC7C4B7C48BC00B3
:10340000234493ED000AFFF7B3FB01467348FEF730
:103410003DFC78497148FEF739FC774B1C44206825
:103420001BF008FC41EC100B02216C48FEF78AFFF0
:10343000724B1B78002B3FF498AE99E6122170482E
:1034400015F01EFE2CE713216E4815F019FEA8E6B4
:1034500001216D4815F014FE35E701216A4815F089
:103460000FFEC1E60121684815F00AFEABE65A4B93
:10347000DFF8AC8107EB470703EB071738681BF051
:10348000D9FB41EC100B0321544816F0D1FA98F8FF
:103490000030002B6AD15C495048FEF7F7FB94EDF1
:1034A000041B94ED020B17F04BFE51EC100B1BF0BC
:1034B0000DFF1BF0BFFB41EC100B0521474816F038
:1034C000B7FA98F80030002B6AD050494348FEF70D
:1034D000DDFBDBF80000BFE601214B4815F0D0FD15
:1034E0006DE72946484815F0CBFD56E701214648CF
:1034F00015F0C6FD464BBC00234418681BF09AFB30
:1035000041EC100B0C21354816F092FA01213E488F
:1035100015F0B6FD9DE63C493048FEF7B7FB334B4E
:10352000BC00234418681BF085FB41EC100B0921FB
:103530002A4816F07DFA34492848FEF7A7FB6CE7C5
:10354000CBB129492548FEF7A1FB284B2848BC00F0
:10355000234493ED000AFFF70BFB01461F48FEF7DB
:1035600095FB24491D48FEF791FB72E629491B484B
:10357000FEF78CFB93E724491848FEF787FB1B4BAB
:10358000BC00234418681BF055FB41EC100B0921CB
:10359000124816F04DFA1C491048FEF777FB58E622
:1035A00019490E48FEF772FB93E733B11A490B48ED
:1035B000FEF76CFB0D4B194821E713490748FEF74E
:1035C00065FB0A4BBC00234418681BF033FB41EC3D
:1035D000100B0C21ACE700BF6830FF1F2847FF1F0E
:1035E000286202003C62020048620200508CFF1F09
:1035F0002433FF1F44620200948BFF1FC043FF1F50
:10360000D861020050620200605A02001C6202008F
:10361000840A0020FC610200406202000833FF1FA0
:10362000D034FF1F2DE9F0432DED028B5B4DDFF809
:1036300080815B4F5B4E83B00024C823224628461E
:103640002146009301944FF4A07311F031FD2846F8
:103650004FF6FF7113F048FD534BEB6128460322F0
:103660005F2113F025FD28461722504916F072F904
:10367000A146D8F8003049484D4D1A1F4A4412B2AD
:10368000082113F015FDD6ED007A97ED007AFDEED6
:10369000E77AB1EE477A17EE903A04FB03F307EEB0
:1036A000903AF8EEE77A023477EE677A09F1280962
:1036B00017EE900A1BF0BEFA41EC100B00213748C0
:1036C00016F0B6F90A2C1FFA89F9D2D12A683348C4
:1036D000384E394F9FED398A1032214612B213F01D
:1036E000E7FC032236492D4816F034F9B04625246C
:1036F000002517E013F0DCFCB8F80030274807EB92
:103700004313D3ED027A67EE887A2B34FDEEE77A25
:10371000A4B217EE901A05FB01F1013516F080F9FD
:10372000062D24D033881D4821B2B722002BE1D1C9
:1037300013F0BEFCB8F8003007EB431393ED027AA8
:1037400007EE905A27EE087AF8EEE77A013567EE31
:10375000277A2B3417EE900A1BF06CFA41EC100B11
:1037600001210E4816F064F9062DA4B2DAD1B72271
:1037700040F21311094813F09BFC0322114907483A
:1037800016F0E8F8104B187808B14FF4FC6003B05D
:10379000BDEC028BBDE8F043FEF71ABE08E6FF1F42
:1037A000A8BFFF1FCC34FF1FB09902007062020057
:1037B0003830FF1FC03CFF1F4433FF1FCDCC4C3EB1
:1037C000886202008C62020000E6FF1F38B5124BCF
:1037D0001A789AB11149124A0988124D02EB411226
:1037E0000024908829801C70FFF756F8FFF71AFF15
:1037F0000D4BB3F90030022B0AD038BD0949074AF6
:103800000C88074814800122808C0A801A70EBE72C
:10381000BDE83840FDF71ABFA0DBFF1FD234FF1F01
:103820004433FF1FC03CFF1FF86EFF1F10B5044656
:1038300020B1012816D002280AD010BD014624204C
:1038400014F0A0F821462320BDE8104014F09AB8E7
:103850000021242014F096F801212320BDE8104017
:1038600014F090B8BDE81040FCF772BE272810B5E0
:1038700013D0262804461DD0252800D010BD0021D5
:10388000272014F07FF80021262014F07BF8204632
:103890000121BDE8104014F075B8012114F072F850
:1038A0000021262014F06EF800212520BDE81040EC
:1038B00014F068B8BDE81040FCF756BE2DE9F04F93
:1038C0002DED048B062083B0FEF796FFB34BB44E6C
:1038D0001B88B44A00240321142B1180B461F461C5
:1038E00064D0B14C0025CA232046294600932622E5
:1038F0004FF4A073019511F0DBFB20464FF6E07109
:1039000013F0F2FBA94BE36129462046262213F06F
:10391000CFFB20461D22A64916F01CF8294620465A
:10392000462213F0C5FBA34BE361A34920462A229C
:1039300016F010F8294620465A2213F0B9FB20460B
:1039400025229E4916F006F8294620466E2213F0DD
:10395000AFFB204628229A4915F0FCFF2946204655
:103960008C2213F0A5FB20462222964915F0F2FF87
:1039700029462046A02213F09BFB20462D22924987
:1039800015F0E8FF29462046BC2213F091FB2046A3
:103990002E228E4915F0DEFF2520B561F56103B0BA
:1039A000BDEC048BBDE8F04FFFF760BF884B1B8870
:1039B000012B96D17C4E01940C2330460093BB2200
:1039C0004FF4A073214611F073FB7A4F30464FF449
:1039D000784113F089FB3046BC222146F76113F091
:1039E00067FB30467B49FEF751F972B67A4D2B7F63
:1039F00003F0FF0203B12C7762B63AB172B647F614
:103A0000FF724FF40043EA832B8462B6DFF8DC9147
:103A1000D9F82830002B40F09F8129216F489FED75
:103A2000708ADFF8B4A19FED6F9A15F029FB6E48FC
:103A300015F0A6FFF0EE488A0A244FF000081BE0BC
:103A400072B647F6FF734FF40041B5F91E20EB83C1
:103A5000B5F92030298462B69B1A07EE903AF8EE49
:103A6000E77AD9F8283087EE897A38EE078AC3B921
:103A70004FF00108013C1AD04FF4FA7013F08EFF9A
:103A800072B62B7F03F0FF0213B100238AF81C30BB
:103A900062B6002AD4D1D9F828304FF00108002BA3
:103AA000E6D052480CF02CF978EE808AE2E7DFEDA0
:103AB000507A68EEA78A28EE278AB8F1000F00F046
:103AC00035814C4948484C4DFEF7EEF808214B48EB
:103AD00015F0D6FA18EE100A1BF0ACF841EC100BFA
:103AE00007214148FEF72EFC0821454815F0C8FA89
:103AF00018EE900A1BF09EF841EC100B07213A4893
:103B0000FEF720FCDFED3F7ADFED3F6A68EEA78A23
:103B1000B7EE006AC8EE887AB0EE007A77EEC67A21
:103B200027EEA68AF0EEC87AF4EEC77AF1EE10FA24
:103B300000F31681DFF8E890344BDFF8D880C9F83D
:103B4000003041F63D03324C18F80320002121607B
:103B500022B1002208F80320FEF7B8F84FF41670DF
:103B600013F01CFF41F63D03002118F803202160EB
:103B700028491AB10022CA54FEF7A8F84FF416706B
:103B800013F00CFFDFF89CA0234B9FED248A00224A
:103B90004FF0000B1A80D04652E000BF688BFF1F29
:103BA000048CFF1FF86EFF1F08E6FF1F049A020037
:103BB0002C640200B09902004C6402007864020098
:103BC000A0640200CC640200F0640200FC63020006
:103BD000FA8BFF1F9062020028070020B0620200EB
:103BE0000000000000FEFF462847FF1F500700208E
:103BF000CDCCCC3DF4620200D834FF1F1C63020020
:103C000028630200FF0435400000C84200007AC467
:103C1000E86EFF1FF872FF1F828BFF1F00C079C480
:103C2000D8DCFF1F358BFF1F9AF8003000210122DE
:103C300053B10023C4F800B088F80030FEF746F80E
:103C4000D9ED007A21680022F4EEC87AF1EE10FA7C
:103C5000EAD4002A40F0978017214C4815F010FA5A
:103C6000D9F800001AF0E6FF41EC100B0321484898
:103C7000FEF768FB99ED007ADFED467A464877EE6D
:103C8000C77A1421C5ED857A15F0FAF9D5F8140232
:103C90001AF0D0FF41EC100B03213D48FEF752FB18
:103CA000D5ED857AB0EE047AF4EEC77AF1EE10FA2B
:103CB00006D4B1EE0E7AF4EEC77AF1EE10FA03DD17
:103CC00036493348FDF7F0FF4FF000080C23BB22C4
:103CD000414600933248CDF804804FF4A07311F0B0
:103CE000E7F94FF6E0712E482E4C13F0FDF9F7611D
:103CF0004146BC222A4813F0DBF904F5067614F895
:103D0000011F601B13F084FCA642F8D12521264830
:103D100015F0B6F91E4815F033FE24492048FDF78A
:103D2000B5FF03B0BDEC048BBDE8F08F9FED207AAA
:103D3000204D21491648C7EE287AC5ED847AFDF753
:103D4000A5FFD5F810021AF075FF41EC100B0B21FE
:103D50000F48FEF7F7FAB9E648460BF0D1FF5CE6EC
:103D600016490B48FDF792FF18EE100A1AF062FF91
:103D700041EC100B0221064815F05AFE1049044888
:103D8000FDF792FFD6E6216066E700BF7063020090
:103D90002847FF1F9FABDFC088630200A0630200BB
:103DA00008E6FF1FD734FF1FD4630200FC63020044
:103DB000D1839036D834FF1FDC62020034630200E6
:103DC0006C63020070B5394D2B789A07044622D5F2
:103DD000374B1B88002B43D0364B86003344186882
:103DE0001AF028FF41EC100B0621334815F020FE95
:103DF0000121324815F044F9314B1E4430681AF065
:103E000019FF41EC100B06212B4815F011FE2A4832
:103E100015F0B6FD2B78DB0746D5254B1B888BB3F9
:103E2000244BA400234418681AF004FF41EC100B43
:103E30000621244815F0FCFD0121204814F0BEF8AD
:103E40001F4B1C4420681AF0F5FE41EC100B0621B4
:103E50001C4815F0EDFD1B48BDE8704015F090BD05
:103E6000194B8600334418681AF0E4FE41EC100B3D
:103E70000621114815F0DCFD0121104815F000F96C
:103E8000124BBAE7104BA400234418681AF0D2FE74
:103E900041EC100B06210B4815F0CAFD0121074823
:103EA00014F08CF8094BCCE770BD00BF3030FF1F19
:103EB00040E6FF1F9CC2FF1F2847FF1F106E020035
:103EC00090A6FF1F1047FF1F508DFF1FAC1800204A
:103ED00010B50A4C23789A0708D4DB0700D410BD2C
:103EE00004210748BDE8104014F068B804210448D4
:103EF00015F0C6F815F078F92378EEE73030FF1F9B
:103F0000185A020038B5184C04F51C7594ED100BC6
:103F10000821164815F08CFD0121154815F0B0F860
:103F200094ED120B0521114815F082FD0121104876
:103F300015F0A6F894ED140B08210C4815F078FD47
:103F400001210B4815F09CF894ED160B052107484C
:103F500015F06EFD3034054815F012FDAC42D5D198
:103F6000BDE83840FFF7B4BF6830FF1F2847FF1F88
:103F7000605A020038B564480BF006FA002866D093
:103F80001BF0CAFC614C624B208001225E481A8003
:103F90000BF0FAF918B11BF0BFFC5E4B18805A48C1
:103FA0000BF0F2F900284FD01BF0B6FC5A4D80B24E
:103FB000288040B3574B24881B88584A07EE900A44
:103FC0001B1BB8EE677A07EE903AF7EE006AF8EE40
:103FD000E77A37EE667A411EC7EE876A89B2013109
:103FE000002307EE904AB8EEE77A98B207EE900AFF
:103FF000F8EE677AB0EE476AA7EEA66A01338B4205
:10400000A2EC016AF1D1464B01225A82FCF7A0FAD8
:10401000444A454BD2ED007A44484549454A2C88EC
:104020001C80B7EE007AF4EEC77A0023F1EE10FAA6
:1040300003800B70138035DD3F4B72B63F4A002181
:10404000D361117662B638BD334D2888B1E73C4C58
:1040500023789A0736D4DB0703D4BDE83840FFF74E
:1040600037BF2A4B3748198815F0DAFC012136484A
:1040700013F0A4FF334815F083FC264B3148198810
:1040800015F0CEFC0121304813F098FF2D4815F0B3
:1040900077FC214B2B48198815F0C2FCBDE838404D
:1040A000FFF716BFBFEE007AF4EEC77AF1EE10FA12
:1040B00027D49FED267A67EE877AFDEEE77A17EE32
:1040C000903ABAE7114B2248198815F0A9FC012152
:1040D0001D4814F0D5FF1E4815F052FC0D4B1C482E
:1040E000198815F09DFC0121174814F0C9FF1848E4
:1040F00015F046FC084B1648198815F091FC2378FA
:10410000A9E7144B99E700BFE0EEFF1FB03BFF1F8C
:10411000800700206030FF1FAC3BFF1F6C55FF1F66
:10412000D834FF1F5C30FF1FA852FF1FAA3BFF1FA0
:104130006A41FF1F4CE6FF1F0000FF7F18DDFF1FD5
:104140003030FF1F1047FF1F106E020000FEFF4EB1
:104150002847FF1F00000180FFF7BABEFFF7B8BE77
:104160002DE9F04F2DED048B584C83B00025A12292
:10417000B4F90C300092204626222946019510F011
:1041800097FF20464FF6E07112F0AEFF504B514AB8
:104190001B78E261002B00F08E80DFF85891DFF889
:1041A00058814D4FDFED4D9AAA462B25B9F80040B6
:1041B000D8F800305444A4B203EB441BDBE90201FD
:1041C0001BF084F808EE900ADBE904011BF07EF88E
:1041D00008EE100A68EE087A2EB2E8EEA87AB1EE80
:1041E000E70AB4EE400AF1EE10FA69D117F082F94D
:1041F000F0EE680AB0EE409AB0EE480A17F078F98F
:1042000004EB440407EB041432460A212F48B0EEB5
:10421000408A12F04DFF20681AF00CFD41EC100BA3
:1042200000212A4815F004FC03222D49274815F0E7
:1042300091FB32465F21254812F03AFF02222949BC
:10424000224815F087FBF3EE047A69EE277A0AF12B
:10425000010A17EE900A1AF0EDFC41EC100B022156
:104260001A4815F0E5FB02221F49184815F072FBA9
:104270003246BE21154812F01BFF03221B4913488A
:1042800015F068FB68EE297A1FFA8AFA17EE900A91
:104290001AF0D0FC41EC100B02210C4815F0C8FBC1
:1042A00003221349094815F055FB1335BAF1070FDE
:1042B000ADB27FF47BAF03B0BDEC048BBDE8F08FF3
:1042C000B0EE670A17F092F990E700BF08E6FF1F0B
:1042D000F854FF1FCC9902006830FF1FE12E6542A1
:1042E0002065020024650200286502002C6502009A
:1042F000306502006841FF1FD08BFF1FF0B5254CD1
:10430000254FB4F90C30254E83B00025A12220465C
:104310002946009201958C2210F0CAFE20464FF6E5
:10432000E07112F0E1FE1E4BE36120468D22142164
:1043300012F0BEFE204608221A4915F00BFB3A88FF
:1043400002EB420206EB021210681AF073FC41EC19
:10435000100B2946204615F06BFB0422204612491B
:1043600015F0F8FA3B88063303EB430306EB03131F
:1043700018681AF05FFC41EC100B2946204615F036
:1043800057FB0A492046032203B0BDE8F04015F070
:10439000E1BA00BF08E6FF1F6841FF1F6830FF1F3A
:1043A000CC990200346502004065020020650200DD
:1043B000C84B1B7803B970472DE9F04FC64BC74C6B
:1043C0001F68DFF870A3DFF87083DFF870932DEDBE
:1043D000028B4601374485B00546D7E902011AF041
:1043E00075FF08EE900AD7E904011AF06FFFBC4A86
:1043F000B4F90C301268324492ED047B4FF0920E07
:104400000021D2E9026708EE100ACDF800E026226A
:10441000204601918DED027B10F04AFE20464FF6BA
:10442000E07112F061FE204626221421C4F81CA07F
:1044300012F03EFE20464322142112F039FE0A22D9
:10444000A849204615F086FAB0EE680AA648FEF79D
:10445000B3FD83461CF014FB59460246204615F076
:1044600079FA0422A149204615F074FAB0EE480A00
:104470009D48FEF7A1FD83461CF002FBAD000246FD
:104480005946204615F066FA08EB050B20465522E2
:104490001E21C4F81C9012F00BFE9BED007AF7EE83
:1044A000007AB4EEE77AF1EE10FA40F3B380B5EE9D
:1044B000C08AF1EE10FA00F1C481B5EEC08AF1EEC7
:1044C00010FAC0F2A9808A498448FDF7DFFB894BC6
:1044D00089482B4493ED000AFEF74AFB01467F48CA
:1044E000FDF7D4FB85497D48FDF7D0FB08EB0503BC
:1044F000D3ED007A9FED827AF4EEC77AF1EE10FAEE
:1045000040F1558117EE900A1AF094FB41EC100B24
:104510000121724815F08CFA394630461AF0D6FE61
:1045200008EE900ADDE902011AF0D0FE4FF6E071C4
:1045300008EE100A694812F0D7FD8122142167485D
:10454000C4F81CA012F0B4FD6E4B1B780822002B9F
:1045500000F0F6806C49614815F0FCF9B0EE680A8D
:104560006A48FEF729FD06461CF08AFA31460246E3
:104570005A4815F0EFF904226549584815F0EAF950
:10458000B0EE480A6148FEF717FD06461CF078FABF
:1045900031460246514815F0DDF9C4F81C909722C7
:1045A0001E214E4808EB050412F082FD94ED007ABE
:1045B000F7EE007AB4EEE77AF1EE10FA4FDDB5EEE1
:1045C000C08AF1EE10FA4BDB52494448FDF75EFB1E
:1045D000514B52481D4495ED000AFEF7C9FA0146B9
:1045E0003E48FDF753FB45493C48FDF74FFBD4EDF2
:1045F000007A9FED437AF4EEC77AF1EE10FA00F1FB
:10460000038147493548FDF741FB05B0BDEC028BFE
:10461000BDE8F08F3FF751AF42493048FDF736FB18
:10462000B0EE680A3048FEF7C7FC01462B48FDF79C
:104630002DFBB5EEC08AF1EE10FA40F3F4803A4952
:104640002648FDF723FB2B4B2B482B4493ED000A08
:10465000FEF78EFA01462148FDF718FB5CE705DD01
:10466000B5EEC08AF1EE10FA00F1B08002222D49B9
:104670001A4815F06FF9DFED2D7AB0EEE87AB4EE56
:10468000E77AF1EE10FA40F38D80B7EE000A80EE83
:10469000280A1548FEF790FC01461048FDF7F6FA87
:1046A000B5EEC08AF1EE10FA00F1C48020490B4843
:1046B000FDF7ECFA184B19481D4495ED000AFEF77A
:1046C00057FA01460548FDF7E1FA05B0BDEC028B4B
:1046D000BDE8F08F6D41FF1F448CFF1F08E6FF1FF0
:1046E000B4BFFF1F486502001030FF1F5465020071
:1046F0006C650200508CFF1F2433FF1F5C650200B5
:10470000333F1C463D8CFF1F746502003C30FF1F89
:1047100080650200546B0200840A00200833FF1FEA
:10472000646502005065020070650200EA1C080220
:10473000A8650200049A0200948BFF1F609F02008C
:104740005349544815F006F9DFED537AB0EEE87A94
:10475000B4EEE77AF1EE10FA33DDB7EE000A80EE40
:10476000280A4E48FEF728FC01464A48FDF78EFA13
:1047700004224B49474815F0EDF8DFED477AB0EEDB
:10478000C87AB4EEE77AF1EE10FA15DDB7EE000A5A
:1047900080EE080A4148FEF70FFC01463D48FDF750
:1047A00075FAFAE63F493B48FDF770FA78E73E496B
:1047B0003848FDF76BFAAFE63A493648FDF766FA36
:1047C000EBE638493348FDF761FAD1E7374931481C
:1047D000FDF75CFA364B37482B4493ED000AFEF7A1
:1047E000C7F901462B48FDF751FA4544324929489B
:1047F000FDF74CFAD5ED007A9FED307AF4EEC77AEA
:10480000F1EE10FA7FF5FDAE17EE900A1AF012FAEB
:1048100041EC100B1F48012105B0BDEC028BBDE837
:10482000F04F15F005B926491A48FDF72FFA254B28
:1048300025480AE725491748FDF728FA1C4B1D486B
:104840003AE723492046FDF721FA1E4B1E482B4428
:1048500093ED000AFEF78CF901462046FDF716FAA3
:1048600015492046FDF712FADBED007A9FED137A29
:10487000F4EEC77AF1EE10FA99D517EE900A1AF015
:10488000D9F941EC100B0121204615F0D1F843E68F
:104890008865020008E6FF1F7D1D90261030FF1F6F
:1048A0005465020094650200646502006C650200B4
:1048B000840A00202433FF1F5C650200333F1C463E
:1048C00040620200508CFF1F0833FF1FA0650200EA
:1048D000546B020030B5154C83B000210E22B4F9A0
:1048E0000C300191054600922046B922822110F039
:1048F000DFFB20464FF4784112F0F6FB0C4BE361EE
:104900002046B922822112F0D3FB28461CF0B8F8C9
:1049100029460246204615F01DF820464FF6E07164
:1049200003B0BDE8304012F0DFBB00BF08E6FF1F58
:1049300030D202002DE9F04F2DED028B684C9FED37
:10494000698AB4F90C30DFF8C8B183B00025A12220
:104950002046294600920195262210F0A9FB204608
:104960004FF6E07112F0C0FB5F4BE3612946204631
:10497000262212F09DFB204622225C4914F0EAFF19
:104980004FF03C0A61E017EE900A1AF053F941EC3F
:10499000100B0121524815F04BF80222544950489F
:1049A00014F0D8FF494640461AF090FC00EE100A79
:1049B0005048FEF701FB80461CF062F84146024673
:1049C000474814F0C7FF02224949454814F0C2FF86
:1049D000394630461AF07AFC00EE100A4548FEF7D8
:1049E000EBFA80461CF04CF8414602463C4814F075
:1049F000B1FF02223E493A4814F0ACFF00220023E6
:104A0000304639461AF0DCFB002865D1304639467D
:104A1000002200231AF0E8FB78B1374B374803EB4C
:104A2000840494ED000AFEF7A3F804461CF028F86D
:104A3000214602462A4814F08DFF0135ADB20AF135
:104A4000140A072D1FFA8AFA41D02D4B24481C88DE
:104A5000DBF800302C44A4B203EB44130FFA8AF2C3
:104A60000021D3E90289D3E9046712F021FB254A2A
:104A700004EB440302EB0313D3ED007AF4EEC87A9F
:104A8000F1EE10FA18D49FED207AF4EEC77AF1EE29
:104A900010FA3FF578AFB6EE000A37EE800A16F04E
:104AA000BBFA10EE100A1AF0C5F841EC100B002109
:104AB0000B4814F0BDFF70E717EE900A1AF0BAF831
:104AC00041EC100B0221064814F0B2FF65E703B079
:104AD000BDEC028BBDE8F08F074B0C489FE700BF91
:104AE00008E6FF1F0000C842CC990200B065020032
:104AF000AC6102001030FF1F508CFF1F2433FF1FDA
:104B0000C23CFF1F6830FF1F00007A440833FF1FBC
:104B1000448CFF1FFFFFFFFF2DE9F047824B1B680E
:104B200003EB4013D3E902672DED068BD3E904456F
:104B300082B032463B468246394630461AF0CEF8BD
:104B40002246804689462B46204629461AF0C6F85A
:104B50000B4602464946404619F00EFF41EC100B49
:104B600016F066FCB0EE40AAF0EE60AA16F0D6FB96
:104B700047EC116BB0EE409AF0EE609A45EC104BAA
:104B800016F0DCFA694B1B7823B902B0BDEC068B3A
:104B9000BDE8F087664CB0EE408AF0EE608A0025F2
:104BA0009222B4F90C300092204626222946019523
:104BB00010F07EFA20464FF6FF7112F095FA5D4B29
:104BC000E36120462622142112F072FA20460E22BA
:104BD000594914F0BFFE594B9FED597A0AEB4A0A26
:104BE00003EB0A1ADAED007AF4EEC77AF1EE10FA66
:104BF00000F18B809FED537AF4EEC77AF1EE10FA54
:104C000078D4B6EE000A37EE800A16F005FA10EEF8
:104C1000100A1AF00FF841EC100B2946204614F048
:104C200007FF03224849424814F094FE14213E2213
:104C30003F4812F03DFA454B3D485B8A012B0CBFC3
:104C4000434944490C2214F085FE56221421384869
:104C500012F02EFA0F224049354814F07BFEB0EED8
:104C60004A0AF0EE6A0A0521314814F0E1FE0422F6
:104C70003A492F4814F06EFE394BE3612C487822F4
:104C80001E2112F015FA07223649294814F062FE57
:104C9000354B002251EC190B1AF020F841EC100BA7
:104CA0000321234814F0C4FE03223049204814F0A5
:104CB00051FE9B221E211E4812F0FAF908222C49AF
:104CC0001B4814F047FE16A3D3E9002351EC180B40
:104CD0001AF004F841EC100B0221154814F0A8FE5C
:104CE00024491348042202B0BDEC068BBDE8F0470E
:104CF00014F030BE17EE900A19F09CFF41EC100B37
:104D00000121204614F094FE8BE717EE900A19F06B
:104D100091FF41EC100B0221204614F089FE80E740
:104D200000000020DCA54C40D08BFF1F6D41FF1F11
:104D300008E6FF1FE8990200D46502006830FF1FF3
:104D40000000C84200007A4420650200D834FF1FEA
:104D5000E4650200F46502000466020014660200C5
:104D6000609F02000C660200000034401C660200D6
:104D7000206602002C66020070B5194C82B0002536
:104D80001626B4F90C3001952A462046294600968D
:104D900010F08EF920464FF6FF7112F0A5F9114B75
:104DA000E3612A4620463C2112F082F92046152272
:104DB0000D4914F0CFFD0D4B187858B9FDF708FBDD
:104DC0000B4B0748E3614FF6E07102B0BDE870405D
:104DD00012F08AB94FF4FC60FDF7FAFAF0E700BF71
:104DE00008E6FF1F1CC302003466020000E6FF1F36
:104DF0000CB3020010B5114C82B000211022B4F99E
:104E00000C30019120460092162210F051F92046F4
:104E10004FF6FF7112F068F920461622052112F0B4
:104E200047F920461122064914F094FD20464FF61A
:104E3000E07102B0BDE8104012F056B908E6FF1F5D
:104E40004C660200F0B53C4D3C4E83B00024C823B4
:104E5000284622462146009301944FF4A07310F097
:104E600027F9FFF789FFFFF7C5FF3549354B364A6C
:104E70000C8028464FF6F7774FF6E0719C61DC61B5
:104E8000178012F031F921462846EE61262212F0F1
:104E90000FF928461C222D4914F05CFD21462846B6
:104EA0003C2212F005F92A4BEB612A4928462422BC
:104EB00014F050FD21462846EE61502212F0F8F819
:104EC000284623222449254E14F044FD2146284635
:104ED000642212F0EDF828461622214914F03AFD1A
:104EE00021462846782212F0E3F828461D221D4963
:104EF00014F030FD214628468C2212F0D9F82846BD
:104F00001722194914F026FD21462846A02212F046
:104F1000CFF828461B221549154D14F01BFD1548E6
:104F20001549164A164B34702C7004700C701470AE
:104F30001C7003B0F0BD00BF08E6FF1FCC99020053
:104F4000F88BFF1F048CFF1FF86EFF1F60660200C6
:104F5000B099020080660200A8660200F854FF1FA4
:104F6000CC660200E4660200046702001C670200CF
:104F700054A6FF1F848BFF1F906EFF1FF68BFF1F31
:104F80004C8BFF1F2DE9F04FB54FB64B3A688BB0F5
:104F90000025059205221A80059CFFF7EDFE0020F2
:104FA000FDF716FACA232622AF48009329464FF48C
:104FB000A073019510F07CF8AB484FF6E07112F049
:104FC00093F8A94AA94BD36110462946262212F02C
:104FD0006FF81E22A649A44814F0BCFC2946A2483A
:104FE0003C2212F065F8A04AA24BD361A2491046B8
:104FF000282214F0AFFC29469B48502212F058F8A2
:1050000029229E49984814F0A5FC29469648642216
:1050100012F04EF841F2883B93489949232214F04C
:1050200099FCAA460395CDF808B096480FF072F89F
:105030000028FAD03B680693069B1B1B962BF4D9DD
:10504000874B90491B68079308A8079C0FF052F8FC
:10505000BDF92080BDF9229040F2DB53984540F322
:10506000E580994540F3ED80039B984506DD40F2CD
:10507000DB531FFA88F29945039203DDCA45B8BF96
:105080001FFA89FA002678254FF4A073314601965D
:105090002A467548009510F00BF831462A467248AA
:1050A00012F006F8042278496F4814F053FC2A469F
:1050B00064216D4811F0FCFF41466B4814F0B0FCD0
:1050C00031468C22684811F0F3FF04226F4966488C
:1050D00014F040FC8C226421634811F0E9FF49463A
:1050E000614814F09DFC3146A0225F48684E11F0E3
:1050F000DFFF132267495C4814F02CFC5A48B422A5
:105100001421C66111F0D4FF0299574814F088FCAD
:10511000B4225021544811F0CBFF5946524814F0A4
:105120007FFCC8222946504811F0C2FF03994E481F
:1051300014F076FCC822B4214B4811F0B9FF514657
:10514000494814F06DFCB8F5FA6F7FF76EAF40F286
:10515000DB5399453FF769AF0299A1F165039BB213
:1051600040F28232934229D8ABF165039BB293425D
:1051700024D80398A0F6B9339BB240F2DA52934296
:105180001CD8AAF6B9339BB2934217D8424DA5F862
:105190000212A5F80602A5F804B2A5F808A26C1E32
:1051A00005F2172614F8011F601B12F031FAB44201
:1051B000F8D13A493A48FCF777FD09E0502200213E
:1051C000294811F075FF22223649274814F0C2FB06
:1051D000254B2548B3F90C3000247A222146009251
:1051E000019426220FF064FF214682221E4811F00E
:1051F0005FFF16222C491C4814F0ACFB41F28830AA
:1052000012F0CCFBCA232146009326224FF4A07350
:10521000154801940FF04CFFFFF714FE234A244B6E
:10522000148012221A800BB0BDE8F08F029B9845C3
:1052300002DA1FFA88F3029340F2DB5399453FF7F5
:105240001DAFD94501DA1FFA89FB40F2DB539845BF
:105250007FF718AF039B4345FFF609AF12E700BF86
:1052600050350020F86EFF1F08E6FF1F049A020069
:1052700038670200B0990200586702008467020094
:10528000B0670200943BFF1FD4670200DC67020096
:10529000CC990200E4670200D834FF1FF8670200CF
:1052A0002847FF1F286802004C680200FA8BFF1F86
:1052B000688BFF1F10B51C4C1C484FF6FF7111F096
:1052C00013FFE3891948012B0BBF06220522184959
:1052D000184914F03FFB184B184A1B8803EB430393
:1052E00002EB0313586819F0A5FC41EC100B0321E5
:1052F0000E4814F09DFB0A2211490C4814F02AFBB9
:10530000638A04EB8304606919F094FC41EC100B90
:105310000221064814F08CFB4FF6E0710348BDE80B
:10532000104011F0E1BE00BFD834FF1F08E6FF1F98
:10533000646802006C6802004CE6FF1F6830FF1FC3
:105340007468020010B56A4C00EB40002DED028B32
:1053500004EB001090ED008AFFF70EFDFFF74AFD09
:10536000FFF7A8FFDFED637AB4EEE78AF1EE10FAFB
:1053700000F1AE80DFED607AB4EEE78AF1EE10FA6C
:1053800000F18680DFED5D7AB4EEE78AF1EE10FA87
:1053900039D4DFED5B7AB4EEE78AF1EE10FA77D418
:1053A000DFED587AB4EEE78AF1EE10FA2BD4DFED98
:1053B000567AB4EEE78AF1EE10FA69D4DFED537A4B
:1053C000B4EEE78AF1EE10FA1BD4DFED517AB4EEB9
:1053D000E78AF1EE10FA5BD4DFED4E7AB4EEE78A9D
:1053E000F1EE10FA0DD4DFED4C7AB4EEE78AF1EE6F
:1053F00010FA4DD4DFED497AB4EEE78AF1EE10FAF7
:1054000046D5062000E00520FDF746FA4449454A06
:105410000123CB61D361B0EE480AFDF75DF8424B42
:10542000424A1B8892ED007A414903EB430304EBA7
:105430000314D4ED007A67EE877A0120F5EEC07A86
:10544000F1EE10FA08604AD49FED3A7AF4EEC77A8A
:10545000F1EE10FA2DDD384A384BD361F5EEC07A03
:105460000023F1EE10FA13623DD49FED327AF4EE90
:10547000C77AF1EE10FA0DDD314A304BD361BDEC45
:10548000028B304B4FF0404001211062196010BD7B
:105490000720B9E79FED2C7A2849294A67EE877AD9
:1054A000FCEEE77A17EE903A8B42C2ED077AE4D829
:1054B000E5E79FED257A21491F4A27EE877ABCEE62
:1054C000C77A17EE103A8B4282ED077AC6D9C3E746
:1054D0000720FDF7E1F90120FDF722F99BE7164BC4
:1054E0000022DA611A62164A0023D361C7E700BFBF
:1054F0006830FF1F00C00F4500806D4500409C458F
:1055000000803B4600204B4600609F4600F8A746BF
:105510000070DF4600D0E84600881047007014474E
:10552000DCBFFF1F900700204CE6FF1FA43BFF1FBE
:1055300088E100E0A655AC4644DDFF1F0000FE7F79
:105540007CDDFF1F08E100E04B24BE47414B424891
:1055500070B501221A8009F017FF002865D01AF0F3
:10556000DBF93E4D28803C4809F00EFF00285AD058
:105570001AF0D2F93A4C20800021272012F002FACA
:105580000021262012F0FEF90021252012F0FAF960
:105590002388334ED90755D49A074DD45B0746D498
:1055A0002888FEF743F92F4BD3ED007AB7EE007A47
:1055B000F4EEC77AF1EE10FA25DD2B4B72B62B4ACA
:1055C0000021D361117662B60720FFF7BBFE1221DE
:1055D000274813F055FD2988264814F021FA0C219C
:1055E000254813F04DFD2188224814F019FA21486E
:1055F00014F0C6F93321214813F042FD1D48BDE8DF
:10560000704014F0BDB9BFEE007AF4EEC77AF1EE47
:1056100010FA1DD49FED1A7A67EE877AFDEEE77ACD
:1056200017EE903ACAE70E4CA6E70C4D9BE7012116
:10563000252012F0A7F9B3E70121262012F0A2F9E4
:105640002388ABE70121272012F09CF93388A3E7D8
:105650000C4BB3E7C4BFFF1FE0EEFF1F4C0A002056
:10566000C451FF1F5C30FF1F0000FF7F18DDFF1FCC
:10567000806802002847FF1F94680200A4680200A7
:1056800000FEFF4E0000018010B50A4CB4F9003056
:10569000012B07D0084A00234FF48031D161936178
:1056A000238010BD054A064B12681A600020FFF7E0
:1056B00049FEEFE7F86EFF1F048CFF1FACBFFF1F12
:1056C0006830FF1F70B52349234A244C2448002327
:1056D00082B002250B701380E58109F055FE10B3EE
:1056E00006461AF019F9322830D030461AF014F96B
:1056F00041F28833984208BF65821A4B1B7893B1F8
:105700001E21194813F0BCFC638A04EB8304606912
:1057100019F090FA41EC100B0221144814F088F9AA
:10572000124814F02DF912480021A122B0F90C30D2
:105730000191009226220FF0BBFCFFF71DFBFFF743
:1057400059FB02B0BDE87040FFF7B4BD012363828E
:10575000D3E700BFC8EEFF1F14DDFF1FD834FF1FC3
:10576000E0EEFF1F4E0A0020D86802002847FF1F06
:1057700008E6FF1F38B51F4809F006FE1E4A1F4BFA
:10578000002414701C80A0B11AF0C2F851EC100B68
:1057900019F09CFD1A4A1B4B1B4D106000EE100ABD
:1057A0001C806860FCF7F8FE184B1B7801222A82E7
:1057B0003BB9FFF7E1FAFFF71DFBBDE83840FFF703
:1057C00079BD1621124813F05BFC686819F032FAB3
:1057D00041EC100B02210F4814F02AF90D4814F087
:1057E000CFF8FFF7C9FAFFF705FBBDE83840FFF730
:1057F00061BD00BFE0EEFF1FC8EEFF1F14DDFF1FFD
:105800006830FF1F4CE6FF1FD834FF1F4E0A0020F0
:10581000F86802002847FF1F70B51348134D144C59
:10582000144A00230121237003802B826C1E05F291
:105830001726118014F8011F601B11F0E9FEB44215
:10584000F8D10D4B1B7833B110210C4813F018FC24
:105850000B4814F095F8FFF78FFAFFF7CBFABDE885
:105860007040FFF727BD00BF14DDFF1FD834FF1FB6
:10587000C8EEFF1F4CE6FF1F4E0A00201069020011
:105880002847FF1F70B52349234A244C244800238E
:1058900001250B701380E58109F076FD002838D0D2
:1058A00006461AF039F8322813D030461AF034F888
:1058B00041F28833984204BF02236382194B1B785C
:1058C00063B9FFF759FAFFF795FABDE87040FFF7A3
:1058D000F1BC144B65821B78002BF2D00C211248CE
:1058E00013F0CEFB638A04EB8304606919F0A2F91C
:1058F00041EC100B02210D4814F09AF80B4814F0FB
:105900003FF8FFF739FAFFF775FABDE87040FFF787
:10591000D1BC70BDC8EEFF1F14DDFF1FD834FF1FC0
:10592000E0EEFF1F4E0A0020246902002847FF1FF7
:10593000F8B5804809F028FD002800F0CF80044623
:1059400019F0EAFF632806D0204619F0E5FF002889
:1059500000F09280F8BD784B1B78002B40F0B680A9
:10596000764D774C774F784E4FF4067200212846DB
:105970001AF0A2FB75497648696044F23B31754BD9
:105980002980A86074497548EC614FF07E5400226C
:105990006F61AE612C62724E724C6962A862012125
:1059A0000220714F2E63C5E91023C5E91223C5E912
:1059B0001423C5E91623C5E91823C5E91A23C5E947
:1059C0001C23C5E91E23C5E92023C5E92223C5E917
:1059D0002423C5E92623C5E92823C5E948236C63A8
:1059E000A981E981698285F8391085F8380085F840
:1059F0003A005E4CEF625326C5E94A235C485D4994
:105A000085F80062C5E94C23C5E94E23C5E950235A
:105A1000C5E95223C5E95423C5E95623C5E95823EE
:105A2000C5E95A23C5E95C23C5E95E23C5E96023BE
:105A30004FF4A07240F6BA63C5F80C42C5F81002E4
:105A4000C5F81412A5F80222A5F80422A5F806321A
:105A5000A5F808326C1E05F2172614F8011F601B0A
:105A600011F0D6FDA642F8D1FFF786F9FFF7C2F98B
:105A7000BDE8F840FFF71EBC2E4809F085FC002861
:105A800056D019F045FF51EC100B19F01FFC2B4DAF
:105A9000A861284809F078FC30B119F039FF51ECC1
:105AA000100B19F013FCE861334C04F5067614F87A
:105AB000011F601B11F0ACFDA642F8D1FFF75CF9A5
:105AC000FFF798F9BDE8F840FFF7F4BB19212B4820
:105AD00013F0D6FA2A4813F053FF41E7172129485B
