:1000000000000320D1010000C1DB010079DB010009
:1000100079DB010079DB010079DB010079DB01008C
:1000200079DB010079DB010079DB0100C1DB010034
:10003000C1DB010079DB010021FC010025FC01008E
:10004000C1DB0100C1DB0100C1DB0100C1DB01003C
:10005000C1DB0100C1DB0100C1DB0100C1DB01002C
:10006000C1DB0100C1DB0100C1DB0100C1DB01001C
:10007000C1DB0100C1DB0100C1DB0100C1DB01000C
:10008000C1DB0100C1DB0100C1DB0100C1DB0100FC
:10009000C1DB0100C1DB0100C1DB0100C1DB0100EC
:1000A00029A2010035A20100C1DB0100C1DB010072
:1000B000C1DB0100C1DB0100C1DB0100C1DB0100CC
:1000C000C1DB0100C1DB0100C1DB0100C1DB0100BC
:1000D000C1DB010041E70100C1DB0100C1DB010020
:1000E000C1DB0100C1DB0100C1DB0100C1DB01009C
:1000F000C1DB0100C1DB0100C1DB0100C1DB01008C
:10010000C1DB0100C1DB0100C1DB0100C1DB01007B
:10011000C1DB010031EA0100C1DB0100C1DB0100EC
:10012000C1DB0100C1DB0100C1DB0100C1DB01005B
:10013000C1DB0100C1DB0100C1DB0100C1DB01004B
:10014000D5F90100C1DB0100C1DB0100C1DB010009
:10015000C1DB0100C1DB0100C1DB0100C1DB01002B
:10016000C1DB0100C1DB010041A20100C1DB0100D4
:10017000C1DB0100C1DB0100C1DB0100C1DB01000B
:10018000C1DB0100C1DB0100C1DB0100C1DB0100FB
:10019000C1DB0100C1DB0100C1DB0100C1DB0100EB
:1001A000C1DB0100C1DB0100C1DB0100C1DB0100DB
:1001B000C1DB0100C1DB0100C1DB0100C1DB0100CB
:1001C000C1DB0100C1DB0100C1DB0100C1DB0100BB
:1001D0005C4B4CF2205210B51A804DF628121A8052
:1001E00000BF00BF1DF0F0FC574B4FF030621A60AB
:1001F000564A9A60564ADA60564B4FF470021A60BB
:10020000554B564A1A60564B1A78110703D51A787F
:1002100042F008021A70534B5349AA221A70534AEB
:10022000534B8B4204D252F8040F43F8040BF8E707
:10023000504B514900228B4202D243F8042BFAE77B
:100240004E494F4A002352F8230041F8230001335E
:10025000742BF8D14B4B4C4A802103F8011B93427D
:10026000FBD14A4B454A1A60494B8A221A70A3F5C2
:10027000805324225A70A0221A709A799207FCD5D2
:100280009A79D406FCD4434A937903F00C03082BE3
:10029000FAD1414B60221A7002331A78802AFCD1BD
:1002A0003C4B01221A715D225A719A799006FCD555
:1002B0009979384A4906FBD5384B394919600021EC
:1002C000596020231370937903F00C030C2BFAD19F
:1002D000344B354A1A60354A354C136813F4807331
:1002E00003D123604FF4A8531360324B324A1A6093
:1002F00000225A60072243F8042C304AC3F80C2D20
:1003000062B61DF057FE2368DA0705D52C481DF0AC
:10031000BBFD2C4B2C4A1A602C4B1B785B0609D575
:10032000284C294B22689A4204D125481DF0ACFD87
:10033000002323601DF04EFC25F026FE1FF08CFFED
:10034000FEE700BF0E20054030800440823F0400DD
:100350000100002B88ED00E0002008E0030000858C
:1003600002D0074000E007406854FF1F044C04001F
:10037000302FFF1F6854FF1F68450020002AFF1F11
:100380000000000000E400E064E400E008ED00E0AC
:10039000005006400040064001E007404480044011
:1003A0000000060204800440C010070010D0034083
:1003B00014D0034014E000E01FBF02000000202022
:1003C000ED02F4611CE00340A5C3945A00F007401D
:1003D000FFFFFFFFFFFFFFFFFFFFFFFFFFFFFFFF2D
:1003E000FFFFFFFFFFFFFFFFFFFFFFFFFFFFFFFF1D
:1003F000FFFFFFFFFFFFFFFFFFFFFFFFFFFFFFFF0D
:10040000FFFFFFFFFFFFFFFFFFFFFFFFDEF9FFFF23
:1004100010B5054C237833B9044B13B10448AFF33E
:1004200000800123237010BD6854FF1F00000000EE
:10043000004C0400084B10B51BB108490848AFF345
:1004400000800848036803B910BD074B002BFBD0A0
:10045000BDE81040184700BF000000006C54FF1FAB
:10046000004C04006854FF1F00000000002070478B
:10047000704700BF036D0BB101207047406D003025
:1004800018BF0120704700BF014B05221A8070473A
:10049000808EFF1F704700BF10B50446806D18B1F5
:1004A00025F0C6FD0023A365236D2BB104F11800D0
:1004B000BDE8104017F032B9636D002BF6D110BDC6
:1004C00010B5044B044640F8083B17F027F92046C6
:1004D00010BD00BF78BF0200F0B5002395B01A46EA
:1004E0000546183104A84FF47A74224F8DF8043071
:1004F0008DF80C30129313930294009717F062F961
:10050000129B002B2BD05C201FF0AEFE04461A4B32
:100510009DF80400029A1949236000269DF80C30CA
:100520002073A160226104A9237504F1180066609C
:1005300017F0C6F86368124AA76001334FF47A7166
:10054000A6652E712E732C616360A9602A600D4B25
:10055000009304A817F0E2F8284615B0F0BD139BED
:10056000002BD0D1064A2B71AC602B732B612A6013
:10057000EDE700BF54BF0200D4BF020000BF02007D
:10058000A8BF020030BF020010B50446006808B1E1
:100590001FF06CFE204610BD30B50848084CB0F97D
:1005A0000C3083B000210E22019100920125B92266
:1005B000502125701AF0CAFF03B030BDC4F0FF1FF0
:1005C0008741FF1F70B5074D572385F800326C1E19
:1005D00005F2172614F8011F601B1DF09FFAB442A4
:1005E000F8D170BD9039FF1F08B50E4B0E4801229F
:1005F0001A700FF081FF68B10C4B02221A8025F0AF
:10060000B3FC0B4A0B4B108000221A800A4B0022CD
:100610001A7008BD074B42F20F721A80064B002277
:100620001A7008BD88F9FF1FB4F9FF1F501200208F
:10063000FCF0FF1FD43CFF1F8641FF1F10B504468E
:100640001FF072F9204610BD036D13B1184615F066
:10065000E1BA406D08B113F025B94FF0FF30704793
:1006600000B5836C83B063B1184601220DF1070118
:1006700015F000FA01280CD19DF8070003B05DF8D1
:1006800004FBC06C28B101220DF1070113F036F80C
:10069000F0E74FF0FF30F1E708B5012100201DF031
:1006A00007FC00210120BDE808401DF001BC00BF8F
:1006B00008B5012124201DF0FBFB00212320BDE80B
:1006C00008401DF0F5BB00BF08B5002127201DF034
:1006D000EFFB012126201DF0EBFB00212520BDE8CA
:1006E00008401DF0E5BB00BFF0B5036D83B00C46BC
:1006F0002BB318460DF1060201A915F01FF8D8B169
:10070000BDF80430BDF8062003B9AAB102F01F06F7
:10071000C3F343155912C2F345177600013D01F5A5
:10072000EA6103F01F03D21226706571A171237173
:100730006770A27003B0F0BD002003B0F0BD406D43
:100740000028F9D00DF1060201A912F067FFD6E7E3
:10075000F0B5036D83B00C462BB318460DF10602BD
:1007600001A914F0FBFFD8B1BDF80430BDF8062094
:1007700003B9AAB102F01F06C3F343155912C2F31D
:1007800045177600013D01F5EA6103F01F03D2121F
:1007900026706571A17123716770A27003B0F0BDFE
:1007A000002003B0F0BD406D0028F9D00DF1060225
:1007B00001A912F043FFD6E7036D9BB11A7812F03E
:1007C000700F00D1704710B504460021184615F08F
:1007D00043FB606D28B100220023BDE8104013F0F8
:1007E00079B810BD406D0028ECD090F8313013F08E
:1007F000500FE7D00022002313F06CB838B5846D99
:100800000CB1204638BD05464FF4807025F008FC39
:100810000146A86580B1286D0C7028B14FF4807234
:1008200016F086FDAC6DECE7686D40B14FF4807258
:1008300014F0C0FBAC6DE4E7024CAC65E1E70C469C
:10084000DFE700BF8454FF1F8A79A2F150031B0623
:1008500020D4F0B54B79046D0D798E784F780978F6
:10086000013385B002F26C72DBB244B103918DE8C2
:10087000E0002046022115F007FC05B0F0BD406DF8
:100880000028FAD003918DE8E000022113F0DCFD8E
:1008900005B0F0BD00207047D0B5046D8CB1012BC0
:1008A00008BF002A01D30020D0BD1146204615F014
:1008B000D3FA0028F7D0204615F04EFC0028F2D0DD
:1008C000D0BD446D002CEED0204613F003F8002874
:1008D000E9D02046BDE8D04013F064BE704700BFA9
:1008E000704700BF036D13B1586900217047436D15
:1008F00013B193E80300704718461946704700BFCC
:10090000036D13B1D86900217047436D13B11869A5
:100910005969704718461946704700BF036D13B1F7
:10092000184615F0A7B8406D08B112F0E7BE4FF0B9
:10093000FF307047836C13B1184615F06BB9C06C6B
:1009400008B112F0AFBF4FF0FF307047036D33B105
:100950001B7813F0700F14BF012000207047406D0A
:1009600030B190F8313013F0500F14BF0120002047
:10097000704700BF8A79A2F150031B0620D4F0B55E
:100980004B79046D0D798E784F780978013385B0F5
:1009900002F26C72DBB244B103918DE8E0002046B4
:1009A000042115F071FB05B0F0BD406D0028FAD0B0
:1009B00003918DE8E000042113F046FD05B0F0BD81
:1009C00000207047006970B30368184A1B6993429E
:1009D0000ED1026D6AB1137803F0080303F0FF0033
:1009E0000BB3D3695069181A48BF6FF000407047C5
:1009F0001847416DC1B191F8313003F0080303F09D
:100A0000FF0083B1D1E90423D1E90001101A30B409
:100A100063EB010100256FF000448D4208BF844262
:100A200000D2204630BC7047084670472D0C0000AD
:100A3000036963B11A68074992698A4208D1186D3F
:100A400008B115F01BBB586D08B113F091BB70478E
:100A5000184610476D0A0000836C13B1184615F054
:100A60000DBBC06C08B113F083BB7047036D13B1AD
:100A7000184615F003BB406D08B113F079BB704701
:100A8000036973B11A68084952698A4207D1186D1F
:100A900008B115F0BFB8586D18B112F003BF184671
:100AA00010474FF0FF30704749060000036923B339
:100AB00010B51968124A8C68944282B014D1186D2E
:100AC00048B101220DF1070114F0D4FF90B19DF857
:100AD000070002B010BD586D0028F8D001220DF1BA
:100AE000070112F00BFEF1E7184601220DF1070194
:100AF000A047EBE74FF0FF30EBE74FF0FF307047D8
:100B00001D09000003698BB110B41C680D48E4682E
:100B1000844211D1186D18B15DF8044B15F058BB23
:100B2000586D28B15DF8044B13F0ACBD0020704740
:100B300000205DF8044B7047184623465DF8044BCF
:100B4000184700BF910B0000836C13B1184615F0D5
:100B50003FBBC06C08B113F095BD704700B5036C86
:100B600083B08DF8071043B1184601220DF107013B
:100B700015F02EFB03B05DF804FB406C0028F9D0A3
:100B800001220DF1070113F07DFD03B05DF804FBB8
:100B9000036D13B1184615F01BBB406D08B113F07F
:100BA00071BD704700B5836C83B08DF8071043B1F9
:100BB000184601220DF1070115F00AFB03B05DF89C
:100BC00004FBC06C0028F9D001220DF1070113F0DD
:100BD00059FD03B05DF804FB10B5036982B08DF8D0
:100BE0000710BBB11968104ACC68944215D1186D32
:100BF00030B101220DF1070115F0EAFA02B010BD83
:100C0000586D0028FAD001220DF1070113F03AFDCA
:100C100002B010BD184602B010BD184601220DF1F9
:100C20000701A04702B010BD910B0000026D62B138
:100C3000137803F0080303F0FF0003B3D36950698E
:100C4000181A48BF6FF000407047416DC1B191F86C
:100C5000313003F0080303F0FF0083B1D1E904232E
:100C6000D1E90001101A30B463EB010100256FF0E7
:100C700000448D4208BF844200D2204630BC7047F9
:100C800008467047826C62B1137803F0080303F0E2
:100C9000FF0003B3D3695069181A48BF6FF00040D2
:100CA0007047C16CC1B191F8313003F0080303F013
:100CB000FF0083B1D1E90423D1E90001101A30B457
:100CC00063EB010100256FF000448D4208BF8442B0
:100CD00000D2204630BC704708467047D0B4039C11
:100CE00016461F4634B1012C1ED0022C0DD0002018
:100CF000D0BC7047046DDCB1012B08BF002AF6D2CE
:100D000020461146D0BC15F0A7B8036DB3B1DA691F
:100D1000B61847F10007012F08BF002EE7D2314671
:100D20001846D0BC15F098B8036D8BB15A69EFE73F
:100D3000406D0028DBD0D0BC12F0CCBD406D002847
:100D4000D5D0D0E9042392197B41D0BC12F0C2BDAA
:100D5000406D0028CBD0D0E9002392197B41EAE70F
:100D600038B50446806D0C4B236018B125F060F94E
:100D70000023A365236D04F118054BB1284616F036
:100D8000CDFC064BA360284616F0C8FC204638BDB3
:100D9000636D002BF2D1F4E7D4BF020030BF020034
:100DA00038B50446806D0E4B236018B125F040F92C
:100DB0000023A365236D04F118056BB1284616F0D6
:100DC000ADFC084BA360284616F0A8FC20465C2129
:100DD0001FF04EFA204638BD636D002BEED1F0E7D0
:100DE000D4BF020030BF020038B5094A094B0A4C93
:100DF0000A491160002504220948257014211A802F
:100E00001EF05EFB0748BDE838401EF0E1BF00BFA2
:100E1000548FFF1F0CE5FF1F88F9FF1F0AD7233CE3
:100E200054C00200044AFF1FF0B5274F274A3B7801
:100E3000012111709A0783B020D5254D2B88B3B1BD
:100E4000244E002406EB8403D3ED007A2248FCEE06
:100E5000E77A0134CDED017ABDF804101FF00CF8EB
:100E60001D481EF0B5FF2B88A4B2A342EAD8042186
:100E70001A481EF025FB1EF0D7FB3B78DB0720D578
:100E8000134D2B88B3B1134E002406EB8403D3ED2E
:100E9000007A1348FCEEE77A0134CDED017ABDF813
:100EA00004101EF0E9FF0E481EF092FF2B88A4B23A
:100EB000A342EAD80948042103B0BDE8F0401DF080
:100EC00079BB03B0F0BD00BF3030FF1F88F9FF1FB2
:100ED000C43BFF1FF057FF1F044AFF1F6CC00200F6
:100EE000EC49FF1FF8B513480FF006FBA0B125F041
:100EF0003BF8114D5723A88185F800326C1E05F28E
:100F0000172614F8011F0C4F601B1CF007FEB4429B
:100F1000F7D10A4B1B7803B9F8BD102108481EF021
:100F2000CFFAB98907481EF0A7FF0648BDE8F84088
:100F30001EF04EBFB4F9FF1F9039FF1F1E15002091
:100F400074C00200044AFF1F10B5082115481EF0A6
:100F5000B7FA00230A224FF4067113481EF04CFF23
:100F60001C2112481EF0ACFA0F481EF031FF00247D
:100F700021460D481EF080FF01210D481EF0A0FA09
:100F800020461CF0B1FD002301460A2206481EF04F
:100F900033FF013404481EF01BFFB4F5067FE7D190
:100FA00010BD00BF88C00200044AFF1F94C00200A9
:100FB000B4C0020070B5124C124EA38982B0002555
:100FC0000E22503B1BB220468DE824005021B9224E
:100FD00035701AF0BBFA20464FF6FF711CF0D2FABA
:100FE000094BE3612046B92291211CF0AFFA074971
:100FF0002046192202B0BDE870401EF0D3BE00BFEB
:10100000C4F0FF1F8741FF1FAC190300B8C00200E6
:1010100010B50E4C23789A070FD4DB0700D410BD0F
:1010200001210B481DF0C6FA0A481EF0D1FE04212A
:101030000948BDE810401DF0BDBA092107481EF05F
:101040003FFA07481EF0C4FE2378E6E73030FF1F62
:10105000DCC00200EC49FF1F6CC00200D4C00200DB
:10106000044AFF1F10B5114C23789A070FD4DB07F1
:1010700000D410BD0B210E481DF09CFA0D481EF047
:10108000A7FE04210C48BDE810401DF093BA0B21C7
:1010900007481EF015FA09481EF09AFE042106487A
:1010A0001EF00EFA1EF0C0FA2378E0E73030FF1F82
:1010B000E0C00200EC49FF1F6CC00200044AFF1FA1
:1010C00030B51E4C83B00025A122B4F90C3000923B
:1010D00020462946262201951AF038FA20464FF676
:1010E000E0711CF04FFA164BE361294620463C2282
:1010F0001CF02CFA2046162212491EF053FE124B09
:101100005A8A03EB8203586924F0A4F841EC100BCF
:10111000204602211EF0B8FE204605220B491EF093
:1011200041FE294620465A221CF010FA0849204662
:10113000292203B0BDE830401EF034BEC4F0FF1FCA
:10114000A8060300ECC002009039FF1F94E50200DE
:1011500004C1020010B51B4C1B4A237801211170F9
:101160009A0717D4DB0700D410BD052117481DF0DE
:1011700021FA572116481EF07FFE092115481DF05F
:1011800019FA13481EF024FE04211348BDE810404C
:101190001DF010BA032111481EF092F95721104892
:1011A0001EF06AFE09210B481EF08AF90C481EF059
:1011B0000FFE042108481EF083F91EF035FA23784B
:1011C000D0E700BF3030FF1F88F9FF1F40C1020089
:1011D000EC49FF1F34C102006CC0020030C10200A4
:1011E000044AFF1F70B5234C234823782349244D1C
:1011F0000022012602700A709A072E701DD4DB07A8
:1012000000D470BD09211F481DF0D4F91E481EF0FE
:10121000DFFD0C211D481DF0CDF91B481EF0D8FD47
:1012200017211B481DF0C6F917481EF0D1FD0421F7
:101230001848BDE870401DF0BDB9092111481EF0E5
:101240003FF915481EF0C4FD0C2110481EF038F976
:1012500011481EF0BDFD17210D481EF031F90E4852
:101260001EF0B6FD04210B481EF02AF91EF0DCF931
:101270002378C4E73030FF1F8839FF1F1E15002078
:1012800088F9FF1F48C10200EC49FF1F54C102004A
:1012900064C102006CC00200044AFF1F10B50F4871
:1012A0000FF02AF948B10E49044625F01DFD88B11A
:1012B00020460C4925F018FD00B110BD0A4B0B4823
:1012C000012212211A701EF0FBF80948BDE81040F7
:1012D0001EF07EBD044B187010BD00BFB4F9FF1F97
:1012E00094410400A0DF02008839FF1F7CC1020086
:1012F000044AFF1F70B5324E3248334D334C032140
:101300001EF0DEF8338803EB430305EB0313186884
:1013100023F0A0FF41EC100B204603211EF0B4FD8A
:1013200004212B481EF0CCF82A4B204693ED000BED
:1013300002211EF0A9FD052127481EF0C1F8274B08
:10134000204693ED000B02211EF09EFD052124484E
:101350001EF0B6F8234B204693ED000B02211EF041
:1013600093FD062120481EF0ABF8204B204693ED5C
:10137000000B02211EF088FD09211D481EF0A0F877
:10138000338803EB430305EB031393ED040B204673
:1013900005211EF079FD082116481EF091F83388CA
:1013A00003EB430305EB031595ED060B20460221E5
:1013B0001EF06AFD2046BDE870401EF009BD00BF6A
:1013C00008F1FF1F90C102002035FF1F044AFF1FD4
:1013D00094C10200E88DFF1F9CC10200581200203A
:1013E000A4C10200E08DFF1FACC10200D88DFF1F19
:1013F000B4C10200C0C10200F0B5314A314C324ED6
:10140000B4F90C3083B00025A12106278DE8220015
:1014100020462946178026221AF098F820464FF6D3
:10142000E0711CF0AFF8294620462622E6611CF048
:101430008DF82046242225491EF0B4FC294620467A
:101440003E221CF083F8224B2249E36120462F22E2
:101450001EF0A8FC2946204656221CF077F82046AC
:1014600029221D491EF09EFC294620466E221CF0B2
:101470006DF82046142219491EF094FC2946204696
:1014800086221CF063F82046242215491EF08AFCAF
:10149000294620469E221CF059F820462C2211494C
:1014A0001EF080FC29462046B6221CF04FF820464C
:1014B0002E220D491EF076FCE66103B0F0BD00BFA0
:1014C000808EFF1FC4F0FF1FA8060300CCC10200DE
:1014D0000C3F0300F4C1020024C2020050C202000B
:1014E00068C2020090C20200C0C20200F0B5314AD8
:1014F000314C324EB4F90C3083B00025A1210627BF
:101500008DE8220020462946178026221AF01EF870
:1015100020464FF6E0711CF035F829462046262279
:10152000E6611CF013F82046232225491EF03AFC00
:10153000244BE361294620463E221CF007F8204652
:101540002A2221491EF02EFC2946204656221BF055
:10155000FDFF20461E221D491EF024FC2946204680
:101560006E221BF0F3FF20461B2219491EF01AFCC5
:101570002946204686221BF0E9FF204625221549F0
:101580001EF010FC294620469E221BF0DFFF20465D
:10159000162211491EF006FC29462046B6221BF0F1
:1015A000D5FF20462D220D491EF0FCFBE66103B05D
:1015B000F0BD00BF808EFF1FC4F0FF1FA806030010
:1015C000F0C202000C3F030014C3020040C302003B
:1015D00060C302007CC30200A4C30200BCC30200BB
:1015E000F0B52B4B2B4885B000241C700EF084FF07
:1015F00030B324F0B9FC284E00B2A042308031D084
:1016000020DD264B264F0FCB6C4607C402226D46C9
:1016100023703A80234B1B7893B10C2122481DF094
:101620004FFFB6F9001021481EF026FC284625F091
:1016300027FD014628461DF043FF1C481EF0C8FB4D
:1016400005B0F0BD013017D0DFF86CE03480BEE8A3
:101650000F006F460FC7124BDEF800203A706D4640
:101660001C80D7E7124B0E4F0FCB6C4607C40122EC
:101670006D4623803A80CDE70E4B094C93E8070076
:101680006B4603C303216D461A802180C2E700BF69
:1016900088F9FF1FB4F9FF1F4CC5FF1FFCC30200F0
:1016A0000CE5FF1F1E1500202CC40200044AFF1F7A
:1016B000ECC302000CC4020018C4020070B5046937
:1016C000244B036005461CB16668013E66600EB19E
:1016D000284670BD2368204ADB6A93422CD1A06D56
:1016E00010B124F0A5FCA665236D5BB304F11800CE
:1016F00016F014F82C69002CEAD02368174A5B68AE
:1017000093421CD1A06D164B236018B124F090FCBD
:101710000023A365236D04F11806BBB1304615F014
:10172000FDFF104BA360304615F0F8FF20465C210A
:101730001EF09EFD284670BD20469847DAE72046F9
:101740009847C5E7636D002BD0D1D3E7636D002BBD
:10175000E4D1E6E7A8BF020099040000A10D000053
:10176000D4BF020030BF020070B50569284B03608A
:1017700004461DB16E68013E6E602EB120461421F4
:101780001EF076FD204670BD2B68224ADB6A93422C
:1017900030D1A86D10B124F04BFCAE652B6D7BB33E
:1017A00005F1180015F0BAFF2569002DE6D02B6869
:1017B000194A5B68934220D1A86D184B2B6018B171
:1017C00024F036FC0023AB652B6D05F11806DBB168
:1017D000304615F0A3FF124BAB60304615F09EFF6C
:1017E00028465C211EF044FD204614211EF040FDD9
:1017F000204670BD28469847D6E728469847BDE75B
:101800006B6D002BCCD1CFE76B6D002BE0D1E2E705
:10181000A8BF020099040000A10D0000D4BF02007F
:1018200030BF02002DE9F041664B674A1B884FF636
:10183000FE710E2B82B0118060D0DFF8C481634F3F
:10184000634C644E0025DF23204601952946009312
:101850000F2240F22D1319F079FE0F232A4601952D
:10186000294620460093192319F070FE20464FF6B2
:10187000E0711BF087FE294620462622E6611BF018
:1018800065FE204601225449544D1EF08BFA204635
:101890003C2214211BF05AFE2046182250491EF00B
:1018A00081FA3A222046D2211BF050FED8F80000DF
:1018B000E56123F0CFFC41EC100B204602211EF025
:1018C000E3FA20465A221421E6611BF03FFE20462F
:1018D000152244491EF066FA20465822D2211BF0F8
:1018E00035FE3868E56123F0B5FC41EC100B20466D
:1018F000022102B0BDE8F0411EF0C6BA3A4B1B8887
:10190000012B2DD0022B0DD0032B46D12F4FDFF80A
:10191000F080D7ED007AB1EE047A77EE877AC7EDE2
:10192000007A8DE7DFF8D880D8ED007AB0EE007A43
:10193000F4EEC77AF1EE10FA2DDDDFED2C6AF4EE4D
:10194000E67AF1EE10FA37DCDFED296AF4EEE67A9A
:10195000F1EE10FA1DDD274BC8F800301B4F6FE782
:10196000DFF89C80D8ED007AB3EE047AF4EEC77A03
:10197000F1EE10FA0FD5DFED206AF4EEE67AF1EE23
:1019800010FAE8D4DFED1A6AF4EEE67AF1EE10FA16
:1019900012D488ED007A0D4F52E7042B7FF44DAF3F
:1019A0000A4FDFF85C80D7ED007AB1EE047A77EE6B
:1019B000C77AC7ED007A43E7104BC8F80030034FF1
:1019C0003EE700BFF08DFF1F7C71FF1F5CC2FF1F51
:1019D000C4F0FF1FA80603001CD50200F82F030067
:1019E0003CC4020058C40200828EFF1F9A99214114
:1019F0003333A3400000A04066660640000020414B
:101A00008439FF1F10B50E480EF076FD70B124F03A
:101A1000ABFA04460A480EF06FFD38B124F0A4FA80
:101A2000C1B2A0B2BDE810401CF078B82B21054827
:101A30001DF046FD0448BDE810401EF0C9B900BFC6
:101A4000B4F9FF1F70C40200044AFF1F10B5164806
:101A50000EF052FD78B11549044625F045F958B10C
:101A60002046134925F040F928B9124B124A1B7839
:101A7000012111707BB910BD0E4B0F4A1B781070FD
:101A8000002BF8D00B210D481DF01AFD0C48BDE8C5
:101A900010401EF09DB90F210A481DF011FD0848A5
:101AA000BDE810401EF094B9B4F9FF1F9441040042
:101AB000A0DF02008839FF1F1E1500209CC4020011
:101AC000044AFF1FA8C402002DE9F84F764D05F522
:101AD00006762C46601B1CF007F804F8010BB44294
:101AE000F8D1DFF8F881714C08F1E00B08F17007CC
:101AF00008F5A879BE465E46484641462346002280
:101B0000DC46B1EC027BFEE802AB83ED047BC3E96B
:101B100006ABB6EC027BF0E802AB0832702A83ED2C
:101B2000087BC3E90AAB03F13003EAD11B2160480B
:101B3000E3461DF0C5FC5C495E4891F800120023A5
:101B40000A221EF059F95B481EF042F9564B93F8F1
:101B50000032A3F14602162A40F29980564A9FEDC0
:101B60004E6B9FED4F7BA2F17000A2F1E001A2F558
:101B7000A873A3EC026BBB42A1EC027BA0EC026B4E
:101B8000A2EC027BF5D14848432242703B21464AF1
:101B9000017046233121494882F800321DF090FC43
:101BA00044481EF015F94A2145481DF089FC41487A
:101BB0001EF00EF93C4B93F800324F2B2ED83A4EC4
:101BC000394A404B4049C2F80C32C6F810124FF463
:101BD000A072314640F6BA63A6F80222A6F80422A3
:101BE0000A46DFF8FCE0A1F80632A1F808325726D1
:101BF00032213648C2F814E282F800621DF060FC1F
:101C000031462C481EF038F92A481EF0E1F82E2102
:101C10002F481DF055FC27481EF0DAF8DFF8C4A065
:101C20000AF50676572206F8172C1AF8011FC5EB9D
:101C30000A001BF073FF5645F7D10023B8EC025B96
:101C4000B7EC026BBBEC027BF9E802010833702BA6
:101C500084ED045B84ED066B84ED087BC4E90A0126
:101C600004F13004EAD10F211A481DF029FC0023A9
:101C70000A224FF406710F481EF0BEF806211648DE
:101C80001DF01EFC0B48BDE8F84F1EF0A1B84F2B0D
:101C9000D3D894E7AFF30080000000000000F03FCD
:101CA00000000000000000009039FF1F2035FF1FDA
:101CB000B8C40200044AFF1F203BFF1FD4C4020027
:101CC00008C502003A23CA3FCA2F673754C502002D
:101CD00088C50200B8C50200C8C50200D039FF1F80
:101CE000000090408F39FF1F70B526488CB00EF071
:101CF00003FC58B324F038F9234D85F83800214807
:101D00000EF0FAFB18B124F02FF985F839001D48C0
:101D10000EF0F2FB18B124F027F985F83A001948C3
:101D20000EF0EAFB18B124F01FF985F83B00174CC0
:101D3000572304F5067685F8003214F8011F601B5E
:101D40001BF0ECFEB442F8D10CB070BD0E48104947
:101D500090F8393090F8382090F83B4090F83A00ED
:101D60008DE8110003A824F075FF03A825F088F979
:101D7000014603A81DF0A4FB06481EF029F80CB08C
:101D800070BD00BFB4F9FF1F9039FF1F8F39FF1FCF
:101D9000D0C50200044AFF1F10B52D480EF0ACFB61
:101DA000C8B12C49044624F09FFFA8B92A4B2B4AFE
:101DB0001B781070002B43D125480EF09DFB044684
:101DC00048B1244924F090FFD8B9234B244A1B780A
:101DD0001070002B2BD110BD2046224924F084FF27
:101DE0000028E9D11C4B1D4A1B7801211170002BE2
:101DF000E2D013211C481DF063FB1C481DF0E8FFD6
:101E0000DAE72046174924F06FFF0028E3D1124B90
:101E1000134A1B7801211170002BDCD015211448C6
:101E20001DF04EFB1148BDE810401DF0D1BF192137
:101E300010481DF045FB0D48BDE810401DF0C8BF1F
:101E400017210D481DF03CFB08481DF0C1FFB3E70A
:101E5000B4F9FF1F944104008839FF1F8841FF1F18
:101E6000DC43FF1FA0DF020008C60200044AFF1F78
:101E700038C602001CC60200F0C50200FFFFFFFFCB
:101E800070B56B480EF038FB002853D024F068F88A
:101E900061A3D3E9002351EC100B23F02FFA23F0B8
:101EA00025FD644D686262480EF026FB30B124F0D7
:101EB00057F851EC100B23F019FDA8625C480EF0A6
:101EC0001BFB58B124F04CF855A3D3E9002351EC87
:101ED000100B23F013FA23F009FDE86254480EF0CA
:101EE0000BFB30B124F03CF851EC100B23F0FEFC5E
:101EF00028634F480EF000FB58B124F031F84AA394
:101F0000D3E9002351EC100B23F0F8F923F0EEFC99
:101F100068634748484C0EF0EFFA572304F50676FD
:101F200085F8003214F8011F601B1BF0F7FDB44266
:101F3000F8D170BD0446172140483E4D1DF0C0FA4F
:101F40003F481DF045FF0F213E481DF0B9FA95EDC1
:101F5000097ADFED3D7A67EE277A17EE900A23F0D3
:101F600079F941EC100B012135481DF08DFF344803
:101F70001DF02EFF0F2135481DF0A2FAA86A23F0AC
:101F800069F941EC100B21462D481DF07DFF2C48CE
:101F90001DF01EFF0F212E481DF092FA95ED0B7AD1
:101FA000DFED2C7A67EE277A17EE900A23F052F9CC
:101FB00041EC100B032122481DF066FF20481DF064
:101FC00007FF0F2124481DF07BFA286B23F042F90C
:101FD00041EC100B04211A481DF056FF18481DF063
:101FE000F7FE0F211D481DF06BFA95ED0D7ADFED20
:101FF0001C7A67EE277A17EE900A23F02BF941EC52
:10200000100B01210E481DF03FFF0D48BDE8704048
:102010001DF0DEBEAFF30080000000809997713D97
:10202000000000A0F7C6B03E000000E00B2E113EFD
:10203000B4F9FF1F9039FF1F8F39FF1F50C60200F0
:10204000044AFF1F68C60200A5D4685378C6020080
:1020500088C602000024744998C60200A8C602007F
:10206000286B6E4E70B5044608460D4625F008F8FC
:1020700023680246294620465B68BDE87040184741
:102080002DE9F04F9F4BDFF894B29F4A1B6812680E
:10209000DBF800109D482DED048B023387B01BB296
:1020A000013A05390024009312B209B201944FF4A9
:1020B000837319F04BFA4FF62055934BDBF8001061
:1020C0001A68924800952244053912B2283409B2A0
:1020D0004FF4827319F092F8C82CEED114244FF605
:1020E0002055894BBBF900101A6888480095224496
:1020F00012B22834FF2319F081F8B42CF1D19FEDEE
:10210000848A9FED849A0624F6EE008A78EE287A77
:10211000DBF800307C4A7D48B2F90020FDEEE77A1A
:102120004FF6205517EE901A194409B20095A523D1
:1021300019F054F8013C38EE098AE7D19FED768A10
:10214000DFED748A0627F6EE007A78EE277ADBF860
:1021500000306D4A6D48B2F900206B4D6F4CFDEEBA
:10216000E77A4FF6205617EE901A194409B20096F6
:10217000A02319F033F8013F38EE288AE3D1236811
:10218000B5F900206148009603F1FF0109B2A023D0
:10219000634E039619F022F823682A685B4800977B
:1021A00003F12B01023212B209B2102319F016F812
:1021B00021682A68554800970232EB3112B209B201
:1021C000102319F00BF8DFED578A9FED578ADFF8DF
:1021D0005CA13C463A4619E0DBF800104B48A4B23B
:1021E00031442B1B621C4FF6FF761BB212B209B2B0
:1021F000009618F0F3FF039B01370233FE2F039381
:102200000AF1020A00F0948044464A46BEB2B31E68
:10221000FC2B40F2C281039BBAF900E0B3F90050F5
:10222000384B1868384B00F10108C6451FFA80FC8E
:102230001868C4BF0CF1010E0FFA8EFE0138A845D4
:10224000B8BF0CF10105604481B2B8BF2DB2CEEB2E
:10225000010E4D1B1FFA8EFEADB20FFA8EF90FFA6A
:1022600085F8002F00F09681C2EB0903C4EB08014A
:10227000012B049121DDDBF80010244892B2C2EB5F
:102280000E03314401324FF0000C1BB212B209B2FE
:10229000CDF800C018F0A2FF049B012B9CDC049B2E
:1022A000DBF800101948013313DB314409B24FF653
:1022B000FF73424618F006FE9DE7013314DBDBF89E
:1022C00000101248314409B200234A4618F0FAFDC2
:1022D000E2E7631B31444FF6FF7200921BB209B272
:1022E000424618F07BFF86E7DBF800100748CEEB8C
:1022F00002033144002200921BB209B24A4618F090
:102300006DFFC9E72C30FF1F3830FF1FC4F0FF1FDF
:1023100000000000ACAA2A42A9AAAA413430FF1F3B
:102320009055FF1FEC51383E295C8F3DFC0F00207B
:1023300015224621CC481BF009F9CC4BCC4AD3EDF1
:10234000007A92ED857A77EE277A17EE900A22F0DE
:1023500081FF41EC100B0221C3481DF095FD1522B1
:102360004FF48271C0481BF0F1F8C24BD3ED007AF4
:10237000F5EEC07AF1EE10FA40F3078117EE900AFD
:1023800022F068FF41EC100B0121B7481DF07CFDE5
:10239000B94BBA4A03F5007033F8021F22F8021F46
:1023A0009842F9D1B64B1B78002B00F0E9804FF62C
:1023B000FF71AD48B34DB44E9FEDB48A1BF0E2F807
:1023C000A948B34BC3612422F0211BF0BFF80822B7
:1023D000B049A5481DF0E6FC2E22F021A2481BF0D2
:1023E000B5F80422AC49A0481DF0DCFC2E2240F2D6
:1023F00013119D481BF0AAF896ED007AD5ED007AEE
:1024000077EEC77A4FF4FC6477EE887A17EE900A7D
:1024100022F020FF41EC100B012193481DF034FD08
:102420003822F02190481BF091F80A229B498E48EF
:102430001DF0B8FC382240F213118B481BF086F8CF
:102440004222F02188481BF081F80A2294498648EC
:102450001DF0A8FC4C2240F2131183481BF076F8C3
:10246000D6ED006AD5ED007A9FED8E7A77EEE67AAA
:102470004FF4784577EE887A77EEC77A17EE900AB0
:1024800022F0E8FE41EC100B012177481DF0FCFC26
:102490005622F02174481BF059F8052282497248EF
:1024A0001DF080FC562240F213116F481BF04EF8CD
:1024B0007E4BD6ED006AD3ED007A9FED7D7A77EE04
:1024C000E67A77EEC77A17EE900A22F0C3FE41EC67
:1024D000100B012164481DF0D7FC764B62481A6846
:1024E000DBF80030009403F10D019E3212B209B204
:1024F0001C2318F083FE6F4B5B481A68DBF8003032
:10250000009503F129019E3212B209B2042318F09A
:1025100075FE684B54481A68DBF80030009403F1EC
:102520002D019E3212B209B2802318F067FE614B72
:102530004D481A68DBF80030009403F10D019F321A
:1025400012B209B21C2318F059FE5A4B46481A68B9
:10255000DBF80030009503F129019F3212B209B275
:10256000042318F04BFE534BDBF800101A683E486A
:1025700000949F322D3112B209B2802318F03EFE32
:1025800007B0BDEC048BBDE8F08F4B493648FFF730
:1025900069FDFDE64446049791E6484BB3F90030E7
:1025A000002B3FF438AE039931F9023C07EE103AA4
:1025B0003AF9023C07EE903AB1F9003006EE903A53
:1025C000BAF90030B8EEC77A05EE903AF8EEE77A3D
:1025D000B1F90230F8EEE66A06EE103AF8EEE55A86
:1025E000BAF9023027EE287A67EEA87AF6EE004AAA
:1025F000A6EEA47A05EE103AE5EEA47A31F9043C91
:10260000B8EEC66A06EE903AB8EEC55A3AF9043CFE
:10261000A6EE287A05EE903AE5EE287AB1F9043074
:10262000F8EEE66A06EE103AF8EEE55ABAF904302A
:10263000A6EE887AE5EE887A06EE903AB8EEC66A9B
:10264000F8EEE66AA6EE087AE6EE887ABDEEC77A7C
:10265000FDEEE77A8DED047ACDED057ABDF91050E7
:10266000BDF914E0DCE500BFC4F0FF1FD8E4FF1F94
:102670009039FF1F74C2FF1F8E55FF1FFA0F0020F5
:1026800054DEFF1F00E5FF1F08E5FF1F46B6A1410E
:10269000AC190300C0C60200CCC60200D4C60200BA
:1026A000E0C60200713DAC41ECC60200EC57FF1FD2
:1026B00031082C3D3830FF1FB8C60200A2E8FF1FCA
:1026C00038B5044608460D4624F0DAFC2368024675
:1026D00029465B6820469847054620461DF078FB52
:1026E000284438BD2DE9F04FBF4FC04C3B88C04E49
:1026F00004EB43132DED068B9B8A00EE103A83B05A
:10270000B8EE400A1FF06EFABA48BB4BBB4A0360F2
:1027100006F50065B1463346D3ED007AB2EC017A96
:1027200077EE877AE3EC017AAB42F5D1DFF82C83C0
:102730003A88B8F8003004EB42120133928A9BB217
:102740009A42A8F8003000F229819FEDAD7AA84A9C
:1027500080ED007A00218A460B46F2EC017AF4EE15
:10276000C77AF1EE10FA04DDB0EE677A1FFA83FA49
:1027700001210133B3F5007FEFD1002940F0AB8296
:10278000B2EE04AABAF1010F60EE0A9A40F21D827D
:10279000BAF5FF7FC0F0D8819A4B9B4AD3ED007AFF
:1027A00093ED010A09EB8A0337EE800A13ED019AD3
:1027B000D3ED008A82ED000A1FF014FAB1EEC98A47
:1027C000924BF0EE697AD0EE0A7AB4EE488AF1EED6
:1027D00010FAC3ED007A40F08182B1EEE80AB4EE5F
:1027E000400AF1EE10FA40F08082BAF5FF7FF0EE79
:1027F000408A40F28B82DFED867AB4EEE78AF1EE12
:1028000010FA40F1918188EEA77A3B88814A04EB67
:102810004314B0EE006AF7EE006A36EE476A77EED0
:10282000266A07EE90AA86EE267AF8EE677AD4ED4D
:10283000005A9FED796ADFED796A99ED009AD9ED3A
:10284000018A77EE277A39EE288A67EEA57AE7EED5
:10285000866AC2ED006A724B9FED690A03F1E402D9
:10286000F3EC017A9A4230EE270AF9D16D4B03F569
:102870007F72F3EC017A934230EE270AF9D16A4B6A
:10288000019383ED000A1FF0ADF999ED547AD9ED6B
:10289000557AD9ED566ADFF8C8A1644A644C654F91
:1028A0009FED65AADFF8BCB1DFF8BC9177EE277A1F
:1028B000F2EE048A77EEA67A20EE287AB0EE670A66
:1028C00082ED007ACAED007A1FF08CF9019B9AED37
:1028D000007AD3ED007A594A594BDFF890A177EE90
:1028E000877A20EE287AB0EE670AC3ED007A82ED8F
:1028F000007A1FF077F9534B20EE280A83ED000A87
:102900002CE09AED858A1FF06DF9F2EE047AA0EEC4
:10291000278A38EE697ADBED007AD9ED006A77EE26
:10292000277AB3EE046A67EE867A083487EEA67AD1
:10293000023777EE0A7AFDEEE77ACDED017ABDF93E
:102940000430002BB8BF0023AC4227F8023C2AD049
:1029500014ED029A54ED018A39EE288AB5EEC08A48
:10296000F1EE10FAB0EE480ACBDC9FED377AD2E7F1
:10297000DB0603D535493648FFF7A2FEBAF9003029
:10298000344A002B05DD013B9BB2002B00F078811F
:102990001380002346F8043BAE42FBD103B0BDECEC
:1029A000068BBDE8F08F2C4BB3F90030022B00F002
:1029B0006D81DFF8A0A0BAF9003000229342A8F898
:1029C0000020E6DBDFF8A8B0BBF80030002BE0D039
:1029D000DFF8A080B8F80030D80600F14A81044F33
:1029E000DFF89090002479E0DC3CFF1FFC37FF1FEC
:1029F000A8E8FF1F20150020000048C39475FF1FA2
:102A000000000000A0F0FF1F6C71FF1FD8E4FF1F43
:102A100095BFD63374C2FF1F0000803ACDCC4C3D29
:102A200010E9FF1F08EAFF1F108EFF1F08E5FF1FB8
:102A3000B0E8FF1F9055FF1F0000204300E5FF1F77
:102A400090150020EC57FF1F7593B4C2F4C6020026
:102A5000044AFF1F4CC5FF1F7C71FF1F10F1FF1FB1
:102A6000DCE4FF1F5CC2FF1F8439FF1F9039FF1F8A
:102A70000CE5FF1F5A30FF1F97ED000AB5EEC00AA4
:102A8000F1EE10FA4BD91FF0ADF8F2EE047A60EED9
:102A9000277A17EE900A22F0DDFB41EC100B0321A0
:102AA000A1481DF0F1F9B8F80030DA0709D540F275
:102AB000FF12944205D001219C481CF001FDB9F899
:102AC0000030980724D419071BD45A0712D40134B4
:102AD000B4F5007F07F104073FF44AAF9906CBD461
:102AE000386822F0B7FB41EC100B08218E481DF02E
:102AF000CBF9D8E701218E481CF0E2FCB8F8003091
:102B0000E5E701218B481CF0DBFCB8F80030DCE77E
:102B1000012189481CF0D4FCB8F80030D3E7082123
:102B200086481CF0CDFCBEE740F2FF139A4577D0F3
:102B3000B4EEE78AF1EE10FA72DC99ED009AD9ED65
:102B4000018A39EE288A86E60AF1010B09EB8A032D
:102B500009EB8B02D2ED007AD3ED008A13ED019AD6
:102B6000774A78EEA77A77EE897AB0EE670AC2EDF7
:102B7000007A1FF037F8B1EEC98A724BF0EE697A2D
:102B8000D0EE0A7AB4EE488AF1EE10FAC3ED007A7C
:102B900040F0B080B1EEE80AB4EE400AF1EE10FA6F
:102BA00040F0AF80F0EE408A09EB8B0B9BED000A02
:102BB000F1EEC07AF4EE677AF1EE10FA3FF41DAE52
:102BC0001FF08CF8F0EE407A17E699ED009AD9EDF7
:102BD000018A5B4B5C4C39EE288AB0EE480A83EDE3
:102BE000008A1EF0FFFFF0EE697AD0EE0A7A554BAC
:102BF000C3ED007ABAF1000F4BD1F1EEC97AF4EED1
:102C0000677AF1EE10FA40F08980F1EEE87AF4EE9E
:102C1000677AF1EE10FA7CD14C4B00221A601AE66A
:102C2000C8EE887A3A88494B04EB4214B0EE006A49
:102C3000F7EE006A36EE676A77EEA66A07EE90AAAC
:102C4000B8EE677AC6EE267AD4ED005A9FED406A58
:102C5000DFED406A99ED009AD9ED018A77EE677A47
:102C600039EE288A67EEA57AE7EE866AC3ED006A38
:102C7000F1E5012138481CF023FCB8F80030AEE63D
:102C80004FF6FF71ABF80030118082E6FFF7F8F9DC
:102C90008FE694ED000AF1EEC07AF4EE677AF1EE79
:102CA00010FA01D01FF01AF899ED010AF1EEC07A7E
:102CB000F4EE677AF1EE10FA01D01FF00FF899EDFB
:102CC000020AF1EEC07AF4EE677AF1EE10FAA3D0C0
:102CD0001FF004F8A0E780ED007A51E5B0EE490A54
:102CE0001EF0FCFFB0EE408A77E5B0EE680A1EF0F9
:102CF000F5FF7AE5B0EE490A1EF0F0FFB0EE408A2B
:102D000048E7B0EE680A1EF0E9FF4BE70AF1010B55
:102D10004AE7B0EE680A1EF0E1FF7DE7B0EE490A2F
:102D20001EF0DCFF71E700BF044AFF1FB4C00200C1
:102D3000A002030050C102001CD50200F8C6020028
:102D40006C71FF1FD8E4FF1FA8E8FF1F74C2FF1FAC
:102D50000000803ACDCC4C3DF4C6020038B5C9B273
:102D600005461DF091F8044628461DF031F8204430
:102D700038BD00BF002310B4114C417202610460E1
:102D80000372C36041B1194600E0026942F82310A2
:102D9000427A01339A42F8DC0A4B1A680AB90CE00D
:102DA0001A465369002BFBD1506100234361838095
:102DB000C38083725DF8044B70471860F5E700BF6D
:102DC00024BF020058440020F8B50469D4B1236838
:102DD000314FDB6ABB42064648D1A06D18B123F0E3
:102DE00027F90023A365236D002B42D004F11800BE
:102DF00014F094FC35696C68013C6C601CB10023D4
:102E00003361F8BDF8BD2B68DB6ABB4235D1A86DD4
:102E100010B123F00DF9AC652B6D002B33D005F10B
:102E2000180014F07BFC3469002CE8D023681B4A9E
:102E30005B68934224D1A06D194B236018B123F035
:102E4000F7F80023A365236D04F11805FBB12846AC
:102E500014F064FC134BA360284614F05FFC20467A
:102E60005C211DF005FA00233361F8BD2046984728
:102E7000C0E7636D002BB9D1BCE728469847D2E77D
:102E800020469847BBE76B6D002BC8D1CBE7636D3D
:102E9000002BDCD1DEE700BF99040000A10D00008B
:102EA000D4BF020030BF020015490A6838B50023BC
:102EB000144D05600446437203610372C3600AB98E
:102EC0001CE01A465369002BFBD1546100230E49C4
:102ED00063614FF08042A380E380A372A361E3614A
:102EE00023626362E36223866386A3862160A26213
:102EF00004F138000FF0DAFB204638BD0860E5E742
:102F00005844002024BF020008000300044605497D
:102F1000054808B5FFF7A6F821460348FFF7D0FBA0
:102F2000FEE700BF20C70200044AFF1F70B5194C1E
:102F300082B0002312260546019320461023012269
:102F400040F22F11009618F001FB019500962046E3
:102F50001023012240F22F1119F078FA8DB14FF6AB
:102F6000FF7120461AF00EFB0B4BE36106224FF473
:102F70009A7120461AF0EAFA2046012207491CF00D
:102F800011FF04484FF6E07102B0BDE870401AF03E
:102F9000F9BA00BFC4F0FF1FAC19030098E90200A2
:102FA00030B51D4A1D4B10784FF6F77283B01A806A
:102FB00068BBFFF7BBFF1A4C0025A022B4F90C3008
:102FC0000092204629462622019518F0BFFA204695
:102FD0004FF6E0711AF0D6FA124BE361294620460B
:102FE00026221AF0B3FA204612220F491CF0DAFE0C
:102FF000294620463C221AF0A9FA0C4B0C49E36101
:103000002046182203B0BDE830401CF0CBBE4FF480
:10301000FC60FFF78BFFCEE7A8F0FF1F7C71FF1F5E
:10302000C4F0FF1FE006030030C702008C06030057
:1030300044C7020010B52DED048B9FED268A20EECB
:10304000088A82B0F0EE408AB0EE480A1EF0F4FA28
:10305000DFED217A38EE407AB4EEE77AF1EE10FA3D
:1030600005D5B7EE000A38EE400A1EF0E5FA1B4B14
:103070001B4C93ED009AB7EE008A30EE088AF6EE0C
:10308000007A28EE097A87EE280A30EE270A1EF029
:10309000D3FAC8EE287A134B134A1B88134803EB64
:1030A000430302EB031280EE097A67EEA88AFCEE76
:1030B000C07A88EE870ACDED017ABDF8043082ED42
:1030C000010A190AA3EB01232380018002B0BDECA1
:1030D000048B10BDCDCCCC3DBD378635D83CFF1F11
:1030E00094DEFF1F08F1FF1F2035FF1F7C8EFF1F9E
:1030F0002DE9F047F2EE047AB4EEE70AF1EE10FAA9
:103100002DED028B40F28380DFED577AB4EE670A33
:10311000F1EE10FAA8BFB0EE670AFFF78BFF534B32
:1031200093ED018A1D461C4603F5107AD4ED197AF9
:10313000F4EEC87AF1EE10FA53DD94ED0D7A77EEE5
:10314000C77A38EE477AC7EE276A16EE900A22F061
:1031500081F8D4E9108906460F464246D4E91C019D
:103160004B4621F017FF32463B4622F0C7F8424655
:103170004B4621F011FFC5E90401D4E91223D4E93B
:103180001E0121F007FF32463B4622F0B7F8D4E992
:10319000102321F001FFC5E90601D4E91489D4E91F
:1031A000200142464B4621F0F5FE32463B4622F0D6
:1031B000A5F842464B4621F0EFFEC5E90801D4E9E7
:1031C0001689D4E9220142464B4621F0E3FE3246FD
:1031D0003B4622F093F842464B4621F0DDFEC5E91E
:1031E0000A0130345445A1D1D5ED007A9FED207A03
:1031F0001E4CF4EEC77AF1EE10FA0BD4BDEC028B44
:10320000012323811B4BC3ED007ABDE8F087B0EEAC
:10321000670A82E717EE900A22F01CF841EC100BC7
:103220001EF06CFB0CA3D3E9002351EC100B22F031
:1032300065F80B4602460AA1D1E9000121F0AAFE79
:1032400022F00CFBBDEC028BD4ED007A094B2081FF
:10325000C3ED007ABDE8F087000000803FB50C4068
:10326000000000A099993840003E1C472035FF1F00
:103270000000164460C2FF1F012806D020B917497C
:10328000174A0123CB61D361704730B5154C134DFC
:10329000012C83B0EC6103D8114BDC6103B030BD6D
:1032A00080230093224605F12C03642105F12000C0
:1032B0001DF0B8FD08B10023EB61094D094AEC612E
:1032C0008021009105F12C0305F1200064211DF0FF
:1032D000A9FD0028E2D00023EB61DFE790C2FF1FC9
:1032E00060120020BC38FF1F012810B504460ED024
:1032F00002281ED0032826D000B110BD01461AF0C6
:10330000D7FD21460120BDE810401AF0D1BD01468D
:1033100000201AF0D3FD214620461AF0CFFD0021EF
:1033200008461AF0C5FD20460021BDE810401AF0FD
:10333000BFBD002108461AF0BBFD01210846BDE8CB
:1033400010401AF0B5BDBDE81040FDF7A5B900BFAB
:10335000D0B588B01B2204461F4901A81AF016F9FF
:103360001E4A1368002BFCDB04EB440408AB234427
:103370001B4813F81A1C13F81C2C13F81B4C013AA9
:1033800044EA0124611E1203C1F30B0102F47F22FF
:103390000A43026013F81C0C21F03AFF0CA3D3E996
:1033A000002321F0ABFF064620460F4621F030FFF8
:1033B00000220C4B21F0A2FF02460B463046394654
:1033C00022F0C6F841EC100B08B0D0BDAFF300807E
:1033D000000000002A75A54128C0020000F102404B
:1033E00004F10240000070402DE9F8432DED048BFC
:1033F000FFF7AEFF51EC100B22F078FADFED456AD3
:10340000454BDFF83081454C454DDFF82C919FED61
:10341000459A9FED458ADFED458A186007EE900AD0
:1034200086EEA77A04F13807002688ED007AD9EDF8
:10343000837A95ED016AD5ED006AB5F90A3067EE39
:10344000867A27EE267AF5EEC07AF1EE10FA3BD4B2
:10345000F7EE006AF4EEE67AF1EE10FA48DD4FF48A
:103460008032B5EEC07AF1EE10FA626233D4B4EE77
:10347000C87AF1EE10FA0ADC27EE287A2C49FCEE25
:10348000C77A17EE902A8A42C4ED077A01D9284AF2
:10349000E26100220B2B6386226224D00C2B33D0F6
:1034A000093B9BB2012B2AD90136032E05F10C05ED
:1034B00004F5C87407F5C87702D098ED007AB6E72E
:1034C000BDEC048BBDE8F883B5EEC07A0022F1EEC6
:1034D00010FA6262CBD50022E2610B2B4FF00002A2
:1034E00063862262DAD1E16938460FF0DBF8DBE768
:1034F00067EE897AFDEEE77A17EE902AB1E7E16987
:1035000038460FF059F8CFE7A26AE16938460FF064
:1035100083F8C9E7A6552C47D83CFF1F98DEFF1F4C
:10352000AC43FF1F00008047A655AC464B24BE4766
:103530000000FE7FBC3BFF1F9039FF1F2DE9F041CB
:103540006E4B6F4A1B884FF6FE710D2B82B01180B7
:1035500000F0AB806B4E6C4D33886C4CDFF8D4813F
:1035600005EB431300279888FFF73EFF3388684A2E
:1035700005EB4313DF219B8A0197009120463946D2
:10358000138040F22D130F2217F0E0FF0F233A466D
:103590000197394620460093192317F0D7FF20469C
:1035A0004FF6E07119F0EEFF394620462622C4F8A6
:1035B0001C8019F0CBFF2046012256491CF0F2FB7B
:1035C00020463C22142119F0C1FF204621225249F5
:1035D0001CF0E8FB20465222782119F0B7FF37880B
:1035E0004E4BE36105EB47170C37384623F048FD97
:1035F0003946024620461CF0D5FB2046782214218D
:10360000C4F81C8019F0A2FF2046112244491CF086
:10361000C9FB78222046DC2119F098FF338805EB9E
:103620004313986821F016FE41EC100B204601214F
:103630001CF02AFC20468E22142119F087FF204618
:10364000192238491CF0AEFB8E222046DC2119F0ED
:103650007DFF3388DFED347A05EB431393ED007A79
:1036600067EE277A17EE900A21F0F4FD41EC100B7B
:10367000204601211CF008FC2046A422142119F048
:1036800065FF2046122229491CF08CFB2046A4220B
:10369000DC2119F05BFF338805EB43152046A98A2E
:1036A00002B0BDE8F0411CF0E7BB214B154E1A8873
:1036B0003388012A1BD0022A08D0032A0CD1124DCC
:1036C00005EB43118A8A52008A8246E713B1013B17
:1036D0009BB233800C4D40E7042AFBD10A4D05EB29
:1036E00043118A8A032A84BF52088A8235E7032B52
:1036F000F0D801339BB23380ECE700BFF08DFF1FA1
:103700007C71FF1FDC3CFF1FFC37FF1FC4F0FF1F55
:10371000D03CFF1F1CD502008CC70200F82F03000D
:10372000B0C70200C4C70200A69BC43AE0C70200AB
:10373000828EFF1FA8060300DC4BDFEDDD7A30B57B
:10374000024693E80300B0EEC07ADA4DB4EEE77AB1
:103750000B0CF1EE10FA83B02860A980AB7100F178
:103760009F80DFEDD57AB4EEE70AF1EE10FA144649
:1037700000F19E80DFEDD17AB4EEE70AF1EE10FAA7
:1037800000F1B880DFEDCE7AB4EEE70AF1EE10FA80
:1037900000F1CB80DFEDDE7AB4EEE70AF1EE10FA4D
:1037A00000F1CF80DFEDC77AB4EEE70AF1EE10FA50
:1037B00000F1D380DFEDC47AB4EEE70AF1EE10FA3F
:1037C00000F1EF80DFEDC17AB4EEE70AF1EE10FA16
:1037D00000F1F380DFEDBE7AB4EEE70AF1EE10FA05
:1037E00000F1F780DFEDBB7AB4EEE70AF1EE10FAF4
:1037F00000F10281F7EE007AB4EEE70AF1EE10FA7A
:1038000000F13081F2EE047AB4EEE70AF1EE10FA3C
:1038100000F1B880DFEDB07AB4EEE70AF1EE10FA0D
:1038200000F1FD80DFEDAD7AB4EEE70AF1EE10FABB
:1038300000F1FD80DFEDAA7AB4EEE70AF1EE10FAAE
:1038400000F1FD80DFEDA77AB4EEE70AF1EE10FAA1
:1038500000F11481DFEDA47AB4EEE70AF1EE10FA7C
:1038600000F11881DFEDA17AB4EEE70AF1EE10FA6B
:1038700000F15081DFED9E7AB4EEE70AF1EE10FA26
:1038800000F15B81DFED9B7AB4EEE70AF1EE10FA0E
:1038900000F15F81984B93E8030085E8030004E0A2
:1038A000964B93E8030085E80300824803B030BDDF
:1038B000DFED937A60EE277A17EE900A21F0CAFCCA
:1038C00002460B4668468F4923F0C4F9684623F048
:1038D000D7FB052823D8C0F10502002369462846F6
:1038E000AB5423F0DDF92168724823F0D9F971480F
:1038F00003B030BDDFED7F7A60EE277A17EE900AD5
:1039000021F0A8FC0B4680490246284623F0A2F984
:103910006168284623F0C4F9664803B030BD421CF4
:103920006946284619F032FEDDE7DFED727A60EE77
:10393000277A17EE900A21F08DFC0B460246734958
:10394000E3E7DFED6C7A60EE277A17EE900A21F05C
:1039500081FC0B4602466B49D7E7DFED637A60EEE8
:10396000277A17EE900A21F075FC0B46664902464D
:10397000284623F06FF9A168284623F091F94D48B5
:1039800003B030BD10EE100A21F064FC0B465E4916
:103990000246484823F05EF92169464823F080F941
:1039A00083E7DFED517A60EE277A17EE900A21F077
:1039B00051FC0B4602465549DAE7DFED4B7A60EEE3
:1039C000277A17EE900A21F045FC0B4602464D4936
:1039D000CEE7DFED427A60EE277A17EE900A21F00B
:1039E00039FC02460B462846474923F033F9E16883
:1039F000284623F055F958E7DFED387A60EE277A4C
:103A000017EE900A21F026FC0B4640490246294851
:103A100023F020F9E168274823F042F945E710EE4A
:103A2000100A21F017FC0B4602463849B1E710EEA8
:103A3000100A21F00FFC0B4602463249A9E7DFEDE0
:103A4000237A60EE277A17EE900A21F003FC0B46EA
:103A50002D490246174823F0FDF86169154823F007
:103A60001FF922E7DFED1D7A60EE277A17EE900A44
:103A700021F0F0FB0B4602462249C8E7DFED137A3E
:103A800060EE277A17EE900A21F0E4FB0B4602461F
:103A90001E49DFE7DFED0D7A60EE277A17EE900A18
:103AA00021F0D8FB0B4602461649D3E7F4C70200C3
:103AB000132EE129C01500205F70893077CC2B329E
:103AC00095BFD633ACC5273717B7D1386F12833AB5
:103AD0000AD7233CCDCCCC3D0000C84200007A443C
:103AE00000401C460050C347002474498096184B80
:103AF00020BCBE4C286B6E4E14C802001CC80200CD
:103B0000A5D46853FCC7020004C802000CC8020018
:103B1000BD3786355FED027A60EE277A17EE900AA0
:103B200021F098FB0B4611490246114823F092F808
:103B3000A1690F4823F0B4F8B7E6DFED0E7A60EE26
:103B4000277A17EE900A21F085FB0B4602460A49B8
:103B5000EBE7DFED087A60EE277A17EE900A21F0A6
:103B600079FB0B4602460549DFE700BF04C80200A7
:103B7000C0150020BD3786350CC80200FCC7020006
:103B8000B5EEC00A08B5F1EE10FA074B4CBF2D2276
:103B90002022B0EEC00A1A70FFF7CEFD014603489E
:103BA00023F00CFA004808BD4815002049150020F4
:103BB0002DE9F04FDFF85483DFF85493B8F8123052
:103BC000DFF850B3C04C08EB8303A3B00746586935
:103BD00021F040FB9FEDB87BD9F80030CDF808B05C
:103BE0007E010125CDE904014FF0040A991902AACA
:103BF00000230AA88DED067B8DF822300193ADF8E5
:103C000024A08DF820508DF821508DF823500CF011
:103C1000D7FED9F8001002AA314412A80CF0AAFE6F
:103C20000AA912AA1AA80CF041FF1F99019B8DF84E
:103C3000623001F100411E9B16939DED1C7B9DEDB2
:103C40001E6B9DF8803017919DF881102376617668
:103C50009DF882309DF88310A37612AABDF88430B7
:103C6000E1761AA8214684ED027B8DED147B84ED6C
:103C7000046BCDF848B0ADF864A0A3838DF8605014
:103C80008DF861508DF863500CF0C0FEDFF888E2CB
:103C90009DF881C08EF819C0DDE91C23DDE91EAB5B
:103CA0009DF882C08EF81AC09DF883C08EF81BC0A4
:103CB0009DF88010BDF884C08EF81810CEE902235C
:103CC000CEE904AB1946AEF81CC0104621F00EFE3A
:103CD0007E4BDFF848A2186000EE100A1DF082FF4C
:103CE000FAEE047A60EE277A94ED021B94ED040B51
:103CF000CAED007A1DF09AFD71A3D3E9002351ECBF
:103D0000100B21F0FBFA21F0F1FDDFF814B298F866
:103D10003830CBF80000002B00F08A80012B00F037
:103D200086816B4B1B78002B40F0FE80694B1B7823
:103D300013B923B0BDE8F08F674BDFF8E88107EBDC
:103D4000470203EB0213186821F084FA41EC100BD0
:103D5000032162481CF098F898F80030002B40F0DE
:103D6000528101215E481BF0ABFB5E4C5B4823682F
:103D7000334493ED020B09211CF086F898F80030CB
:103D8000002B00F04F81032157481BF099FB23685B
:103D90005248334493ED040B09211CF075F898F850
:103DA0000030002B00F03981042150481BF088FBC3
:103DB00023684F493344D3E90223002021F0C8FB94
:103DC00041EC100B022145481CF05EF823681E44AC
:103DD000D6E904010023002221F016FD98F80030F6
:103DE000002800F08D81002B00F0608141493B48A4
:103DF000FEF738F9404B4148BC00234493ED000ADC
:103E0000FFF79AFC01463548FEF72CF93C49334848
:103E1000FEF728F93B4B1C44206821F01BFA41ECCB
:103E2000100B02212D48FEF799FF23B0BDE8F08F5B
:103E3000294BDFF8F08007EB470703EB07173868DB
:103E400021F008FA41EC100B032124481CF01CF867
:103E500098F80030002B40F0D180294620481BF014
:103E60002FFBDAF8000021F0F5F941EC100B0321EB
:103E70001A481CF009F898F80030002B00F0C880B0
:103E80000D2121481BF01CFB94ED021B94ED040B4B
:103E90001DF0CCFC0AA3D3E9002351EC100B21F058
:103EA0002DFA41EC100B02210C48FEF757FF23B00E
:103EB000BDE8F08FAFF300800000000000000000BC
:103EC00000000020DCA54C4080E8FF1F8071FF1F30
:103ED0008841FF1FDC43FF1F2035FF1F044AFF1FDF
:103EE000B4C0020068C2FF1FB0C80200B4C802001C
:103EF0000000F03F8CC8020054150020C037FF1F9F
:103F000090C802001C8EFF1F38C802009039FF1FA6
:103F1000CC8EFF1F60EB020060E8FF1FAC54FF1F58
:103F2000B454FF1F8839FF1F904BDFF8888207EBDE
:103F3000470203EB0213186821F08CF941EC100BD7
:103F400003218B481BF0A0FF98F80030002B00F0F5
:103F5000A88088498648FEF785F8D9F8003084485B
:103F6000334493ED020B03211BF08EFF98F80030D1
:103F7000002B00F0918080497D48FEF773F8D9F856
:103F800000307B48334493ED040B03211BF07CFF8E
:103F9000D9F800303344D3E904010022002321F092
:103FA0001FFC98F80030002840F0CA80002B00F079
:103FB000928072496E48FEF755F8714B7148BC000B
:103FC000234493ED000AFFF7B7FB01466848FEF76C
:103FD00049F86D496648FEF745F86C4B1C4420686B
:103FE00021F038F941EC100B02216148FEF7B6FED2
:103FF000674B1B78002B3FF49CAE9DE61221654871
:104000001BF05EFA2DE7132163481BF059FAACE66A
:10401000012162481BF054FA36E701215F481BF08A
:104020004FFAC5E601215D481BF04AFAAFE64F4B57
:10403000DFF8808107EB470703EB0717386821F0AB
:1040400009F941EC100B032149481BF01DFF98F8BA
:104050000030002B5CD151494548FEF703F894ED40
:10406000041B94ED020B1DF0E3FB51EC100B21F04F
:104070003DFC21F0EFF841EC100B05213C481BF012
:1040800003FF98F80030002B55D045493848FDF71C
:10409000E9FFDBF80000C0E640493548FDF7E2FFE4
:1040A0006DE73E493248FDF7DDFF56E73B493048B2
:1040B000FDF7D8FF3B4BBC002344186821F0CAF839
:1040C00041EC100B0C212A481BF0DEFE3349284836
:1040D000FDF7C8FF9EE631492548FDF7C3FF284B91
:1040E000BC002344186821F0B5F841EC100B0921FD
:1040F0001F481BF0C9FE29491D48FDF7B3FF6CE7B7
:104100005BB11E491A48FDF7ADFF1D4B1D4873E614
:1041100025491748FDF7A6FFA1E720491448FDF7F8
:10412000A1FF174BBC002344186821F093F841EC21
:10413000100B0921C7E719490D48FDF793FFA8E7C0
:1041400033B11A490A48FDF78DFF0D4B184836E781
:1041500012490748FDF786FF094BBC002344186845
:1041600021F078F841EC100B0C21C1E72035FF1F3E
:10417000044AFF1F74C8020088C8020094C80200E5
:10418000D88EFF1FDC37FF1F90C802001C8EFF1F58
:10419000DC43FF1F24C802009CC80200B4C0020018
:1041A00068C802005415002048C802008CC80200EC
:1041B000C037FF1F8839FF1F2DE9F0432DED028B1B
:1041C0005B4DDFF880815B4F5B4E83B00024C823DA
:1041D000224628462146009301944FF4A07317F01D
:1041E000B5F928464FF6FF7119F0CCF9534BEB6146
:1041F000284603225F2119F0A9F9284617225049C1
:104200001BF0D0FDA146D8F8003049484D4D1A1F8B
:104210004A4412B2082119F099F9D6ED007A97EDC7
:10422000007AFDEEE77AB1EE477A17EE903A04FB9A
:1042300003F307EE903AF8EEE77A023477EE677A06
:1042400009F1280917EE900A21F004F841EC100B4F
:10425000002137481BF018FE0A2C1FFA89F9D2D129
:104260002A683348384E394F9FED398A103221463B
:1042700012B219F06BF9032236492D481BF092FD5A
:10428000B0462524002517E019F060F9B8F8003091
:10429000274807EB4313D3ED027A67EE887A2B3475
:1042A000FDEEE77AA4B217EE901A05FB01F1013595
:1042B0001BF0E2FD062D24D033881D4821B2B72221
:1042C000002BE1D119F042F9B8F8003007EB4313A5
:1042D00093ED027A07EE905A27EE087AF8EEE77A25
:1042E000013567EE277A2B3417EE900A20F0B2FFE3
:1042F00041EC100B01210E481BF0C6FD062DA4B2A7
:10430000DAD1B72240F21311094819F01FF903223C
:10431000114907481BF046FD104B187808B14FF4BF
:10432000FC6003B0BDEC028BBDE8F043FEF7FEBDC0
:10433000C4F0FF1F5CC2FF1F8439FF1F8C060300FF
:10434000BCC802003830FF1FDC3CFF1FFC37FF1FDA
:10435000CDCC4C3ED4C80200D8C80200A8F0FF1F44
:1043600038B5124B1A789AB11149124A0988124D80
:1043700002EB41120024908829801C70FFF734F86A
:10438000FFF71AFF0D4BB3F90030022B0AD038BDEE
:104390000949074A0C88074814800122808C0A804A
:1043A0001A70EBE7BDE83840FDF76ABE54DEFF1F28
:1043B0008A39FF1FFC37FF1FDC3CFF1F7C71FF1F8A
:1043C00010B5044620B1012816D002280AD010BD2D
:1043D0000146242019F06CFD21462320BDE8104041
:1043E00019F066BD0021242019F062FD012123206F
:1043F000BDE8104019F05CBDBDE81040FCF758B9AD
:10440000272810B513D0262804461DD0252800D013
:1044100010BD0021272019F04BFD0021262019F0A6
:1044200047FD20460121BDE8104019F041BD0121A2
:1044300019F03EFD0021262019F03AFD002125202B
:10444000BDE8104019F034BDBDE81040FCF73CB9A0
:104450002DE9F04F2DED048B062083B0FEF778FF99
:10446000B14BB24E1B88B24A00240321142B118099
:10447000B461F46164D0AF4C0025CA2320462946BC
:10448000009326224FF4A073019517F05FF82046A1
:104490004FF6E07119F076F8A74BE3612946204604
:1044A000262219F053F820461D22A4491BF07AFC5D
:1044B00029462046462219F049F8A14BE361A1495B
:1044C00020462A221BF06EFC294620465A2219F06B
:1044D0003DF8204625229C491BF064FC29462046D5
:1044E0006E2219F033F82046282298491BF05AFC16
:1044F000294620468C2219F029F820462222944988
:104500001BF050FC29462046A02219F01FF8204637
:104510002D2290491BF046FC29462046BC2219F06A
:1045200015F820462E228C491BF03CFC2520B56155
:10453000F56103B0BDEC048BBDE8F04FFFF760BF41
:10454000864B1B88012B96D17A4E01940C23304662
:104550000093BB224FF4A073214616F0F7FF784F6B
:1045600030464FF4784119F00DF83046BC22214610
:10457000F76118F0EBFF30467949FDF773FD72B62D
:10458000784D2B7F03F0FF0203B12C7762B63AB16E
:1045900072B647F6FF724FF40043EA832B8462B68B
:1045A000DFF8D491D9F82830002B40F09B819FEDA3
:1045B0006E8A6E496E48DFF8ACA19FED6E9AFEF7E9
:1045C0007FF8F0EE488A0A244FF000081BE072B62C
:1045D00047F6FF734FF40041B5F91E20EB83B5F9A0
:1045E0002030298462B69B1A07EE903AF8EEE77AFB
:1045F000D9F8283087EE897A38EE078AC3B94FF0A8
:104600000108013C1AD04FF4FA7019F081FC72B61F
:104610002B7F03F0FF0213B100238AF81C3062B62F
:10462000002AD4D1D9F828304FF00108002BE6D069
:1046300051480CF01DFC78EE808AE2E7DFED4F7AFE
:1046400068EEA78A28EE278AB8F1000F00F03481BF
:104650004B4947484B4DFEF733F808214A481AF0BA
:104660002FFF18EE100A20F0F5FD41EC100B07218A
:104670003F48FEF773FB082144481AF021FF18EE6B
:10468000900A20F0E7FD41EC100B07213848FEF7B7
:1046900065FBDFED3F7ADFED3F6A68EEA78AB7EE94
:1046A000006AC8EE887AB0EE007A77EEC67A27EE16
:1046B000A68AF0EEC87AF4EEC77AF1EE10FA00F3AB
:1046C0001581DFF8E890344BDFF8D480C9F800306A
:1046D00041F63D03314C18F803200021216022B13E
:1046E000002208F80320FDF7FDFF4FF4167019F0C3
:1046F0000FFC41F63D03002118F8032021602849F2
:104700001AB10022CA54FDF7EDFF4FF4167019F0EC
:10471000FFFBDFF89CA0234B9FED238A00224FF084
:10472000000B1A80D04651E0F08DFF1F8C8EFF1FCA
:104730007C71FF1FC4F0FF1FE006030078CA02006F
:104740008C06030098CA0200C4CA0200ECCA020028
:1047500018CB02003CCB020048CA0200828EFF1F29
:10476000DCC80200FC11002000000000FCC80200B0
:10477000044AFF1F00FEFF4620120020CDCCCC3D96
:1047800040C902009039FF1F68C9020074C90200C5
:10479000FF0435400000C84200007AC46C71FF1F5E
:1047A0007C75FF1F0A8EFF1F00C079C4D8E4FF1F6D
:1047B000B98DFF1F9AF800300021012253B1002368
:1047C000C4F800B088F80030FDF78CFFD9ED007A0E
:1047D00021680022F4EEC87AF1EE10FAEAD4002A39
:1047E00040F0978017214C481AF06AFED9F8000073
:1047F00020F030FD41EC100B03214848FEF7AEFAE3
:1048000099ED007ADFED467A464877EEC77A1421B3
:10481000C5ED857A1AF054FED5F8140220F01AFD81
:1048200041EC100B03213D48FEF798FAD5ED857A4F
:10483000B0EE047AF4EEC77AF1EE10FA06D4B1EED7
:104840000E7AF4EEC77AF1EE10FA03DD36493348FA
:10485000FDF736FF4FF000080C23BB2241460093C2
:104860003248CDF804804FF4A07316F06FFE4FF677
:10487000E0712E482E4C18F085FEF7614146BC22AF
:104880002A4818F063FE572304F5067685F80032AF
:1048900014F8011F601B19F041F9A642F8D125490F
:1048A0001E48FDF70DFF24492048FDF7DBFB03B050
:1048B000BDEC048BBDE8F08F9FED207A204D21499F
:1048C0001648C7EE287AC5ED847AFDF7CBFBD5F8FC
:1048D000100220F0BFFC41EC100B0B210F48FEF73B
:1048E0003DFABAE648460CF0C3FA60E616490B48B2
:1048F000FDF7B8FB18EE100A20F0ACFC41EC100BF1
:10490000022106481BF0C0FA10490448FDF7D8FE02
:10491000D7E6216066E700BFBCC90200044AFF1F5A
:104920009FABDFC0D4C90200ECC90200C4F0FF1F76
:104930008F39FF1F20CA020048CA0200D183903677
:104940009039FF1F28C9020080C90200B8C90200BF
:1049500070B5394D2B789A07044622D5374B1B8802
:10496000002B43D0364B86003344186820F072FC8D
:1049700041EC100B062133481BF086FA0121324826
:104980001AF09EFD314B1E44306820F063FC41EC70
:10499000100B06212B481BF077FA2A481BF018FA57
:1049A0002B78DB0746D5254B1B888BB3244BA40003
:1049B0002344186820F04EFC41EC100B06212448DB
:1049C0001BF062FA0121204819F0F4FD1F4B1C4432
:1049D000206820F03FFC41EC100B06211C481BF026
:1049E00053FA1B48BDE870401BF0F2B9194B860022
:1049F0003344186820F02EFC41EC100B06211148BE
:104A00001BF042FA012110481AF05AFD124BBAE786
:104A1000104BA4002344186820F01CFC41EC100B40
:104A200006210B481BF030FA0121074819F0C2FD9E
:104A3000094BCCE770BD00BF3030FF1FFCF0FF1FFB
:104A400050C5FF1F044AFF1F1CD5020044A9FF1FC9
:104A5000EC49FF1FB88FFF1F7C23002010B50A4CC4
:104A600023789A0708D4DB0700D410BD0421074837
:104A7000BDE8104019F09EBD042104481AF020FD45
:104A80001AF0D2FD2378EEE73030FF1F6CC0020031
:104A900038B5184C04F51C7594ED100B0821164818
:104AA0001BF0F2F9012115481AF00AFD94ED120BE2
:104AB000052111481BF0E8F9012110481AF000FD0A
:104AC00094ED140B08210C481BF0DEF901210B4872
:104AD0001AF0F6FC94ED160B052107481BF0D4F9EB
:104AE000303405481BF074F9AC42D5D1BDE83840EC
:104AF000FFF7B4BF2035FF1F044AFF1FB4C00200F8
:104B000038B564480BF0F8FC002866D021F02CFA88
:104B1000614C624B208001225E481A800BF0ECFC55
:104B200018B121F021FA5E4B18805A480BF0E4FCD2
:104B300000284FD021F018FA5A4D80B2288040B397
:104B4000574B24881B88584A07EE900A1B1BB8EE67
:104B5000677A07EE903AF7EE006AF8EEE77A37EEFA
:104B6000667A411EC7EE876A89B20131002307EEDB
:104B7000904AB8EEE77A98B207EE900AF8EE677AB4
:104B8000B0EE476AA7EEA66A01338B42A2EC016A37
:104B9000F1D1464B01225A82FBF78AFD444A454B2C
:104BA000D2ED007A44484549454A2C881C80B7EE2E
:104BB000007AF4EEC77A0023F1EE10FA03800B704E
:104BC000138035DD3F4B72B63F4A0021D361117629
:104BD00062B638BD334D2888B1E73C4C23789A073C
:104BE00036D4DB0703D4BDE83840FFF737BF2A4B84
:104BF000374819881BF040F90121364819F0DAFCD2
:104C000033481BF0E5F8264B314819881BF034F97E
:104C10000121304819F0CEFC2D481BF0D9F8214B6A
:104C20002B4819881BF028F9BDE83840FFF716BF5C
:104C3000BFEE007AF4EEC77AF1EE10FA27D49FEDBA
:104C4000267A67EE877AFDEEE77A17EE903ABAE7B2
:104C5000114B224819881BF00FF901211D481AF049
:104C60002FFC1E481BF0B4F80D4B1C4819881BF094
:104C700003F9012117481AF023FC18481BF0A8F883
:104C8000084B164819881BF0F7F82378A9E7144B4E
:104C900099E700BFB4F9FF1FD23CFF1F501200205C
:104CA0001835FF1FC43BFF1FF057FF1F9039FF1F30
:104CB0001435FF1F6855FF1FC23BFF1F8641FF1FB2
:104CC00008F1FF1F0000FF7F10E5FF1F3030FF1FBE
:104CD000EC49FF1F1CD5020000FEFF4E044AFF1FD7
:104CE00000000180FFF7BABEFFF7B8BE2DE9F04F14
:104CF0002DED048B584C83B00025A122B4F90C3063
:104D00000092204626222946019516F01FFC2046D7
:104D10004FF6E07118F036FC504B514A1B78E261B7
:104D2000002B00F08E80DFF85891DFF858814D4F4E
:104D3000DFED4D9AAA462B25B9F80040D8F800308F
:104D40005444A4B203EB441BDBE9020120F0CEFD86
:104D500008EE900ADBE9040120F0C8FD08EE100A15
:104D600068EE087A2EB2E8EEA87AB1EEE70AB4EE61
:104D7000400AF1EE10FA69D11CF034FFF0EE680A37
:104D8000B0EE409AB0EE480A1CF02AFF04EB44044F
:104D900007EB041432460A212F48B0EE408A18F07F
:104DA000D5FB206820F056FA41EC100B00212A4870
:104DB0001BF06AF803222D4927481AF0F3FF324608
:104DC0005F21254818F0C2FB0222294922481AF027
:104DD000E9FFF3EE047A69EE277A0AF1010A17EE89
:104DE000900A20F037FA41EC100B02211A481BF010
:104DF0004BF802221F4918481AF0D4FF3246BE2150
:104E0000154818F0A3FB03221B4913481AF0CAFFE8
:104E100068EE297A1FFA8AFA17EE900A20F01AFA39
:104E200041EC100B02210C481BF02EF80322134911
:104E300009481AF0B7FF1335BAF1070FADB27FF486
:104E40007BAF03B0BDEC048BBDE8F08FB0EE670A1A
:104E50001CF044FF90E700BFC4F0FF1F9057FF1FF6
:104E6000A80603002035FF1FE12E65426CCB02002F
:104E700070CB020074CB020078CB02007CCB020026
:104E80008441FF1F588EFF1FF0B5254C254FB4F904
:104E90000C30254E83B00025A122204629460092E1
:104EA00001958C2216F052FB20464FF6E07118F067
:104EB00069FB1E4BE36120468D22142118F046FB4E
:104EC000204608221A491AF06DFF3A8802EB420286
:104ED00006EB0212106820F0BDF941EC100B2946D8
:104EE00020461AF0D1FF0422204612491AF05AFF38
:104EF0003B88063303EB430306EB0313186820F0EB
:104F0000A9F941EC100B294620461AF0BDFF0A49C9
:104F10002046032203B0BDE8F0401AF043BF00BFB3
:104F2000C4F0FF1F8441FF1F2035FF1FA8060300A8
:104F300080CB02008CCB02006CCB0200C34B1B78F1
:104F400003B970472DE9F04FC14BC24C1F68DFF821
:104F50005CA3DFF85C83DFF85C932DED028B4601E8
:104F6000374485B00546D7E9020120F0BFFC08EEC2
:104F7000900AD7E9040120F0B9FCB74AB4F90C3023
:104F80001268324492ED047B4FF0920E0021D2E978
:104F9000026708EE100ACDF800E0262220460191B3
:104FA0008DED027B16F0D2FA20464FF6E07118F034
:104FB000E9FA204626221421C4F81CA018F0C6FAEB
:104FC00020464322142118F0C1FA0A22A3492046A0
:104FD0001AF0E8FEB0EE680AA148FEF7D1FD83465C
:104FE00022F04EF85946024620461AF0DBFE042213
:104FF0009C4920461AF0D6FEB0EE480A9848FEF7C3
:10500000BFFD834622F03CF8AD00024659462046DB
:105010001AF0C8FE08EB050B204655221E21C4F8E5
:105020001C9018F093FA9BED007AF7EE007AB4EE3C
:10503000E77AF1EE10FA40F3A980B5EEC08AF1EEFE
:1050400010FA00F1B981B5EEC08AF1EE10FAC0F2A3
:105050009F8085497F48FDF705F8844B84482B44A1
:1050600093ED000AFEF768FB01467A48FCF7FAFF69
:1050700080497848FCF7F6FF08EB0503D3ED007A8A
:105080009FED7D7AF4EEC77AF1EE10FA40F14A8195
:1050900017EE900A20F0DEF841EC100B01216D486C
:1050A0001AF0F2FE3946304620F020FC08EE900A55
:1050B000DDE9020120F01AFC4FF6E07108EE100A5B
:1050C000644818F05FFA812214216248C4F81CA0D9
:1050D00018F03CFA694B1B78002B00F0ED80684912
:1050E0005C48FCF7BFFFB0EE680A6648FEF748FD73
:1050F00001465848FCF7B6FF63495648FCF7B2FF33
:105100006048B0EE480AFEF73BFD01465148FCF707
:10511000A9FFC4F81C9097221E214E4808EB0504F5
:1051200018F014FA94ED007AF7EE007AB4EEE77A0C
:10513000F1EE10FA4FDDB5EEC08AF1EE10FA4BDB5E
:1051400052494448FCF78EFF514B52481D4495ED9F
:10515000000AFEF7F1FA01463E48FCF783FF454995
:105160003C48FCF77FFFD4ED007A9FED437AF4EEE4
:10517000C77AF1EE10FA00F1028147493548FCF791
:1051800071FF05B0BDEC028BBDE8F08F3FF75BAF60
:1051900042493048FCF766FFB0EE680A3048FEF737
:1051A000EFFC01462B48FCF75DFFB5EEC08AF1EE3F
:1051B00010FA40F3F3803A492648FCF753FF2B4B93
:1051C0002B482B4493ED000AFEF7B6FA014621481E
:1051D000FCF748FF66E705DDB5EEC08AF1EE10FA90
:1051E00000F1AF802D491B48FCF73CFFDFED2D7A25
:1051F000B0EEE87AB4EEE77AF1EE10FA40F38D8083
:10520000B7EE000A80EE280A1548FEF7B9FC014601
:105210001048FCF727FFB5EEC08AF1EE10FA00F156
:10522000C48021490B48FCF71DFF194B19481D4448
:1052300095ED000AFEF780FA01460648FCF712FFDA
:1052400005B0BDEC028BBDE8F08F00BF8941FF1FA8
:10525000CC8EFF1FC4F0FF1F68C2FF1F94CB02005B
:105260001030FF1FA0CB0200B8CB0200D88EFF1F6A
:10527000DC37FF1FA8CB0200333F1C46C58EFF1F43
:10528000C0CB02003C30FF1FCCCB02000CD202008E
:1052900054150020C037FF1FB0CB02009CCB02008A
:1052A000BCCB0200EA1C0802F4CB0200E0060300BB
:1052B0001C8EFF1F3C0C030053495448FCF7D2FEE0
:1052C000DFED537AB0EEE87AB4EEE77AF1EE10FA59
:1052D00032DDB7EE000A80EE280A4E48FEF750FC99
:1052E00001464A48FCF7BEFE4B494848FCF7BAFE67
:1052F000DFED477AB0EEC87AB4EEE77AF1EE10FA55
:1053000015DDB7EE000A80EE080A4248FEF738FCC9
:1053100001463E48FCF7A6FEFBE640493B48FCF749
:10532000A1FE78E73E493948FCF79CFEBAE63B49C6
:105330003648FCF797FEECE638493448FCF792FE15
:10534000D2E738493148FCF78DFE374B37482B44BC
:1053500093ED000AFEF7F0F901462C48FCF782FEB7
:10536000454433492948FCF77DFED5ED007A9FED91
:10537000317AF4EEC77AF1EE10FA7FF5FEAE17EE51
:10538000900A1FF067FF41EC100B2048012105B087
:10539000BDEC028BBDE8F04F1AF076BD26491B48E4
:1053A000FCF760FE254B26480BE726491748FCF71B
:1053B00059FE1D4B1D483AE723492046FCF752FE93
:1053C0001E4B1F482B4493ED000AFEF7B5F901462A
:1053D0002046FCF747FE16492046FCF743FEDBED6E
:1053E000007A9FED147AF4EEC77AF1EE10FA99D5AF
:1053F00017EE900A1FF02EFF41EC100B0121204602
:105400001AF042FD4EE600BFD4CB0200C4F0FF1FED
:105410007D1D90261030FF1FA0CB0200E0CB0200C4
:10542000B0CB0200B8CB020054150020DC37FF1FC0
:10543000A8CB0200333F1C468CC80200D88EFF1F49
:10544000C037FF1FECCB02000CD2020030B5154C68
:1054500083B000210E22B4F90C3001910546009270
:105460002046B922822116F071F820464FF4784187
:1054700018F088F80C4BE3612046B922822118F01D
:1054800065F8284621F0FCFD2946024620461AF020
:1054900089FC20464FF6E07103B0BDE8304018F0BB
:1054A00071B800BFC4F0FF1F0C3F03002DE9F04F9F
:1054B0002DED028B684C9FED698AB4F90C30DFF852
:1054C000C8B183B00025A12220462946009201954B
:1054D000262216F03BF820464FF6E07118F052F8FD
:1054E0005F4BE36129462046262218F02FF820461C
:1054F00022225C491AF056FC4FF03C0A61E017EE9C
:10550000900A1FF0A7FE41EC100B012152481AF03F
:10551000BBFC0222544950481AF044FC494640461C
:1055200020F0E4F900EE100A5048FEF729FB80460F
:1055300021F0A6FD4146024647481AF033FC0222FC
:10554000494945481AF02EFC3946304620F0CEF93C
:1055500000EE100A4548FEF713FB804621F090FD4F
:10556000414602463C481AF01DFC02223E493A4898
:105570001AF018FC002200233046394620F030F99A
:10558000002865D1304639460022002320F03CF93E
:1055900078B1374B374803EB840494ED000AFEF7EB
:1055A000CBF8044621F06CFD214602462A481AF049
:1055B000F9FB0135ADB20AF1140A072D1FFA8AFA78
:1055C00041D02D4B24481C88DBF800302C44A4B279
:1055D00003EB44130FFA8AF20021D3E90289D3E9DD
:1055E000046717F0B3FF254A04EB440302EB0313EF
:1055F000D3ED007AF4EEC87AF1EE10FA18D49FEDEC
:10560000207AF4EEC77AF1EE10FA3FF578AFB6EEF5
:10561000000A37EE800A1CF00FF810EE100A1FF097
:1056200019FE41EC100B00210B481AF02DFC70E71D
:1056300017EE900A1FF00EFE41EC100B02210648F7
:105640001AF022FC65E703B0BDEC028BBDE8F08FD9
:10565000074B0C489FE700BFC4F0FF1F0000C84283
:10566000A8060300FCCB0200F8C702001030FF1FA1
:10567000D88EFF1FDC37FF1FDE3CFF1F2035FF1FCA
:1056800000007A44C037FF1FCC8EFF1FFFFFFFFFD3
:105690002DE9F047AC4B1B6803EB4013D3E90267DD
:1056A0002DED048BD3E9044582B032463B46824659
:1056B000394630461FF022FE2246804689462B4658
:1056C000204629461FF01AFE02460B464046494630
:1056D0001FF062FC41EC100B1CF022FAB0EE409A75
:1056E000F0EE609A1CF092F90022984B51EC100BEE
:1056F0001FF004FE47EC116B45EC104B80468946C9
:105700001CF094F88EA3D3E9002351EC100B1FF08A
:10571000F5FD8F4B1B7841EC180B002B49D18D4DBB
:1057200095F8393003B38C4B1B78002B3BD00A2102
:105730008A4819F0C5FEB0EE490AF0EE690A082160
:1057400087481AF0A1FB87480A2119F0B9FEB0EE8C
:10575000480AF0EE680A032181481AF095FB0421FB
:10576000814819F0ADFE16E07B4B1B78002B40F012
:10577000BC8049EC108B082179481AF085FB012187
:105780007A4819F09DFEB0EE480AF0EE680A03214F
:1057900073481AF079FB724802B0BDEC048BBDE887
:1057A000F0471AF015BBB0EE490AF0EE690A08217D
:1057B000E2E76F4C00259222B4F90C3000922046AB
:1057C00026222946019515F0C1FE20464FF6FF71AD
:1057D00017F0D8FE674BE36120462622142117F00C
:1057E000B5FE20460C2264491AF0DCFA634B9FEDAB
:1057F000647A0AEB4A0A03EB0A1ADAED007AF4EE4D
:10580000C77AF1EE10FA00F188809FED5E7AF4EE2F
:10581000C77AF1EE10FA75D4B6EE000A37EE800AB8
:105820001BF00AFF10EE100A1FF014FD41EC100BE4
:10583000294620461AF028FB032253494C48454D7F
:105840001AF0B0FA3E221421494817F07FFE6B8A05
:10585000012B6DD00E224D4945481AF0A3FA56226D
:105860001421434817F072FE0F22494940481AF0AC
:1058700099FAB0EE490AF0EE690A05213C481AF09F
:1058800003FB042243493A481AF08CFA424BE36185
:10589000374878221E2117F059FE07223F49344825
:1058A0001AF080FA49EC108B032131481AF0ECFA17
:1058B00003223B492E481AF075FA9B221E212C48E0
:1058C00017F044FE0822374929481AF06BFAB0EE67
:1058D000480AF0EE680A022125481AF0D5FA042297
:1058E000214923481AF05EFA1AE70A211B4819F0E9
:1058F000E7FD032149EC108B19481AF0C5FA0D2178
:10590000294822E717EE900A1FF0A4FC41EC100B87
:10591000012120461AF0B8FA8EE717EE900A1FF020
:1059200099FC41EC100B022120461AF0ADFA83E7F6
:105930001E490F48FCF796FB91E700BFAFF30080CC
:1059400000000020DCA54C40588EFF1F00003440B2
:105950008941FF1F9039FF1F8839FF1F80CC02004B
:10596000044AFF1F68C8020078CC0200B4C00200DD
:10597000C4F0FF1FC406030020CC02002035FF1F27
:105980000000C84200007A446CCB020040CC020008
:1059900050CC020060CC02003C0C030058CC02004A
:1059A00068CC02006CCC020038C8020030CC020087
:1059B00070B5194C82B000251626B4F90C3001954B
:1059C0002A4620462946009615F0C0FD20464FF68F
:1059D000FF7117F0D7FD114BE3612A4620463C21A9
:1059E00017F0B4FD204615220D491AF0DBF90D4BD6
:1059F000187858B9FDF79AFA0B4B0748E3614FF650
:105A0000E07102B0BDE8704017F0BCBD4FF4FC601F
:105A1000FDF78CFAF0E700BFC4F0FF1FF82F03007A
:105A20008CCC0200A8F0FF1FE81F030010B5114C3A
:105A300082B000211022B4F90C300191204600926E
:105A4000162215F083FD20464FF6FF7117F09AFDE0
:105A500020461622052117F079FD2046112206491D
:105A60001AF0A0F920464FF6E07102B0BDE81040F0
:105A700017F088BDC4F0FF1FA4CC0200F0B53C4D68
:105A80003C4E83B00024C82328462246214600937A
:105A900001944FF4A07315F059FDFFF789FFFFF74C
:105AA000C5FF3549354B364A0C8028464FF6F77707
:105AB0004FF6E0719C61DC61178017F063FD2146B1
:105AC0002846EE61262217F041FD28461C222D496A
:105AD0001AF068F9214628463C2217F037FD2A4B78
